:020000040800F2
:10000000383801205D020008311E0008930E0008F8
:10001000151E0008B70800086F2500080000000042
:100020000000000000000000000000009D0100082A
:10003000F509000800000000F9010008A1220008ED
:1000400077020008770200087702000877020008AC
:10005000770200087702000877020008770200089C
:10006000770200087702000877020008770200088C
:10007000770200087702000877020008770200087C
:10008000770200087702000877020008770200086C
:10009000770200087702000877020008770200085C
:1000A000770200087702000877020008770200084C
:1000B0007702000877020008A123000877020008F1
:1000C000770200087702000877020008770200082C
:1000D000770200087702000877020008770200081C
:1000E000770200087702000877020008770200080C
:1000F00077020008770200087702000877020008FC
:1001000077020008770200087702000877020008EB
:100110007702000877020008AD2300084D2400088C
:1001200077020008770200087702000877020008CB
:1001300077020008770200087702000877020008BB
:1001400077020008770200087702000877020008AB
:10015000770200087702000877020008770200089B
:10016000770200087702000877020008770200088B
:1001700077020008770200087702000800000000FC
:100180007702000877020008DFF80CD000F056FB79
:1001900000480047F9100208383801202C4B196834
:1001A0000868B0E8F04F80F30988BFF36F8F4FF015
:1001B000000080F3118870470000000008480068C4
:1001C000006880F308884FF0000080F3148862B65E
:1001D00061B6BFF34F8FBFF36F8F00DF00BF00BF6B
:1001E00008ED00E0DFF80C00016841F470010160E7
:1001F000704700BF88ED00E0EFF30980BFF36F8F19
:10020000134B1A681EF0100F08BF20ED108A20E96A
:10021000F04F106009B44FF0500080F31188BFF325
:100220004F8FBFF36F8F25F013F94FF0000080F36D
:10023000118809BC19680868B0E8F04F1EF0100F6B
:1002400008BFB0EC108A80F30988BFF36F8F704746
:1002500010000020EFF3058070470000064880473B
:1002600006480047FEE7FEE7FEE7FEE7FEE7FEE79B
:10027000FEE7FEE7FEE7FEE791230008890100089C
:100280002DE9F05F0546002092469B4688460646CB
:10029000814640241BE0284641464746224600F05E
:1002A00036FA53465A46C01A914110D311461846A1
:1002B000224600F01DFA2D1A67EB01084F46224630
:1002C0000120002100F014FA17EB00094E41201E16
:1002D000A4F10104DFDC484631462A464346BDE826
:1002E000F09F10B5431A934209D28318881803E08F
:1002F00010F8011D03F8011D521EF9D210BD40EA8D
:1003000001039B0703D009E008C9121F08C0042A93
:10031000FAD203E011F8013B00F8013B521EF9D27A
:1003200010BDD2B201E000F8012B491EFBD270478C
:100330000022F6E710B513460A4604461946FFF7B1
:10034000F0FF204610BD421C10F8011B0029FBD114
:10035000801A704710B5002200E0521C835C8C5C50
:10036000A34201D1002BF8D1D8B2E1B2401A10BD9E
:10037000034611F8012B00F8012B002AF9D1184689
:1003800070472DE9FE4F804681EA0300C00F0C46FE
:10039000009021F0004123F00045B8EB0200A94194
:1003A00005D24046214690461C460B46024623F0A5
:1003B0000040104347D0270DC7F30A00C3F30A518A
:1003C0000290401A019040286BDAC3F3130040F406
:1003D000801B0098924620B10023D2EB030A63EB06
:1003E0000B0B01985946C0F14002504600F080F9CD
:1003F00006460D4650465946019A00F098F910EB12
:1004000008006141002487EA115284EAE7731A4325
:1004100040D0009A62B3019A012A4FEA075215DCD4
:10042000001B61EB02014FF0004202EA0752CDE9E6
:100430000042001C41F5801132462B4600F098F92D
:1004400003B0BDE8F08F40462146F9E7001B61EBA1
:100450000201001C41F5801300185B412018A2F531
:10046000001747EB030140EAD570B6196D4111E062
:100470006D084FEA360645EAC0754FEA0752001B81
:1004800061EB0201001C41F5801149084FEA300080
:100490000019514132462B4603B0BDE8F04F00F041
:1004A00058B90098012240000023D0EB020263EB10
:1004B000E073009821464FEAE074B8EB000061EB6E
:1004C0000401E9E783F000435BE781F0004158E76E
:1004D0002DE9FE4F81EA030404F0004421F00041BD
:1004E00000944FF0000B23F0004350EA01045ED06B
:1004F00052EA03045BD0C3F30A54C1F30A552C44F7
:10050000A4F2F3340194A0FB0254C1F3130141F4AB
:100510008011C3F3130343F4801301FB024400FB77
:10052000034E840A970A44EA815447EA8357A4FB9E
:10053000076802958D0A05FB07854FEA932C04FB9B
:100540000C542705029D4FEA065847EA1637B5EBCB
:1005500008056EEB070C870E920E47EA811742EAF8
:100560008312A7FB0201B6EB0B0164EB00042B0D19
:1005700043EA0C335E1844EB1C50DA465146E7FB65
:100580000201C5F313044FEA0B3343EA14534FEA55
:100590000432019C43EA0603A4F10C040294009C7B
:1005A000CDE900B400F0E4F803B0BDE8F08F00201E
:1005B0000146F9E72DE9F04D81EA030404F0004B10
:1005C00021F0004514464FF0000A23F0004150EAA4
:1005D000050220D054EA01021DD0C5F30A57024695
:1005E000C5F31303C1F31300C1F30A5640F4801599
:1005F00043F48013A7EB0608101BD64608F2FD381B
:1006000073EB050002D308F1010801E092185B4189
:10061000B8F1000F03DA00200146BDE8F08D00209C
:100620004FF48011064684460EE0171B73EB050756
:1006300005D3121B63EB050306434CEA010C490882
:100640004FEA300092185B4150EA0107EDD152EABF
:10065000030012D082EA040083EA0501084305D0B2
:10066000101BAB4106D20122002306E000224FF00E
:10067000004302E06FF0010253101AEB06004CEB4E
:10068000085110EB0A0041EB0B01BDE8F04D00F002
:1006900060B8000030B5041E71F1000404DB4FF0B7
:1006A0000044404264EB0101141E73F1000405DBB9
:1006B0001C464FF00043524263EB0403994208BFCB
:1006C000904230BD30B50B46014600202022012467
:1006D00009E021FA02F59D4205D303FA02F5491B10
:1006E00004FA02F52844151EA2F10102F1DC30BD26
:1006F000202A04DB203A00FA02F1002070479140E2
:10070000C2F1200320FA03F3194390407047202AD6
:1007100004DB203A21FA02F00021704721FA02F3AB
:10072000D040C2F120029140084319467047202A68
:1007300006DBCB17203A41FA02F043EAE07306E009
:1007400041FA02F3D040C2F1200291400843194619
:10075000704710B5141E73F1000408DA401C41F113
:10076000000192185B411A4301D120F0010010BD35
:100770002DE9F04D92469B4611B1B1FA81F202E0AB
:10078000B0FA80F220329046FFF7B2FF04460F46DF
:1007900040EA0A0041EA0B0153465A46084313D087
:1007A000114653EA010019D0C8F140025046FFF744
:1007B000AEFF05460E46504659464246FFF798FFA3
:1007C000084305D0012004E020463946BDE8F08DFD
:1007D0000020054346EAE0762C4337430A98630538
:1007E000E40AA0EB08000022FD0A44EA47540A305C
:1007F00002D500200146E9E7010510196941DDE94C
:10080000084500196941BDE8F04DA2E7C1F30A525D
:10081000C1F3130140F2FF3341F480119A4202DA2E
:1008200000200146704740F233439A42A2F233421D
:1008300002DC5242FFF76BBFFFF75ABF064C074D71
:1008400006E0E06840F0010394E8070098471034A0
:10085000AC42F6D3FFF79CFCCCD60208ECD60208DB
:1008600070B58C1810F8015B15F0070301D110F872
:10087000013B2A1106D110F8012B03E010F8016B9F
:1008800001F8016B5B1EF9D12B0705D40023521E22
:100890000DD401F8013BFAE710F8013BCB1A921C8A
:1008A00003E013F8015B01F8015B521EF9D5A14288
:1008B000D8D3002070BDFEE730B587B01821684658
:1008C000FFF736FD0E48016841F002010160006843
:1008D000002100F002004FF4807406900391009410
:1008E00001200221CDE90101064D04906946284608
:1008F00000F062FFAC61044800F0CCFA07B030BDF4
:10090000303802400004024054000020022000F071
:1009100027B800001CB501A800900423032215216C
:100920000E4800F0BFFB9DF804109DF8050001F093
:100930000F0140EA01229DF807009DF806300749A3
:1009400003F00F030F3040EA03200839A0F217101C
:10095000C2F1EF024042C1E900201CBD540000205A
:1009600002461521014800F0E1BB000054000020C0
:1009700070B5074C4FF480752804A0610A2005F07B
:10098000E3FEA561BDE87040642005F0DDBE000017
:1009900000040240144808B5016841F48001016078
:1009A000006800F48000009010480068C0F3022046
:1009B000C0F10701042900D90421021D072A01D230
:1009C000002000E0C01E01228A40521E02F00501F4
:1009D00081400801064981F8000405494FF0006094
:1009E0003739C1F8000108BD303802400CED00E095
:1009F0003BE000E070470000024881680278114443
:100A000081607047000000200B4810B5016841F478
:100A100000710160016841F480610160016841F486
:100A200080710160032000F09FF80F2000F006F8AD
:100A300000F050F8002010BD003C024030B50546E3
:100A40001F4887B00024016841F00401016000687C
:100A500006A900F00400009001A800F097F804989F
:100A6000A8B100F0B3F840001649174AB0FBF1F105
:100A70001648491E026040F2E732C0E90324C0E98B
:100A80000114846100F0B4F8040003D015E000F014
:100A90009DF8E9E70D4800F015F904000DD11E207E
:100AA00000F034F8102D07D2002229461E2000F055
:100AB0003BF80748056000E0012407B0204630BD40
:100AC0004038024040420F00000800405C02002015
:100AD000040000200C4882B0016841F480410160AC
:100AE000006800F4804000900748001F016841F052
:100AF000805101600068002200F0805000900F21BA
:100B0000901E02B000F010B844380240002809DB03
:100B100000F01F02012191404009800000F1E02017
:100B2000C0F8001170470000F0B40E4B1B680C4673
:100B3000C3F30223C3F10705042D00D90425191DB1
:100B4000072901D2002300E0DB1E012606FA05F189
:100B5000491E214099409E40761E16403143F0BC0C
:100B600001F033BD0CED00E0064900F00702086813
:100B70004FF6FF03184040EA0220034A1043086082
:100B8000704700000CED00E00000FA050F22026043
:100B90000C4A136803F003034360136803F0F00387
:100BA0008360136803F4E053C36012684FF4E053AA
:100BB00003EAD20202610448006800F007000860FE
:100BC0007047000008380240003C024004480549D4
:100BD00000680968044AC1F38221515CC84070472B
:100BE0000C00002008380240825702087047704706
:100BF00010B5040003D094F83D0010B107E00120C7
:100C000010BD002084F83C00204600F01EF80220B1
:100C100084F83D00211D206801F03AFC012084F891
:100C2000460084F83E0084F83F0084F8400084F8D1
:100C3000410084F8420084F8430084F8440084F8BA
:100C4000450084F83D00002010BD704790F83D102D
:100C5000012901D001207047022180F83D10006871
:100C60001149884214D0B0F1804F11D00F49884209
:100C70000ED00F4988420BD00E49884208D00E4949
:100C8000884205D00D49884202D00D49884204D1DE
:100C9000816801F00701062903D0016841F00101D4
:100CA0000160002070470000000001400004004087
:100CB00000080040000C00400004014000400140DA
:100CC0000018004090F83D10012901D00120704724
:100CD000022180F83D100168CA6842F00102CA6032
:100CE00000681149884214D0B0F1804F11D00F49EB
:100CF00088420ED00E4988420BD00E49884208D057
:100D00000D49884205D00D49884202D00C498842DD
:100D100004D1816801F00701062903D0016841F080
:100D20000101016000207047000001400004004004
:100D300000080040000C0040000401400040014059
:100D40000018004070472DE9F04104460068C6686D
:100D500005694FF00007A90713D5B10711D5F91E92
:100D6000016101202077206880698007204602D039
:100D7000FFF7E8FF04E000F07EF8204600F07CF882
:100D80002777680716D5700714D521686FF004001F
:100D90000861022020772068806910F4407F204697
:100DA00002D0FFF7CFFF04E000F065F8204600F026
:100DB00063F82777280715D5300713D521686FF01A
:100DC00008000861042020772068C0698007204659
:100DD00002D0FFF7B7FF04E000F04DF8204600F026
:100DE0004BF82777E80616D5F00614D521686FF082
:100DF00010000861082020772068C06910F4407F47
:100E0000204602D0FFF79EFF04E000F034F82046B1
:100E100000F032F82777E80708D0F00706D02168FD
:100E20006FF001000861204600F028F8280608D578
:100E3000300606D521686FF0800008612046FFF774
:100E4000D5FE680608D5700606D521686FF040000B
:100E50000861204600F01CF8A8060AD5B00608D59F
:100E600021686FF0200008612046BDE8F041FFF7DF
:100E7000BEBEBDE8F08170477047000000680349BE
:100E8000884201D1FFF7B8BD70470000000800405C
:100E90007047FEE710B586B0044618216846FFF794
:100EA00047FA20890121CDE900010020CDE90301A5
:100EB000022002906946206800F07EFC6089009064
:100EC0006946606800F078FC06B010BD70B5064653
:100ED0000824002501F0B7F813E06806050E00218C
:100EE000304601F09FF8022005F03CFC012130461D
:100EF00001F098F8012005F035FC304601F09AF831
:100F00000543641EE4B2E8D20021304601F08AF8BD
:100F1000304601F0B5F8284670BD10B504460021F2
:100F200001F0A6F8012005F01DFC0121204601F08A
:100F300079F8012005F016FC0021204601F072F836
:100F4000BDE81040012005F00DBC000070B50C4656
:100F50000646082519E000BF01F064F8022005F0FC
:100F600001FC04F08001304601F082F8012005F018
:100F7000F9FB6006040E012005F0F4FB0121304668
:100F800001F050F8012005F0EDFB6D1EEDB24FF0C1
:100F900000013046E0D201F045F8BDE87040022083
:100FA00005F0E0BB10B50446012101F061F8012015
:100FB00005F0D8FB0121204601F034F8012005F0AE
:100FC000D1FB0021204601F02DF8BDE810400220A1
:100FD00005F0C8BB10B50446012101F049F8022014
:100FE00005F0C0FB0121204601F01CF8012005F0AE
:100FF000B9FB0021204601F03BF8012005F0B2FBCF
:101000000021204601F00EF8BDE81040012005F057
:10101000A9BB10B50446002101F004F8022005F038
:10102000A1FB0021204601F023F8012005F09AFBE6
:101030000121204600F0F6FF012005F093FB01217D
:10104000204601F015F8BDE81040012005F08ABBEC
:1010500070B50546052400F0F6FF0121284600F092
:10106000E1FF05E0641EA4B2012005F07BFB84B122
:10107000284600F0DFFF0028F4D1284601F000F8F0
:101080000021284600F0CEFF022005F06BFB002077
:1010900070BD284600F0F4FF2846FFF7BAFF012094
:1010A00070BD00002DE9F0411D4617460C468046F4
:1010B000069EFFF78FFF6006010E4046FFF746FFD2
:1010C0004046FFF7C5FF28B14046FFF7A2FF0120C9
:1010D000BDE8F08139464046FFF738FF4046FFF74C
:1010E000B7FF4046FFF776FF012000EB4400C1B296
:1010F0004046FFF72BFF4046FFF7AAFF00246F1E74
:101100000AE000BFFFF7E2FE3055BC4202DA40467B
:10111000FFF703FF641CE4B2AC424046F2D3FFF792
:1011200041FF4046FFF775FF0020D1E770B5164636
:101130000C460546FFF74EFF6006010E2846FFF7F6
:1011400005FF2846FFF784FF31462846FFF7FEFEDD
:101150002846FFF77DFF2846FFF73CFF012000EB04
:101160004400C1B22846FFF7F1FE2846FFF770FFA2
:101170002846FFF7ABFE04462846FFF713FF284634
:10118000FFF747FF204670BD30B587B0182168468D
:10119000FFF7CEF8012000F09BFA01240025CDE9ED
:1011A000004569460848049400F006FB082000F05A
:1011B0008FFAAA20CDE9000569460494034800F09F
:1011C000FBFA07B030BD000000000240000C0240F6
:1011D0002DE9F04104461D4616460F462A2000F030
:1011E00035FA204600F023FA304600F020FA2B2092
:1011F00000F02CFA384600F01AFA284600F017FAE8
:10120000BDE8F0412C2000F021BA70B55E1A141A26
:10121000641C761CA4B2B6B21433143174439BB26E
:1012200089B2049DFFF7D4FF4FF4006000F0CEFFB9
:101230002146284601F004F8BDE87040002000F087
:10124000C5BF10B514460B460246FFF7C1FF204646
:10125000BDE8104000F0EBB92DE9F04780461F468D
:1012600003F1130083B21646501E82B20C4601F100
:10127000140081B24046DDF82090FFF7A9FF0AE094
:10128000454604E0484600F0D2F96D1CADB2B542C7
:10129000F8D3641CA4B2BC42F2D3BDE8F0870000CE
:1012A0002DE9F04188B018216846FFF741F81F4842
:1012B000016841F01001016000681D4C00F0100051
:1012C00006904FF48020A0614FF0040801AA012588
:1012D00003260027CDF8008082E8E000694620461A
:1012E00000F06AFAC4F81880E804A0614FF008081A
:1012F00001AACDF8008082E8E0006946204600F0AF
:101300005BFAC4F818802805A0614FF0100801AA04
:10131000CDF8008082E8E0006946204600F04CFAF3
:10132000C4F8188008B0BDE8F081000030380240F1
:101330000010024010B5FFF72DFB00F0B7FE00F0E3
:1013400091FDFFF7ADFF642005F0FEF9654C10211B
:10135000204600F060FD0421204600F05CFD642082
:1013600005F0F2F90421204600F05CFD642005F050
:10137000EBF9112000F06AF9782005F0E5F9362044
:1013800000F064F9C02000F047FF3A2000F05EF959
:10139000052000F041FFB22000F058F90C2000F0C9
:1013A0003BFF0C2000F038FF002000F035FF332019
:1013B00000F032FF332000F02FFFB72000F046F995
:1013C000352000F029FFBB2000F040F9192000F083
:1013D00023FFC02000F03AF92C2000F01DFFC220AE
:1013E00000F034F9012000F017FFC32000F02EF9BF
:1013F000122000F011FFC42000F028F9202000F096
:101400000BFFC62000F022F90F2000F005FFD020CE
:1014100000F01CF9A42000F0FFFEA12000F0FCFE6B
:10142000E02000F013F9D02000F0F6FE042000F0D8
:10143000F3FE0D2000F0F0FE112000F0EDFE132071
:1014400000F0EAFE2B2000F0E7FE3F2000F0E4FE73
:10145000542000F0E1FE4C2000F0DEFE182000F0E9
:10146000DBFE0D2000F0D8FE0B2000F0D5FE1F2083
:1014700000F0D2FE232000F0CFFEE12000F0E6F8DD
:10148000D02000F0C9FE042000F0C6FE0C2000F0C1
:10149000C3FE112000F0C0FE132000F0BDFE2C2082
:1014A00000F0BAFE3F2000F0B7FE442000F0B4FE8A
:1014B000512000F0B1FE2F2000F0AEFE1F2000F002
:1014C000ABFE1F2000F0A8FE202000F0A5FE232088
:1014D00000F0A2FE212000F0B9F8BDE8104029205C
:1014E00000F0B4B8001002402DE9FF4F81B004466F
:1014F000DDF83C9000904FEA59074FF0000878075C
:1015000000D0012000EBD70000FB09FB203AD0B24D
:101510000390029802994844401E83B2E019401E8D
:1015200082B22046FFF754FE002553E0B9F10C0FBC
:101530002AD0B9F1100F2ED0B9F1180F2ED0B9F171
:10154000200F49D12749039801EB8010002610F89D
:1015500005A0109800284FF0010000FA06F000EAFC
:101560000A0022D020B12046049A0299FFF769FEB2
:10157000641C0098A4B2201AB84225D10298009C9D
:10158000401C80B2029023E00398174900EB400012
:1015900001EB8000DAE71549039803E0039814494A
:1015A00000EB400001EB0010D0E708B1049800E028
:1015B0000E9800F03CF808F10100C0B2B0FBF7F162
:1015C000804607FB118050B1761CF6B2082EC0D3BE
:1015D0006D1CADB25D45A9D305B0BDE8F08F4FF0ED
:1015E0000008F5E7BE7302088A570208FE5B02088E
:1015F000EE6102082DE9FE4F9946DDE90D671446BC
:101600008A460546DDF830800CE0CDF800804B4678
:1016100051462846CDE90167FFF766FF05EB560006
:1016200085B2641C2278002AEFD1BDE8FE8F10B588
:1016300004464FF4006000F0C9FD204600F0D8FDDC
:10164000BDE81040002000F0C1BD000010B5074CFF
:1016500003460821204600F0DEFB184600F0DCFDC2
:101660002046BDE81040082100F0DCBB001002401D
:1016700000B587B018216846FEF75AFE0C4801688D
:1016800041F00401016000684FF4005100F00400D3
:10169000069008480A048261009101210022CDE9E8
:1016A0000112CDE90321694600F086F807B000BDBC
:1016B0003038024000080240044908B50A68024375
:1016C0000A6009680140009108BD000030380240FE
:1016D000044908B50A6802430A600968014000919C
:1016E00008BD000030380240044908B50A680243CA
:1016F0000A6009680140009108BD000040380240BE
:10170000034A515C425822F00102425070470000E7
:101710006A570208034A515C425842F001024250A3
:10172000704700006A570208044B001D595C0B58B3
:101730006FF30F0313430B50704700006A57020802
:10174000034B595C435823F4806313434350704761
:101750006A570208034B595C435823F4C0431343B0
:10176000435070476A570208034B595C435823F4AF
:1017700090731343435070476A570208034B595CF8
:10178000435823F400731343435070476A570208C9
:10179000034B595C435823F4C053134343507047E1
:1017A0006A570208034B595C435823F440331343F0
:1017B000435070476A570208F0B50A680F2692FA3C
:1017C000A2F2B2FA82F303248AE001279F4015EACD
:1017D00007027DD04D68012D01D0022D1BD18D68EF
:1017E000876892FAA2FCBCFA8CFC4FEA4C0C04FA13
:1017F0000CFC27EA0C0792FAA2FCBCFA8CFC4FEA1C
:101800004C0C05FA0CF52F438760CD6847685543AB
:1018100097432F4347600F69D0F80CC092FAA2F5A6
:10182000B5FA85F54FEA450E04FA0EF52CEA050CDB
:1018300092FAA2F5B5FA85F56D00AF404CEA070CB7
:10184000C0F80CC04D68022D33D192FAA2F5B5FA5A
:1018500085F5082D15D2D1F814C0056A92FAA2F7C1
:10186000B7FA87F7BF0006FA07F7BD4392FAA2F767
:10187000B7FA87F7BF000CFA07FC45EA0C050562CA
:1018800017E0D1F814E0476A150A95FAA5FCBCFAEE
:101890008CFC4FEA8C0C06FA0CFC95FAA5F5B5FA0F
:1018A00085F5AD0027EA0C070EFA05FE47EA0E079C
:1018B00047624D68076892FAA2FCBCFA8CFC4FEABA
:1018C0004C0C04FA0CFE27EA0E0792FAA2F200E092
:1018D00005E0B2FA82F2520095402F4307605B1C8C
:1018E0000A681546DA407FF470AF0020F0BD10B5ED
:1018F000044600F059FB206000F02CFB606000F013
:1019000037FBA060606800F041FBE06010BD10B5DF
:1019100003680122C3F380132BBBD1E900231A43D0
:10192000D1E9023423431A430B691A434B691A4322
:101930008B691A43CB691A430B6A1A4303684FF643
:10194000BF74A3431A43026042684B6922F0040249
:1019500042EA134242600A6AB2F5005F02D1898C02
:1019600089B201610022C16921F40061C1611046A0
:1019700010BD000001490860704700000C00002005
:10198000F0B50268254B264D264E274F274C4FF0C9
:10199000804C984209D0604507D0A84205D0B0429B
:1019A00003D0B84201D0A04205D1D1F804E022F022
:1019B000700242EA0E0298421BD0604519D0A8423C
:1019C00017D0B04215D0B84213D0A04211D0184D54
:1019D000A8420ED0174DA8420BD0174DA84208D0F0
:1019E000164DA84205D0164DA84202D0154DA8426A
:1019F00003D1CD6822F440722A4302608A68C26231
:101A00000A888262984201D0A04201D1096901632B
:101A1000416941F0010141610020F0BD0000014039
:101A20000004004000080040000C00400004014099
:101A300000400140004401400048014000180040BF
:101A4000001C004000200040F0B5012600236E4C31
:101A50006E4D012908D010293BD0B1F5807F73D09D
:101A6000B1F5805F6ED1A6E0016A21F0010101624B
:101A7000016A46688769D2F800C027F0730747EA11
:101A80000C07D2F810C021F0020141EA0C01D2F893
:101A900004C021F0010141EA0C01A04201D0A8429A
:101AA00012D1546921F0080141EA8401946821F0BF
:101AB000040141EA8401956926F480742C43D569B8
:101AC00024F4007444EA450646608761D2684263A4
:101AD0006FE0016A21F010010162066A41688769BE
:101AE000D2F800C027F4E64747EA0C27D2F810C026
:101AF00026F0200646EA0C16D2F804C026F010069E
:101B000046EA0C16A04201D0A84213D1556926F02E
:101B1000800444EA8514956824F0400444EA85165C
:101B2000946921F4806141EA8401D46921F400615F
:101B300041EAC40141608761D168816361E003E0EB
:101B400000E01E463046F0BD016A21F4807101625A
:101B5000016A4668C769D2F800C027F0730747EAF0
:101B60000C07D2F810C021F4007141EA0C21D2F820
:101B700004C021F4807141EA0C21A04201D0A842A6
:101B800013D1546921F4006141EA8421946821F45D
:101B9000806141EA8421956926F4805444EA051461
:101BA000D56924F4005444EA45164660C761D268FA
:101BB000C2630162C5E7016A21F480510162066ACD
:101BC0004168C769D2F800C027F4E64747EA0C2706
:101BD000D2F810C026F4005646EA0C36D2F804C0FB
:101BE00026F4805646EA0C36A04201D0A84204D121
:101BF000946921F4804141EA84114160C761D16850
:101C0000016406629DE700000000014000040140FD
:101C10007FB50446C0680D460126C0F34030C0BB06
:101C2000E9686868AA690843296911430843E168BB
:101C300049F20C6291430843E060A868216921F4ED
:101C40004051014321616869616921F44071014398
:101C500061616846FFF74BFE0F48844208D00F4889
:101C600084420DD00E4884420AD00E48844201D1ED
:101C7000039906E00C48844202D00C48844208D103
:101C8000029931B12B6823B100262046AA6900F0E1
:101C90000FF804B0304670BD001001400044004011
:101CA0000048004000140140004C0040005000403B
:101CB0002DE9F04106461920A1FB00011F46002333
:101CC00064243225B2F5004F27D0BB0FBA00FEF7CF
:101CD000D7FA0146B0FBF4F06FF01802504301EB65
:101CE000800005EB0010B0FBF4F000F0F002B1FB57
:101CF000F4F002EB0012B1FBF4F06FF0180358435C
:101D000001EB800005EB0010B0FBF4F000F00F00D9
:101D1000104480B2B060BDE8F081FA195B41FEF773
:101D2000AFFA0146B0FBF4F00201B1FBF4F06FF042
:101D30001803584301EB800005EBC000B0FBF4F042
:101D400000F0F80002EB4002B1FBF4F0584301EB65
:101D5000800005EBC000B0FBF4F000F00700D7E70F
:101D600010B58020FFF7A8FCBDE810400120FFF768
:101D7000A3BC000010B58EB01C216846FEF7D8FA4F
:101D8000182107A8FEF7D4FA1F48016841F0100196
:101D90000160006800F010000D901B4814380168C5
:101DA00041F0010101600068002400F001000D9085
:101DB0004FF4C0600790022008900320CDE9090489
:101DC0000720CDE90B4007A91048FFF7F5FC4FF4B9
:101DD000E130CDE900040C200294CDE903400594E4
:101DE00006940B4C69462046FFF712FF206920F449
:101DF00090402061606920F02A006061E06840F452
:101E00000050E0600EB010BD4438024000000240B7
:101E100000100140FEE70A048261426931EA0202D1
:101E2000FBD070478161426931EA0202FBD1704701
:101E3000FEE730B500F00703C3F10704042C00D916
:101E40000424181D072801D2002300E0DB1E012511
:101E500005FA04F0401E084098409D406D1E154054
:101E6000284330BDF0B595B0142110A8FEF760FAF4
:101E7000202101A8FEF75CFA182109A8FEF758FAFC
:101E80003048016841F0020101600068002500F05F
:101E900002000090ADF840504FF6FF70CDE91150B0
:101EA000294C10A920461395FFF76AFD206820F001
:101EB000800020602548A1150279234818301618A3
:101EC0003068224F0822FF1D3B799A401043306052
:101ED0006020CDE901050395049501AA20460595EA
:101EE000FFF7B2FD30683A790421914088433060B1
:101EF000606820F070006060A06820F08000A06042
:101F000010481038016841F00201016000680C952A
:101F100000F002000090012009900220CDE90A059E
:101F2000CDE90D5009A90A48FFF746FC206840F0AA
:101F300001002060206A40F480702062E56315B0E3
:101F4000F0BD000040380240000400405C57020829
:101F50000004024004490968044A01F0F00109093B
:101F6000515CC840704700000838024072570208B0
:101F700004490968044A01F4E05102EB912109780F
:101F8000C84070470838024082570208044909686F
:101F9000044A01F4604102EB51310978C8407047AE
:101FA00008380240825702080748006810F00C0108
:101FB000064807D0042904D0082903D1082000F0DE
:101FC00009B8034870470000083802400024F400B4
:101FD00040787D0110B5104A04460020116811F4C4
:101FE00080030E4903D0B3F5800F00D10C49082CB3
:101FF00011D1106800F03F00B1FBF0F01168C1F39F
:10200000881148431168012201F4403102EB11416B
:102010004900B0FBF1F010BD043802400024F40088
:1020200040787D014289406809B18261704711049E
:1020300081617047016800890969884301D00020E7
:1020400070470120704710B586B0044618216846D5
:10205000FEF76EF920890090002001900120049085
:102060000220029069462068FFF7A6FB06B010BD6B
:102070000289006809B1826170471104816170476B
:1020800010B586B0044618216846FEF751F920893C
:102090000090012001900390002004900220029003
:1020A00069462068FFF788FB06B010BDF0B591B017
:1020B00028216846FEF73CF918210AA8FEF738F9EE
:1020C0003D48016841F480510160006800F480508F
:1020D000109039481438016841F00101016000682E
:1020E000022700F001001090A020CDE90A0703208C
:1020F0000024CDE90C040520CDE90E400AA92F48A3
:10210000FFF75AFB2F4D2E4EE8783058E97820F033
:10211000606040F0C0607050E8783058E97820F096
:10212000C00040F040007050002203213046FFF70D
:1021300039FB002203213046FFF716FB0022032162
:102140003046FFF71BFB321503213046FFF7F8FA44
:10215000F21403213046FFF71BFB3A0303213046FC
:10216000FFF7F8FA1648E97814300958EA7821F0B0
:10217000040111504FF48270CDE900400120029417
:10218000CDE903704002CDE905040A20CDE90840FD
:1021900007940D4C69462046FFF7B9FB606820F0B4
:1021A00010006060606840F002006060206840F0ED
:1021B0004000206011B0F0BD4438024000000240F1
:1021C000006402406A5702080030014007490A686B
:1021D00022F040020A600A6822F4006202430A60A8
:1021E000086840F04000086070470000003001407F
:1021F00008498A68C2F34002002AFAD0C860886899
:10220000C0F340000028FAD08868C0F3C01000284E
:10221000FAD170470030014008498A68C2F3400291
:10222000002AFAD008738868C0F340000028FAD06A
:102230008868C0F3C0100028FAD170470030014010
:102240002DE9F041134C144D0F460646E87820580E
:1022500010F0010FFAD14FF00060A060032120467A
:10226000FFF74EFA0B4AE97808320C488850E978B3
:10227000101D0E503A4603212046FFF755FA032160
:102280002046FFF747FAE878205810F0010FFAD1FE
:10229000BDE8F081006402406A5702080C3001403A
:1022A00010B54FF0E020006923F0C2F9012803D0F7
:1022B000BDE8104023F0A6B910BD000070B52E484F
:1022C000016821F0070141F005010160016801F09A
:1022D00007010529FAD12949086840F480400860BF
:1022E0002748026842F4803202600268C2F340422A
:1022F000002AFAD0224A234B121D1468224D2C408A
:1023000023431360136823F440331360026842F0E0
:10231000807202600268C2F34062002AFAD0486804
:10232000C0F380300028FAD015480830016821F049
:10233000F0010160016821F4E05141F4A051016015
:10234000016821F4604141F400410160016821F01D
:10235000030141F002010160016801F00C0108294C
:10236000FAD10A48FFF706FB0F20FEF767FB0028AB
:1023700001D072B6FEE770BD003C02400070004024
:1023800000380240195440000080BFFF007A030A61
:102390000248016841F470010160704788ED00E077
:1023A0000148FEF7D0BC00005C02002010B5064CCE
:1023B000206910F0010F05D001201EF087F96FF0A1
:1023C0000100206110BD00000010004010B586B073
:1023D00014216846FDF7ACFF1020FFF785F9194876
:1023E00000680022C0F302200621FFF722FD01460B
:1023F000362000F0DAF8362000F0CAF842F2CF00BA
:10240000ADF800000020019009200F4C02906946B1
:102410002046FFF7B5FA206820F080002060606851
:1024200020F070006060A06820F08000A060E0688C
:1024300040F00100E060206840F00100206006B03C
:1024400010BD00000CED00E00010004010B5064C7F
:10245000206910F0010F05D004A000F089F86FF09A
:102460000100206110BD00000014004054494D37A8
:10247000E6ADA3E59CA8E8BF90E8A18C2CE4BC984D
:10248000E58588E7BAA7E4B8BA3A340D0A00000037
:10249000F0B50268294C2A4D2A4E2B4F2B4B4FF09A
:1024A000804CA04209D0604507D0A84205D0B04278
:1024B00003D0B84201D0984204D122F0700E4A688D
:1024C00042EA0E02A0421BD0604519D0A84217D0A4
:1024D000B04215D0B84213D0984211D01C4DA8423A
:1024E0000ED01C4DA8420BD01B4DA84208D01B4D4E
:1024F000A84205D01A4DA84202D01A4DA84203D1D5
:1025000022F44075CA682A434D6922F080022A43AA
:1025100002608A68C2620A688262A04201D0984260
:1025200001D109690163012141610169C90703D032
:10253000016921F001010161F0BD000000000140CE
:102540000004004000080040000C0040000401406E
:102550000040014000440140004801400018004094
:10256000001C00400020004001201EF0AFB8FEE734
:102570000FB4054B10B503A9044A029801F05CFEA4
:1025800010BC5DF814FB000021E400085802002094
:10259000002809DB00F01F02012191404009800062
:1025A00000F1E020C0F8001170470907090E00286B
:1025B00004DB00F1E02080F80014704700F00F0009
:1025C00000F1E02080F8141D70470907090E00286B
:1025D00004DB00F1E02080F80014704700F00F00E9
:1025E00000F1E02080F8141D704702E008C8121FB7
:1025F00008C1002AFAD170477047002001E001C1EC
:10260000121F002AFBD1704770B5044600256FF0F9
:102610002F0608E02068411C2160007805EB850149
:1026200006EB410145182068007800F0B7F8002853
:10263000F0D1284670BD00002DE9FF5FDDE90220E2
:10264000010DDDF838B0024318D044F61050A1F265
:10265000FF3141430D140F98012820D0A5EB0B004A
:10266000401C5FEA000A4FF00004474EDFF81C915F
:10267000A046504616D5CAF1000728E00F9801245D
:1026800043A2012808D0002100980F9BC0E9002137
:10269000C0E90243BDE8FF9F6FEA0B01F4E7CBF10D
:1026A0000000DEE7074612E0F80707D0224633466F
:1026B00040464946FDF70CFF804689462246334690
:1026C00010461946FDF704FF04460E467F10002F02
:1026D000EAD1DDE90201BAF1000F42464B4602DAC7
:1026E000FDF7F6FE01E0FDF765FF04460E46002209
:1026F000284BFDF7CFFF03D84FF0FF30014607E02E
:102700000022254B20463146FDF73BFEFEF77EF8C2
:10271000102409E0002C0ADB0A220023FDF7B0FD9B
:10272000019B30321A55641E50EA0102F2D1641C3A
:10273000019AC4F1110314440F9A012A03D0012213
:1027400008430DD10AE0084304D000204FF0110BDC
:102750000F9080E7A3EB0B056D1E0DE05B4504DDDC
:102760004FF0000205F1010504E003DA4FF000022A
:10277000A5F10105002AECD000980F99C0E90231BB
:10278000C0E9004586E70000000024400000F03F5B
:10279000300000000000F0430000E03F303809281E
:1027A00001D80120704700207047000010B540217B
:1027B000074801F081F800221E2106481DF0E0FFC5
:1027C000054CA06002F05CFC0020207010BD0000F1
:1027D0006C72002029510008DC01002070B5B1F9AD
:1027E0000030B2F90040A34200DC23460380B1F977
:1027F0000250B2F90240A54200DD2C464480B1F9F6
:102800000460B2F90450AE4200DA35468580B1F971
:102810000610B2F90620914200DB1146C18001206A
:10282000AB4201DC8C4200DD002070BDF8B50D46E6
:102830000446B0F90000B1F900101646884247DBA3
:10284000B4F90210B5F90220914241DBB4F9041049
:10285000B5F9042091423BDCB4F90610B5F9062025
:10286000914235DC96B3ADF800006088ADF8020007
:1028700032466946284600F099F8002827D0A088FB
:10288000ADF800006088ADF802003246694628467F
:1028900000F08CF800281AD02088ADF80000E088FD
:1028A000ADF8020032466946284600F07FF800285D
:1028B0000DD0A088ADF80000E088ADF802003246E7
:1028C0006946284600F072F8002800D00120F8BDC3
:1028D0000020F8BDB0F90020B1F904309A4213DCB1
:1028E000B0F90420B1F900309A420DDBB0F90220B2
:1028F000B1F906309A4207DCB0F90600B1F90210CE
:10290000884201DB0120704700207047F8B50D4672
:102910000446B0F90400B1F900101646884243DBC2
:10292000B4F90600B5F9021088423DDBB4F90000A5
:10293000B5F90410884237DCB4F90210B5F9062065
:10294000914231DC76B3ADF800006088ADF802004A
:1029500032466946284600F029F818BBA088ADF831
:1029600000006088ADF8020032466946284600F053
:102970001DF8B8B92088ADF80000E088ADF8020075
:1029800032466946284600F011F858B9A088ADF8DB
:102990000000E088ADF8020032466946284600F0A3
:1029A00005F808B10020F8BD0120F8BD2DE9FC4173
:1029B00014460E46B1F90020B0F9001005468A42CF
:1029C0003ADBB5F90400824236DCB6F90270B5F99B
:1029D0000220974230DBB5F906309F422CDC002CF8
:1029E00075DD401A9A1A401C521C00B212B200EB5C
:1029F000D07002EBD27240105210904200DB1046B1
:102A0000844200DD0446ADF80010288800222044EE
:102A1000ADF804006888ADF80200688831462044AB
:102A2000ADF806006846FFF7C1FF40B1BDF80400ED
:102A30002044ADF804003FE00020BDE8FC81E888B8
:102A40000022001BADF80200E888ADF80600314610
:102A50006846FFF7ABFF28B1BDF804002044ADF88D
:102A6000040011E0A8880022001BADF80000A8882F
:102A7000ADF8040031466846FFF798FF50B1BDF845
:102A80000000001BADF80000BDF80200001BADF80F
:102A9000020016E06888ADF8020068880022204431
:102AA000ADF8060031466846FFF780FF70B1BDF80B
:102AB0000000001BADF80000BDF806002044ADF892
:102AC0000600314668461BF0B7F9B6E7FFE701207C
:102AD000B3E710B5B1F90040B2F900309C4200DA1A
:102AE00023460380B1F90240B2F902309C4200DA79
:102AF00023464380B1F90440B2F904309C4200DD22
:102B000023468380B1F90610B2F90620914200DC19
:102B10001146C18010BD0000FEB507461DF0CCFD7A
:102B20000025354C0646009537B1F8686060384698
:102B30001DF0F4FE606802E010F026FF606000699E
:102B40001BF016F96068406908B11BF011F9606864
:102B5000C0691BF00DF96068006A1BF009F9606834
:102B60000169E1B31BF0A6FB1BF022FB6068B0F823
:102B7000501199B30168097C890715D510F062FFDF
:102B8000401E07B2606810F017FF401E03B200221B
:102B9000114601A800970EF0CCFD606801A90268FB
:102BA000926B516004F078FD60684FF480713030B2
:102BB00016F002FF6068202100F5987016F0FCFE08
:102BC0006068A0F8505130461DF070FD00906068BC
:102BD0000068436A13B122680099984700E007E053
:102BE00016F02CFD00F036F8BDE8FE4000F006B807
:102BF000A0F85051FEBD00009800002070B50A4DAD
:102C0000002400BFC4EBC40655F8260008B116F036
:102C100089FD05EB86001C2116F0CEFE641CE4B293
:102C2000042CEFD370BD00004873002008494968A8
:102C30000AE04A68824202D00A68824203D10A7ED0
:102C400042F001020A7649690029F2D1704700007A
:102C50006C000020704700000421014800F02CBEE9
:102C6000607200201C21014800F026BE787200200E
:102C70002DE9FF5F0446DDE90E0613B9B0F5807F4C
:102C80007ED0B6F900504FF0FF376D42454307EB59
:102C900025252DB22580B6F902C0CCF1000C0CFB25
:102CA00000FC07EB2C273FB26780B6F900C0A1EB10
:102CB0000C0141434FF0020C0CEB212109B2A18021
:102CC000B6F90280A2EB080242430CEB222000B2CC
:102CD000E080002B7ED04FF00A0A93FBFAF56842A1
:102CE00000EB800003EB400705F1010928B21DF05D
:102CF00055FF00900FFA89F01DF050FF83465A35BA
:102D000028B21DF04BFF804609F15A0000B21DF0B9
:102D100045FF0146009AC7F10A0000FB02F300FBE1
:102D200008F00BFB073301FB070193FBFAF291FB61
:102D3000FAF04FEA601AB4F90010B4F902000AFB85
:102D400001FCCDF80CC05511378805FB10C207EB0C
:102D5000A2220FFA82F905FB01F2BB4602927788A4
:102D60000AFB002107EBA1210BB2B4F90410BE4607
:102D70000AFB01FC05FB10C20BEBA22216B200E01D
:102D80002FE005FB01F7CDE9007CB4F90680DDF802
:102D90000CC00AFB007005FB18C1DDF804C0009FE1
:102DA00005FB18C5029A0AFB087C0AFB08220BEBFC
:102DB000A1210EEBAC270EEBA02009B20EEBA22254
:102DC0000BEBA5250FFA87FC00B212B22DB24F46CD
:102DD000494500E00EE000DA0F46B54216DAA84693
:102DE00015E000202080491E6080A180521EE280F4
:102DF000BDE8FF9F32882A44228072883A4462806C
:102E000032881144A180718808444FE0B04647459C
:102E100004DA4F46494506DA0F4604E0B54201DAC6
:102E20002F4600E0374627804F46494500DD0F46D4
:102E3000B54201DDA84600E0B046474503DD4D46FA
:102E4000494505DC01E0B54201DD294600E0314697
:102E5000A1809A4201DA154600E01D46844501DA58
:102E6000614600E001468D4205DA9A4201DA1146D8
:102E700006E0194604E0844501DA614600E00146B7
:102E800061809A4201DD114600E01946844501DD6A
:102E9000654600E00546A94205DD9A4201DD10467F
:102EA00004E0184602E0844500DD6046E0809FE7CC
:102EB0002DE9FE4F0446D0F800B0B0F90800E589CE
:102EC000081AB4F90A10511AD4E90932B5F5807F0D
:102ED00038D0A589ADB3A66B704345114E43701130
:102EE000266BE16A06FB05F701FB1077694306FBD9
:102EF000001003EBA72902EBA02080460612B4F9CC
:102F000004004FEA2927B8424EDD002F4CDBB4F90C
:102F10000610B14248DD002E46DB94F834104A0713
:102F200045D58A0704F1140322D400FB067045003E
:102F30004FF0020A0BEB05015246184616F0F2FC60
:102F400027E00DE0256BE66A05FB00F706FB11772D
:102F5000464305FB016003EBA70902EBA000CCE7A9
:102F6000A56B68434D4303EB601902EB6510C4E7A2
:102F700000FB067000EB40054FF0030A0BEB050168
:102F80000222184616F0CEFCE81C584410F8010C3A
:102F9000A07594F83400C0071FD04FF4FC60ADF862
:102FA0000000A18A814218D10020BDE8FE8F32B214
:102FB00004F118002369CDE90102002539B2AA46BF
:102FC0008B4614F01FF80090BDF80000A082DDE9E8
:102FD0000102594613F0AEFFDAE7E07C78B1A4F8BD
:102FE0003C90A4F83E80A4F84070A4F84260656468
:102FF00084F848A02046BDE8FE4F00F002B801204A
:10300000D3E72DE9F04F044690F83C10D0F800903B
:1030100090F83E0087B04FF0FF36702907DAB4F918
:1030200040203546012A00D5002580310DE0902949
:1030300016DDB4F94020B4F904300125521C9A423F
:1030400000DB0025A1F27F114942C9B288467028F1
:1030500009DAB4F94210012900D50026803010E0C9
:103060000025FF21F2E790280DDDB4F94210B4F9F4
:1030700006200126491C914200DB0026A0F27F10A9
:103080004042C7B201E00026FF2760690090A07DA2
:103090000590002083468246049094F8340040074F
:1030A00044D594F84810606C11FB05014944022294
:1030B00001A816F037FCA08894F8481010FB01F026
:1030C000616C022206FB0011494403A816F02AFC99
:1030D000A18894F8480011FB00F1626C06FB012204
:1030E00010FB05901118022202A816F01BFC94F8A0
:1030F0003400800761D594F84800626C10FB05230A
:1031000000EB09010B4413F8013C0493A38813FB63
:1031100000F306FB0322114411F801BC10FB05006B
:10312000111801EB090010F8010C45E0B4F840005B
:10313000B4F94220284401B204F118008146236901
:1031400013F060FF0190B4F84200B4F9401030442D
:1031500002B254F8103F484613F054FF0390608EBB
:103160002368304402B2208E284401B2484613F04E
:1031700049FF029094F82400103C80071DD5B4F953
:10318000422034F8400F284401B2484613F0D2FEE2
:1031900004906088B4F90010304402B2484613F03D
:1031A000C9FE83466088304402B234F8400928449E
:1031B00001B2484613F0BEFE824694F834004246FF
:1031C0004546800735D5059810FB08F30499C8F1EA
:1031D000FF0011FB0031C1F307211BFB08F61AFBAE
:1031E0000060C0F3072011FB07F3C7F1FF0610FBD7
:1031F00006331B0AA375022907D8022803D800202A
:1032000007B0BDE8F08F002702E0022800D8FF27B2
:103210000598022800D800220498022800D8FF222E
:10322000BBF1020F00D80025BAF1020F03D8FF2529
:1032300001E0FF20A075EAB1FF2A04D0DDE900011A
:103240000FF09AFF0090BDB1FF2D17D0DDE90210FD
:103250002A460FF091FF049097B1FF2F05D0014649
:103260003A4600980FF088FF0090BDF80000A08259
:103270000120C5E70198E5E70298ECE70398EAE743
:10328000BDF81000F3E700002DE9F0470446B0F95F
:1032900008000A2700026062B4F90A000002A06276
:1032A000B4F90C1091FBF7F5684200EB800001EBDC
:1032B0004006684205F1010800B21DF06FFC82462D
:1032C000E84300B21DF06AFC8146C5F15A0000B225
:1032D0001DF064FC0546C8F15A0000B21DF05EFC0A
:1032E000C6F10A0101FB0AF3024609FB06306943F5
:1032F00090FBF7F002FB061191FBF7F14011E06241
:1033000048112063A07C13F02AFF94F8341060F376
:10331000000184F83410A07C13F011FF94F83410ED
:1033200060F3410184F83410A07C042824D00528DF
:1033300022D0062820D021F0040100BF84F83410E8
:1033400021682162A16921F0E00160F30401A088F5
:1033500060F39421E08860F35F51A161E0894FF44C
:10336000001101EB5001B1FBF0F0A063FF20A0754C
:10337000208AA082BDE8F08741F00401DEE700006A
:103380002DE9F04115460E460746114C1DF094F903
:1033900080462B4632463946204614F061FA20B169
:1033A0000020A062E06950B110E02C21204616F008
:1033B00003FB4FF00040A0620020BDE8F0814046D2
:1033C0001DF074F9E06108B90120E0612046F4E7DE
:1033D0009C72002010B51421074800F06DFA14F01B
:1033E00005FA40B105490160054941600549816020
:1033F0000549C16010BDFEE7847200201972010802
:10340000957501080D770108E571010870B50D4645
:1034100004461021284616F0CFFA206800780128CB
:1034200004D0022807D0042807D008E0208A28808A
:10343000608A688003E0E06800E00A206860206835
:103440004268002A03D02946BDE87040104770BD8D
:10345000FEB5866A0446BEB9A08A218A0844A082C5
:10346000E08A618A0844E08220460AF0E8FA060011
:1034700079D020460CF046FD00220921304613F099
:103480009DF8607880076ED4208A10B9608A002881
:1034900069D00025ADF80450ADF8085094F83C0010
:1034A00000F00F000328304616D018F00BF807463E
:1034B000304617F0C1FE03460C200090B4F91210FC
:1034C0003A46304609F072FEADF80800304617F073
:1034D00005FFC10712D017E017F088FF07463046F6
:1034E00017F024FF024603200090B4F910103B4669
:1034F000304609F05BFEADF80400E7E7BDF90410C3
:10350000002901DDADF80450810705D4BDF9041090
:10351000002901DAADF80450410705D4BDF90810BF
:10352000002901DDADF80850000705D4BDF90800F9
:10353000002801DAADF8085002AA01A920461FF0C0
:1035400098F80023BDF90820BDF90410304619F0A1
:10355000BFFFA08ABDF804100844A082E08ABDF82D
:1035600008100844E082FEBD2DE9FC5F0446806A35
:103570005FEA000B71D094F83C0000076DD014F0A6
:1035800029FC019000684021457E584618F044FF10
:103590004FF0000818B9A4F81A80A4F8188058460B
:1035A00017F082FF8246584617F085FF064694F8CA
:1035B0003C004FF0640900F00F000C2802D00328F3
:1035C0004CD09AE0A4F8188056B1B4F91A500027EC
:1035D00014F000FC00684946407EC0F1640022E01F
:1035E000608BC5F1640110FB01F191FBF9F0608380
:1035F000584617F021FE0546584617F063FF02466D
:103600000C200090B4F91A102B46584609F0CEFD54
:103610006083024600231EE07A1917B210FB05F200
:1036200092FBF1F215B2002DF6D1ADF80070A4F8BE
:103630001A806A46002120461FF01BF841F6FF72EF
:10364000BDF90030514258460AF05EFBBDF800104B
:103650000123084402B200214CE09AE0A4F81A8049
:10366000BAF1000F0AD0B4F91850002714F0B2FBD9
:1036700000684946407EC0F1640022E0208BC5F11D
:10368000640110FB01F191FBF9F02083584617F01B
:103690004DFE0546584617F0A9FE0346032000904C
:1036A000B4F918102A46584609F080FD20830146D7
:1036B00000231EE07A1917B210FB05F292FBF1F21B
:1036C00015B2002DF6D1ADF80070A4F818800022D4
:1036D000694620461EF0CDFF41F6FF72BDF900306D
:1036E000514258460AF088FABDF8001001230844F8
:1036F00001B20022584619F0EBFE208B002848D179
:10370000608B002845D1C6B9584617F0DBFE054648
:10371000584617F091FD002D06DC00280DDD002D28
:1037200002DA01232A4604E0002806DA0123404297
:1037300002B20021584619F0CBFEBAF1000F19D1A0
:10374000584617F0F3FD0546584617F04FFE002D7A
:1037500007DC00280EDD002D03DA012300222946B4
:1037600005E0002806DA01230022404201B2584653
:1037700019F0AEFE0A215846019A12F01FFF607838
:10378000800706D414F83C0F20F00F00207044F896
:10379000148CBDE8FC9F00007FB50E46040003D1E9
:1037A00010F0F2F8040023D00025FEB1ADF800506F
:1037B000ADF8025010F000F9401EADF804002046AC
:1037C00010F040F9401EADF806006A46314602A8E6
:1037D000FFF704F800280BD02068017C890708D582
:1037E000DDE90001C4E90C0101202AE0A0F85051F4
:1037F0007FBD82690AB102A9904700260BE000BF95
:1038000004EBC601002202A83031FFF70FF80028B0
:10381000EED1761CB6B2B4F85001B042F0D880B206
:10382000202804D204EBC00002A9303004E0A4F840
:10383000505104F1300069460DF0D2FEB4F8500149
:10384000401CA4F8500160680028D1D01DF072F827
:103850007FBD70B5054600F012F804460CE0214625
:10386000284600F01EF806462146284600F071F86A
:10387000204615F057FF3446002CF0D170BD0028CB
:1038800000D04068704700B503460022FFF7F7FFFD
:1038900003E01846521C00F004F80100F9D110466C
:1038A00000BD0068091D40587047006840587047C7
:1038B000002800D08068704700224260C91C21F0B7
:1038C000030182600160704770B5044600680830EB
:1038D00015F09EFE050013D00146002220461EF082
:1038E0006DF82946204662681EF062F8616819B1D9
:1038F0002A4620461EF062F86560A06800B9A560FF
:10390000284670BD70B504460068083015F080FE8A
:10391000050013D00146002220461EF049F8294632
:103920002046A2681EF04AF8A16819B12A4620462E
:103930001EF03EF8A560606800B96560284670BD5D
:1039400028B1416809B9806808B10020704701209A
:10395000704770B504000DD0FFF791FF0022884238
:10396000204608D1FFF79DFF6060011E01D00022B4
:103970001EE0A26070BDFFF79BFF884220680844EC
:103980000AD10168A16029B12046BDE8704000223B
:103990001EF00EB8626070BD05682046FFF781FF1B
:1039A00006460246294620461EF002F82A463146BF
:1039B0002046BDE870401EF001B810B5044600680E
:1039C00082680AB12146904720680068002801D02B
:1039D0002060F5E710BD8068002801D0B0F916001E
:1039E000704700002DE9F047074690B0408C189EC4
:1039F00040F00400788490463A8499468A46328999
:103A0000384618F075FB0546A7F8209032895146D4
:103A1000384618F06DFB0446788CA54220F004006F
:103A2000788403D12904B1EB044F68D0A7F8208033
:103A300032895146384618F05BFB05468046A7F8A8
:103A40002090514638460BF039FB318900682A46F0
:103A50001BF0A8FD3089602823D147F6FF794D453A
:103A600001D04C451DD1384618F08DFC00EBD070CC
:103A70004510384618F087FC00EBD0704010C84560
:103A800006D1691C431C994200DA00E019468846B9
:103A90004C4506D1691C421C914201DA6C1C00E0C5
:103AA00014461948FFF710FF05002BD02F60C5E919
:103AB00003843089A8806846C5F808A00DF0A8F8EE
:103AC0001248FF21CDE9005011480290114803909F
:103AD00000200790CDE9080130880A9070889DF891
:103AE0003E1040420B90F0680690002060F3000109
:103AF0008DF83E103069059068460DF0FDF810B065
:103B0000BDE8F087FEE7000090720020A54F020894
:103B100099510208F550020814210148FFF7CCBE64
:103B2000907200202DE9FC5F002592468B460646E8
:103B30002C46042743F60F0843F60E0900E100BFA8
:103B4000F16807EBC400085882017DD480B230EAE6
:103B50000B0212D05FF0000230EA0A000FD0002002
:103B6000824271D051F8340001AA41F61001009050
:103B70001BF000FB002868D103E00122ECE70120E4
:103B8000EEE701AA41F6110100981BF0F3FA0028B4
:103B900073D101AA41F6120100981BF0EBFA00283C
:103BA0006BD101AA41F6130100981BF0E3FA00283B
:103BB00063D101AA41F6150100981BF0DBFA002839
:103BC0005BD101AA41F6140100981BF0D3FAE0BBC7
:103BD00001AA41F2690100981BF0CCFAA8BB01AA26
:103BE00043F20C0100981BF0C5FA70BB01AA43F226
:103BF0000D0100981BF0BEFA38BB01AA41F2010189
:103C000000981BF0B7FA00BB01AA41F2040100982A
:103C10001BF0B0FAC8B901AA41F2020100981BF0EA
:103C2000A9FA90B901AA41F2030100981BF0A2FA87
:103C300058B901AA41F2050100981BF09BFA20B97E
:103C400001AA41F2060101E079E016E000981BF0BC
:103C500091FA90B901AA41F2320100981BF08AFA58
:103C600058B901AA414600981BF084FA28B901AA64
:103C7000494600981BF07EFA10B10320BDE8FC9F76
:103C800001AA40F60A0100981BF074FAF0BB01AAE1
:103C900040F60B0100981BF06DFAB8BB01AA414633
:103CA00000981BF067FA88BB01AA494600981BF0F0
:103CB00061FA58BB01AA40F63C0100981BF05AFA81
:103CC00020BB01AA40F63D0100981BF053FAE8B969
:103CD00001AA40F63A0100981BF04CFAB0B901AACB
:103CE0004FF4046100981BF045FA78B901AA40F638
:103CF000450100981BF03EFA40B901AA40F6410187
:103D000000981BF037FA08B901AA00E013E040F66A
:103D1000420100981BF02EFA68B901AA40F643014F
:103D200000981BF027FA30B901AA40F64901009823
:103D30001BF020FA08B1022501E005B90125641C39
:103D4000708CC0F3C500A0423FF6FAAE284695E756
:103D50000148406870470000980000207047C0F399
:103D60000410072800D907207047000010B518215B
:103D70000348FFF7A1FD03490120087010BD0000B2
:103D80003C720020080200202DE9F04190460C46CC
:103D9000050015D0FCF7D7FA0A4F06462146BA6847
:103DA000284690470446BA6828194146904701467C
:103DB000701A03E06218AA5C2A55641CA042F9D26A
:103DC000BDE8F0811C0200202DE9F041094D90462C
:103DD0000E466A681C46074619469047306020B177
:103DE00020686A68384400219047C8F80000BDE8A0
:103DF000F08100001C0200202DE9F04F87B004463E
:103E0000DDE910581F4693468A46002005B12880F8
:103E100054B1217841B1BAF1000F05D0002618F055
:103E2000060F15D0002004E0002007B0BDE8F08F99
:103E3000401C215C0A2904D00D2902D00029F7D1A9
:103E400000E0401C002DF0D04FF0FF312980ECE75E
:103E50005FEA887101D541F6FF7781468DF814003D
:103E6000049026E0CDF8189068B34FF0000C05AA36
:103E700006ABCDF80CC0CDF80080CDE9013220446E
:103E80003B465A4651461CF0B3FE06997A1A314415
:103E900017B20EB288B104990144049120780A281F
:103EA0000BD00D2809D0605C0A280FD00D280DD04A
:103EB0000846215C09B1002FD4DC049848B105B153
:103EC0002E800498B1E74FF0010CD0E7481C049015
:103ED000F3E7074A04A92046526890470146002D9F
:103EE000EFD00022504612F042FC06B2E8E7000094
:103EF0001C0200202DE9F0411746884606001ED01E
:103F0000002F1CD0FCF71FFA04463846FCF71BFABA
:103F1000050014D00B4A2C44414692683046904725
:103F2000411903E0621BB25C3255641EA142F9D90B
:103F300030442A463946BDE8F04115F0FFBCBDE8E3
:103F4000F08100001C02002000230278232902D007
:103F5000012A0DD00FE02AB10021012A04D0022A43
:103F600004D008E0012101E0017004E0017001E0EB
:103F7000202902D00123184670470221F6E72DE9D7
:103F8000F0410E46804602460021334608461DF0A9
:103F90006BF804460027401C15F03AFB050008D0DA
:103FA0002F5533464246611C1DF05EF82846BDE899
:103FB000F081FEE72DE9F0471E4614460D46824685
:103FC000DDF8209015E000BF4FEA540808FB0657C3
:103FD000394650464A469047002808DD44F3000021
:103FE000C0EB540407EB0605A4F1010401E005DA77
:103FF0004446002CE8D12046BDE8F0873846FBE770
:104000002DE9FC5F9B460CAB8A468146DDE91160D9
:1040100093E81210DDE90F575FEA80784FF0300324
:104020001AD45EB15FEAC07808D000F00C0858EAF4
:104030000C0803D0761E01E00B55641CBC4204D270
:10404000202CF9D301E00B55641C5FEAC07803D043
:10405000B44201D2202CF6D35FEAC06825D55FEACE
:1040600040580AD44CB1BC4201D0B44205D1641EC0
:1040700003D0102D03D1641E04E0102D02D0022DB8
:104080000AD00EE0850603D4202C1ED2782506E047
:10409000202C1AD2582502E0202C16D262250D556C
:1040A000641C202C11D20B55641C202C0DD2BCF1A9
:1040B000000F01D02D2306E0430701D52B2302E09A
:1040C000030702D520230B55641CCDE900BAC8466E
:1040D000154681468B46AA46800714D1274607E03D
:1040E0002A46DDE900316D1C2020C446E0477F1CD4
:1040F000B742F5D307E02A466D1C641EDDE90031A6
:104100001BF80400C047002CF5D15FEA897006D483
:1041100009E02A46DDE900316D1C2020C047A5EBEF
:104120000A00B042F5D32846BDE8FC9F2DE9F04FC8
:104130008FB099468B46DDE91818DDE91C63DDE98F
:104140001A4792468646002209B923F01003580503
:1041500007AD00D5C9B1B1FBF4F004FB1010C0B23B
:104160000A2801D2303009E05FEA836C02D54FF0B3
:10417000410C01E04FF0610C60440A38B1FBF4F1EE
:10418000A854521C09B1202AE5D3CDF80880CDE906
:104190000563CDE90052CDE903474B4652465946E7
:1041A0007046FFF72DFF0FB0BDE8F08F2DE9FF4FF0
:1041B0008FB01CACDDE9239594E8030820AC94E8AB
:1041C000C004002450EA010201D125F010056A055F
:1041D0000DF11C0802D550EA010217D032463B46C9
:1041E000FCF74EF8D2B20A2A01D2303206E0AB0612
:1041F00001D5412300E061231A440A3A08F804205B
:10420000641C50EA010201D0202CE7D3CDE90084E0
:10421000CDF808B0CDE90595CDE9036A0FAF97E871
:104220000F00FFF7EDFE13B0BDE8F08F9A4200D209
:1042300088547047704700002DE9FF4F95B09B46AA
:104240008946064600250FE2252877D10024274617
:10425000F84A0121059400E0044316F8013F203B91
:1042600001FA03F01042F7D130782A2811D06FF00C
:104270002F033078A0F13002092A16D8059A44F0AD
:10428000020402EB820203EB42021044761C05900A
:10429000EFE759F8042B0592002A03DA504244F460
:1042A0000054059044F00204761C30782E2816D174
:1042B00016F8010F44F004042A280DD06FF02F02E5
:1042C0003078A0F13003092B09D807EB870302EB04
:1042D0004303C718761CF3E759F8047B761C307843
:1042E0006C280FD006DC4C2817D068280DD06A281F
:1042F00014D104E0742810D07A280FD10DE044F4D2
:1043000000140AE044F4801401E044F4401472788C
:10431000824202D104F58014761C761C307866281F
:104320000BD013DC582877D009DC002875D045283D
:10433000F6D04628F4D047281AD19DE118E063282A
:1043400035D0642879D0652812D195E1702873D0D2
:1043500008DC6728F1D069286FD06E280DD06F284F
:1043600006D1B5E073282CD0752875D0782874D084
:104370005A46179990476D1C75E1C4F30250022804
:1043800009D003280DD0D9F8001004280DD00D60F5
:1043900009F1040967E1D9F80010EA17C1E90052F0
:1043A000F6E7D9F800100D80F2E70D70F0E719F884
:1043B000041B8DF8001000208DF80100EA46012052
:1043C00003E059F804AB4FF0FF3061074FF00001F4
:1043D00002D40DE008F101018846B9420FDA8045A8
:1043E000F8DB1AF808100029F4D108E008F10101FF
:1043F00088468142FADB1AF808100029F6D10598A0
:104400005B46A0EB080721463846179A00F094FA5D
:10441000284400EB080507E04DE029E10DE01AF81B
:10442000010B5A4617999047B8F10108F7D25B463D
:1044300021463846179A13E142E00A220092C4F35B
:1044400002524FF0000A022A08D059F804CB032A7E
:104450004FEAEC710AD00DE029E02AE009F10701EA
:1044600021F00702F2E802C1914609E00FFA8CFC44
:104470004FEAEC71042A03D14FFA8CFC4FEAEC713D
:10448000002907DA0A460021DCF1000C61EB020189
:104490002D2202E0220504D52B228DF804200122D2
:1044A00003E0E20701D02022F7E7904659E00A2115
:1044B00002E010220DE010214FF0000A00910BE005
:1044C00010224FF0000A44F004040827009203E091
:1044D00008224FF0000A0092C4F30252022A05D0CB
:1044E00059F804CB0021032A08D009E009F107019B
:1044F00021F00702F2E802C1914605E01FFA8CFCA8
:10450000042A01D10CF0FF0C4FF00008220728D537
:10451000702806D0009B83F0100353EA0A0305D0ED
:104520000EE040228DF80420012208E05CEA01023E
:1045300006D030228DF804208DF805000222904626
:10454000009B83F0080353EA0A030AD15CEA0102E4
:1045500001D1620705D530228DF804204FF0010803
:104560007F1E582804D034A003900EA802900DE0BE
:1045700036A0F9E753466046009AFBF781FE844671
:104580000398825C0298401E029002705CEA01006F
:10459000F0D1029806A9081A00F1200A600702D596
:1045A00024F4803400E00127574502DDA7EB0A0020
:1045B00000E0002000EB0A01009005984144401AF9
:1045C0000590E00306D45B462146179A059800F053
:1045D000B3F90544002706E001A85A46C05D1799C3
:1045E00090476D1C7F1C4745F6DBE0030CD55B460E
:1045F0002146179A059800F09FF9054404E0302001
:104600005A46179990476D1C0099481E0090002942
:10461000F5DC08E0029802995A460078491C02919C
:10462000179990476D1CBAF10001AAF1010AF1DC5B
:1046300065E1000009280100303132333435363766
:1046400038396162636465660000000030313233DE
:10465000343536373839414243444546000000007E
:1046600000F058F90544761C307800287FF4ECAD52
:1046700019B02846BDE8F08F620700D4062709F17B
:10468000070222F0070CFCE80223E14603F0004891
:104690005FEA080C02D00FF2702C0DE05FEA045CB8
:1046A00002D50FF2682C07E05FEAC47C02D00FF25B
:1046B000602C01E0AFF2700C4FF0FF3823F00043A4
:1046C000CDF850C065280CD006DC452809D0462816
:1046D0001DD047283DD13DE0662818D067287ED1FF
:1046E00038E00021112F01DB112000E0781CCDE91A
:1046F000000106A90EA8FDF79FFFDDE90F010E9A44
:1047000003910021009207F1010A04914DE04FF05E
:1047100000400097CDE9011006A90EA8FDF78CFF17
:10472000DDE90F0203920E9B11990022DDF80CA027
:104730000093049211B9791C00EB010AB7EB0A004F
:1047400004D4C0F1FF3007F1010A0490AAEB07007E
:10475000019044E0012F00DA01270021112F01DD33
:10476000112000E03846CDE9000106A90EA8FDF7AA
:1047700063FFDDE90F010E9A03910021049100927D
:10478000BA4621070CD40399514500DA8A46BAF19A
:10479000010F05DD009AAAF10101515C302908D012
:1047A000B84202DA10F1040F06DA0121CDE9011056
:1047B00015E0AAF10101E9E7002805DC04990144AC
:1047C0000491AAEB000102E0411C514500DD8A463C
:1047D0000499401A401C01904FF0004002902007BD
:1047E00004D40198504501DBCDF8048000208DF8F9
:1047F0004F0002980DF14F07B0F1004F25D02B204C
:104800000E9002984FF0020800280CDA4042029005
:104810002D200E9007E00A210298FBF753FF30315C
:10482000029007F8011DB8F10001A8F10108F2DCBF
:1048300002980028EFD1791E0E980870307800F0A9
:10484000200040F0450007F8020D12A8C01B00F13F
:1048500007081498007800B1012000EB0A010198C4
:1048600001EBE07105984144401A401E0590E003B9
:1048700006D45B462146179A059800F05DF805447A
:104880001498007818B15A46179990476D1CE003A8
:1048900024D55B462146179A059800F04DF805444B
:1048A0001CE00498002807DBDDE90301884203DDF2
:1048B0000098405C179901E0179930205A469047BC
:1048C000049805F10105401C04900198401E0190D8
:1048D00004D12E205A46179990476D1CBAF1000159
:1048E000AAF1010ADDDC05E017F8010B5A46179919
:1048F00090476D1CB8F10001A8F10108F4DC5B469B
:104900002146179A0598ABE62D0000002B00000009
:10491000200000002DE9F041044600251E46174600
:10492000880404D405E039462020B0476D1C641E7D
:10493000F9D52846BDE8F0812DE9F041044600256F
:104940001E469046C80301D5302700E02027880482
:1049500004D505E041463846B0476D1C641EF9D5C4
:104960002846BDE8F08100002DE9FF4F89B00546DB
:104970000A9800249246002800D1FE4D8FE1252898
:1049800004D02246641C53460A990BE2491C4FF09E
:10499000000808460C9101782B2919D004DC202945
:1049A00019D0232904D119E02D290ED0302909D09E
:1049B0000026C8B2FDF7F2FEB0B10CA8FDF724FE48
:1049C00006461FE048F001010AE048F0020107E056
:1049D00048F0040104E048F0080101E048F010014B
:1049E000401C88460C90D6E70C9908782A2809D1F3
:1049F000169840C81690002E02DA48F00208764257
:104A0000491C0C910C984FF0000B01782E2919D1FC
:104A1000401C0C9048F480680078FDF7BFFE20B180
:104A20000CA8FDF7F1FD83460CE00C9A10782A28BB
:104A300008D1169802C81690002900DC0021521CEB
:104A40008B460C920C9801786C290AD004DC6829FA
:104A50000FD06A2919D128E0742929D07A2914D1D4
:104A600026E0401C0C90017848F480786C291CD01A
:104A70000BE0401C0C90017848F08008682904D1B4
:104A800048F04001401C88460C9002460078692896
:104A900022D015DC62281FD00DDC252871D05028CB
:104AA0001AD058287FF46DAF16E048F40071E9E79A
:104AB00048F48071E6E7632878D06428F2D10BE0EF
:104AC000732874D004DC6F2806D07028EAD103E084
:104AD000752801D07828E5D178280DD058280BD03A
:104AE00070280BD0502809D06F2816D0622816D015
:104AF0000A2128F0100016E0102107E0507810215C
:104B000048F48878562804D1521C0C921078582802
:104B100007D01078502804D006E0082109E00221CF
:104B200007E048F0200080461078692803D0642808
:104B300001D028F00C085FEA485001D528F00108A0
:104B4000107869281ED064281CD0562864D05FEAEB
:104B5000885072D5169804ABC01D002283E8060861
:104B60000292CDE9076820F007005346F0E80212F0
:104B7000CDE900121690224628460A99FFF716FB47
:104B800089E00AE15FEA885024D5169804AFC01D79
:104B900020F00703F3E802021693002387E80A08CF
:104BA000CDE90768002A03DA012102E080E0A6E0EF
:104BB00000210023029119461B1A914101DA114686
:104BC00003E00021404261EB020153462246CDE959
:104BD0000001D1E75FEAC85004D5169804C80FE079
:104BE000524215E05FEA486003D5169810F8042B8E
:104BF00006E05FEA0860F0D5169830F8042B12B290
:104C00001690CDE9021BCDE90468D00F002AE7DD3C
:104C1000CDE9002053461EE01698AAEB040202C814
:104C200016904868006800900A980B680119284699
:104C3000FFF79AFE04442FE0FFE75FEAC8500CD567
:104C4000CDE9021BCDE9046816980021534604C83B
:104C5000CDE900211690224619E05FEA486003D5AD
:104C6000169810F8042B08E05FEA0860169803D540
:104C700030F8042B92B200E004C816900020CDE971
:104C80000020CDE9021BCDE90468534622462846A0
:104C90000A99FFF74BFA04460C98401C0C900C99AB
:104CA000087800287FF46BAE54457DD222467DE023
:104CB00001275FEA887006D509E02246641C534646
:104CC00020200A99A84738467F1CB042F5D3169990
:104CD0002246641C11F8040B169153460A99A84702
:104CE0005FEA887006D4D7E72246641C534620202A
:104CF0000A99A84738467F1CB042F5D3CCE71698EE
:104D000050F8049B16904B46BBF1000001D00146C1
:104D100001E04FF0FF31484600E0401C02780AB144
:104D2000491EFAD2C71A5FEA485003D558465F4574
:104D300000D307465FEA887006D512E02246641C5D
:104D4000534620200A99A84738467F1CB042F5D325
:104D500007E000BF224609F10109641C53460A9985
:104D6000A84799F8000040B15FEA4851F2D5BBF17D
:104D7000010B01E035420008ECD25FEA887006D4EE
:104D80008AE72246641C534620200A99A8473846E1
:104D90007F1CB042F5D37FE706E02246641C5346F1
:104DA00025200A99A84777E7AAF101025346002077
:104DB0000A99A8470DB02046BDE8F08F10B5020053
:104DC0004FF000000CD04B1E194200D0FEE70A4401
:104DD000521E9A43B2F5803F02D20C2A01D91046E6
:104DE00010BD0C2010BD08444A1E401E90431142C5
:104DF00000D0FEE7704700002DE9F0410F46012189
:104E00000025044641862E460BE01B49FBF7A2FA1B
:104E100010B16D1CADB202E0608E401C6086761C45
:104E2000B6B257F8260010B101780029EDD1208ED6
:104E3000A8421ED0A06A002610B114F073FCA6622E
:104E4000E06A10B114F06EFCE662E80014F0E0FBDA
:104E5000A06238B1680014F0DBFBE06218B1A16A0F
:104E600011B102E0FEE7FEE70025690014F0A4FDA1
:104E70002586BDE8F0810000BC1F01082DE9F84F30
:104E80008146407A0F4600F00700022819D01046EC
:104E90008046974200DD3A46164603202A4C2B4AAC
:104EA00000EB460020F00305A06811681035411A98
:104EB000636805EB010C9C4505D2416821F0004177
:104EC00024E00846E4E79D4219D892464FF0FF3BA4
:104ED00048196168884210D9002269461C48CDF8FB
:104EE00000B00BF0C7FB002269461A480BF0C2FB6A
:104EF000A168DAF80000091AEAE7A068DDE72846A9
:104F000014F086FBC0B1416841F0004188EA6702B5
:104F1000416089EA02010160416801F04041491C99
:104F200031F0804141608681A0F80E8005D500F106
:104F300010018160BDE8F88FFEE7A16801F1100261
:104F400029448260A160F5E7A0000020F80100205C
:104F50002DDA0008D506010870B586B000228DF85C
:104F600008208DF80C208DF81020444C90F83C203F
:104F7000142302F00302A5784FF4B476012A23D05B
:104F8000022A5FD0AA4211D010F8265F05EB051562
:104F900005EB4505B5FBF3F52570407800EB0010F7
:104FA00000EB4000B0FBF3F06070A27004AA03A80D
:104FB000CDE9000201EB41004FF6FF7101EA40002C
:104FC00002AB627821781AE0AA4210D0858C05EBFA
:104FD00045056D02B5FBF6F5A58090F8270000EBBE
:104FE000001000EB4000B0FBF3F06070A27004AA68
:104FF00003A8CDE90002C9B202AB62783CE008F038
:1050000027FA9DF810209DF80C10D308BDF8002059
:105010009DF8080063F30402ADF800208A08BDF88B
:10502000001062F34A11ADF80010C108BDF800008D
:1050300061F3CF20ADF8000080B20090BDF8000011
:1050400006B070BDAA4210D0858C05EB45056D02F7
:10505000B5FBF6F5A58090F8260000EB001000EBFC
:105060004000B0FBF3F02070A27004AA03A8CDE9C1
:105070000002CAB2217802ABA088C0E7500100202C
:1050800010B5084C012020700748FEF7F8FB0028F7
:10509000A06803D0BDE810401BF04CBCBDE8104038
:1050A0001BF03CBCDC0100206C72002010B50446F3
:1050B00090F83E00626B810707D4A18F39B1A1F54A
:1050C0007F43FF3B15D0491EA187A18F89B90AB143
:1050D00081070ED521461348FEF73BFCFFF7D0FFB2
:1050E000E16809B1204688472046BDE8104014F029
:1050F00019BBA16B4942E162002A11D0810702D499
:10510000216B4942E1624110491C61F3410084F87E
:105110003E00616AE069E1616062A06AA262606368
:1051200010BD00006C72002070B5304D68681BF037
:10513000BDFA0646687880F00100687047E00020FC
:10514000287094F83E006978C0F380028A4242D009
:1051500061F3820084F83E00E16A8A19030719D4DA
:10516000002917DC002A15DBC00709D1216939B1F4
:1051700020468847E1690144E161616A0844606250
:10518000A16809B12046884794F83E0040F0080025
:1051900084F83E00E06A8019E06216D4A16A884271
:1051A00000DDE162A169204688470146206A884205
:1051B00004D0216262680AB120689047D4E90A01EC
:1051C000814202DB2046FFF771FF287818B10848BA
:1051D000FEF755FB03E021460548FEF762FB04009D
:1051E000ADD11BF069FA686070BD0000DC010020E1
:1051F0006C72002070B5044640680D4608B1FFF798
:10520000F9FF2268002A04D029462046BDE87040F4
:10521000104770BD89B20CF048B989B20CF081B961
:1052200010B50446406882080AD0496821F003019D
:10523000091D08446060204600F042F8204610BD79
:10524000FEE74068103120F00300884201D30120BE
:105250007047002070472DE9FC47054648680C461A
:1052600020F0030001AA69461CF04AFADDE900704B
:1052700005EBC71101EB80098046D9F83C0060B10D
:1052800064B1C4E9020504F10806C4603046042193
:10529000FFF7A9FD864202D0FEE7FEE7FEE7C9F868
:1052A0003C400120296900FA07F21143296105EB0E
:1052B000870100FA08F04A6902434A61BDE8FC87A9
:1052C00010B5044600F087F8046010BD2DE9FC47D6
:1052D00006464FF000000D0000900746019042D0B6
:1052E0000C46E9460DF10408802907D308461FF053
:1052F0002EFE411F01208840401E0444424649467C
:1053000020461CF0FDF9009C0A2C2CDA06EB8400E8
:10531000019A40694FF0FF3101FA02F210400CD1BE
:10532000641C3069A14008401DD01FF008FE0446EF
:10533000009006EB8000406978B11FF000FE034644
:1053400006EBC411019001EB8000C76B5FB1786878
:1053500020F00300A84201D2FEE7FEE739463046BE
:10536000009A1CF0C1FF3846BDE8FC8710B5044622
:10537000FFF7A6FF416841F002014160606840F01C
:105380000100606010BD10B5044600F024F84168CB
:1053900021F002014160606820F00100606010BDF2
:1053A00070B506460D46084600F015F8040010D00A
:1053B0002079C0070BD0686880080BD021463046A2
:1053C00000F03CF821462846FFF72AFF054628460C
:1053D00070BDFEE7FEE7426800F1080122F003001D
:1053E000001F0844910800D1FEE7704770B50646DB
:1053F0000C004FF000001ED0F2B120791546C00716
:105400001BD011462046FFF71CFF78B129462046E5
:1054100000F025F805462046FFF752FF6868294648
:1054200040F0020068603046FFF715FF2046FFF7A6
:10543000AAFF04F1080070BDFEE7FEE77CB5054653
:1054400048680C4620F0030001AA69461CF058F990
:10545000DDE90023214628461CF046FF7CBD2DE9EE
:10546000F0410D46044600F10801281F0E1860683F
:1054700006F1080720F00300401BA0F1040838469D
:105480000421FFF7B0FC874200D0FEE7606820F0FF
:10549000030108EB0500001D814200D0FEE73079D2
:1054A00000F0030040EA0800706020F003000C28C0
:1054B00000D2FEE7207900F0030028436060304608
:1054C000FFF754FF3046BDE8F08138B5044612F0CE
:1054D00081FC054612F0B3FC0028204605D0218F40
:1054E000E18617F067FA012038BD10F02DFE002884
:1054F00020461ED010F0FDFC218FE08E81420CD0A2
:105500002087E08E00906A461C21204611F056F854
:105510000128E9D1204617F04DFA284612F09BFCED
:105520000428E0D1204615F035FE002111F0E1FC01
:10553000D9E710F065FED6E770B511F03AF80546E8
:1055400015F06EFE044628460CF0E2FD01462046AA
:10555000BDE8704001221AF0D5BB00002DE9F04FE4
:105560000D4687B00446002115F049FD60B3294679
:10557000204600F061FA2946204600F06FF800212D
:10558000204616F073FC05900021204616F040FDE1
:1055900004900021204616F035FB012800D00020A1
:1055A00080460021204616F0CBFE0746002120460B
:1055B00016F0A6FB42F2D17906464F450BD1608C1E
:1055C000400508D4012707E007B02846BDE8F04FA2
:1055D0001C2114F0F1B90027204615F08EFDDFF8EC
:1055E00078A0834620460021BAF8022016F080FDFC
:1055F000D5F810C0AB682968CDF800C0CDF80C8094
:10560000CDE90131C2B239465846059B09F0C8FDC3
:1056100028834E4504D1608C800501D4012600E02A
:105620000026204615F04FFD074620460021BAF817
:10563000062016F05DFDC2B2686900246B68E96857
:105640008DE81B0031463846049B09F0A9FD6883AC
:1056500007B0BDE8F08F0000C40000202DE9F34F33
:1056600081B00C46019809F009F80646019815F03A
:1056700044FD8246304600F00BFF2061400013F0ED
:10568000F3FF20602069400013F0EEFF002541F693
:105690009A79A0603AE036F91510DFF82081494583
:1056A00033D10027DFF818B11FE03946019815F013
:1056B000A6FC5946009016F0B6FEA8B9009808F06E
:1056C000EFFF012810D1009808F0E0FFA8420BD1AD
:1056D000009816F058FE4146404501DA084602E0BF
:1056E000009816F050FE80467F1C019815F099FC3A
:1056F000B842DAD8B8F1000F03DBA16821F81580B1
:1057000003E0A168002021F815006D1C2069A84263
:10571000C1D800252F46284641F69B784B4615E018
:1057200036F91010414504DB0D44A5F5F8559B3DB5
:105730000BE0994204D1A16831F81010394403E01C
:10574000A26822F8101039440FB2401C216981422E
:10575000E6D80021019816F089FB2169C1F1010208
:1057600000FB02A0C01B00B2002800DA00200022CB
:105770004FF0FF331146C44611E000BF36F91170F7
:1057800067450BDBA7F5F8579B3F3AB210FB02F3D6
:10579000B3FBF5F3A76827F811300B46491C2769BE
:1057A0008F42EBD8002B07DBA91A4143B1FBF5F17F
:1057B000401AA16821F81300BDE8FE8F01E0FFFF49
:1057C000010006002DE9F14F00221146009817F064
:1057D000BDFF0021009816F049FA04460021009808
:1057E00016F02BFC20440FFA80F90021009816F0E7
:1057F000E9FA20440FFA80F8009816F0A9F900EBB6
:10580000090101EB0800DFF898A006B254460098A1
:1058100015F007FC074600252AE00098214980681A
:10582000006850F82500834616F0FDFDF8B958468B
:1058300017F022F940BB0021584616F0AEF918B314
:10584000012821D002281FD003281DD0002158464E
:1058500016F092FD58B9BBF81A10BBF81600081ADA
:10586000401C00B24844A04200DB044624B26D1C38
:10587000BD42D2D3544504D004EB080000B2B0427C
:1058800000DC3046BDE8F88F0098BBF91A10B0F97B
:105890001600081A411CA142E8DB0C46E6E70000AE
:1058A00001E0FFFF010004002DE9F84F00228046CF
:1058B000114617F035FF0021404616F0D7F904468F
:1058C0000021404616F050FB20440FFA80FA0021D8
:1058D000404616F0EEFA20440FFA80F9404616F0E2
:1058E00045F900EB090101EB0A00DFF844B105B20C
:1058F0005C46404615F095FB07460021404616F0F1
:105900006CF901284FF0000644D078E0D8F8080080
:105910004849006850F82600009016F084FDC0BB8E
:10592000009817F0A9F850B10098B8F91810B0F91C
:105930001400091A481CA0422ADB4C1C28E0002154
:10594000009816F02AF958B1032809D0062807D084
:10595000082805D00021009816F007FD58B118E07E
:105960000098B8F91810B0F91400081A411CA142A7
:105970000EDB0C460CE00098143000900BF0A1FEFA
:105980005044A04204DB00980BF09BFE00EB0A049D
:1059900024B2761CBE42B9D35C453BD004EB09006F
:1059A00033E000BFD8F808002249006850F826000C
:1059B000009016F038FD08BB009817F05DF860BB4A
:1059C0000021009816F0E9F838B3012825D0042802
:1059D00023D0072821D00021009816F0CDFC68B90B
:1059E0000098143000900BF06CFE4844A04204DB99
:1059F00000980BF066FE00EB090424B2761CBE4250
:105A0000D0D35C4506D004EB0A0000B2584501D063
:105A1000A84200DC2846BDE8F88F0098B0F91810BD
:105A2000B8F91400091A481CA042E6DB4C1CE4E754
:105A300001E0FFFF010004002DE9F84F0C4683460A
:105A400009F03AFA064600F023FD6061400013F0C9
:105A50000BFE60606069400013F006FE002541F611
:105A60009A79E0603AE036F91500DFF80C81484594
:105A700033D10027DFF804A11FE03946584615F05E
:105A8000BEFA5146009016F0CEFCA8B9009809F075
:105A900099FA012810D1009809F08AFAA8420BD18E
:105AA000009815F07CFB4146404501DA084602E0CB
:105AB000009815F074FB80467F1C584615F0B1FA2B
:105AC000B842DAD8B8F1000F03DBE16821F815809D
:105AD00003E0E168002021F815006D1C6069A84210
