:020000040800F2
:1000000008CB012079030008774C00085F4A0008FC
:10001000734C0008F1190008FD5E000800000000A4
:10002000000000000000000000000000B90200080D
:10003000F51900080000000015030008055A000823
:100040009303000893030008930300089303000838
:100050009303000893030008930300089303000828
:100060009303000893030008930300089303000818
:100070009303000893030008930300089303000808
:1000800093030008930300089303000893030008F8
:1000900093030008930300089303000893030008E8
:1000A00093030008930300089303000893030008D8
:1000B00093030008930300089303000893030008C8
:1000C00093030008930300089303000893030008B8
:1000D00093030008AD5E0008930300089303000833
:1000E0009303000893030008930300089303000898
:1000F0009303000893030008930300089303000888
:100100009303000893030008930300089303000877
:1001100093030008930300082D5A00089303000876
:100120009303000893030008930300089303000857
:100130009303000893030008930300089303000847
:100140009303000893030008930300089303000837
:100150009303000893030008930300089303000827
:100160009303000893030008930300089303000817
:1001700093030008930300089303000800000000A5
:1001800093030008930300089303000893030008F7
:1001900093030008930300089303000893030008E7
:1001A00093030008930300089303000800F002F88B
:1001B00000F072F80AA090E8000C82448344AAF18F
:1001C0000107DA4501D100F067F8AFF2090EBAE88D
:1001D0000F0013F0010F18BFFB1A43F0010318477B
:1001E000B8420700D84207000A444FF0000C10F84C
:1001F000013B13F0070408BF10F8014B1D1108BFA5
:1002000010F8015B641E05D010F8016B641E01F844
:10021000016BF9D113F0080F1EBF10F8014BAD1C94
:100220000C1B09D16D1E58BF01F801CBFAD505E0B2
:1002300014F8016B01F8016B6D1EF9D59142D6D30C
:10024000704700000023002400250026103A28BF34
:1002500078C1FBD8520728BF30C148BF0B60704738
:10026000662900F086A3642900F06881782900F0EF
:10027000A181732900F0F186002070471FB540F07E
:1002800073FB00F001FF04000020002140F01EF885
:10029000E0601FBD10B510BD00F0B4FF1146FFF7C0
:1002A000EDFF35F077FB00F0D2FF03B4FFF7F2FF6C
:1002B00003BC07F075FF00002C4B19680868B0E814
:1002C000F04F80F30988BFF36F8F4FF0000080F389
:1002D000118870470000000008480068006880F33B
:1002E00008884FF0000080F3148862B661B6BFF34F
:1002F0004F8FBFF36F8F00DF00BF00BF08ED00E03E
:10030000DFF80C00016841F470010160704700BF24
:1003100088ED00E0EFF30980BFF36F8F134B1A688D
:100320001EF0100F08BF20ED108A20E9F04F10607A
:1003300009B44FF0500080F31188BFF34F8FBFF323
:100340006F8F3EF0B5FF4FF0000080F3118809BCBD
:1003500019680868B0E8F04F1EF0100F08BFB0EC45
:10036000108A80F30988BFF36F8F7047B0000020B8
:10037000EFF30580704700000948804709480047AF
:10038000FEE7FEE7FEE7FEE7FEE7FEE7FEE7FEE745
:10039000FEE7FEE704480549054A064B70470000A2
:1003A000195A0008AD01000808C1012008CB01203E
:1003B00008C3012008C30120704753EA020C00F073
:1003C00069802DE9F04B4FF00006002B1FBFB3FAF8
:1003D00083F503FA05F424FA05F65E4012BF1643CE
:1003E000B2FA82F502FA05F4C5F120051EBF22FA21
:1003F00005FC44EA0C04203556EA044C4FEA144448
:1004000018BF641C4FF000084FF00009904271EBD8
:10041000030C39D3002919BFB1FA81F701FA07F6A5
:10042000B0FA80F700FA07F6C7F120071EBF20FADE
:1004300007FC46EA0C062037B6FBF4FCA7EB0507E1
:10044000103F07F01F0BCBF120060CFA0BFB2CFA28
:1004500006F644BFB3460026202FA4BF5E464FF0E9
:10046000000B5BEA060C08BF4FF0010B19EB0B0900
:10047000ABFB027C48EB0608C01B06FB02CC0BFB67
:1004800003CC71EB0C01C1E70B46024641464846DE
:10049000BDE8F08B13B54FF000004FF00001AFF353
:1004A0000080BDE81C4070470FB4044910B503AA92
:1004B000029800F0D7FD10BC5DF814FB100000207E
:1004C0000FB41CB5074B06AA7B44694600900598FB
:1004D00000F099FD0020694600F0A8FD1CBC5DF805
:1004E00014FB0000610B000070B50C460546012AA4
:1004F00005D02878800600D5EA69002302E00123B0
:1005000005E05B1C934202D2E05C0028F9D1A869A7
:10051000E618C01AA861286A184428622846AFF372
:10052000008004E0D5E9012114F8010B9047B442A2
:10053000F8D32846AFF3008070BD00002DE9F041EC
:100540000646002410687529314616A510D0AFF371
:100550000080002802DA404213A507E031688A07CC
:1005600001D512A502E0490704D511A5012401E037
:10057000AFF3008000210A2206F1240709E0B0FB56
:10058000F2FCB0FBF2F302FB1C003030785418464A
:10059000491C0028F3D123462A463046BDE8F041E5
:1005A00000F0C3BA000000002D0000002B00000086
:1005B0002000000070B504460D4621461068AFF3D8
:1005C00000802188090502D50F4A7A4402E00E4ACC
:1005D0007A440E32002104F1240305E000F00F06F6
:1005E0000009965D5E54491C0028F7D1207800234D
:1005F000000704D5702D02D009B102231132204624
:10060000BDE8704000F091BAB43807002DE9F05F02
:10061000894604464FF0000ADFF874B1FB44C0F885
:1006200020A02046E1688847002874D0252806D0FD
:10063000D4E901219047206A401C2062F1E700269E
:100640005F462046E16888472028054607DB312DB4
:1006500005D2781910F8200C08B10643F1E7B0076D
:1006600001D526F00406C4F81CA00027C4F818A081
:100670002A2D09D0284605F095FC38B304EB8708ED
:10068000303DC8F8185019E059F8041B204604EB17
:1006900087029161E1688847012F054618D1E0691A
:1006A000002820DA26F020061DE0D8F8180000EB1C
:1006B000800005EB40003038C8F818002046E1689B
:1006C0008847054605F06EFC0028EED1012F0AD0C0
:1006D0002E2D08D12046E16888477F1C0546022F51
:1006E00046F02006C4DBA069002803DA404246F049
:1006F0000106A061F00701D026F010066C2D0BD08A
:10070000682D09D04C2D39D06A2D35D0742D35D0B7
:100710007A2D33D016E038E0E1682F46204688472E
:10072000B842054609D16C2F26D04FF48060E168AD
:10073000064320468847054604E06C2F1AD04FF444
:10074000807006430DB3A5F14100192802D8203569
:1007500046F400664A462946204626604E46FFF784
:100760007FFD80B101280BD0F61D26F0070000F1B7
:10077000080956E74020E4E78020D8E70020D6E7C4
:1007800006F104094DE7284652E7206ABDE8F09FCC
:100790008A380700401ECAB210F8011F8A4202D0F0
:1007A0000029F9D10020704740EA010310B59B07EA
:1007B0000FD1042A0DD310C808C9121F9C42F8D0CB
:1007C00020BA19BA884201D9012010BD4FF0FF307C
:1007D00010BD1AB1D30703D0521C07E0002010BD92
:1007E00010F8013B11F8014B1B1B07D110F8013B1E
:1007F00011F8014B1B1B01D1921EF1D1184610BDFF
:1008000040EA0103024630B59B0710D14FF0013496
:1008100000E008C208C91D1B9D4315EAC41FF8D09B
:1008200013F0FF0102F8011B0DD01B0AF8E711F8C5
:10083000013B002B02F8013B05D011F8013B002BD6
:1008400002F8013BF3D130BD10B5431C02E010F8B3
:10085000011B71B18107FAD14FF0013202C88C1A25
:100860008C4314EAC211F9D0C01A0A0603D0C01E84
:1008700010BDC01A10BD0A0401D0801E10BD0902AF
:10088000FCD0401E10BD032A40F2308010F0030C53
:1008900000F0158011F8013BBCF1020F624498BFD3
:1008A00011F801CB00F8013B38BF11F8013BA2F170
:1008B000040298BF00F801CB38BF00F8013B11F0EB
:1008C000030300F02580083AC0F0088051F8043B8B
:1008D000083A51F804CBA0E80810F5E7121D5CBFF8
:1008E00051F8043B40F8043BAFF30080D20724BF2B
:1008F00011F8013B11F801CB48BF11F8012B24BFBF
:1009000000F8013B00F801CB48BF00F8012B70470D
:1009100010B5203AC0F00B80B1E81850203AA0E89A
:100920001850B1E81850A0E81850BFF4F5AF5FEACE
:10093000027C24BFB1E81850A0E8185044BF18C981
:1009400018C0BDE810405FEA827C24BF51F8043B28
:1009500040F8043B08BF7047D20728BF31F8023B7C
:1009600048BF11F8012B28BF20F8023B48BF00F810
:10097000012B704702F0FF0343EA032242EA0242DE
:1009800000F002B84FF000020429C0F0128010F00D
:10099000030C00F01B80CCF1040CBCF1020F18BF5B
:1009A00000F8012BA8BF20F8022BA1EB0C0100F0EE
:1009B0000DB85FEAC17C24BF00F8012B00F8012BC1
:1009C00048BF00F8012B70474FF0000200B51346F6
:1009D00094469646203922BFA0E80C50A0E80C505F
:1009E000B1F12001BFF4F7AF090728BFA0E80C5010
:1009F00048BF0CC05DF804EB890028BF40F8042B09
:100A000008BF704748BF20F8022B11F0804F18BF75
:100A100000F8012B704700004FF0013C50F8042B08
:100A200051F8043B9A4221D1A2EB0C03934313EA01
:100A3000CC1317D150F8042B51F8043B9A4215D12E
:100A4000A2EB0C03934313EACC130BD150F8042B05
:100A500051F8043B9A4209D1A2EB0C03934313EAE9
:100A6000CC13DBD04FF00000704700BFD01A01BAA2
:100A7000B1FA81F101F0180122FA01F0CB40C1F185
:100A80002001DBB2C0B2C01A2CFA01F3D11A914393
:100A900011EAC311E6D1704770477047704770473D
:100AA00030B5B0F10A024FEA900E71F100034EEA40
:100AB000817EB0EB0E0061EB91014FEA101E4EEA11
:100AC000017E10EB0E0041EB11114FEA102E4EEAA1
:100AD000016E10EB0E0041EB11214FEA104E4EEA71
:100AE000014E10EB0E0041EB1141401841F10001A5
:100AF0004FEAD00040EA41704FEAD10110EB800587
:100B00004FEA810444EA907444EB01046D1944EB0C
:100B10000404521BA3414FF0000348BF0A3200D522
:100B200030BD401C41F1000130BD2DE9F0470D46BC
:100B300099469246044600F124080168880604D5C7
:100B4000E06921F01001216000E00120A84201DDF0
:100B5000471B00E00027A1697A1902EB0900081A77
:100B6000A0612078C00602D42046AFF300800026A2
:100B700008E0D4E901211AF806009047206A401CD9
:100B8000761C20624E45F4DB2078C0060AD520464C
:100B9000AFF3008006E0D4E9012130209047206ABD
:100BA000401C2062381EA7F10107F4DC07E0D4E9FD
:100BB000012118F805009047206A401C2062281E79
:100BC000A5F10105F3DC2046AFF300802078000694
:100BD00002D50220BDE8F0870120FBE770472DE930
:100BE000FF4F0C461E464FF0FF378BB0D2E9000195
:100BF000DDF860800A908A46C1F30A5505B93D4682
:100C0000002108464FF00000BAF1000F00F4400048
:100C100005DA00EB80004FF4400101EA50004FEA92
:100C20009059B9F1010F00DDB9460A9850EA4A001F
:100C30000ED044F61050A5F2FF3545432F14B8F1FD
:100C4000000F1ED07542291E1EDDC9F100021CE0F6
:100C5000B8F1010F4FF0000001D0302103E0F24362
:100C600005E02154401CB042FBDB3046002200214D
:100C700021540B99C1F80880C1E900200FB0BDE8EC
:100C8000F08FBD1B6D1CDEE74A4600DA694206A8FC
:100C900000F03EFA06AB93E8070003AB83E80700D9
:100CA00050460A9900F0DCFA8DE80700A0F50050E4
:100CB0001F3800900398002D0ADD42F21F014A46BA
:100CC0000844002303A90390684600F045FD09E0AD
:100CD000A0F500504A461F38002303A90390684638
:100CE00000F04FFD8DE807000004000C03D04FF02A
:100CF000FF30410800E01046B8F1000F03D0002299
:100D0000009215461EE0751E05D4FFF7C9FE30326D
:100D100062556D1EF9D5B3460122084302D0002268
:100D20007F1C04E02078302801D100227F1E002A99
:100D3000099784D01DE0112D07DAFFF7B1FE30329C
:100D400062556D1C50EA0102F5D1084302D00098AB
:100D5000C8B10EE00021681E05E0235C625C6354AC
:100D60002254401E491C8142F7DBAB46A81B401EA3
:100D70000990002004F80B000B98099AC0F808802D
:100D8000C0E9002B7AE711264FF0000857E72DE95C
:100D9000F04F88460446D21D22F0070191B0D1E9F8
:100DA0000001CDE90A0105F0ABF802460B98C00F2F
:100DB00001D02D2007E02068810701D52B2002E01B
:100DC000202101EAC000032A099001D0072A05DB8F
:100DD00003464146204600F05BF90BE1207880068F
:100DE00001D5E06900E00620B8F1650F814606D024
:100DF000B8F1660F18D0B8F1670F70D131E000205C
:100E0000B9F1110F009001DB112301E009F1010399
:100E10000AAA01A90CA8FFF7E2FEDDE90C70002682
:100E200009F10105834647E001204B4600904FF051
:100E300000470AAA01A90CA8FFF7D1FEDDE90DB011
:100E40000C995D46002610B909F101000D18B9EBA7
:100E5000050003D4C0F1FF3609F10105A5EB090037
:100E60002BE0B9F1010F01DA4FF001090020B9F1CF
:100E7000110F0090484601DD112300E003460AAA45
:100E800001A90CA8FFF7ABFEDDE90C704D4600266A
:100E90008346207800070AD4AB4500DA5D4601A8F6
:100EA000012D04DD411911F8011C302907D04F45EF
:100EB00002DA17F1040F04DA012082460FE06D1EFA
:100EC000EEE7002F02DCED1B3E4403E0781CA84255
:100ED00000DD7D1CB81B00F1010A4FF000472078AF
:100EE000000703D4AA4501DB4FF0FF3A0021B7F118
:100EF000004F0DF143088DF8431024D002202B231E
:100F0000002F01DA7F422D230A21021EA0F10100E9
:100F100000DC5FB197FBF1FC97FBF1F201FB1C7C5D
:100F200017460CF1300C08F801CDEEE7A8F10100EE
:100F300003702188090501D5452100E06521A0F154
:100F4000010800F8011C09980FA9A1EB0807FF1D73
:100F500000B10120411901EBEA70A1693844081A77
:100F6000401EA0612078C00602D42046AFF3008066
:100F7000099828B1D4E901219047206A401C2062D9
:100F80002078C00622D52046AFF300801EE0002E58
:100F900004DBB34502DD01A8805D00E03020D4E928
:100FA00001219047206A401C2062761CAAF10100B2
:100FB0005FEA000A0AD100F067F8C0680168405C87
:100FC000D4E901219047206A401C2062281EA5F127
:100FD0000105DCDC07E0D4E9012118F8010B90479A
:100FE000206A401C2062381EA7F10107F3DC20466E
:100FF000AFF30080032011B041E6000001694A1CF4
:1010000002610878704700B58FB0CDE90131002149
:10101000059105497944CDE9031011466846FFF76B
:10102000F5FA0FB000BD0000E5FFFFFF0A6802F807
:10103000010B0A60704710B5436913B1AFF300802C
:1010400001E0FFF751FA012010BD127800F12401F0
:101050000A7000224A700122EDE711684FF0FF325A
:10106000E9E70000074B70B50D467B44FFF7CBFF67
:101070000446284600F0BEF810B14FF0FF3070BDB6
:10108000204670BD775C010000487047C4C0012055
:101090002DE9F0411F46044603260168072A01F4A2
:1010A000006004DB08B116A505E016A503E008B151
:1010B00015A500E015A521F010002060A069C01E54
:1010C000A0610FB1401EA0612046AFF300804FB178
:1010D000D4E9012138469047206A401C2062C01C98
:1010E000206206E0206AFAE7D4E9012115F8010B35
:1010F0009047761EF8D22046AFF30080BDE8F0811D
:101100004E414E006E616E00494E4600696E6600AB
:101110002DE9F047814616468AB0354878440DC817
:101120008DE80D0032487844801C03AC0DC884E87B
:101130000D0041F69B300844372190FBF1F290FB03
:10114000F1F5A5F1800501FB12041B3C02D56442B8
:10115000012000E00020DFF898A080460027FA4434
:10116000AAF1BE0A0EE0E0070AD03246684607EB55
:10117000470101230AEB810100F003FB8DE8070022
:1011800064107F1C002CEED1194F7F44AE3F19E054
:10119000E80715D007EB04100DF1180A90E80E00CF
:1011A0008AE80E00C068F04201D1981908903246D2
:1011B000012306A903A800F0E4FA03AB83E80700C3
:1011C0006D10641C002DE3D14FF0010332466946D7
:1011D000B8F1000F03A802D000F0BEFA01E000F061
:1011E000D0FAC9E90001C9F808200AB0BDE8F087C3
:1011F000182E0700007B00F0800070470048704701
:10120000A4C001207546FFF7F9FFAE460500694608
:10121000534620F00700854618B020B5FFF7BAF80E
:10122000BDE820404FF000064FF000074FF00008E7
:101230004FF0000B21F00701AC46ACE8C009ACE868
:10124000C009ACE8C009ACE8C0098D46704710B5CC
:101250000446AFF300802046BDE81040FFF725B8F4
:101260005FEA400C08BF91F0000F4FEA8C234FEA71
:10127000C12243EA51514FEA1C5018BF00F5F0401B
:101280004FEA300018BF41F000415FEA6C5C00F0AB
:101290002980BCF1FF3F08BF40F080407047130C2D
:1012A00006BF12044FF0100C4FF0000C130E04BFD9
:1012B00012020CF1080C130F04BF12010CF1040C04
:1012C000930F04BF92000CF1020CD30F04BF520025
:1012D0000CF1010C11464FF00002A0F11F00A0EB31
:1012E0000C00704711F0004F08BF704731F000410B
:1012F0003FF4D5AF0B0C06BF09044FF0100C4FF0B4
:10130000000C0B0E04BF09020CF1080C0B0F04BFFC
:1013100009010CF1040C8B0F04BF89000CF1020CC5
:10132000CB0F04BF49000CF1010CCCF12003A0EB62
:101330000C0022FA03F302FA0CF241EA030100F175
:101340000100704720F07F4C80EA030023F07F47C4
:10135000ACEB070303F57C5300F0004003F1FF03FF
:101360002DE980494FEA154B09B44FEA144325EAA9
:101370000B4E24EA03480FF2042606EB1327490814
:101380003E785FEA320203FB0667C7F5000707FBFA
:1013900006F64FEA54374FEAD64606F1020607FB37
:1013A000066CCCF1005C4FEA1C472CEA074C07FBAB
:1013B00006F40CFB06F504EB15464FEA961634BF0F
:1013C00000204FF000404FEAD13706FB07FC4FEA00
:1013D0001C4C0CFB0BF7D21B03FB0CF761EB07015A
:1013E0000CFB0EF7B0EB074072EB17420CFB08F753
:1013F00034BFA2EB0742B2EB074261EB17414FEA61
:101400000C444FEA910706FB07FC4FEA1C4C0CFB0F
:101410000BF7B0EBC74072EB573203FB0CF734BF4E
:10142000A2EBC742B2EBC74261EB57310CFB0EF7A0
:10143000B0EBC70072EB57720CFB08F734BFA2EB9E
:10144000C702B2EBC70261EB5771039F4FEA81619C
:1014500041EA921104EBCC044FEAD1374FEA8262A1
:1014600006FB07FC42EA90124FEA80604FEA1C4CF0
:101470000CFB0BF7D21B03FB0CF761EB07010CFB1A
:101480000EF7B0EB074072EB17420CFB08F734BFC6
:10149000A2EB0742B2EB074261EB17414FEA8C55D2
:1014A0004FEA910704EB9C2406FB07FC4FEA1C4C17
:1014B0000CFB0BF7B0EBC74072EB573203FB0CF79A
:1014C00034BFA2EBC742B2EBC74261EB57310CFB12
:1014D0000EF7B0EBC70072EB57720CFB08F734BF86
:1014E000A2EBC702B2EBC70261EB577115EB4C25BB
:1014F0004FEA816141EA92114FEA82624FEAD137A5
:1015000042EA901206FB07FC44F100044FEA8060B7
:101510004FEA1C4C0CFB0BF7D21B03FB0CF761EBE7
:1015200007010CFB0EF7B0EB074072EB17420CFB08
:1015300008F734BFA2EB0742B2EB074261EB174159
:1015400015EB1C154FEA813141EA92414FEA823294
:1015500042EA90424FEA80304FEA0C7644F10004B0
:1015600048EA03434EEA0B484FF0000EB2EB080C7A
:1015700071EB030724BF624639464EEB0E0E4FF067
:10158000000B0018524149414BEB0B0BB2EB080C1E
:1015900071EB03077BF1000B24BF624639464EEB2B
:1015A0000E0E4FF0000B0018524149414BEB0B0B54
:1015B000B2EB080C71EB03077BF1000B24BF624612
:1015C00039464EEB0E0E51EA020718BF46F00106EF
:1015D00016EB0E7655F1000254F1000103D5BDE87B
:1015E0008901BDE80088BDE88901BDE80048B61959
:1015F000524141EB0101A3F10103704780807F7EDE
:101600007D7C7B7A79787776767574737271717078
:101610006F6E6E6D6C6C6B6A6A696868676666652A
:101620006464636362616160605F5F5E5E5D5D5CB8
:101630005C5B5B5A5A595958585757565655555529
:101640005454535352525251515050504F4F4F4E89
:101650004E4D4D4D4C4C4C4B4B4B4A4A4A494949D7
:101660004848484747474746464645454544444419
:10167000444343434342424242414141002B9C4642
:1016800030D477002BD01CB54FEA370703B44FF0A6
:1016900010004FF01001BAF1000F06D0BCF1000F9E
:1016A000DCBF40F0080040F008014FF000000FBC24
:1016B000BDE810400BF1010BBBF1010F08BF5FEA61
:1016C000170722BF12F1010211F101014FF0004191
:1016D00043F1000300F0004043EA00007047F9D3F3
:1016E0005708D0E746EA064613F1400F4FEA164680
:1016F0001FDD13F1200FDFBF16430A460021203300
:101700005B42BED0C3F1200746EA064602FA07F75D
:101710004FEA164646EA0706C3F1200722FA03F20B
:1017200001FA07F721FA03F14FF0000342EA07023A
:10173000A7E746EA020646EA06464FEA164646EAA2
:101740000106BCBF46EA0646360C4FF000034FF0D8
:1017500000024FF0000194E72DE9804C9A46934631
:1017600070B491E8380007C831EA400C48BF34EA49
:10177000430C03D5FFF7E6FDFFF780FFF0BCBDE8A3
:10178000008C2DE9804C9A46934670B491E838005D
:1017900007C810F0804F08BF13F0804F03D100F04E
:1017A00005F8FFF76BFFF0BCBDE8008C20F07F4729
:1017B00080EA030023F07F4C07EB0C03A3F57C5376
:1017C00000F00040A3F1FE0392F0000F00F0B380A0
:1017D00095F0000F00F077802DE901494FEA1140A4
:1017E0004FEA144621EA004800FB06FC24EA0647BB
:1017F00008FB06F607FB08F800FB07F718EB06489E
:101800004CEB164C4FEA124B18EB07484FEA1546C3
:101810004CEB174022EA0B4E0BFB06FC25EA064771
:101820000EFB06F607FB0EFE0BFB07F71EEB064E44
:101830004CEB164C4FF000061EEB074E4CEB174BD3
:1018400018EB0B0840F1000018EB0E0B58EB0008EA
:1018500040F100008F1A4FF000013CBFC943661BE6
:1018600014BFB5EB040C00213CBFC943F61B4FEA83
:1018700017444EEA8E0E27EA04454FEA1C4704FB44
:1018800007622CEA074C05FB07F70CFB05F604FB87
:101890000CFC16EB074642EB174216EB0C4642EBEC
:1018A0001C421BEB060658EB0202414146EA9E062B
:1018B00001D5BDE80189B619524141EB0101A3F1FF
:1018C0000103BDE801894FEA14454FEA114724EAB4
:1018D000054621EA074C05FB07F406FB07F70CFB5E
:1018E00006F105FB0CFC11EB074144EB17444FEAF2
:1018F000124711EB0C4144EB1C4422EA074C05FB58
:1019000007F206FB07F70CFB06F605FB0CFC16EBD3
:10191000074642EB174216EB0C4642EB1C456A1891
:1019200054F1000148BF7047B619524141EB010123
:10193000A3F10103704795F0000F37D04FEA114231
:101940004FEA144721EA024624EA074C02FB07F15A
:1019500006FB07F70CFB06F402FB0CFC14EB074438
:1019600041EB17414FEA154714EB0C4441EB1C4186
:1019700025EA074C02FB07F506FB07F70CFB06F60A
:1019800002FB0CFC16EB074645EB174516EB0C4625
:1019900045EB1C42121951F1000148BF7047B619BE
:1019A000524141EB0101A3F1010370474FEA144595
:1019B0004FEA114724EA054621EA074C05FB07F1E7
:1019C00006FB07F70CFB06F24FF0000605FB0CFCCC
:1019D00012EB074241EB174112EB0C4251EB1C4159
:1019E00048BF7047921841EB0101A3F10103704712
:1019F00000BFFEE7704710B50346102A0CD1D1E9AD
:101A0000000440EA04200C8940EA04400C7B40EAD0
:101A10000460DC68D8600BE0D1E9000440EA0420EF
:101A20000C8940EA04400C7B40EA0460DC6AD8621E
:101A3000002010BD10B50346102A0CD1D1E90004D6
:101A400040EA04200C8940EA04400C7B40EA046030
:101A50009C6898600BE0D1E9000440EA04200C89FE
:101A600040EA04400C7B40EA04609C6A98620020D3
:101A700010BD000010B502460868102814D148684F
:101A800040F008008B681843CB6818430B69184373
:101A90004B6940EA43208B6940EA433013680D4CA0
:101AA00023401843106013E0486840F008008B683A
:101AB0001843CB6818430B6918434B6940EA43202D
:101AC0008B6940EA4330136A024C2340184310628A
:101AD000002010BD8101F0FF70B50446B3F5804FC2
:101AE00013D1D1E9000540EA05108D6840EA0520D0
:101AF0008D6928438D8940EA054054F82250064EEE
:101B00003540284344F8220003E06FF0704044F869
:101B10002200002070BD00000000F0CF70B502462A
:101B2000086852F8200020F001000E6842F82600F4
:101B30008868082801D1402500E00025486828432E
:101B40008E683043CE6830430E6930434E6930436F
:101B5000CE6930430E6A30434E6A30438E6A30435A
:101B6000CE6A30430E6B40EA060388690343486B34
:101B70000343C86B03430E4C44F4806444F4801464
:101B800044F4E024086852F82000A04318430E688B
:101B900042F82600486BB0F5801F07D1086828B1CD
:101BA000106820F480104E6B30431060002070BD30
:101BB0007FFB080030B50346D1E9000540EA051077
:101BC0008D6840EA05208D8940EA0545088A401E57
:101BD00045EA0055087D801E45EA00608D6928436E
:101BE000551C53F8255005F040452843551C43F833
:101BF0002500186800F48010B0F5801F0BD15868DC
:101C000020F47004088A401E44EA0054586820F406
:101C1000700020435860002030BD02460868B0B90B
:101C2000D1E901031843CB6818430B6918434B698A
:101C300018438B691843CB6918430B6A18434B6AE6
:101C4000184313686FF30E031843106019E0D1E9CD
:101C5000070318434B6A1843136823F4F8431843E7
:101C60001060D1E901031843CB6818430B6918438E
:101C70004B6918438B69184353686FF30E0318437D
:101C80005060002070470246506943F6FE73984347
:101C900040EA41005061002070472DE9F0410546BF
:101CA0000C4616460027D4E900010843A168491EE6
:101CB00040EA4110E16840EA412029696FF31501CB
:101CC0000843286100F0FCF907460AE0701C40B1A7
:101CD00026B100F0F5F9C01BB04202D90320BDE8DF
:101CE000F081A86900F020002028EFD00020F6E75E
:101CF00030B50346FAB90868401E4C68641E40EAD5
:101D000004148868401E44EA0024C868401E44EA5F
:101D10000034088A401E44EA0044888A401E44EA8F
:101D20000054087E401E44EA00609C6804F0704441
:101D30002043986022E0C868401E0403888A401E41
:101D400044EA00509C680E4D2C402043986008687F
:101D5000401E4C68641E40EA04148868401E44EA31
:101D60000024088A401E44EA0044087E401E44EADB
:101D70000060DC6804F070442043D860002030BD6F
:101D8000FF0F0FFF70B50446A56D00F099F90646E8
:101D900094F83500022808D08020606500BF00203C
:101DA00084F8340000BF012070BD2068006820F076
:101DB0001600216808602068406920F080002168D2
:101DC0004861206C08B9A06C28B12068006820F038
:101DD0000800216808602068006820F00100216880
:101DE000086010E000F06CF9801B05280BD920205A
:101DF0006065032084F8350000BF002084F83400BB
:101E000000BF0320D0E72068006800F00100002830
:101E1000E8D194F85C103F208840A860012084F845
:101E2000350000BF002084F8340000BF00BFBBE7CE
:101E3000014691F83500022803D080204865012032
:101E40007047052081F835000868006820F001001F
:101E50000A6810600020F3E770B5044600F030F91E
:101E600006462546681C10B104480078054400BFAA
:101E700000F026F9801BA842FAD370BD2400002090
:101E8000F8B502460B460025002400200021E0E0C2
:101E9000012606FA01F51E6806EA0504AC4274D173
:101EA0001E7906F00306012E04D01E7906F0030603
:101EB000022E13D190684F000326BE40B0434F005E
:101EC000DE68BE4030439060506801268E40B043CB
:101ED0001E79C6F300168E40304350601E7906F01E
:101EE0000306032E09D0D0684F000326BE40B0433E
:101EF0004F009E68BE403043D0601E7906F0030656
:101F0000022E13D1CF0802F1200656F827004E0703
:101F1000F70E0F26BE40B0434F07FF0E1E69BE40AE
:101F20003043CF0802F1200646F8270010684F0022
:101F30000326BE40B0431E7906F003064F00BE40A4
:101F4000304310605E6806F44036002E1DD000BF9E
:101F500000260096414E366846F480463F4F3E606C
:101F60003E46366806F48046009600BF00BF3C4EF1
:101F70008F0856F827008E07370F0F26BE40B04354
:101F8000384EB24202D100262EE061E0364EB24217
:101F900001D1012628E0354EB24201D1022623E0CC
:101FA000334EB24201D103261EE0324EB24201D17D
:101FB000042619E0304EB24201D1052614E02F4E1E
:101FC000B24201D106260FE02D4EB24201D10726C2
:101FD0000AE02C4EB24201D1082605E02A4EB24258
:101FE00001D1092600E00A268F073F0FBE4030438B
:101FF0001B4E8F0846F82700244E3068A0435E68C9
:1020000006F4801606B12043204E3060361D30683D
:10201000A0435E6806F4001606B120431B4E361D31
:1020200030601A4E361F3068A0435E6806F40036F2
:1020300006B12043154E361F3060361F3068A0436E
:102040005E6806F4803606B12043104E083E3060CC
:10205000491C1029FFF41CAFF8BD000044380240B1
:10206000083801400000024000040240000802401D
:10207000000C024000100240001402400018024010
:10208000001C02400020024000240240083C0140A5
:10209000024613690B400BB1012000E0002070479D
:1020A00010B5426921EA020302EA010443EA04434B
:1020B000836110BD0AB1816101E00B048361704747
:1020C00001480068704700001C00002003480068B9
:1020D0000349097808440149086070471C00002042
:1020E0002400002010B50D48006840F400700B4932
:1020F00008600846006840F4806008600846006890
:1021000040F480700860052000F000FB0F2000F014
:1021100007F800F001FA002010BD0000003C02406A
:1021200070B504460E4800784FF47A71B1FBF0F0B8
:102130000C490968B1FBF0F5284602F021F908B115
:10214000012070BD102C07D200222146501E00F045
:102150009FFA0548046001E00120F2E70020F0E763
:1021600024000020000000202000002070B504465C
:102170000E46154600BF94F8A000012801D10220A8
:1021800070BD012084F8A00000BF022084F8A100E7
:1021900005EB850101EBC50204F1380101EB82007A
:1021A00034223146FEF7B4FB2A463146204602F07F
:1021B00058FC01202168486284F8A10000BF00207B
:1021C00084F8A00000BF00BFDAE7000070B5044645
:1021D0000CB9012070BD94F8A10028B9002084F842
:1021E000A000204600F07EF8022084F8A1002068BC
:1021F000806920F0704021688861D4E901010843BA
:10220000E168084321690843216889690843216816
:102210008861206880683249084021688860A08A07
:10222000050420688068A169294308432168886003
:102230002068C0682A4908402168C860A08B05044E
:102240002068C068216A294308432168C860206863
:1022500000692349084021680861A08C05042068B2
:102260000069A16A29430843216808612068406920
:102270001B49084021684861A08D05042068406919
:10228000216B294308432168486194F83500050211
:1022900094F8360006042068C06A00F07F40216888
:1022A000C86246EA050094F8341008432168C96AF8
:1022B00008432168C8622068406B40F0060021682E
:1022C00048632068806940F001002168886100202F
:1022D000C4F8A400012084F8A10000207AE70000DF
:1022E00000F800F010B586B0044600BF0020009052
:1022F0004D48006840F080604B490860084600681F
:1023000000F08060009000BF00BF00BF0020009080
:1023100045481438006840F4000043491439086007
:102320000846006800F40000009000BF00BF00BF36
:10233000002000900846006840F00200086008464F
:10234000006800F00200009000BF00BF00BF002046
:1023500000900846006840F02000086008460068C9
:1023600000F02000009000BF00BF00BF00200090E0
:102370000846006840F0400008600846006800F029
:102380004000009000BF00BF00BF00200090084642
:10239000006840F0800008600846006800F0800097
:1023A000009000BF00BF00BF0020009008460068FA
:1023B00040F4807008600846006800F48070009067
:1023C00000BF00BF20200190012002900390032055
:1023D000049001A91548FFF753FD4FF48060019068
:1023E0000220029000200390032004900E2005900C
:1023F00001A90F48FFF744FD4FF40C60019001A9BB
:102400000C48FFF73DFD4FF47E40019001A90A48BA
:10241000FFF736FD40F2F760019001A90748FFF78A
:102420002FFD06B010BD00004438024000040240F9
:102430000014024000180240001C0240002002402C
:102440002DE9F04104460E461746984600BF94F821
:10245000A000012802D10220BDE8F081012084F80B
:10246000A00000BF022084F8A10008EB880000EB68
:10247000C80104F1380000EB81052E60A86A3044E1
:102480006860AF60E86A3844E86042462946204602
:1024900002F0E7FA01202168486284F8A10000BF39
:1024A000002084F8A00000BF00BFD5E72DE9F0416F
:1024B00004460E461746984600BF94F8A00001282F
:1024C00002D10220BDE8F081012084F8A00000BF05
:1024D000022084F8A10008EB880000EBC80104F199
:1024E000380000EB8105286830446860A8683844EB
:1024F000E860AE62EF6242462946204602F0B1FA39
:1025000001202168486284F8A10000BF002084F8FF
:10251000A00000BF00BFD5E7704770B504460E4667
:1025200015460CB9012070BD94F8210028B900208F
:1025300084F82000204600F023F8211D2068FFF7D2
:1025400099FA3146D4E90002FFF774FA2946D4E932
:102550000002FFF750FA6068102806D12068006872
:1025600040F004002168086005E02068006A40F03F
:10257000040021680862012084F821000020D2E7CD
:1025800010B586B0044600BF0020009034480068B3
:1025900040F00100324908600846006800F0010080
:1025A000009000BF00BF00BF002000902C480838FA
:1025B000006840F008002A490839086008460068A9
:1025C00000F00800009000BF00BF00BF0020009096
:1025D0000846006840F0100008600846006800F0F7
:1025E0001000009000BF00BF00BF00200090084610
:1025F000006840F0400008600846006800F04000B5
:10260000009000BF00BF40200190002002900120F8
:1026100003900320049001A91248FFF731FC4FF406
:10262000007001900220029000200390032004908B
:102630000C20059001A90C48FFF722FC4DF6330051
:1026400001900020039001A90648FFF719FC4FF400
:10265000F060019001A90548FFF712FC06B010BD1B
:1026600038380240000C02400018024000100240BE
:1026700001460846002809DB00F01F0301229A40AA
:1026800043099B0003F1E023C3F8002100BF70471A
:102690002DE9F05F80460D461646002703F048FC02
:1026A000074639462A46334601F00700C0F1070ABB
:1026B000BAF1040F02D94FF0040A01E0C0F1070A91
:1026C000D14600F1040ABAF1070F02D24FF0000A16
:1026D00001E0A0F1030AD4464FF0010A0AFA09FA10
:1026E000AAF1010A0AEA020A0AFA0CFA4FF0010BEF
:1026F0000BFA0CFBABF1010B0BEA030B4AEA0B04E0
:102700002146404603F01CFCBDE8F09F00BF00F0EE
:102710000702064B19684FF6FF031940044B0B43A1
:1027200043EA0221014B196000BF70470CED00E045
:102730000000FA0538B5002400BF002000901D48B5
:10274000006840F080501B4908600846006800F0AF
:102750008050009000BF00BF012017490864FFF7B8
:10276000AFFC044607E0FFF7ABFC001BB0F57A7F37
:1027700001D9032038BD1148406800F48030B0F51D
:10278000803FF0D101200C494864FFF799FC0446D2
:1027900007E0FFF795FC001BB0F57A7F01D9032015
:1027A000E8E70648406800F40030B0F5003FF0D19B
:1027B0000020DFE74038024000000E420070004079
:1027C000F8B5044600250026207800F0010048B93D
:1027D000207800F00200022804D0207800F04000A9
:1027E000402862D10020B1498866FFF769FC0546A0
:1027F00006E0FFF765FC401B022801D90320F8BD65
:10280000AB480068C0F3C0600028F2D1207800F027
:10281000010038B160688101207A41EA0070A44962
:1028200084310860207800F00200022819D1A04805
:1028300084300068C0F3027660688101207B41EA41
:10284000006040EA06709A498431086098488C30EC
:10285000006820F01F00E169491E084394498C314B
:102860000860207800F0400040280AD160688101AB
:10287000207B41EA0061207A41EA00708C49843172
:102880000860012089498866FFF71AFC054606E0C2
:10289000FFF716FC401B022801D90320AFE784484C
:1028A0000068C0F3C0600028F2D0207800F0040077
:1028B000042804D0207800F00800082863D1002004
:1028C0007A490867FFF7FCFB054606E0FFF7F8FBCF
:1028D000401B022801D9032091E775480068C0F326
:1028E00040700028F2D1207800F00400042819D1AB
:1028F0006F4888300068C0F3027620698101207D2E
:1029000041EA006040EA0670694988310860081DA4
:10291000006820F4F851206A401E41EA0020644912
:102920008C310860207800F00800082817D1604832
:1029300088300068C0F303662069800140EA0661C0
:10294000207E41EA00705A4988310860081D0068FD
:1029500020F44030616A084355498C3108600120F9
:1029600052490867FFF7ACFB054606E0FFF7A8FBF6
:10297000401B022801D9032041E74D480068C0F3FD
:1029800040700028F2D0207800F0200020287DD16F
:1029900000BF0020009046484030006840F0805062
:1029A0004349403108600846006800F080500090BC
:1029B00000BF00BF3F48006840F480703D49086098
:1029C000FFF77EFB054606E0FFF77AFB401B022877
:1029D00001D9032013E73748006800F4807000280D
:1029E000F2D033487030006800F440764EB3208D4A
:1029F00000F44070B04224D02D487030006820F4BC
:102A0000407601202C49086000200860284870307A
:102A10000660006800F0010098B1FFF751FB054621
:102A200008E0FFF74DFB401B41F28831884201D995
:102A30000320E4E61E4870300068C0F34000002820
:102A4000EFD000BF208D00F44070B0F5407F0CD176
:102A500017480830006820F4F810184AA16A11409D
:102A6000084313490831086007E01148083000683E
:102A700020F4F8100E49083108600D4870300068E5
:102A8000218DC1F30B010843094900E002E07031D8
:102A9000086000BF207800F01000102803D194F8DF
:102AA0002C00074908600020A9E60000000047420A
:102AB0000038024000700040400E4742FFFCFF0F0C
:102AC000E011474270B504460D460CB9012070BDB7
:102AD0005848006800F00F00A84209D255490D700F
:102AE0000846006800F00F00A84201D00120EEE780
:102AF000207800F0020002281DD1207800F00400A8
:102B0000042805D14C48006840F4E0504A49086068
:102B1000207800F00800082805D14748006840F4F4
:102B20006040454908604448006820F0F000A16812
:102B3000084341490860207800F00100A8B36068AC
:102B4000012807D13C4808380068C0F34040B8B9B4
:102B50000120BCE76068022802D06068032807D122
:102B6000354808380068C0F3406048B90120AEE736
:102B7000314808380068C0F3400008B90120A6E7D2
:102B80002D48006820F00300616808432A49086066
:102B9000FFF796FA064609E0FFF792FA801B41F22A
:102BA0008831884202D9032091E707E02248006873
:102BB00000F00C006168B0EB810FEDD11D4800689A
:102BC00000F00F00A84209D91A490D7008460068A4
:102BD00000F00F00A84201D0012078E7207800F033
:102BE0000400042807D11448006820F4E050E1688C
:102BF000084311490860207800F00800082808D12F
:102C00000D48006820F46040216940EAC1000A498B
:102C1000086000F03FF808490968C1F30311074A4A
:102C2000515CC8400649086006480068FFF778FA1A
:102C300000204CE7003C02400838024076090408B6
:102C400000000020200000200148006870470000BC
:102C50000000002000B5FFF7F7FF04490968C1F341
:102C60008221034A515CC84000BD00000838024080
:102C70008609040800B5FFF7E7FF04490968C1F3B6
:102C80004231034A515CC84000BD00000838024090
:102C9000860904082DE9F047002400250026A146F6
:102CA0002548006800F00C0020B1042805D0082851
:102CB0003AD105E0DFF8849039E0DFF8849036E01F
:102CC0001D48001F006800F03F041B48001F0068FB
:102CD00000F4800078B11A481749091F0968C1F348
:102CE0008811A0FB01700146224600233846FDF7FB
:102CF00064FB05460EE011480F49091F0968C1F33E
:102D00008811A0FB01700146224600233846FDF7DA
:102D100054FB05460848001F0068C0F30140401CF2
:102D20004600B5FBF6F902E0DFF8109000BF00BFE7
:102D30004846BDE8F0870000083802400024F4004F
:102D400040787D01F8B504460CB90120F8BD207823
:102D500000F00100002874D0F948006800F00C0071
:102D600004280DD0F648006800F00C00082813D1A4
:102D7000F348001F006800F48000B0F5800F0BD10D
:102D8000EF4808380068C0F34040002859D0606818
:102D9000002856D10120D9E700BF6068B0F5803F18
:102DA00008D1E7480838006840F48030E449083921
:102DB00008601EE06068B0F5A02F0DD1E04808382B
:102DC000006840F48020DE49083908600846006841
:102DD00040F4803008600CE0D9480838006820F4DE
:102DE0008030D749083908600846006820F4802000
:102DF000086000BF606890B1FFF762F9054606E021
:102E0000FFF75EF9401B642801D903209EE7CC48F8
:102E100008380068C0F340400028F1D011E0FFF707
:102E20004FF9054606E0FFF74BF9401B642801D92E
:102E300003208BE7C24808380068C0F340400028F0
:102E4000F1D1207800F0020002285FD1BC48006870
:102E500000F00C0058B1BA48006800F00C000828D7
:102E60001CD1B748001F006800F48000B0B9B44816
:102E700008380068C0F3400020B1E068012801D0A4
:102E8000012063E7AE480838006820F0F8002169A7
:102E900040EAC100AA490839086037E0E06800B399
:102EA0000120A8490860FFF70BF9054606E0FFF787
:102EB00007F9401B022801D9032047E7A04808383A
:102EC0000068C0F340000028F1D09D480838006831
:102ED00020F0F800216940EAC100994908390860EA
:102EE00014E0002097490860FFF7EAF8054606E07D
:102EF000FFF7E6F8401B022801D9032026E7904897
:102F000008380068C0F340000028F1D1207800F0B4
:102F1000080008282CD16069A8B101208A490860FE
:102F2000FFF7CEF8054606E0FFF7CAF8401B022877
:102F300001D903200AE782486C300068C0F34000E2
:102F40000028F1D014E000207F490860FFF7B8F8AE
:102F5000054606E0FFF7B4F8401B022801D903201C
:102F6000F4E677486C300068C0F340000028F1D1E7
:102F7000207800F00400042870D100277048383011
:102F8000006800F0805090B900BF002000906C48AD
:102F90003830006840F08050694938310860084690
:102FA000006800F08050009000BF00BF0127674814
:102FB000006800F48070B0B96448006840F4807024
:102FC00062490860FFF77CF8054606E0FFF778F8ED
:102FD000401B022801D90320B8E65C48006800F4D1
:102FE00080700028F2D000BFA068012808D15448A2
:102FF0006830006840F001005149683108601DE008
:10300000A06805280DD14E486830006840F00400E3
:103010004B49683108600846006840F001000860CC
:103020000CE047486830006820F0010044496831EE
:1030300008600846006820F00400086000BFA0682F
:10304000A8B1FFF73DF8054609E0FFF739F8401B46
:1030500041F28831884202D9032077E626E03848D9
:1030600068300068C0F340000028EED013E0FFF79E
:1030700027F8054608E0FFF723F8401B41F28831A6
:10308000884201D9032061E62D4868300068C0F30A
:1030900040000028EFD1012F07D1294838300068BF
:1030A00020F0805026493831086000BFA069002810
:1030B00045D02348006800F00C0008285DD0A069C6
:1030C000022845D100201F490866FEF7F9FF054692
:1030D00006E0FEF7F5FF401B022801D9032035E684
:1030E000174808380068C0F340600028F1D1D4E9DF
:1030F00007010843616A40EA81110122A06AC2EB1C
:10310000500041EA00412C20005D41EA00600C497A
:10311000091F086001200B490866FEF7D1FF05462C
:1031200006E0FEF7CDFF401B022801D903200DE683
:10313000034808380068C0F340600028F1D049E037
:103140000838024000004742800E474200700040AD
:10315000002021490866FEF7B3FF054606E0FEF7AA
:10316000AFFF401B022801D90320EFE51B48006890
:10317000C0F340600028F2D12CE0A069012800D102
:10318000E4E51648001D0668A069012820D006F471
:103190008001E06981421BD106F03F01206A814233
:1031A00016D147F6C0703040616AB0EB811F0FD175
:1031B00006F440310122A06AC2EB5000B1EB004F8F
:1031C00006D106F070612C20005DB1EB006F01D0DC
:1031D0000120BBE50020B9E500004742003802406D
:1031E00070B504460D460CB9012070BD94F82C0052
:1031F00028B9002084F82D00204600F011F80220A4
:1032000084F82C00211D2068FEF707FD2946D4E92B
:103210000002FEF76DFD012084F82C000020E4E799
:1032200010B586B0044600BF0020009043480068F7
:1032300040F00100414908600846006800F00100C4
:10324000009000BF00BF00BF002000903B4808383E
:10325000006840F0040039490839086008460068F1
:1032600000F00400009000BF00BF00BF00200090ED
:103270000846006840F0080008600846006800F052
:103280000800009000BF00BF00BF0020009008466B
:10329000006840F0100008600846006800F0100068
:1032A000009000BF00BF00BF0020009008460068EB
:1032B00040F0200008600846006800F02000009000
:1032C00000BF00BF00BF002000900846006840F02B
:1032D000400008600846006800F04000009000BF11
:1032E00000BF0D20019002200290012003900320D6
:1032F00004900C20059001A91148FEF7C1FD4CF285
:103300000370019001A90F48FEF7BAFD4FF68370D4
:10331000019001A90C48FEF7B3FD4FF63F00019064
:1033200001A90A48FEF7ACFD48F23710019001A947
:103330000748FEF7A5FD06B010BD00003838024072
:1033400000080240000C024000100240001402403D
:103350000018024070B504460D4694F82C0002286F
:1033600000D170BD94F82C0001280AD1022084F805
:103370002C0029462068FEF786FC012084F82C00EA
:1033800001E00120EDE70020EBE72DE9F0410446E4
:103390000E46174694F82C50022D02D10220BDE8AB
:1033A000F081012D01D0052D12D1022084F82C00CE
:1033B0003A4631462068FEF770FC3068022803D197
:1033C000052084F82C0005E0012084F82C0001E0A1
:1033D0000120E4E70020E2E7F0B589B004460E469C
:1033E0000027032084F83400606C032820D0B6F551
:1033F000805F04D1A06B40F08050A0631CE0B6F564
:10340000006F07D1204602F027FA0546A06B28433B
:10341000A06311E03EB9204602F0EAF90546A06B30
:103420002843A06308E0A06B40F00060A06303E0C5
:10343000A06B40F08050A063A06B38B117482168A2
:103440008863012084F83400012713E0606803904A
:10345000A0680490E0680590069660690790A069EE
:10346000089006A807C88DE80700206803A90EC9C0
:1034700001F027FC4FF40071206801F099FC05462B
:1034800035B1064821688863A06B2843A0630127F3
:10349000012084F83400384609B0F0BDFF05400033
:1034A00010B50246506E800F0870506EC0F38360F6
:1034B0004870506EC0F301608870506E000CC87088
:1034C000B2F86400000A087192F864004871906EC6
:1034D000000DC880906EC0F3034008726820805AC7
:1034E000C0F3C03048726820805AC0F380308872C0
:1034F0006820805AC0F34030C8726820805AC0F3F8
:103500000030087300204873506C002836D16820C2
:10351000805A8005030DD06E43EA90700861D06E2A
:10352000C0F3C2600875D06EC0F302604875D06EFB
:10353000C0F342508875D06EC0F38240C875D06E1B
:10354000C0F3C23008760869401C50650B7E506D90
:1035500003F007039B1C01249C4060435065087ADC
:1035600000F00F03012098409065D2E915035B0A33
:103570005843D0654FF40073136621E0506C012866
:1035800013D16820805C8006830AD06E43EA104025
:1035900008610869401C83025365536DD3654FF47D
:1035A00000739365936D13660AE02E481368986361
:1035B000906B40F080509063012082F8340010BD81
:1035C0006C20805AC0F3803001F8190F6C20805AAB
:1035D000C0F3C61048706C20805C00F07F008870DB
:1035E000106FC00FC870106FC0F341700871106F7A
:1035F000C0F382604871106FC0F383508871106F00
:10360000C0F34050C87100200872106FC0F3004032
:1036100048727020805AC0F3C03088727020805A7F
:10362000C0F38030C8727020805AC0F340300873F5
:103630007020805AC0F3003048737020805AC0F365
:10364000812088737020805AC0F30120C8737020D5
:10365000805CC0F3460008740120487419390020CA
:10366000ADE70000FF0540000246506C0860906C1A
:103670004860D06C8860106DC860506D0861906DB6
:103680004861D06D8861106EC86100207047F8B540
:103690000446002000906946204602F091F8054655
:1036A00015B1A06B2843A0630098C0F343263046B1
:1036B000F8BD10B504460CB9012010BD94F83400D3
:1036C00020B900202077204600F06AF8032084F813
:1036D0003400204600F00CF808B10120EDE700208E
:1036E000A0632063012084F834000020E5E7000097
:1036F00070B58AB0044600200490059006900790AB
:1037000008907620099007A807C88DE80700206870
:1037100004A90EC901F0D5FA064616B101200AB077
:1037200070BD00201C490860206801F0E4FA012007
:103730001949A039C1F8A0000220FEF78DFB2046F0
:1037400001F0D8FF05463DB1012084F83400A06B9C
:103750002843A0630120E2E7204601F04AFF054626
:103760003DB1012084F83400A06B2843A063012000
:10377000D5E74FF40071206801F01AFB05464DB102
:10378000064821688863A06B2843A063012084F861
:103790003400C4E70020C2E7A0802542FF054000B6
:1037A00010B586B004465949206888427ED100BFD2
:1037B000002000905648006840F4006054490860BA
:1037C0000846006800F40060009000BF00BF00BF22
:1037D00000BF002000904E481438006840F00400FC
:1037E0004B49143908600846006800F00400009056
:1037F00000BF00BF00BF00BF00BF00200090084610
:10380000006840F0040008600846006800F004000A
:10381000009000BF00BF00BF00BF00BF00200090AD
:103820000846006840F0040008600846006800F0A0
:103830000400009000BF00BF00BF00BF00BF002019
:1038400000900846006840F00400086008460068E0
:1038500000F00400009000BF00BF00BF00BF00BF29
:10386000002000900846006840F004000860084608
:10387000006800F00400009000BF00BF00BF00BF60
:1038800000BF002000900846006840F00800086073
:103890000846006800F00800009000BF00BF00BFAD
:1038A0008815019002200290012000E02BE0039097
:1038B000022004900C20059001A91648FEF7E0FABA
:1038C0004FF40070019001A91248FEF7D9FA4FF4A5
:1038D0008060019001A90F48FEF7D2FA4FF4006012
:1038E000019001A90B48FEF7CBFA4FF480500190EC
:1038F00001A90848FEF7C4FA0420019001A906486E
:10390000FEF7BEFA00BF06B010BD0000002C01405B
:103910004438024000080240000C02402DE9FF4FED
:1039200089B004468B469946DDF858A0FEF7C8FBDF
:1039300002900B9800905D46BBF1000F07D1A06B81
:1039400040F00060A06301200DB0BDE8F08F94F856
:10395000340001287ED10020A063009800EB09010B
:10396000E06D814205D9A06B40F00070A06301209A
:10397000EAE7032084F8340000202168C862606C04
:10398000012802D00098400200904FF0FF300390D1
:103990004FEA4920049090200590022006900020D4
:1039A00007900120089003A9206801F065F9B9F19A
:1039B000010F07D9022020632068009901F060FA06
:1039C000804606E0012020632068009901F074FA27
:1039D0008046B8F1000F0DD0754821688863A06B50
:1039E00040EA0800A063012084F83400002020632E
:1039F0000120A9E7049E3AE02068406B00F40040F3
:103A0000E0B1DEB10020019015E0206801F078F906
:103A100007462F706D1C761E380A28706D1C761EA6
:103A2000380C28706D1C761E380E28706D1C761EA2
:103A30000198401C019001980828E6D3FEF740FB4E
:103A40000299401A504502D2BAF1000F0FD15848DE
:103A5000216800E0A6E08863A06B40F00040A0630E
:103A6000012084F834000020206303206CE72068E4
:103A7000406B40F22A3108400028BDD02068406BDE
:103A800000F48070D0B1B9F1010F17D9606C032830
:103A900014D0206801F0D0FA8046B8F1000F0DD0A4
:103AA000434821688863A06B40EA0800A0630120B6
:103AB00084F8340000202063012045E72068406B33
:103AC00000F0080068B13A4821688863A06B40F0B4
:103AD0000800A063012084F8340000202063012046
:103AE00032E72068406B00F0020068B1304821687E
:103AF0008863A06B40F00200A063012084F83400CA
:103B00000020206301201FE72068406B00F02000A8
:103B100068B1274821688863A06B40F02000A0634B
:103B2000012084F834000020206301200CE729E004
:103B3000206801F0E5F807462F706D1C761E380AE4
:103B400028706D1C761E380C28706D1C761E380E81
:103B500028706D1C761EFEF7B3FA0299401A504584
:103B600002D2BAF1000F0DD1114821688863A06B11
:103B700040F00040A063012084F83400002020635E
:103B80000120E1E62068406B00F4001008B1002E2F
:103B9000CED140F23A5021688863012084F8340085
:103BA0000020D1E6A06B40F00050A0630120CBE6DE
:103BB000FF0540002DE9F04F89B004468946934641
:103BC0009846FEF77DFA0290DA464D46B9F1000FAD
:103BD00007D1A06B40F00060A063012009B0BDE8F0
:103BE000F08F94F8340001287ED10020A0630AEB06
:103BF0000801E06D814205D9A06B40F00070A06320
:103C00000120EBE7032084F8340000202168C8621B
:103C1000606C012801D04FEA4A2A4FF0FF30039030
:103C20004FEA4820049090200590002006900790CD
:103C30000120089003A9206801F01EF8B8F1010FD7
:103C400007D9202020635146206801F013FA064668
:103C500006E0102020635146206801F027FA06464E
:103C600066B15F4821688863A06B3043A063012080
:103C700084F83400002020630120AFE7049F43E074
:103C80002068406B00F4804030B32FB300200190D7
:103C90001FE0287800906D1C7F1E2878009941EA6B
:103CA000002000906D1C7F1E2878009941EA00409A
:103CB00000906D1C7F1E2878009941EA00600090FA
:103CC0006D1C7F1E6946206801F032F80198401C87
:103CD000019001980828DCD3FEF7F2F90299411A05
:103CE0001298814203D200E074E0129860B93C4817
:103CF00021688863A06B3043A063012084F83400FE
:103D000000202063032069E72068406B40F21A31ED
:103D100008400028B4D02068406B00F48070B8B12F
:103D2000B8F1010F14D9606C032811D0206801F09C
:103D300083F9064666B12A4821688863A06B304340
:103D4000A063012084F8340000202063012045E7AF
:103D50002068406B00F0080068B121482168886342
:103D6000A06B40F00800A063012084F8340000201C
:103D70002063012032E72068406B00F0020068B148
:103D8000174821688863A06B40F00200A0630120FF
:103D900084F834000020206301201FE72068406B76
:103DA00000F0100068B10E4821688863A06B40F0F5
:103DB0001000A063012084F834000020206301205B
:103DC0000CE740F23A5021688863012084F83400FF
:103DD000002003E7A06B40F00050A0630120FDE647
:103DE000FF05400010B504460CB9012010BD606A03
:103DF00038B96068B0F5827F00D105E00021E1614B
:103E000002E0002121616161A06AB0F5005F00D18C
:103E100000BF94F8510028B9002084F850002046D3
:103E200000F050F8022084F851002068006820F06B
:103E3000400021680860A08800F48270218901F4A4
:103E400004410843A18901F400610843217C01F089
:103E500002010843217D01F001010843218B01F497
:103E600000710843217F01F0380108432021095DDA
:103E700001F080010843218D01F4005108432168BD
:103E800008600421A06901EA104094F8241001F0B0
:103E90001001084321684860A06AB0F5005F03D1B3
:103EA000A08D80B2216808612068C06920F400609C
:103EB0002168C86100206065012084F8510000205D
:103EC00094E7000010B586B0044600BF00BF002094
:103ED00000902A48006840F0200028490860084601
:103EE000006800F02000009000BF00BF00BF00BFCE
:103EF00000BF002000900846006840F020000860E5
:103F00000846006800F02000009000BF00BF00BF1E
:103F100000BF00BF002000900846006840F020006D
:103F200008600846006800F02000009000BF00BF55
:103F300000BF00BF00BF0020009010481430006890
:103F400040F480100D49143108600846006800F400
:103F50008010009000BF00BF00BF4FF46070019060
:103F60000220029001200390022004900520059079
:103F700001A90348FDF784FF06B010BD30380240A8
:103F8000001402402DE9F04F85B004468846914662
:103F90001D460E9E002003900120029000200190FB
:103FA00000BF94F85000012803D1022005B0BDE8FD
:103FB000F08F012084F8500000BFFEF781F807461B
:103FC00094F851B060680490AA46BBF1010F0BD081
:103FD0000498B0F5827F04D1A06810B9BBF1040F3A
:103FE00002D0022001902CE1B8F1000F03D0B9F10A
:103FF000000F00D015B90120019022E194F8510082
:10400000042802D0052084F8510000206065C4F81F
:104010003890E587A587C4F83080E586A5862064BA
:104020006064A06AB0F5005F0DD100BF2068006831
:1040300020F40050216808602068006840F40050B7
:104040002168086000BF2068006800F04000402838
:1040500005D02068006840F0400021680860E068F2
:10406000B0F5006F56D1606810B1BAF1010F09D1F7
:10407000206B00882168C860206B801C2063E08E64
:10408000401EE0863FE02068806800F002000228C1
:104090001CD1E08ED0B10298012817D1206B008886
:1040A0002168C860206B801C2063E08E401EE08683
:1040B00000200290E08E48B9A06AB0F5005F05D1FB
:1040C0002068006840F4805021680860206880689B
:1040D00000F0010068B1E08F58B12068C068A16BA2
:1040E0000880A06B801CA063E08F401EE087012049
:1040F0000290FDF7E5FFC01BB04204D3701C10B165
:10410000032001909DE0E08E0028BCD1E08F0028C4
:10411000B9D156E0606810B1BAF1010F09D1206B36
:10412000007821680873206B401C2063E08E401EDD
:10413000E08640E02068806800F0020002281CD180
:10414000E08ED0B10298012817D1206B0078216849
:104150000873206B401C2063E08E401EE086002028
:104160000290E08E48B9A06AB0F5005F05D12068E2
:10417000006840F48050216808602068806800F082
:10418000010068B1E08F58B12068C068A16B087069
:10419000A06B401CA063E08F401EE08701200290CE
:1041A000FDF78EFFC01BB04201D3701C00B916B9D9
:1041B0000320019045E0E08E0028BBD1E08F00286D
:1041C000B8D1A06AB0F5005F12D133460122114682
:1041D0002046009701F0AAFB30B1606D40F002006C
:1041E0006065032001902CE02068C068039000BF48
:1041F0002068806800F01000102809D1606D40F040
:10420000020060654FF6EF70216888600120019020
:104210003A463146204601F053FB20B1012001907F
:10422000202060650DE0A06850B900BF002000901C
:104230002068C068009020688068009000BF00BFC0
:1042400000BF012084F8510000BF002084F8500016
:1042500000BF0198AAE670B504460E4615460CB993
:10426000012070BD94F8490028B9002084F8480066
:10427000204600F01FF804F108012068FDF74EFC0D
:104280003146A2682068FDF795FC2946236BD4E9E6
:104290000102FDF721FCA168206850F8210040F0E0
:1042A0000100A268216841F82200012084F8490039
:1042B0000020D6E710B586B0044600BF002000906D
:1042C0002248006840F00100204908600846006864
:1042D00000F00100009000BF00BF00BF0020009070
:1042E0001A480838006840F0080018490839086082
:1042F0000846006800F00800009000BF00BF00BF43
:10430000002000900846006840F010000860084651
:10431000006800F01000009000BF00BF4EF2B370C4
:1043200001900220029001200390022004900C20B2
:10433000059001A90648FDF7A3FD4FF68070019096
:1043400001A90448FDF79CFD06B010BD38380240B5
:10435000000C024000100240042808D14FF0E02178
:10436000096941F004014FF0E022116107E04FF0CC
:10437000E021096921F004014FF0E022116170474A
:1043800070B504462546681EB0F1807F01D3012038
:104390000FE0681E4FF0E02148610F214FF0FF3021
:1043A00001F0CEFD00204FF0E02188610720086178
:1043B000002070BD70477047704710B504462068F4
:1043C0000069C0F34000D8B12068C068C0F3400065
:1043D000B0B16FF0020021680861012020772068E9
:1043E000806900F0030018B12046FFF7E5FF05E003
:1043F000204600F0ADF8204600F0ABF80020207712
:1044000020680069C0F38000D8B12068C068C0F39C
:104410008000B0B16FF004002168086102202077AD
:104420002068806900F4407018B12046FFF7C4FF8F
:1044300005E0204600F08CF8204600F08AF80020C5
:10444000207720680069C0F3C000D8B12068C06838
:10445000C0F3C000B0B16FF008002168086104200B
:1044600020772068C06900F0030018B12046FFF7EC
:10447000A3FF05E0204600F06BF8204600F069F845
:104480000020207720680069C0F30010D8B12068B0
:10449000C068C0F30010B0B16FF01000216808616F
:1044A000082020772068C06900F4407018B12046C9
:1044B000FFF782FF05E0204600F04AF8204600F0B2
:1044C00048F8002020772068006900F0010058B10A
:1044D0002068C06800F0010030B16FF00100216871
:1044E0000861204600F036F820680069C0F3C0106B
:1044F00058B12068C068C0F3C01030B16FF08000C0
:10450000216808612046FFF755FF20680069C0F365
:10451000801058B12068C068C0F3801030B16FF0CF
:10452000400021680861204600F015F82068006905
:10453000C0F3401058B12068C068C0F3401030B1DB
:104540006FF02000216808612046FFF734FF10BD9E
:1045500070477047704770477047704701460022A8
:10456000002391F83D2091F83E3042EA0300704765
:104570002DE9F84F0446206805682068C668206861
:1045800047694FF00009CA4605F00F09B9F1000F5D
:104590000AD105F0200038B106F0200020B12046F5
:1045A00001F09CFABDE8F88FB9F1000F7CD007F05C
:1045B000010018B906F49070002875D005F00100CC
:1045C00030B106F4807018B1206C40F00100206416
:1045D00005F0040030B107F0010018B1206C40F084
:1045E0000200206405F0020030B107F0010018B1AC
:1045F000206C40F00400206405F0080048B106F08B
:10460000200010B907F0010018B1206C40F008003C
:104610002064206C002846D005F0200028B106F068
:10462000200010B1204601F059FA20684069C0F31B
:10463000801A206C00F0080010B9BAF1000F2DD0DC
:10464000204601F005FA2068406900F0400040284B
:1046500020D100BF00BF2168143151E8001F21F0B4
:1046600040002168143141E80002002AF3D100BF64
:10467000A06B50B17548A16B0865A06BFDF7D8FB26
:1046800088B1A06B016D88470DE02046FFF765FFFC
:1046900009E009E02046FFF760FF04E02046FFF74D
:1046A0005CFF002020647DE7206B012876D105F0B7
:1046B0001000002872D006F010000028FAD000BFC9
:1046C00000200090206800680090206840680090FA
:1046D00000BF00BF2068406900F0400040285ED164
:1046E000A06B006840681FFA80F8B8F1000F54D042
:1046F000A08D404551DDA4F82E80A06BC069B0F5B7
:10470000807F43D000BF00BF21680C3151E8001FFB
:1047100021F4807021680C3141E80002002AF3D1B5
:1047200000BF00BF00BF2168143151E8001F21F015
:1047300001002168143141E80002002AF3D100BFD2
:1047400000BF00BF2168143151E8001F21F0400074
:104750002168143141E80002002AF3D100BF202073
:1047600084F83E000020206300BF00BF21680C31A8
:1047700051E8001F21F0100021680C3141E80002CF
:10478000002AF3D100BFA06BFDF7FCFAA08DE28DEB
:10479000801A81B22046FFF7DFFE03E740E0A08DDC
:1047A000E18D401A1FFA80F8E08DC0B3B8F1000F18
:1047B00035D000BF00BF21680C3151E8001F21F443
:1047C000907021680C3141E80002002AF3D100BF4B
:1047D00000BF00BF2168143151E8001F21F0010023
:1047E0002168143141E80002002AF3D100BF2020E3
:1047F00084F83E000020206300BF00BF21680C3118
:1048000051E8001F21F0100021680C3141E800023E
:10481000002AF3D100BF41462046FFF79DFEC1E6C6
:1048200005F0800030B106F0800018B1204601F09C
:104830000CFBB7E605F0400030B106F0400018B1BF
:10484000204601F03BF9ADE600BFABE63D5A00085B
:1048500010B504460CB9012010BDA06900B100E0FC
:1048600000BF94F83D0028B9002084F83C002046A1
:1048700000F028F8242084F83D002068C06820F467
:1048800000502168C860204601F0A4F92068006942
:1048900020F49040216808612068406920F02A00D7
:1048A000216848612068C06840F400502168C860F1
:1048B00000202064202084F83D0084F83E00002081
:1048C000CAE7000010B586B004462E492068884229
:1048D00055D100BF00BF002000902B48006840F079
:1048E0001000294908600846006800F01000009098
:1048F00000BF00BF00BF00BF00BF002000902248E3
:104900001438006840F001001F4914390860084657
:10491000006800F00100009000BF00BF00BF00BFB2
:1049200000BF002000900846006840F001000860C9
:104930000846006800F00100009000BF00BF00BF03
:10494000481501900220029001200390022004905B
:104950000720059001A90D48FDF792FA4FF48060F9
:1049600001900720059001A90848FDF789FA252044
:10497000FDF77EFE032211462520FDF789FE06B0D5
:1049800010BD000000100140443802400000024009
:1049900070B504460D46164694F83E00202816D100
:1049A00005B10EB9012070BD00BF94F83C0001288C
:1049B00001D10220F7E7012084F83C0000BF00206D
:1049C000206332462946204601F01AFAEBE702201E
:1049D000E9E700001D4A0168914236D11C49098867
:1049E00001F4004189BB1A49098801F4804171B181
:1049F000184909780A2903D00021154A118024E0BA
:104A00001349098841F40041114A11801DE0114900
:104A100009780D2906D10E49098841F480410C4AD4
:104A2000118012E00B490978094A1288C2F30D027D
:104A3000094B995406490988491C054A11801146B9
:104A40000988C72901DD002111807047001001404D
:104A5000140000201600002020030020704700BF33
:104A6000FEE7F0B58E880768FF68C7F30B473E4442
:104A7000330406688436802707FB0266766806F4EE
:104A80007047066884364FF0800C0CFB0266776036
:104A90000E680768FF68C7F30B473E44761C1E4349
:104AA000076884370CFB02777E608E890768FF6891
:104AB000C7F30A073E44330406688436802707FBA1
:104AC0000266B66806F47047066884360CFB026618
:104AD000B7608E680768FF68C7F30A073E44761C14
:104AE00046EA0307066884360CFB0266B760066870
:104AF0008436802707FB0266366926F007070668BA
:104B000084360CFB026637610F69066884360CFB3D
:104B1000026637613126765C33023226765C3404D5
:104B20000E7E350606688436802707FB0266B66966
:104B30000027066884360CFB0266B76191F8306086
:104B40001E43264346EA0507066884360CFB0266C8
:104B5000B76106688436802707FB0266766926F00F
:104B6000FF07066884360CFB026677614F690668AA
:104B700084360CFB0266776106688436802707FB63
:104B80000266F66940F20777BE43076884370CFB7C
:104B90000277FE61D1E907763743066884360CFB5D
:104BA0000266F76106688436802707FB0266B66AEC
:104BB0000027066884360CFB0266B7624F6A0668F7
:104BC00084360CFB0266B7620E690EB9042313E04B
:104BD0000E69012E01D103230EE00E69042E08D0C8
:104BE0000E69022E05D00E69032E02D00E69072E23
:104BF00001D1022300E0012306688436802707FBE9
:104C00000266F66A06F0E027066884364FF0800CEC
:104C10000CFB0266F762D1E90076F61B5E43F61CD8
:104C20000F8D5F4346EA0747066884360CFB026631
:104C3000F76206688436802707FB0266366BF70A40
:104C4000FF02066884360CFB02663763CF6A06688B
:104C500084360CFB0266376306688436D701F65942
:104C600046F00107066884364FEAC21C46F80C700D
:104C7000F0BD00BFFEE7704710B50246002308688C
:104C8000506248689062D1E9020420430C692043D5
:104C90004C6920430343D06A20F0F7001843D062E8
:104CA000002010BD01460869C0B27047014608687F
:104CB00000F003007047024602F114004318186820
:104CC00070470FB410B504460021DDE9030210431C
:104CD000059A1043069A1043079A1043089A104306
:104CE0000143606847F6FF6290430843606000201C
:104CF00010BC5DF814FB01460320086000207047DB
:104D00000146D1F88000704710B5024600230868BC
:104D10009060D1E901042043CC6820430C69204312
:104D20000343D0686FF30B001843D060002010BD20
:104D300002460868C2F880000020704770B585B050
:104D400005460C4600943720019040200290002038
:104D500003904FF48060049069462846FFF7D4FF23
:104D600041F288323721284600F0DCF90646304609
:104D700005B070BD70B585B005460C460B482043A4
:104D800000902920019040200290002003904FF4D1
:104D90008060049069462846FFF7B6FF284600F079
:104DA000C9FA0646304605B070BD0000000010800C
:104DB00070B585B005460C46009410200190402047
:104DC0000290002003904FF48060049069462846CA
:104DD000FFF79AFF41F288321021284600F0A2F92D
:104DE0000646304605B070BD70B585B005460C4628
:104DF00000940620019040200290002003904FF480
:104E00008060049069462846FFF77EFF41F28832B1
:104E10000621284600F086F90646304605B070BDEA
:104E200030B585B0044600200090019002900390B8
:104E30004FF48060049069462046FFF765FF2046E6
:104E400000F050F90546284605B030BD30B585B0B4
:104E500004464FF4D5700090082001904020029045
:104E6000002003904FF48060049069462046FFF7CD
:104E70004BFF204600F0E6FA0546284605B030BD57
:104E800070B585B005460C46009412200190402074
:104E90000290002003904FF48060049069462846F9
:104EA000FFF732FF41F288321221284600F03AF92A
:104EB0000646304605B070BD70B585B005460C4657
:104EC00000941120019040200290002003904FF4A4
:104ED0008060049069462846FFF716FF41F2883249
:104EE0001121284600F01EF90646304605B070BD77
:104EF000F0B585B0064614461D4600940720019083
:104F000040200290002003904FF480600490694696
:104F10003046FFF7F9FE41F288320721304600F0B3
:104F200001F90746384605B0F0BD30B585B00446F6
:104F30000020009002200190C020029000200390E9
:104F40004FF48060049069462046FFF7DDFE20465E
:104F500000F0BEF90546284605B030BD70B585B0F5
:104F600005460C46009409200190C02002900020C4
:104F700003904FF48060049069462846FFF7C4FE12
:104F8000284600F0A5F90646304605B070BD30B59C
:104F900085B004460020009033200190402002900C
:104FA000002003904FF48060049069462046FFF78C
:104FB000ABFE41F288323321204600F0B3F80546BB
:104FC000284605B030BD70B585B005460C46009446
:104FD0000D20019040200290002003904FF480604B
:104FE000049069462846FFF78FFE41F288320D2172
:104FF000284600F097F80646304605B070BD70B5FB
:1050000085B005460C46002000900320019040200A
:105010000290002003904FF4806004906946284677
:10502000FFF772FE22460321284600F0AFF906463C
:10503000304605B070BD000030B585B00446002094
:1050400000900C20019040200290002003904FF42B
:105050008060049069462046FFF756FE044A0C2102
:10506000204600F05FF80546284605B030BD000038
:1050700000E1F50570B585B005460C460094192091
:10508000019040200290002003904FF48060049033
:1050900069462846FFF738FE41F288321921284632
:1050A00000F040F80646304605B070BD70B585B0DA
:1050B00005460C46009418200190402002900020E4
:1050C00003904FF48060049069462846FFF71CFE69
:1050D00041F288321821284600F024F8064630466E
:1050E00005B070BD01460E480068C0084FF47A73E1
:1050F000B0FBF3F041F2883300FB03F200BF101E57
:10510000A2F1010202D14FF000407047486B00F05D
:1051100080000028F3D0C52088630020F5E7000058
:10512000000000202DE9F04305460F4690466648F2
:105130000068C0084FF47A71B0FBF1F000FB08F989
:1051400000BFB9F10000A9F1010903D14FF00040FF
:10515000BDE8F0836E6B06F045000028F1D006F440
:1051600000600028EDD1686B00F0040010B104204D
:10517000A863EDE7686B00F0010010B10120A8639F
:10518000E6E7C520A8632846FFF78CFDB84201D0AA
:105190000120DDE700212846FFF78DFD04464B483E
:1051A000204008B90020D3E704F00040B0F1004FE0
:1051B00002D14FF00070CBE704F08040B0F1804F97
:1051C00001D14020C4E704F00050B0F1005F01D1EC
:1051D0008020BDE704F08050B0F1805F02D14FF431
:1051E0008070B5E704F00060B0F1006F02D14FF4B9
:1051F0000070ADE704F08060B0F1806F02D14FF431
:105200008060A5E704F08070B0F1807F02D14FF498
:1052100000609DE704F40000B0F5000F02D14FF4E8
:10522000805095E704F48000B0F5800F02D14FF470
:1052300000508DE704F40010B0F5001F02D14FF4C8
:10524000804085E704F48010B0F5801F02D14FF450
:1052500000407DE704F48020B0F5802F02D14FF4A8
:10526000003075E704F40030B0F5003F02D14FF490
:1052700080206DE704F48030B0F5803F02D14FF418
:10528000002065E704F40040B0F5004F02D14FF470
:1052900080105DE704F48040B0F5804F02D14FF4F8
:1052A000001055E704F40050B0F5005F02D14FF450
:1052B00080004DE704F00800082801D1000547E709
:1052C0004FF4803044E700000000002008E0FFFDBC
:1052D00010B5014616480068C0084FF47A74B0FB58
:1052E000F4F041F2883400FB04F300BF181EA3F170
:1052F000010302D14FF0004010BD4A6B02F045009F
:105300000028F3D002F400600028EFD1486B00F0D1
:10531000040010B104208863EEE7486B00F0010040
:1053200010B101208863E7E7C52088630020E3E728
:105330000000002010B5014613480068C0084FF473
:105340007A74B0FBF4F041F2883400FB04F300BF40
:10535000181EA3F1010302D14FF0004010BD4A6BAB
:1053600002F045000028F3D002F400600028EFD1DD
:10537000486B00F0040010B104208863EEE7C520FC
:1053800088630020EAE70000000000202DE9F043D8
:1053900004460F4690462A480068C0084FF47A71C8
:1053A000B0FBF1F041F2883100FB01F900BFB9F127
:1053B0000000A9F1010903D14FF00040BDE8F083DE
:1053C000666B06F045000028F1D006F40060002866
:1053D000EDD1606B00F0040010B10420A063EDE794
:1053E000606B00F0010010B10120A063E6E72046E9
:1053F000FFF758FCB84201D00120DFE7C520A063C9
:1054000000212046FFF757FC054605F4604020B90F
:10541000280CA8F800000020D0E705F48040B0F583
:10542000804F02D14FF40050C8E705F40040B0F5BA
:10543000004F02D14FF48050C0E74FF48030BDE7F9
:105440000000002010B5014618480068C0084FF45D
:105450007A74B0FBF4F041F2883400FB04F300BF2F
:10546000181EA3F1010302D14FF0004010BD4A6B9A
:1054700002F045000028F3D002F400600028EFD1CC
:10548000486B00F0040010B104208863EEE7486B1D
:1054900000F0010010B101208863E7E7486B00F0DD
:1054A000400008B1402088630020DFE700000020B2
:1054B0002DE9F04389B004460F46FCF701FE814612
:1054C0004FF000080020019002903E46082120681D
:1054D000FFF76EFC05461DB1284609B0BDE8F08314
:1054E0005022125B11042068FFF728FC05460DB11D
:1054F0002846F2E74FF0FF30039008200490302058
:10550000059002200690002007900120089003A932
:105510002068FFF7B1FB2068FFF739FD05460DB1A4
:105520002846DAE71CE02068406B00F4001040B128
:105530002068FFF7E5FB01A941F8280008F1010800
:1055400005E02068406B00F4005000B90EE0FCF765
:10555000B7FDA0EB0900401C10B94FF00040BCE7BC
:105560002068406B00F02A000028DCD000BF2068D3
:10557000406B00F0080018B1082021688863ACE790
:105580002068406B00F0020018B102202168886397
:10559000A3E72068406B00F0200018B120202168AC
:1055A00088639AE740F23A502168886302980006BF
:1055B000029901F47F4140EA0120029901F47F0140
:1055C00040EA1120029940EA11603060361D0198CE
:1055D0000006019901F47F4140EA0120019901F49C
:1055E0007F0140EA1120019940EA116030600020FB
:1055F00073E730B58FB00446012003902068FFF7B1
:1056000055FB18B94FF080600FB030BD606C0328B7
:105610001BD02068FFF789FC05460DB12846F3E74B
:1056200000212068FFF747FB606704212068FFF72F
:1056300042FBA06708212068FFF73DFBE0670C21D3
:105640002068FFF738FB80210851606C032807D0E1
:1056500003A92068FFF7D3FC05460DB12846D3E720
:10566000606C032820D0BDF80C1021655022125B1D
:1056700011042068FFF772FC05460DB12846C3E708
:1056800000212068FFF717FB606604212068FFF700
:1056900012FBA06608212068FFF70DFBE0660C21D5
:1056A0002068FFF708FB206704212068FFF703FB51
:1056B000010DE16404A92046FDF7F2FE10B14FF0A0
:1056C0008050A1E75020005B01040A4600232068B7
:1056D000FFF70EFC05460DB1284695E7D4E9041204
:1056E000A069CDE90012029094E80F00FFF7E9FAF3
:1056F000002089E7F8B50446002000900026002726
:105700002068FFF78DFB05460DB12846F8BD2068DF
:10571000FFF79CFB054645B10021A1642068FFF717
:105720007FFB05461DB12846F0E70121A164A06C6E
:10573000012808D100212068FFF700FB054615B1BC
:105740004FF08050E2E71DE000212068FFF7F6FAF5
:1057500005460DB12846D9E718492068FFF70AFB2E
:10576000054615B14FF08050D0E700212068FFF7C3
:10577000A2FA0646012080EAD67080F00107009860
:10578000401C00904FF6FF710098884201D2002F14
:10579000DAD04FF6FF710098884202D34FF0807044
:1057A000B4E706F08040B0F1804F02D10120606480
:1057B00001E0002060640020A8E70000000010C1A4
:1057C00070B504460D4615B94FF0006070BD50220B
:1057D000125B11042068FFF7F6FB06460EB1304657
:1057E000F4E700212068FFF766FA28600020EDE763
:1057F0007CB5044600200090019000212068FFF74E
:105800005AFA00F00070B0F1007F02D14FF400604E
:105810007CBD69462046FFF74BFE05460DB1284684
:10582000F6E7019800F4803098B15022125B110421
:105830002068FFF783FA05460DB12846E8E7002106
:105840002068FFF7D1FA05460DB12846E0E70020B1
:10585000DEE74FF08060DBE77CB504460020009077
:10586000019000212068FFF726FA00F00070B0F1E7
:10587000007F02D14FF400607CBD69462046FFF7EF
:1058800017FE05460DB12846F6E7019800F4802082
:1058900098B15022125B11042068FFF74FFA0546B9
:1058A0000DB12846E8E702212068FFF79DFA05467A
:1058B0000DB12846E0E70020DEE74FF08060DBE72F
:1058C0007CB504460D461646164800681821B0FB04
:1058D000F1F01549B0FBF1F04FF47A7148430190B3
:1058E0006068B0F5827F0DD12B46002280212046D2
:1058F000009600F01BF898B1606D40F020006065E4
:1059000003207CBD00BF019800B908E00198401E4B
:10591000019020688068C0F3C0100028F3D100BF58
:105920000020EEE70000002040420F002DE9F84F74
:1059300004460D4690461E46DDF82890FCF7C0FB55
:10594000A0EB0900371AFCF7BBFB82462C48006825
:10595000C0F3CB307843009045E0701C002842D063
:10596000FCF7AEFBA0EB0A00B84200D2A7BB206850
:10597000406820F0E000216848606068B0F5827FF0
:105980000DD1A068B0F5004F03D0A068B0F5806FCE
:1059900005D12068006820F0400021680860A06AF6
:1059A000B0F5005F0DD100BF2068006820F4005002
:1059B000216808602068006840F400502168086091
:1059C00000BF012084F8510000BF002084F850007F
:1059D00000BF0320BDE8F88FFFE7009800B900275B
:1059E0000098401E0090206880682840A84201D19D
:1059F000012000E000204045AFD10020EAE7000090
:105A00000000002010B5FCF761FB3AF0AFF8012868
:105A100001D039F075FE10BD0348006840F47000F5
:105A2000014908607047000088ED00E010B50248A9
:105A3000FEF7C3FC10BD0000C805002070B5054688
:105A4000AC6B0020E085E0842046FEF786FD70BD4B
:105A500000BF00BF02680C3252E8002F22F49071A0
:105A600002680C3242E80013002BF3D100BF00BFE4
:105A700000BF0268143252E8002F22F001010268D0
:105A8000143242E80013002BF3D100BF016B01294F
:105A90000ED100BF00BF02680C3252E8002F22F086
:105AA000100102680C3242E80013002BF3D100BF52
:105AB000202180F83E1000210163704710B5044694
:105AC0002068C06820F040002168C860202084F869
:105AD0003D002046FEF7C2FF002010BDF8B5044689
