:020000040800F2
:10000000587C01205D020008651E00089F0E000854
:10001000491E0008B7080008EF250008000000008E
:100020000000000000000000000000009D0100082A
:10003000F509000800000000F90100087D23000810
:1000400077020008770200087702000877020008AC
:10005000770200087702000877020008770200089C
:10006000770200087702000877020008770200088C
:10007000770200087702000877020008770200087C
:10008000770200087702000877020008770200086C
:10009000770200087702000877020008770200085C
:1000A000770200087702000877020008770200084C
:1000B00077020008770200087D2400087702000814
:1000C000770200087702000877020008770200082C
:1000D000770200087702000877020008770200081C
:1000E000770200087702000877020008770200080C
:1000F00077020008770200087702000877020008FC
:1001000077020008770200087702000877020008EB
:10011000770200087702000889240008CD2400082F
:1001200077020008770200087702000877020008CB
:1001300077020008770200087702000877020008BB
:1001400077020008770200087702000877020008AB
:10015000770200087702000877020008770200089B
:10016000770200087702000877020008770200088B
:1001700077020008770200087702000800000000FC
:100180007702000877020008DFF80CD000F056FB79
:1001900000480047C5CC0108587C01202C4B196849
:1001A0000868B0E8F04F80F30988BFF36F8F4FF015
:1001B000000080F3118870470000000008480068C4
:1001C000006880F308884FF0000080F3148862B65E
:1001D00061B6BFF34F8FBFF36F8F00DF00BF00BF6B
:1001E00008ED00E0DFF80C00016841F470010160E7
:1001F000704700BF88ED00E0EFF30980BFF36F8F19
:10020000134B1A681EF0100F08BF20ED108A20E96A
:10021000F04F106009B44FF0500080F31188BFF325
:100220004F8FBFF36F8F20F055FD4FF0000080F32C
:10023000118809BC19680868B0E8F04F1EF0100F6B
:1002400008BFB0EC108A80F30988BFF36F8F704746
:1002500010000020EFF3058070470000064880473B
:1002600006480047FEE7FEE7FEE7FEE7FEE7FEE79B
:10027000FEE7FEE7FEE7FEE76D24000889010008BF
:100280002DE9F05F0546002092469B4688460646CB
:10029000814640241BE0284641464746224600F05E
:1002A00036FA53465A46C01A914110D311461846A1
:1002B000224600F01DFA2D1A67EB01084F46224630
:1002C0000120002100F014FA17EB00094E41201E16
:1002D000A4F10104DFDC484631462A464346BDE826
:1002E000F09F10B5431A934209D28318881803E08F
:1002F00010F8011D03F8011D521EF9D210BD40EA8D
:1003000001039B0703D009E008C9121F08C0042A93
:10031000FAD203E011F8013B00F8013B521EF9D27A
:1003200010BDD2B201E000F8012B491EFBD270478C
:100330000022F6E710B513460A4604461946FFF7B1
:10034000F0FF204610BD421C10F8011B0029FBD114
:10035000801A704710B5002200E0521C835C8C5C50
:10036000A34201D1002BF8D1D8B2E1B2401A10BD9E
:10037000034611F8012B00F8012B002AF9D1184689
:1003800070472DE9FE4F804681EA0300C00F0C46FE
:10039000009021F0004123F00045B8EB0200A94194
:1003A00005D24046214690461C460B46024623F0A5
:1003B0000040104347D0270DC7F30A00C3F30A518A
:1003C0000290401A019040286BDAC3F3130040F406
:1003D000801B0098924620B10023D2EB030A63EB06
:1003E0000B0B01985946C0F14002504600F080F9CD
:1003F00006460D4650465946019A00F098F910EB12
:1004000008006141002487EA115284EAE7731A4325
:1004100040D0009A62B3019A012A4FEA075215DCD4
:10042000001B61EB02014FF0004202EA0752CDE9E6
:100430000042001C41F5801132462B4600F098F92D
:1004400003B0BDE8F08F40462146F9E7001B61EBA1
:100450000201001C41F5801300185B412018A2F531
:10046000001747EB030140EAD570B6196D4111E062
:100470006D084FEA360645EAC0754FEA0752001B81
:1004800061EB0201001C41F5801149084FEA300080
:100490000019514132462B4603B0BDE8F04F00F041
:1004A00058B90098012240000023D0EB020263EB10
:1004B000E073009821464FEAE074B8EB000061EB6E
:1004C0000401E9E783F000435BE781F0004158E76E
:1004D0002DE9FE4F81EA030404F0004421F00041BD
:1004E00000944FF0000B23F0004350EA01045ED06B
:1004F00052EA03045BD0C3F30A54C1F30A552C44F7
:10050000A4F2F3340194A0FB0254C1F3130141F4AB
:100510008011C3F3130343F4801301FB024400FB77
:10052000034E840A970A44EA815447EA8357A4FB9E
:10053000076802958D0A05FB07854FEA932C04FB9B
:100540000C542705029D4FEA065847EA1637B5EBCB
:1005500008056EEB070C870E920E47EA811742EAF8
:100560008312A7FB0201B6EB0B0164EB00042B0D19
:1005700043EA0C335E1844EB1C50DA465146E7FB65
:100580000201C5F313044FEA0B3343EA14534FEA55
:100590000432019C43EA0603A4F10C040294009C7B
:1005A000CDE900B400F0E4F803B0BDE8F08F00201E
:1005B0000146F9E72DE9F04D81EA030404F0004B10
:1005C00021F0004514464FF0000A23F0004150EAA4
:1005D000050220D054EA01021DD0C5F30A57024695
:1005E000C5F31303C1F31300C1F30A5640F4801599
:1005F00043F48013A7EB0608101BD64608F2FD381B
:1006000073EB050002D308F1010801E092185B4189
:10061000B8F1000F03DA00200146BDE8F08D00209C
:100620004FF48011064684460EE0171B73EB050756
:1006300005D3121B63EB050306434CEA010C490882
:100640004FEA300092185B4150EA0107EDD152EABF
:10065000030012D082EA040083EA0501084305D0B2
:10066000101BAB4106D20122002306E000224FF00E
:10067000004302E06FF0010253101AEB06004CEB4E
:10068000085110EB0A0041EB0B01BDE8F04D00F002
:1006900060B8000030B5041E71F1000404DB4FF0B7
:1006A0000044404264EB0101141E73F1000405DBB9
:1006B0001C464FF00043524263EB0403994208BFCB
:1006C000904230BD30B50B46014600202022012467
:1006D00009E021FA02F59D4205D303FA02F5491B10
:1006E00004FA02F52844151EA2F10102F1DC30BD26
:1006F000202A04DB203A00FA02F1002070479140E2
:10070000C2F1200320FA03F3194390407047202AD6
:1007100004DB203A21FA02F00021704721FA02F3AB
:10072000D040C2F120029140084319467047202A68
:1007300006DBCB17203A41FA02F043EAE07306E009
:1007400041FA02F3D040C2F1200291400843194619
:10075000704710B5141E73F1000408DA401C41F113
:10076000000192185B411A4301D120F0010010BD35
:100770002DE9F04D92469B4611B1B1FA81F202E0AB
:10078000B0FA80F220329046FFF7B2FF04460F46DF
:1007900040EA0A0041EA0B0153465A46084313D087
:1007A000114653EA010019D0C8F140025046FFF744
:1007B000AEFF05460E46504659464246FFF798FFA3
:1007C000084305D0012004E020463946BDE8F08DFD
:1007D0000020054346EAE0762C4337430A98630538
:1007E000E40AA0EB08000022FD0A44EA47540A305C
:1007F00002D500200146E9E7010510196941DDE94C
:10080000084500196941BDE8F04DA2E7C1F30A525D
:10081000C1F3130140F2FF3341F480119A4202DA2E
:1008200000200146704740F233439A42A2F233421D
:1008300002DC5242FFF76BBFFFF75ABF064C074D71
:1008400006E0E06840F0010394E8070098471034A0
:10085000AC42F6D3FFF79CFC14B7020834B7020889
:1008600070B58C1810F8015B15F0070301D110F872
:10087000013B2A1106D110F8012B03E010F8016B9F
:1008800001F8016B5B1EF9D12B0705D40023521E22
:100890000DD401F8013BFAE710F8013BCB1A921C8A
:1008A00003E013F8015B01F8015B521EF9D5A14288
:1008B000D8D3002070BDFEE730B587B01821684658
:1008C000FFF736FD0E48016841F002010160006843
:1008D000002100F002004FF4807406900391009410
:1008E00001200221CDE90101064D04906946284608
:1008F00000F04AFFAC61044800F0D2FA07B030BD06
:10090000303802400004024098000020022000F02D
:1009100027B800001CB501A800900423032215216C
:100920000E4800F0C5FB9DF804109DF8050001F08D
:100930000F0140EA01229DF807009DF806300749A3
:1009400003F00F030F3040EA03200839A0F217101C
:10095000C2F1EF024042C1E900201CBD9800002016
:1009600002461521014800F0E7BB00009800002076
:1009700070B5074C4FF480752804A0610A2005F07B
:1009800075FEA561BDE87040642005F06FBE0000F3
:1009900000040240144808B5016841F48001016078
:1009A000006800F48000009010480068C0F3022046
:1009B000C0F10701042900D90421021D072A01D230
:1009C000002000E0C01E01228A40521E02F00501F4
:1009D00081400801064981F8000405494FF0006094
:1009E0003739C1F8000108BD303802400CED00E095
:1009F0003BE000E07047000001488068704700005D
:100A0000000000200248816802781144816070472C
:100A1000000000200B4810B5016841F4007101602E
:100A2000016841F480610160016841F480710160F6
:100A3000032000F09FF80F2000F006F800F050F8B7
:100A4000002010BD003C024030B505461F4887B06D
:100A50000024016841F004010160006806A900F06B
:100A60000400009001A800F097F80498A8B100F0E5
:100A7000B3F840001649174AB0FBF1F11648491E79
:100A8000026040F2E732C0E90324C0E90114846146
:100A900000F0B4F8040003D015E000F09DF8E9E799
:100AA0000D4800F015F904000DD11E2000F034F8B7
:100AB000102D07D2002229461E2000F03BF80748DF
:100AC000056000E0012407B0204630BD40380240F8
:100AD00040420F000008004068020020040000208F
:100AE0000C4882B0016841F480410160006800F464
:100AF000804000900748001F016841F0805101606C
:100B00000068002200F0805000900F21901E02B07B
:100B100000F010B844380240002809DB00F01F0242
:100B2000012191404009800000F1E020C0F800114F
:100B300070470000F0B40E4B1B680C46C3F3022351
:100B4000C3F10705042D00D90425191D072901D279
:100B5000002300E0DB1E012606FA05F1491E2140B4
:100B600099409E40761E16403143F0BC01F0ACBD6A
:100B70000CED00E0064900F0070208684FF6FF039D
:100B8000184040EA0220034A104308607047000002
:100B90000CED00E00000FA050F2202600C4A136819
:100BA00003F003034360136803F0F00383601368EA
:100BB00003F4E053C36012684FF4E05303EAD20237
:100BC00002610448006800F00700086070470000F8
:100BD00008380240003C02400448054900680968A2
:100BE000044AC1F38221515CC84070470C000020C8
:100BF00008380240361B02087047704710B50400E1
:100C000003D094F83D0010B107E0012010BD002092
:100C100084F83C00204600F01EF8022084F83D00D5
:100C2000211D206801F074FC012084F8460084F83E
:100C30003E0084F83F0084F8400084F8410084F8C6
:100C4000420084F8430084F8440084F8450084F8A6
:100C50003D00002010BD704790F83D10012901D0E3
:100C600001207047022180F83D1000681149884238
:100C700014D0B0F1804F11D00F4988420ED00F49E7
:100C800088420BD00E49884208D00E49884205D0D0
:100C90000D49884202D00D49884204D1816801F093
:100CA0000701062903D0016841F00101016000201D
:100CB00070470000000001400004004000080040B0
:100CC000000C0040000401400040014000180040BA
:100CD00090F83D10012901D001207047022180F8D1
:100CE0003D100168CA6842F00102CA6000681149FB
:100CF000884214D0B0F1804F11D00F4988420ED0F5
:100D00000E4988420BD00E49884208D00D498842CE
:100D100005D00D49884202D00C49884204D181682F
:100D200001F00701062903D0016841F001010160CB
:100D3000002070470000014000040040000800400F
:100D4000000C004000040140004001400018004039
:100D500070472DE9F04104460068C66805694FF008
:100D60000007A90713D5B10711D5F91E01610120AC
:100D70002077206880698007204602D0FFF7E8FFCF
:100D800004E000F07EF8204600F07CF82777680742
:100D900016D5700714D521686FF004000861022091
:100DA00020772068806910F4407F204602D0FFF74A
:100DB000CFFF04E000F065F8204600F063F82777E5
:100DC000280715D5300713D521686FF00800086192
:100DD000042020772068C0698007204602D0FFF7F2
:100DE000B7FF04E000F04DF8204600F04BF82777FD
:100DF000E80616D5F00614D521686FF010000861DA
:100E0000082020772068C06910F4407F204602D077
:100E1000FFF79EFF04E000F034F8204600F032F8BF
:100E20002777E80708D0F00706D021686FF00100A7
:100E30000861204600F028F8280608D5300606D5B7
:100E400021686FF0800008612046FFF7D5FE680634
:100E500008D5700606D521686FF04000086120466D
:100E600000F01CF8A8060AD5B00608D521686FF076
:100E7000200008612046BDE8F041FFF7BEBEBDE896
:100E8000F08170477047000000680349884201D133
:100E9000FFF7B8BD70470000000800407047FEE74C
:100EA00010B586B0044618216846FFF741FA20893C
:100EB0000121CDE900010020CDE9030102200290CB
:100EC0006946206800F060FC6089009069466068AF
:100ED00000F05AFC06B010BD70B506460824002587
:100EE00001F0D2F813E06806050E0021304601F04B
:100EF000BAF8022005F0C8FB0121304601F0B3F832
:100F0000012005F0C1FB304601F0B5F80543641E31
:100F1000E4B2E8D20021304601F0A5F8304601F0F5
:100F2000D0F8284670BD10B50446002101F0C1F884
:100F3000012005F0A9FB0121204601F094F80120D1
:100F400005F0A2FB0021204601F08DF8BDE810401D
:100F5000012005F099BB000070B50C460646082537
:100F600019E000BF01F07FF8022005F08DFB04F0CE
:100F70008001304601F09DF8012005F085FB6006F8
:100F8000040E012005F080FB0121304601F06BF8D2
:100F9000012005F079FB6D1EEDB24FF000013046E7
:100FA000E0D201F060F8BDE87040022005F06CBBB3
:100FB00010B50446012101F07CF8012005F064FB26
:100FC0000121204601F04FF8012005F05DFB0021D2
:100FD000204601F048F8BDE81040022005F054BB5F
:100FE00010B50446012101F064F8022005F04CFB25
:100FF0000121204601F037F8012005F045FB0021D2
:10100000204601F056F8012005F03EFB0021204665
:1010100001F029F8BDE81040012005F035BB10B5FE
:101020000446002101F01FF8022005F02DFB0021ED
:10103000204601F03EF8012005F026FB0121204664
:1010400001F011F8012005F01FFB0121204601F0FD
:1010500030F8BDE81040012005F016BB70B505461C
:10106000052401F011F80121284600F0FCFF05E0FD
:10107000641EA4B2012005F007FB84B1284600F0ED
:10108000FAFF0028F4D1284601F01BF80021284679
:1010900000F0E9FF022005F0F7FA002070BD2846B5
:1010A00001F00FF82846FFF7BAFF012070BD0000DD
:1010B0002DE9F0411D4617460C468046069EFFF777
:1010C0008FFF6006010E4046FFF746FF4046FFF7E0
:1010D000C5FF28B14046FFF7A2FF0120BDE8F0811F
:1010E00039464046FFF738FF4046FFF7B7FF404616
:1010F000FFF776FF012000EB4400C1B24046FFF746
:101100002BFF4046FFF7AAFF00246F1E0AE000BF36
:10111000FFF7E2FE3055BC4202DA4046FFF703FF1C
:10112000641CE4B2AC424046F2D3FFF741FF4046B4
:10113000FFF775FF0020D1E770B516460C4605464F
:10114000FFF74EFF6006010E2846FFF705FF284611
:10115000FFF784FF31462846FFF7FEFE2846FFF7DB
:101160007DFF2846FFF73CFF012000EB4400C1B2A1
:101170002846FFF7F1FE2846FFF770FF2846FFF7E5
:10118000ABFE04462846FFF713FF2846FFF747FF4C
:10119000204670BD30B587B018216846FFF7C8F803
:1011A000012000F0D9FA01240025CDE90045694667
:1011B0000848049400F0E8FA082000F0CDFAAA20CC
:1011C000CDE9000569460494034800F0DDFA07B054
:1011D00030BD000000000240000C02402DE9F0414B
:1011E00004461D4616460F462A2000F03BFA2046CC
:1011F00000F029FA304600F026FA2B2000F032FAEF
:10120000384600F020FA284600F01DFABDE8F0410B
:101210002C2000F027BA70B55E1A141A641C761CD4
:10122000A4B2B6B21433143174439BB289B2049D94
:10123000FFF7D4FF4FF4006000F0F4FF214628468A
:1012400001F062F8BDE87040002000F0EBBF10B57F
:1012500014460B460246FFF7C1FF2046BDE810408A
:1012600000F0F1B92DE9F04780461F4603F1130065
:1012700083B21646501E82B20C4601F1140081B2B0
:101280004046DDF82090FFF7A9FF0AE0454604E05C
:10129000484600F0D8F96D1CADB2B542F8D3641CD5
:1012A000A4B2BC42F2D3BDE8F08700002DE9F041C2
:1012B00088B018216846FFF73BF81F48016841F0E5
:1012C0001001016000681D4C00F0100006904FF402
:1012D0008020A0614FF0040801AA01250326002701
:1012E000CDF8008082E8E0006946204600F04CFA24
:1012F000C4F81880E804A0614FF0080801AACDF8EE
:10130000008082E8E0006946204600F03DFAC4F81B
:1013100018802805A0614FF0100801AACDF80080C0
:1013200082E8E0006946204600F02EFAC4F81880F2
:1013300008B0BDE8F08100003038024000100240E3
:1013400010B5FFF727FB00F0D3FE00F08DFDFFF78F
:10135000ADFF642005F08AF9654C1021204600F0AD
:1013600074FD0421204600F070FD642005F07EF934
:101370000421204600F070FD642005F077F911206B
:1013800000F070F9782005F071F9362000F06AF964
:10139000C02000F079F93A2000F064F9052000F04F
:1013A00073F9B22000F05EF90C2000F06DF90C200A
:1013B00000F06AF9002000F067F9332000F064F9CA
:1013C000332000F061F9B72000F04CF9352000F02F
:1013D0005BF9BB2000F046F9192000F055F9C02058
:1013E00000F040F92C2000F04FF9C22000F03AF94B
:1013F000012000F049F9C32000F034F9122000F078
:1014000043F9C42000F02EF9202000F03DF9C62059
:1014100000F028F90F2000F037F9D02000F022F971
:10142000A42000F031F9A12000F02EF9E02000F016
:1014300019F9D02000F028F9042000F025F90D203A
:1014400000F022F9112000F01FF9132000F01CF920
:101450002B2000F019F93F2000F016F9542000F07D
:1014600013F94C2000F010F9182000F00DF90D20B0
:1014700000F00AF90B2000F007F91F2000F004F932
:10148000232000F001F9E12000F0ECF8D02000F07A
:10149000FBF8042000F0F8F80C2000F0F5F811201B
:1014A00000F0F2F8132000F0EFF82C2000F0ECF838
:1014B0003F2000F0E9F8442000F0E6F8512000F069
:1014C000E3F82F2000F0E0F81F2000F0DDF81F20E7
:1014D00000F0DAF8202000F0D7F8232000F0D4F84C
:1014E000212000F0BFF8BDE81040292000F0BAB874
:1014F00000100240411F5F2901D800F02DBD704748
:101500002DE9FF4F81B00446DDF83C9000904FEA92
:1015100059074FF00008780700D0012000EBD700F2
:1015200000FB09FB203AD0B203900298029948448C
:10153000401E83B2E019401E82B22046FFF74EFEE5
:10154000002553E0B9F10C0F2AD0B9F1100F2ED0BD
:10155000B9F1180F2ED0B9F1200F49D127490398BE
:1015600001EB8010002610F805A0109800284FF01D
:10157000010000FA06F000EA0A0022D020B120465D
:10158000049A0299FFF763FE641C0098A4B2201A23
:10159000B84225D10298009C401C80B2029023E002
:1015A0000398174900EB400001EB8000DAE715498A
:1015B000039803E00398144900EB400001EB00108E
:1015C000D0E708B1049800E00E9800F03CF808F16C
:1015D0000100C0B2B0FBF7F1804607FB118050B1AB
:1015E000761CF6B2082EC0D36D1CADB25D45A9D3F2
:1015F00005B0BDE8F08F4FF00008F5E7723702083C
:101600003E1B0208B21F0208A22502082DE9FE4F68
:101610009946DDE90D6714468A460546DDF83080B7
:101620000CE0CDF800804B4651462846CDE90167D5
:10163000FFF766FF05EB560085B2641C2278002A8E
:10164000EFD1BDE8FE8F10B504464FF4006000F006
:10165000E9FD0121204600F0F7FDBDE81040002023
:1016600000F0E0BD10B5074C03460821204600F00D
:10167000ECFB184600F008F82046BDE810400821B1
:1016800000F0EABB00100240012100F00DBE000096
:1016900000B587B018216846FEF74AFE102000F01A
:1016A00067F808484FF460410A0482610091012103
:1016B0000022CDE90112CDE90321694600F064F86A
:1016C00007B000BD00100240034A516921F4604197
:1016D00041EA403050617047001002404FF4FA7404
:1016E00000F020F820461FF0F9F9F9E700B587B0BF
:1016F00018216846FEF71CFE042000F039F808485F
:101700004FF400510A048261009101210022CDE9C9
:101710000112CDE90321694600F036F807B000BD9B
:101720000008024005494FF400524869824300F422
:10173000005042EA00408861704700000008024003
:10174000044908B50A6802430A600968014000912B
:1017500008BD000030380240044908B50A68024359
:101760000A6009680140009108BD0000303802405D
:10177000044908B50A6802430A60096801400091FB
:1017800008BD000030380240F0B50A680F2692FA12
:10179000A2F2B2FA82F303248AE001279F4015EAFD
:1017A00007027DD04D68012D01D0022D1BD18D681F
:1017B000876892FAA2FCBCFA8CFC4FEA4C0C04FA43
:1017C0000CFC27EA0C0792FAA2FCBCFA8CFC4FEA4C
:1017D0004C0C05FA0CF52F438760CD6847685543DC
:1017E00097432F4347600F69D0F80CC092FAA2F5D7
:1017F000B5FA85F54FEA450E04FA0EF52CEA050C0C
:1018000092FAA2F5B5FA85F56D00AF404CEA070CE7
:10181000C0F80CC04D68022D33D192FAA2F5B5FA8A
:1018200085F5082D15D2D1F814C0056A92FAA2F7F1
:10183000B7FA87F7BF0006FA07F7BD4392FAA2F797
:10184000B7FA87F7BF000CFA07FC45EA0C050562FA
:1018500017E0D1F814E0476A150A95FAA5FCBCFA1E
:101860008CFC4FEA8C0C06FA0CFC95FAA5F5B5FA3F
:1018700085F5AD0027EA0C070EFA05FE47EA0E07CC
:1018800047624D68076892FAA2FCBCFA8CFC4FEAEA
:101890004C0C04FA0CFE27EA0E0792FAA2F200E0C2
:1018A00005E0B2FA82F2520095402F4307605B1CBC
:1018B0000A681546DA407FF470AF0020F0BD10B51D
:1018C000044600F083FB206000F056FB606000F0EF
:1018D00061FBA060606800F06BFBE06010BD10B5BC
:1018E00003680122C3F380132BBBD1E900231A4301
:1018F000D1E9023423431A430B691A434B691A4353
:101900008B691A43CB691A430B6A1A4303684FF673
:10191000BF74A3431A43026042684B6922F0040279
:1019200042EA134242600A6AB2F5005F02D1898C32
:1019300089B201610022C16921F40061C1611046D0
:1019400010BD000001490860704700000C00002035
:10195000F0B50268254B264D264E274F274C4FF0F9
:10196000804C984209D0604507D0A84205D0B042CB
:1019700003D0B84201D0A04205D1D1F804E022F052
:10198000700242EA0E0298421BD0604519D0A8426C
:1019900017D0B04215D0B84213D0A04211D0184D84
:1019A000A8420ED0174DA8420BD0174DA84208D020
:1019B000164DA84205D0164DA84202D0154DA8429A
:1019C00003D1CD6822F440722A4302608A68C26261
:1019D0000A888262984201D0A04201D1096901635C
:1019E000416941F0010141610020F0BD000001406A
:1019F0000004004000080040000C004000040140CA
:101A000000400140004401400048014000180040EF
:101A1000001C004000200040F0B5012600236E4C61
:101A20006E4D012908D010293BD0B1F5807F73D0CD
:101A3000B1F5805F6ED1A6E0016A21F0010101627B
:101A4000016A46688769D2F800C027F0730747EA41
:101A50000C07D2F810C021F0020141EA0C01D2F8C3
:101A600004C021F0010141EA0C01A04201D0A842CA
:101A700012D1546921F0080141EA8401946821F0EF
:101A8000040141EA8401956926F480742C43D569E8
:101A900024F4007444EA450646608761D2684263D4
:101AA0006FE0016A21F010010162066A41688769EE
:101AB000D2F800C027F4E64747EA0C27D2F810C056
:101AC00026F0200646EA0C16D2F804C026F01006CE
:101AD00046EA0C16A04201D0A84213D1556926F05F
:101AE000800444EA8514956824F0400444EA85168D
:101AF000946921F4806141EA8401D46921F4006190
:101B000041EAC40141608761D168816361E003E01B
:101B100000E01E463046F0BD016A21F4807101628A
:101B2000016A4668C769D2F800C027F0730747EA20
:101B30000C07D2F810C021F4007141EA0C21D2F850
:101B400004C021F4807141EA0C21A04201D0A842D6
:101B500013D1546921F4006141EA8421946821F48D
:101B6000806141EA8421956926F4805444EA051491
:101B7000D56924F4005444EA45164660C761D2682A
:101B8000C2630162C5E7016A21F480510162066AFD
:101B90004168C769D2F800C027F4E64747EA0C2736
:101BA000D2F810C026F4005646EA0C36D2F804C02B
:101BB00026F4805646EA0C36A04201D0A84204D151
:101BC000946921F4804141EA84114160C761D16880
:101BD000016406629DE7000000000140000401402E
:101BE0007FB50446C0680D460126C0F34030C0BB37
:101BF000E9686868AA690843296911430843E168EC
:101C000049F20C6291430843E060A868216921F41D
:101C10004051014321616869616921F440710143C8
:101C200061616846FFF74BFE0F48844208D00F48B9
:101C300084420DD00E4884420AD00E48844201D11D
:101C4000039906E00C48844202D00C48844208D133
:101C5000029931B12B6823B100262046AA6900F011
:101C60000FF804B0304670BD001001400044004041
:101C70000048004000140140004C0040005000406B
:101C80002DE9F04106461920A1FB00011F46002363
:101C900064243225B2F5004F27D0BB0FBA00FEF7FF
:101CA000EFFA0146B0FBF4F06FF01802504301EB7D
:101CB000800005EB0010B0FBF4F000F0F002B1FB87
:101CC000F4F002EB0012B1FBF4F06FF0180358438C
:101CD00001EB800005EB0010B0FBF4F000F00F000A
:101CE000104480B2B060BDE8F081FA195B41FEF7A4
:101CF000C7FA0146B0FBF4F00201B1FBF4F06FF05B
:101D00001803584301EB800005EBC000B0FBF4F072
:101D100000F0F80002EB4002B1FBF4F0584301EB95
:101D2000800005EBC000B0FBF4F000F00700D7E73F
:101D30001EF0A6FC094C4FF0FF35294620691FF024
:101D400083FB012805D100231A46194620691FF09C
:101D5000CFF90A201EF0C2FEEFE70000A800002025
:101D60000A4C4FF0FF35294620691FF06DFB012812
:101D700007D11AF05DFB00231A46194620691FF0AF
:101D8000B7F905201EF0AAFEEDE70000A80000202C
:101D900000F02EBC10B58020FFF7D2FCBDE810404B
:101DA0000120FFF7CDBC000010B58EB01C216846A5
:101DB000FEF7BEFA182107A8FEF7BAFA1F48016815
:101DC00041F010010160006800F010000D901B4808
:101DD0001438016841F0010101600068002400F03E
:101DE00001000D904FF4C06007900220089003207E
:101DF000CDE909040720CDE90B4007A91048FFF7FA
:101E0000C3FC4FF4E130CDE900040C200294CDE98D
:101E10000340059406940B4C69462046FFF7E0FE0C
:101E2000206920F490402061606920F02A00606100
:101E3000E06840F40050E0600EB010BD443802404D
:101E40000000024000100140FEE70A04826142697E
:101E500031EA0202FBD070478161426931EA020235
:101E6000FBD17047FEE70000F0B595B0142110A833
:101E7000FEF75EFA202101A8FEF75AFA182109A8F8
:101E8000FEF756FA3048016841F00201016000682F
:101E9000002500F002000090A720ADF8400040F2BD
:101EA0002B10CDE91150294C10A920461395FFF7AE
:101EB0004FFD206820F0800020602548A1150279A0
:101EC0002248183016183068214F0822FF1D3B7930
:101ED0009A40104330606020CDE9010503950495D8
:101EE00001AA20460595FFF797FD30683A7904214D
:101EF000914088433060606820F070006060A068A6
:101F000020F08000A06010481038016841F0020104
:101F1000016000680C9500F002000090012009901B
:101F20000220CDE90A05CDE90D5009A90948FFF7BE
:101F30002BFC206840F001002060206A40F4807093
:101F40002062E56315B0F0BD403802400004004057
:101F5000101B020800040240642800D964204FF4DA
:101F6000967110FB01F06421B0FBF1F00149C863E8
:101F7000704700000004004004490968044A01F069
:101F8000F0010909515CC840704700000838024060
:101F9000261B020804490968044A01F4E05102EBD7
:101FA00091210978C840704708380240361B020862
:101FB00004490968044A01F4604102EB513109788F
:101FC000C840704708380240361B020807480068BE
:101FD00010F00C01064807D0042904D0082903D1C9
:101FE000082000F009B80348704700000838024094
:101FF0000024F40040787D0110B5104A044600200A
:10200000116811F480030E4903D0B3F5800F00D19D
:102010000C49082C11D1106800F03F00B1FBF0F022
:102020001168C1F3881148431168012201F440315D
:1020300002EB11414900B0FBF1F010BD0438024041
:102040000024F40040787D0100244FF4FA75641CEC
:10205000E4B2062C00D900242046FFF735FB2846C1
:102060001EF03CFDF3E74289406809B18261704788
:10207000110481617047016800890969884301D0B2
:10208000002070470120704710B586B00446182123
:102090006846FEF74DF9208900900020019001204C
:1020A00004900220029069462068FFF76DFB06B09D
:1020B00010BD0289006809B1826170471104816115
:1020C000704710B586B0044618216846FEF730F90F
:1020D00020890090012001900390002004900220AC
:1020E000029069462068FFF74FFB06B010BD000064
:1020F00030B591B028216846FEF71AF918210AA8D0
:10210000FEF716F94248016841F480510160006809
:1021100000F4805010903E481438016841F00101ED
:1021200001600068022500F001001090A020CDE9B8
:102130000A0503200024CDE90C040520CDE90E405A
:102140000AA93448FFF720FB34483349C2788A583B
:10215000C37822F0606242F0C062CA50C2788A58E6
:10216000C37822F0C00242F04002CA50C2788A58B6
:10217000C37822F44032CA50C2788A58C37822F415
:102180009072CA50C2788A58C37822F40072CA503A
:10219000C2788A58C37842F48062CA50C2788A589A
:1021A000C37822F4C05242F40062CA50C2788A58FE
:1021B000C37822F4C04242F40052CA501649C27891
:1021C00014315258C07822F0040242504FF4827009
:1021D000CDE9004001200294CDE903504002CDE951
:1021E00005040A20CDE9084007940D4C69462046B5
:1021F000FFF775FB606820F010006060606840F0D9
:1022000002006060206840F04000206011B030BDE6
:102210004438024000000240006402401E1B0208D5
:102220000030014007490A6822F040020A600A684B
:1022300022F4006202430A60086840F0400008602F
:1022400070470000003001402DE9F0410E4607467E
:10225000FEF7D2FB0446134D05E000BFFEF7CCFBB2
:10226000001BB0421CD2A868C0F340000028F5D083
:10227000EF6004E0FEF7C0FB001BB04210D2A8687C
:10228000C0F340000028F5D005E000BFFEF7B4FB26
:10229000001BB04204D2A868C0F3C0100028F5D1DA
:1022A000BDE8F081003001402DE9F0410E460746BF
:1022B000FEF7A2FB0546134C05E000BFFEF79CFBB2
:1022C000401BB0421CD2A068C0F340000028F5D0EB
:1022D000277304E0FEF790FB401BB04210D2A068C9
:1022E000C0F340000028F5D005E000BFFEF784FBF6
:1022F000401BB04204D2A068C0F3C0100028F5D142
:10230000BDE8F08100300140F0B5194A194BD4788E
:102310001C5914F0010FFAD14FF000649C60D5787D
:102320005D59D67825F001059D51124FD6780837B2
:10233000114DF551D6783D1D7051D578381F2D5867
:102340006FF30F050D43D1780D50D0781858D17820
:1023500040F001005850D078185810F0010FFAD111
:102360001868C0F3C0600028FAD09C60F0BD00007F
:102370001E1B0208006402400C30014010B54FF0F3
:10238000E02000691FF0AEF9012803D0BDE810403D
:102390001EF0F4BD10BD000070B52E48016821F09C
:1023A000070141F005010160016801F007010529FD
:1023B000FAD12949086840F480400860274802683B
:1023C00042F4803202600268C2F34042002AFAD02E
:1023D000224A234B121D1468224D2C4023431360C4
:1023E000136823F440331360026842F08072026085
:1023F0000268C2F34062002AFAD04868C0F3803015
:102400000028FAD015480830016821F0F001016079
:10241000016821F4E05141F4A0510160016821F408
:10242000604141F400410160016821F0030141F085
:1024300002010160016801F00C010829FAD10A4883
:10244000FFF780FA0F20FEF7FFFA002801D072B6DE
:10245000FEE770BD003C02400070004000380240C2
:10246000195440000080BFFF007A030A0248016847
:1024700041F470010160704788ED00E00148FEF70B
:1024800068BC00006802002010B5064C206910F0FE
:10249000010F05D004A000F007F96FF001002061E2
:1024A00010BD00000010004054494D36E6ADA3E5D4
:1024B0009CA8E8BF90E8A18C2CE4BC98E58588E74F
:1024C000BAA7E4B8BA3A360D0A00000010B5064CB7
:1024D000206910F0010F05D004A000F0E5F86FF0BE
:1024E0000100206110BD00000014004054494D3728
:1024F000E6ADA3E59CA8E8BF90E8A18C2CE4BC98CD
:10250000E58588E7BAA7E4B8BA3A340D0A000000B6
:10251000F0B50268294C2A4D2A4E2B4F2B4B4FF019
:10252000804CA04209D0604507D0A84205D0B042F7
:1025300003D0B84201D0984204D122F0700E4A680C
:1025400042EA0E02A0421BD0604519D0A84217D023
:10255000B04215D0B84213D0984211D01C4DA842B9
:102560000ED01C4DA8420BD01B4DA84208D01B4DCD
:10257000A84205D01A4DA84202D01A4DA84203D154
:1025800022F44075CA682A434D6922F080022A432A
:1025900002608A68C2620A688262A04201D09842E0
:1025A00001D109690163012141610169C90703D0B2
:1025B000016921F001010161F0BD0000000001404E
:1025C0000004004000080040000C004000040140EE
:1025D0000040014000440140004801400018004014
:1025E000001C004000200040012019F0E5BEFEE77D
:1025F0001CB501201EF0D8FC164900234FF44062A0
:10260000086108310220CDE9000113A116481FF02E
:1026100011F8104903200C31CDE90001002380227C
:1026200012A115481FF006F80A480124CDE9004020
:102630000023802211A115481EF0FCFF054800234D
:10264000001DCDE90040802211A116481EF0F2FFC6
:102650001CBD0000A80000204C7648616E646C65CB
:10266000725461736B000000611D00084C56474CAA
:102670005F5461736B000000311D00084C454454E9
:102680006F67676C655F5461736B0000DD1600084F
:102690005247424C4544546F67676C655F546173A1
:1026A0006B000000492000080FB4054B10B503A9CA
:1026B000044A029801F03EFE10BC5DF814FB0000D5
:1026C00025C80008640200200907090E002804DB61
:1026D00000F1E02080F80014704700F00F0000F1D6
:1026E000E02080F8141D704702E008C8121F08C1DE
:1026F000002AFAD170477047002001E001C1121F83
:10270000002AFBD1704770B5044600256FF02F06F4
:1027100008E02068411C2160007805EB850106EB8C
:10272000410145182068007800F0B6F80028F0D183
:10273000284670BD2DE9FF5FDDE90220010DDDF8BF
:1027400038B0024318D044F61050A1F2FF31414393
:102750000D140F98012820D0A5EB0B00401C5FEA58
:10276000000A4FF00004474EDFF81C91A046504687
:1027700016D5CAF1000728E00F98012443A20128CA
:1027800008D0002100980F9BC0E90021C0E9024356
:10279000BDE8FF9F6FEA0B01F4E7CBF10000DEE735
:1027A000074612E0F80707D022463346404649461E
:1027B000FDF78EFE8046894622463346104619466E
:1027C000FDF786FE04460E467F10002FEAD1DDE9B4
:1027D0000201BAF1000F42464B4602DAFDF778FEDD
:1027E00001E0FDF7E7FE04460E460022284BFDF708
:1027F00051FF03D84FF0FF30014607E00022254B80
:1028000020463146FDF7BDFDFEF700F8102409E033
:10281000002C0ADB0A220023FDF732FD019B303237
:102820001A55641E50EA0102F2D1641C019AC4F1E7
:10283000110314440F9A012A03D0012208430DD139
:102840000AE0084304D000204FF0110B0F9080E7FE
:10285000A3EB0B056D1E0DE05B4504DD4FF00002A0
:1028600005F1010504E003DA4FF00002A5F10105CE
:10287000002AECD000980F99C0E90231C0E9004568
:1028800086E70000000024400000F03F3000000018
:102890000000F0430000E03F3038092801D8012053
:1028A000704700207047000010B54021074801F034
:1028B00081F800220A21064819F088FD054CA06025
:1028C00002F0C8FB0020207010BD000088B6002078
:1028D000FD500008D801002070B5B1F90030B2F900
:1028E0000040A34200DC23460380B1F90250B2F954
:1028F0000240A54200DD2C464480B1F90460B2F9E3
:102900000450AE4200DA35468580B1F90610B2F9BE
:102910000620914200DB1146C1800120AB4201DC60
:102920008C4200DD002070BDF8B50D460446B0F9BC
:102930000000B1F900101646884247DBB4F90210D6
:10294000B5F90220914241DBB4F90410B5F9042035
:1029500091423BDCB4F90610B5F90620914235DC12
:1029600096B3ADF800006088ADF8020032466946C3
:10297000284600F099F8002827D0A088ADF800007C
:102980006088ADF8020032466946284600F08CF8AF
:1029900000281AD02088ADF80000E088ADF80200C9
:1029A00032466946284600F07FF800280DD0A088FE
:1029B000ADF80000E088ADF80200324669462846CE
:1029C00000F072F8002800D00120F8BD0020F8BD0A
:1029D000B0F90020B1F904309A4213DCB0F90420B8
:1029E000B1F900309A420DDBB0F90220B1F906309E
:1029F0009A4207DCB0F90600B1F90210884201DB07
:102A00000120704700207047F8B50D460446B0F924
:102A10000400B1F900101646884243DBB4F9060001
:102A2000B5F9021088423DDBB4F90000B5F9041095
:102A3000884237DCB4F90210B5F90620914231DC46
:102A400076B3ADF800006088ADF802003246694602
:102A5000284600F029F818BBA088ADF8000060886F
:102A6000ADF8020032466946284600F01DF8B8B9B4
:102A70002088ADF80000E088ADF8020032466946D3
:102A8000284600F011F858B9A088ADF80000E08899
:102A9000ADF8020032466946284600F005F808B154
:102AA0000020F8BD0120F8BD2DE9FC4114460E467A
:102AB000B1F90020B0F9001005468A423ADBB5F9B9
:102AC0000400824236DCB6F90270B5F90220974262
:102AD00030DBB5F906309F422CDC002C75DD401A46
:102AE0009A1A401C521C00B212B200EBD07002EBDA
:102AF000D27240105210904200DB1046844200DD3A
:102B00000446ADF80010288800222044ADF80400E7
:102B10006888ADF80200688831462044ADF80600A8
:102B20006846FFF7C1FF40B1BDF804002044ADF88E
:102B300004003FE00020BDE8FC81E8880022001B83
:102B4000ADF80200E888ADF8060031466846FFF7A8
:102B5000ABFF28B1BDF804002044ADF8040011E03B
:102B6000A8880022001BADF80000A888ADF804007A
:102B700031466846FFF798FF50B1BDF80000001BD2
:102B8000ADF80000BDF80200001BADF8020016E031
:102B90006888ADF80200688800222044ADF806007D
:102BA00031466846FFF780FF70B1BDF80000001B9A
:102BB000ADF80000BDF806002044ADF8060031462F
:102BC000684617F08FFBB6E7FFE70120B3E710B5C3
:102BD000B1F90040B2F900309C4200DA234603808C
:102BE000B1F90240B2F902309C4200DA2346438038
:102BF000B1F90440B2F904309C4200DD23468380E1
:102C0000B1F90610B2F90620914200DC1146C180EC
:102C100010BD0000FEB5074619F0C4FB0025354C79
:102C20000646009537B1F8686060384619F09CFC9C
:102C3000606802E00EF08AF86060006917F0EEFA52
:102C40006068406908B117F0E9FA6068C06917F078
:102C5000E5FA6068006A17F0E1FA60680169E1B3BB
:102C600017F064FD17F0E0FC6068B0F8501199B3FC
:102C70000168097C890715D50EF0C6F8401E07B219
:102C800060680EF07BF8401E03B20022114601A8D6
:102C900000970CF035FE606801A90268926B5160E4
:102CA00004F058FC60684FF48071303013F02CFC55
:102CB0006068202100F5987013F026FC6068A0F889
:102CC0005051304619F068FB009060680068436A14
:102CD00013B122680099984700E007E013F056FA14
:102CE00000F036F8BDE8FE4000F006B8A0F85051FC
:102CF000FEBD0000F000002070B50A4D002400BFAA
:102D0000C4EBC40655F8260008B113F0B3FA05EB7E
:102D100086001C2113F0F8FB641CE4B2042CEFD3F2
:102D200070BD000064B70020084949680AE04A689D
:102D3000824202D00A68824203D10A7E42F0010236
:102D40000A7649690029F2D170470000C4000020CA
:102D5000704700000421014800F02CBE7CB6002022
:102D60001C21014800F026BE94B600202DE9FF5F2B
:102D70000446DDE90E0613B9B0F5807F7ED0B6F9C2
:102D800000504FF0FF376D42454307EB25252DB22C
:102D90002580B6F902C0CCF1000C0CFB00FC07EB5F
:102DA0002C273FB26780B6F900C0A1EB0C0141436C
:102DB0004FF0020C0CEB212109B2A180B6F9028080
:102DC000A2EB080242430CEB222000B2E080002B71
:102DD0007ED04FF00A0A93FBFAF5684200EB8000C0
:102DE00003EB400705F1010928B219F0F9FC009046
:102DF0000FFA89F019F0F4FC83465A3528B219F01D
:102E0000EFFC804609F15A0000B219F0E9FC0146D6
:102E1000009AC7F10A0000FB02F300FB08F00BFB6D
:102E2000073301FB070193FBFAF291FBFAF04FEA3B
:102E3000601AB4F90010B4F902000AFB01FCCDF8E5
:102E40000CC05511378805FB10C207EBA2220FFA00
:102E500082F905FB01F2BB46029277880AFB00214A
:102E600007EBA1210BB2B4F90410BE460AFB01FC2A
:102E700005FB10C20BEBA22216B200E02FE005FB0F
:102E800001F7CDE9007CB4F90680DDF80CC00AFB3F
:102E9000007005FB18C1DDF804C0009F05FB18C5D4
:102EA000029A0AFB087C0AFB08220BEBA1210EEB1D
:102EB000AC270EEBA02009B20EEBA2220BEBA5254E
:102EC0000FFA87FC00B212B22DB24F46494500E01E
:102ED0000EE000DA0F46B54216DAA84615E00020EB
:102EE0002080491E6080A180521EE280BDE8FF9FC5
:102EF00032882A44228072883A446280328811449F
:102F0000A180718808444FE0B046474504DA4F4637
:102F1000494506DA0F4604E0B54201DA2F4600E0E3
:102F2000374627804F46494500DD0F46B54201DD53
:102F3000A84600E0B046474503DD4D46494505DC5F
:102F400001E0B54201DD294600E03146A1809A4208
:102F500001DA154600E01D46844501DA614600E0CD
:102F600001468D4205DA9A4201DA114606E0194619
:102F700004E0844501DA614600E0014661809A423E
:102F800001DD114600E01946844501DD654600E09B
:102F90000546A94205DD9A4201DD104604E01846C7
:102FA00002E0844500DD6046E0809FE72DE9FE4FAA
:102FB0000446D0F800B0B0F90800E589081AB4F961
:102FC0000A10511AD4E90932B5F5807F38D0A589A5
:102FD000ADB3A66B704345114E437011266BE16A89
:102FE00006FB05F701FB1077694306FB001003EBB6
:102FF000A72902EBA02080460612B4F904004FEA8C
:103000002927B8424EDD002F4CDBB4F90610B1423F
:1030100048DD002E46DB94F834104A0745D58A0770
:1030200004F1140322D400FB067045004FF0020A9D
:103030000BEB05015246184613F01CFA27E00DE091
:10304000256BE66A05FB00F706FB1177464305FB97
:10305000016003EBA70902EBA000CCE7A56B684376
:103060004D4303EB601902EB6510C4E700FB0670EB
:1030700000EB40054FF0030A0BEB05010222184656
:1030800013F0F8F9E81C584410F8010CA07594F8F6
:103090003400C0071FD04FF4FC60ADF80000A18AD7
:1030A000814218D10020BDE8FE8F32B204F1180031
:1030B0002369CDE90102002539B2AA468B4611F0F9
:1030C000DFFA0090BDF80000A082DDE90102594658
:1030D00011F06EFADAE7E07C78B1A4F83C90A4F83D
:1030E0003E80A4F84070A4F84260656484F848A06B
:1030F0002046BDE8FE4F00F002B80120D3E72DE9DD
:10310000F04F044690F83C10D0F8009090F83E0044
:1031100087B04FF0FF36702907DAB4F94020354602
:10312000012A00D5002580310DE0902916DDB4F983
:103130004020B4F904300125521C9A4200DB0025DE
:10314000A1F27F114942C9B28846702809DAB4F960
:103150004210012900D50026803010E00025FF2113
:10316000F2E790280DDDB4F94210B4F906200126EB
:10317000491C914200DB0026A0F27F104042C7B2FA
:1031800001E00026FF2760690090A07D05900020E7
:1031900083468246049094F83400400744D594F85E
:1031A0004810606C11FB05014944022201A813F08C
:1031B00061F9A08894F8481010FB01F0616C0222BC
:1031C00006FB0011494403A813F054F9A18894F8B0
:1031D000480011FB00F1626C06FB012210FB059018
:1031E0001118022202A813F045F994F83400800760
:1031F00061D594F84800626C10FB052300EB0901CF
:103200000B4413F8013C0493A38813FB00F306FB63
:103210000322114411F801BC10FB0500111801EB49
:10322000090010F8010C45E0B4F84000B4F9422060
:10323000284401B204F118008146236911F020FAF4
:103240000190B4F84200B4F94010304402B254F88E
:10325000103F484611F014FA0390608E2368304402
:1032600002B2208E284401B2484611F009FA0290B9
:1032700094F82400103C80071DD5B4F9422034F89E
:10328000400F284401B2484611F092F9049060883A
:10329000B4F90010304402B2484611F089F983466F
:1032A0006088304402B234F84009284401B24846EC
:1032B00011F07EF9824694F8340042464546800774
:1032C00035D5059810FB08F30499C8F1FF0011FBF0
:1032D0000031C1F307211BFB08F61AFB0060C0F3A5
:1032E000072011FB07F3C7F1FF0610FB06331B0A8B
:1032F000A375022907D8022803D8002007B0BDE82B
:10330000F08F002702E0022800D8FF270598022846
:1033100000D800220498022800D8FF22BBF1020F37
:1033200000D80025BAF1020F03D8FF2501E0FF20E5
:10333000A075EAB1FF2A04D0DDE900010DF082FB9F
:103340000090BDB1FF2D17D0DDE902102A460DF027
:1033500079FB049097B1FF2F05D001463A460098BB
:103360000DF070FB0090BDF80000A0820120C5E7C1
:103370000198E5E70298ECE70398EAE7BDF810004A
:10338000F3E700002DE9F0470446B0F908000A27EA
:1033900000026062B4F90A000002A062B4F90C10E5
:1033A00091FBF7F5684200EB800001EB40066842B4
:1033B00005F1010800B219F013FA8246E84300B2A1
:1033C00019F00EFA8146C5F15A0000B219F008FA58
:1033D0000546C8F15A0000B219F002FAC6F10A0116
:1033E00001FB0AF3024609FB0630694390FBF7F044
:1033F00002FB061191FBF7F14011E06248112063D6
:10340000A07C11F0EAF994F8341060F3000184F81C
:103410003410A07C11F0D1F994F8341060F341011C
:1034200084F83410A07C042824D0052822D0062853
:1034300020D021F0040100BF84F8341021682162FB
:10344000A16921F0E00160F30401A08860F39421F8
:10345000E08860F35F51A161E0894FF4001101EB56
:103460005001B1FBF0F0A063FF20A075208AA0827C
:10347000BDE8F08741F00401DEE700002DE9F041EE
:1034800015460E460746114C18F08CFF80462B4619
:1034900032463946204611F0E5FC20B10020A062FA
:1034A000E06950B110E02C21204613F02DF84FF0C8
:1034B0000040A0620020BDE8F081404618F06CFF9B
:1034C000E06108B90120E0612046F4E7B8B60020C9
:1034D00010B51421074800F06DFA11F089FC40B1D5
:1034E0000549016005494160054981600549C160A0
:1034F00010BDFEE7A0B600201D480108994B010849
:10350000114D0108EB47010870B50D460446102126
:10351000284612F0F9FF20680078012804D002281C
:1035200007D0042807D008E0208A2880608A6880B5
:1035300003E0E06800E00A20686020684268002A32
:1035400003D02946BDE87040104770BDFEB5866ABD
:103550000446BEB9A08A218A0844A082E08A618A12
:103560000844E082204608F06CFC060079D0204632
:103570000AF07AFE00220921304610F001FA607844
:1035800080076ED4208A10B9608A002869D000258F
:10359000ADF80450ADF8085094F83C0000F00F006E
:1035A0000328304616D014F0FFFA0746304614F0D0
:1035B000D5F903460C200090B4F912103A46304673
:1035C00008F032F8ADF80800304614F019FAC107D7
:1035D00012D017E014F07CFA0746304614F018FABF
:1035E000024603200090B4F910103B46304608F024
:1035F0001BF8ADF80400E7E7BDF90410002901DD70
:10360000ADF80450810705D4BDF90410002901DA92
:10361000ADF80450410705D4BDF90810002901DDBB
:10362000ADF80850000705D4BDF90800002801DAFC
:10363000ADF8085002AA01A920461BF006FA0023A3
:10364000BDF90820BDF90410304616F0CBF9A08A68
:10365000BDF804100844A082E08ABDF808100844B0
:10366000E082FEBD2DE9FC5F0446806A5FEA000B44
:1036700071D094F83C0000076DD011F0ADFC0190C2
:1036800000684021457E584615F071F94FF000085A
:1036900018B9A4F81A80A4F81880584614F076FADD
:1036A0008246584614F079FA064694F83C004FF0EA
:1036B000640900F00F000C2802D003284CD09AE0D7
:1036C000A4F8188056B1B4F91A50002711F084FC00
:1036D00000684946407EC0F1640022E0608BC5F17D
:1036E000640110FB01F191FBF9F06083584614F07E
:1036F00035F90546584614F057FA02460C2000905A
:10370000B4F91A102B46584607F08EFF6083024624
:1037100000231EE07A1917B210FB05F292FBF1F2BA
:1037200015B2002DF6D1ADF80070A4F81A806A46E3
:10373000002120461BF089F941F6FF72BDF90030E7
:103740005142584608F0E2FCBDF80010012308443D
:1037500002B200214CE09AE0A4F81A80BAF1000FFE
:103760000AD0B4F91850002711F036FC0068494619
:10377000407EC0F1640022E0208BC5F1640110FBA3
:1037800001F191FBF9F02083584614F041F9054608
:10379000584614F09DF9034603200090B4F9181020
:1037A0002A46584607F040FF2083014600231EE0CA
:1037B0007A1917B210FB05F292FBF1F215B2002D47
:1037C000F6D1ADF80070A4F81880002269462046B2
:1037D0001BF03BF941F6FF72BDF9003051425846EB
:1037E00008F00CFCBDF800100123084401B20022CF
:1037F000584616F0F7F8208B002848D1608B002837
:1038000045D1C6B9584614F0CFF90546584614F0CC
:10381000A5F8002D06DC00280DDD002D02DA0123BD
:103820002A4604E0002806DA0123404202B20021C1
:10383000584616F0D7F8BAF1000F19D1584614F0CF
:10384000E7F80546584614F043F9002D07DC002838
:103850000EDD002D03DA01230022294605E00028B1
:1038600006DA01230022404201B2584616F0BAF8A7
:103870000A215846019A10F083F86078800706D430
:1038800014F83C0F20F00F00207044F8148CBDE8B1
:10389000FC9F00007FB50E46040003D10DF056FAE0
:1038A000040023D00025FEB1ADF80050ADF8025061
:1038B0000DF064FA401EADF8040020460DF0A4FAA5
:1038C000401EADF806006A46314602A8FFF704F82C
:1038D00000280BD02068017C890708D5DDE90001AC
:1038E000C4E90C0101202AE0A0F850517FBD826993
:1038F0000AB102A9904700260BE000BF04EBC60105
:10390000002202A83031FFF70FF80028EED1761C14
:10391000B6B2B4F85001B042F0D880B2202804D238
:1039200004EBC00002A9303004E0A4F8505104F1C7
:10393000300069460BF044FFB4F85001401CA4F875
:10394000500160680028D1D018F01AFE7FBD70B514
:10395000054600F012F804460CE02146284600F027
:103960001EF806462146284600F071F8204612F05F
:1039700081FC3446002CF0D170BD002800D0406896
:10398000704700B503460022FFF7F7FF03E0184633
:10399000521C00F004F80100F9D1104600BD006887
:1039A000091D40587047006840587047002800D0F3
:1039B0008068704700224260C91C21F003018260C8
:1039C0000160704770B504460068083012F0C8FB0B
:1039D000050013D001460022204619F0B9FD294602
:1039E0002046626819F0AEFD616819B12A4620468A
:1039F00019F0AEFD6560A06800B9A560284670BDED
:103A000070B504460068083012F0AAFB050013D018
:103A100001460022204619F095FD29462046A2685D
:103A200019F096FDA16819B12A46204619F08AFDC1
:103A3000A560606800B96560284670BD28B141681E
:103A400009B9806808B1002070470120704770B53F
:103A500004000DD0FFF791FF00228842204608D1D4
:103A6000FFF79DFF6060011E01D000221EE0A260F2
:103A700070BDFFF79BFF8842206808440AD10168A7
:103A8000A16029B12046BDE87040002219F05ABD5E
:103A9000626070BD05682046FFF781FF064602465A
:103AA0002946204619F04EFD2A4631462046BDE8FB
:103AB000704019F04DBD10B50446006882680AB127
:103AC0002146904720680068002801D02060F5E773
:103AD00010BD8068002801D0B0F9160070470000C2
:103AE0002DE9F047074690B0408C189E40F0040046
:103AF000788490463A8499468A463289384614F04A
:103B0000E5FD0546A7F8209032895146384614F065
:103B1000DDFD0446788CA54220F00400788403D1B2
:103B20002904B1EB044F68D0A7F8208032895146B0
:103B3000384614F0CBFD05468046A7F82090514644
:103B4000384609F06DFC318900682A4617F084FD7B
:103B50003089602823D147F6FF794D4501D04C4587
:103B60001DD1384614F0D6FE00EBD0704510384613
:103B700014F0D0FE00EBD0704010C84506D1691C8F
:103B8000431C994200DA00E0194688464C4506D1AC
:103B9000691C421C914201DA6C1C00E01446194871
:103BA000FFF710FF05002BD02F60C5E90384308993
:103BB000A8806846C5F808A00BF01AF91248FF2142
:103BC000CDE9005011480290114803900020079061
:103BD000CDE9080130880A9070889DF83E10404277
:103BE0000B90F0680690002060F300018DF83E1005
:103BF0003069059068460BF06FF910B0BDE8F087AA
:103C0000FEE70000ACB60020A103020895050208FB
:103C1000F104020814210148FFF7CCBEACB6002025
:103C20002DE9FC5F002592468B4606462C4604276C
:103C300043F60F0843F60E0900E100BFF16807EBF9
:103C4000C400085882017DD480B230EA0B0212D041
:103C50005FF0000230EA0A000FD00020824271D0EB
:103C600051F8340001AA41F61001009017F000FB52
:103C7000002868D103E00122ECE70120EEE701AA69
:103C800041F61101009817F0F3FA002873D101AA48
:103C900041F61201009817F0EBFA00286BD101AA47
:103CA00041F61301009817F0E3FA002863D101AA46
:103CB00041F61501009817F0DBFA00285BD101AA44
:103CC00041F61401009817F0D3FAE0BB01AA41F2C3
:103CD0006901009817F0CCFAA8BB01AA43F20C01C5
:103CE000009817F0C5FA70BB01AA43F20D010098C5
:103CF00017F0BEFA38BB01AA41F20101009817F093
:103D0000B7FA00BB01AA41F20401009817F0B0FA1B
:103D1000C8B901AA41F20201009817F0A9FA90B9B6
:103D200001AA41F20301009817F0A2FA58B901AABA
:103D300041F20501009817F09BFA20B901AA41F25F
:103D4000060101E079E016E0009817F091FA90B9C9
:103D500001AA41F23201009817F08AFA58B901AA73
:103D60004146009817F084FA28B901AA49460098FC
:103D700017F07EFA10B10320BDE8FC9F01AA40F6BF
:103D80000A01009817F074FAF0BB01AA40F60B0183
:103D9000009817F06DFAB8BB01AA4146009817F0D9
:103DA00067FA88BB01AA4946009817F061FA58BB28
:103DB00001AA40F63C01009817F05AFA20BB01AA6C
:103DC00040F63D01009817F053FAE8B901AA40F611
:103DD0003A01009817F04CFAB0B901AA4FF4046107
:103DE000009817F045FA78B901AA40F64501009805
:103DF00017F03EFA40B901AA40F64101009817F0C9
:103E000037FA08B901AA00E013E040F64201009831
:103E100017F02EFA68B901AA40F64301009817F08E
:103E200027FA30B901AA40F64901009817F020FAA4
:103E300008B1022501E005B90125641C708CC0F3AE
:103E4000C500A0423FF6FAAE284695E70148406813
:103E500070470000F00000207047C0F304100728EE
:103E600000D907207047000010B518210348FFF75C
:103E7000A1FD03490120087010BD000058B60020C4
:103E8000040200202DE9F04190460C46050015D0B3
:103E9000FCF759FA0A4F06462146BA682846904769
:103EA0000446BA682819414690470146701A03E053
:103EB0006218AA5C2A55641CA042F9D2BDE8F081C0
:103EC000180200202DE9F041094D90460E466A681F
:103ED0001C46074619469047306020B120686A6842
:103EE000384400219047C8F80000BDE8F081000088
:103EF000180200202DE9F04F87B00446DDE9105884
:103F00001F4693468A46002005B1288054B1217887
:103F100041B1BAF1000F05D0002618F0060F15D0F8
:103F2000002004E0002007B0BDE8F08F401C215CB9
:103F30000A2904D00D2902D00029F7D100E0401C45
:103F4000002DF0D04FF0FF312980ECE75FEA887157
:103F500001D541F6FF7781468DF81400049026E0E4
:103F6000CDF8189068B34FF0000C05AA06ABCDF859
:103F70000CC0CDF80080CDE9013220443B465A46C2
:103F8000514618F057FC06997A1A314417B20EB20E
:103F900088B104990144049120780A280BD00D2897
:103FA00009D0605C0A280FD00D280DD00846215C8E
:103FB00009B1002FD4DC049848B105B12E800498D3
:103FC000B1E74FF0010CD0E7481C0490F3E7074A33
:103FD00004A92046526890470146002DEFD00022E8
:103FE00050460FF002FF06B2E8E70000180200207A
:103FF0002DE9F0411746884606001ED0002F1CD040
:10400000FCF7A1F904463846FCF79DF9050014D0E9
:104010000B4A2C444146926830469047411903E0D0
:10402000621BB25C3255641EA142F9D930442A4663
:104030003946BDE8F04112F029BABDE8F081000030
:104040001802002000230278232902D0012A0DD073
:104050000FE02AB10021012A04D0022A04D008E08E
:10406000012101E0017004E0017001E0202902D08B
:104070000123184670470221F6E72DE9F0410E466C
:104080008046024600213346084618F00FFE0446DB
:104090000027401C12F064F8050008D02F55334665
:1040A0004246611C18F002FE2846BDE8F081FEE79A
:1040B0002DE9F0471E4614460D468246DDF8209055
:1040C00015E000BF4FEA540808FB06573946504632
:1040D0004A469047002808DD44F30000C0EB540432
:1040E00007EB0605A4F1010401E005DA4446002CC3
:1040F000E8D12046BDE8F0873846FBE72DE9FC5FB4
:104100009B460CAB8A468146DDE9116093E81210AC
:10411000DDE90F575FEA80784FF030031AD45EB1C3
:104120005FEAC07808D000F00C0858EA0C0803D009
:10413000761E01E00B55641CBC4204D2202CF9D33E
:1041400001E00B55641C5FEAC07803D0B44201D291
:10415000202CF6D35FEAC06825D55FEA40580AD420
:104160004CB1BC4201D0B44205D1641E03D0102D25
:1041700003D1641E04E0102D02D0022D0AD00EE0FF
:10418000850603D4202C1ED2782506E0202C1AD2D6
:10419000582502E0202C16D262250D55641C202CD7
:1041A00011D20B55641C202C0DD2BCF1000F01D094
:1041B0002D2306E0430701D52B2302E0030702D598
:1041C00020230B55641CCDE900BAC846154681462C
:1041D0008B46AA46800714D1274607E02A46DDE928
:1041E00000316D1C2020C446E0477F1CB742F5D348
:1041F00007E02A466D1C641EDDE900311BF804004F
:10420000C047002CF5D15FEA897006D409E02A4640
:10421000DDE900316D1C2020C047A5EB0A00B0424B
:10422000F5D32846BDE8FC9F2DE9F04F8FB09946A5
:104230008B46DDE91818DDE91C63DDE91A47924673
:104240008646002209B923F01003580507AD00D5B2
:10425000C9B1B1FBF4F004FB1010C0B20A2801D2BE
:10426000303009E05FEA836C02D54FF0410C01E089
:104270004FF0610C60440A38B1FBF4F1A854521CB1
:1042800009B1202AE5D3CDF80880CDE90563CDE951
:104290000052CDE903474B46524659467046FFF758
:1042A0002DFF0FB0BDE8F08F2DE9FF4F8FB01CAC94
:1042B000DDE9239594E8030820AC94E8C0040024C9
:1042C00050EA010201D125F010056A050DF11C0824
:1042D00002D550EA010217D032463B46FBF7D0FF29
:1042E000D2B20A2A01D2303206E0AB0601D5412310
:1042F00000E061231A440A3A08F80420641C50EADA
:10430000010201D0202CE7D3CDE90084CDF808B01C
:10431000CDE90595CDE9036A0FAF97E80F00FFF7E8
:10432000EDFE13B0BDE8F08F9A4200D2885470477A
:10433000704700002DE9FF4F95B09B468946064621
:1043400000250FE2252877D100242746F84A0121CD
:10435000059400E0044316F8013F203B01FA03F006
:104360001042F7D130782A2811D06FF02F0330781F
:10437000A0F13002092A16D8059A44F0020402EB93
:10438000820203EB42021044761C0590EFE759F8D5
:10439000042B0592002A03DA504244F4005405909D
:1043A00044F00204761C30782E2816D116F8010F3E
:1043B00044F004042A280DD06FF02F023078A0F1C9
:1043C0003003092B09D807EB870302EB4303C71817
:1043D000761CF3E759F8047B761C30786C280FD0F4
:1043E00006DC4C2817D068280DD06A2814D104E0C8
:1043F000742810D07A280FD10DE044F400140AE09C
:1044000044F4801401E044F440147278824202D1F2
:1044100004F58014761C761C307866280BD013DCEB
:10442000582877D009DC002875D04528F6D04628D2
:10443000F4D047281AD19DE118E0632835D06428CC
:1044400079D0652812D195E1702873D008DC6728EF
:10445000F1D069286FD06E280DD06F2806D1B5E055
:1044600073282CD0752875D0782874D05A4617999F
:1044700090476D1C75E1C4F30250022809D003284F
:104480000DD0D9F8001004280DD00D6009F10409F1
:1044900067E1D9F80010EA17C1E90052F6E7D9F848
:1044A00000100D80F2E70D70F0E719F8041B8DF88D
:1044B000001000208DF80100EA46012003E059F8C1
:1044C00004AB4FF0FF3061074FF0000102D40DE064
:1044D00008F101018846B9420FDA8045F8DB1AF885
:1044E00008100029F4D108E008F101018846814252
:1044F000FADB1AF808100029F6D105985B46A0EB04
:10450000080721463846179A00F094FA284400EB31
:10451000080507E04DE029E10DE01AF8010B5A46C5
:1045200017999047B8F10108F7D25B462146384603
:10453000179A13E142E00A220092C4F302524FF0AC
:10454000000A022A08D059F804CB032A4FEAEC717A
:104550000AD00DE029E02AE009F1070121F0070265
:10456000F2E802C1914609E00FFA8CFC4FEAEC71C7
:10457000042A03D14FFA8CFC4FEAEC71002907DAC8
:104580000A460021DCF1000C61EB02012D2202E061
:10459000220504D52B228DF80420012203E0E20736
:1045A00001D02022F7E7904659E00A2102E01022CC
:1045B0000DE010214FF0000A00910BE010224FF0A7
:1045C000000A44F004040827009203E008224FF098
:1045D000000A0092C4F30252022A05D059F804CB13
:1045E0000021032A08D009E009F1070121F00702A0
:1045F000F2E802C1914605E01FFA8CFC042A01D1C1
:104600000CF0FF0C4FF00008220728D5702806D0C8
:10461000009B83F0100353EA0A0305D00EE040220A
:104620008DF80420012208E05CEA010206D0302265
:104630008DF804208DF8050002229046009B83F03F
:10464000080353EA0A030AD15CEA010201D16207B6
:1046500005D530228DF804204FF001087F1E582820
:1046600004D034A003900EA802900DE036A0F9E724
:1046700053466046009AFBF703FE84460398825C2B
:104680000298401E029002705CEA0100F0D102988C
:1046900006A9081A00F1200A600702D524F4803424
:1046A00000E00127574502DDA7EB0A0000E00020EB
:1046B00000EB0A01009005984144401A0590E00380
:1046C00006D45B462146179A059800F0B3F90544D5
:1046D000002706E001A85A46C05D179990476D1C57
:1046E0007F1C4745F6DBE0030CD55B462146179A55
:1046F000059800F09FF9054404E030205A461799C8
:1047000090476D1C0099481E00900029F5DC08E0D8
:10471000029802995A460078491C029117999047CD
:104720006D1CBAF10001AAF1010AF1DC65E100009B
:104730000928010030313233343536373839616277
:10474000636465660000000030313233343536373B
:1047500038394142434445460000000000F058F912
:104760000544761C307800287FF4ECAD19B028465B
:10477000BDE8F08F620700D4062709F1070222F096
:10478000070CFCE80223E14603F000485FEA080C4E
:1047900002D00FF2702C0DE05FEA045C02D50FF23C
:1047A000682C07E05FEAC47C02D00FF2602C01E0C5
:1047B000AFF2700C4FF0FF3823F00043CDF850C03B
:1047C00065280CD006DC452809D046281DD047288E
:1047D0003DD13DE0662818D067287ED138E0002121
:1047E000112F01DB112000E0781CCDE9000106A9A2
:1047F0000EA8FDF79FFFDDE90F010E9A039100213E
:10480000009207F1010A04914DE04FF0004000973B
:10481000CDE9011006A90EA8FDF78CFFDDE90F0216
:1048200003920E9B11990022DDF80CA000930492D4
:1048300011B9791C00EB010AB7EB0A0004D4C0F1EE
:10484000FF3007F1010A0490AAEB0700019044E051
:10485000012F00DA01270021112F01DD112000E0D6
:104860003846CDE9000106A90EA8FDF763FFDDE992
:104870000F010E9A0391002104910092BA4621077C
:104880000CD40399514500DA8A46BAF1010F05DDCF
:10489000009AAAF10101515C302908D0B84202DA2D
:1048A00010F1040F06DA0121CDE9011015E0AAF19B
:1048B0000101E9E7002805DC049901440491AAEB11
:1048C000000102E0411C514500DD8A460499401A6E
:1048D000401C01904FF000400290200704D4019842
:1048E000504501DBCDF8048000208DF84F00029880
:1048F0000DF14F07B0F1004F25D02B200E900298FC
:104900004FF0020800280CDA404202902D200E9051
:1049100007E00A210298FBF7D5FE3031029007F834
:10492000011DB8F10001A8F10108F2DC029800288D
:10493000EFD1791E0E980870307800F0200040F01A
:10494000450007F8020D12A8C01B00F107081498D3
:10495000007800B1012000EB0A01019801EBE07141
:1049600005984144401A401E0590E00306D45B467A
:104970002146179A059800F05DF8054414980078D0
:1049800018B15A46179990476D1CE00324D55B4631
:104990002146179A059800F04DF805441CE004984C
:1049A000002807DBDDE90301884203DD0098405C55
:1049B000179901E0179930205A469047049805F15D
:1049C0000105401C04900198401E019004D12E2046
:1049D0005A46179990476D1CBAF10001AAF1010AD5
:1049E000DDDC05E017F8010B5A46179990476D1C5E
:1049F000B8F10001A8F10108F4DC5B462146179AE2
:104A00000598ABE62D0000002B0000002000000000
:104A10002DE9F041044600251E461746880404D4BB
:104A200005E039462020B0476D1C641EF9D52846A4
:104A3000BDE8F0812DE9F041044600251E46904670
:104A4000C80301D5302700E02027880404D505E0FD
:104A500041463846B0476D1C641EF9D52846BDE86E
:104A6000F08100002DE9FF4F89B005460A98002427
:104A70009246002800D1FE4D8FE1252804D0224621
:104A8000641C53460A990BE2491C4FF00008084683
:104A90000C9101782B2919D004DC202919D0232965
:104AA00004D119E02D290ED0302909D00026C8B232
:104AB000FDF7F2FEB0B10CA8FDF725FE06461FE09B
:104AC00048F001010AE048F0020107E048F0040163
:104AD00004E048F0080101E048F01001401C88465D
:104AE0000C90D6E70C9908782A2809D1169840C866
:104AF0001690002E02DA48F002087642491C0C910A
:104B00000C984FF0000B01782E2919D1401C0C9005
:104B100048F480680078FDF7BFFE20B10CA8FDF7CF
:104B2000F2FD83460CE00C9A10782A2808D11698DA
:104B300002C81690002900DC0021521C8B460C9202
:104B40000C9801786C290AD004DC68290FD06A29F6
:104B500019D128E0742929D07A2914D126E0401CE3
:104B60000C90017848F480786C291CD00BE0401C34
:104B70000C90017848F08008682904D148F0400181
:104B8000401C88460C9002460078692822D015DC2B
:104B900062281FD00DDC252871D050281AD0582843
:104BA0007FF46DAF16E048F40071E9E748F48071D6
:104BB000E6E7632878D06428F2D10BE0732874D03C
:104BC00004DC6F2806D07028EAD103E0752801D0F4
:104BD0007828E5D178280DD058280BD070280BD034
:104BE000502809D06F2816D0622816D00A2128F044
:104BF000100016E0102107E05078102148F4887862
:104C0000562804D1521C0C921078582807D01078DE
:104C1000502804D006E0082109E0022107E048F00E
:104C2000200080461078692803D0642801D028F03D
:104C30000C085FEA485001D528F00108107869286F
:104C40001ED064281CD0562864D05FEA885072D5E4
:104C5000169804ABC01D002283E806080292CDE935
:104C6000076820F007005346F0E80212CDE9001271
:104C70001690224628460A99FFF716FB89E00AE1BA
:104C80005FEA885024D5169804AFC01D20F00703B2
:104C9000F3E802021693002387E80A08CDE90768C3
:104CA000002A03DA012102E080E0A6E000210023CF
:104CB000029119461B1A914101DA114603E00021C5
:104CC000404261EB020153462246CDE90001D1E7A3
:104CD0005FEAC85004D5169804C80FE0524215E0A8
:104CE0005FEA486003D5169810F8042B06E05FEAE7
:104CF0000860F0D5169830F8042B12B21690CDE962
:104D0000021BCDE90468D00F002AE7DDCDE90020C1
:104D100053461EE01698AAEB040202C81690486893
:104D2000006800900A980B6801192846FFF79AFE60
:104D300004442FE0FFE75FEAC8500CD5CDE9021B21
:104D4000CDE9046816980021534604C8CDE9002136
:104D50001690224619E05FEA486003D5169810F8CD
:104D6000042B08E05FEA0860169803D530F8042B9E
:104D700092B200E004C816900020CDE90020CDE9F1
:104D8000021BCDE904685346224628460A99FFF7DC
:104D90004BFA04460C98401C0C900C99087800289B
:104DA0007FF46BAE54457DD222467DE001275FEA59
:104DB000887006D509E02246641C534620200A99D3
:104DC000A84738467F1CB042F5D316992246641C8A
:104DD00011F8040B169153460A99A8475FEA8870A8
:104DE00006D4D7E72246641C534620200A99A847D8
:104DF00038467F1CB042F5D3CCE7169850F8049B98
:104E000016904B46BBF1000001D0014601E04FF087
:104E1000FF31484600E0401C02780AB1491EFAD230
:104E2000C71A5FEA485003D558465F4500D3074686
:104E30005FEA887006D512E02246641C53462020A3
:104E40000A99A84738467F1CB042F5D307E000BF57
:104E5000224609F10109641C53460A99A84799F8AA
:104E6000000040B15FEA4851F2D5BBF1010B01E00F
:104E700031430008ECD25FEA887006D48AE7224604
:104E8000641C534620200A99A84738467F1CB0422C
:104E9000F5D37FE706E02246641C534625200A9995
:104EA000A84777E7AAF10102534600200A99A847CC
:104EB0000DB02046BDE8F08F10B502004FF00000A5
:104EC0000CD04B1E194200D0FEE70A44521E9A43F2
:104ED000B2F5803F02D20C2A01D9104610BD0C2039
:104EE00010BD08444A1E401E9043114200D0FEE708
:104EF000704700002DE9F0410F46012100250446CE
:104F000041862E460BE01B49FBF724FA10B16D1CBD
:104F1000ADB202E0608E401C6086761CB6B257F8D7
:104F2000260010B101780029EDD1208EA8421ED0B4
:104F3000A06A002610B111F09DF9A662E06A10B1D6
:104F400011F098F9E662E80011F00AF9A06238B1B0
:104F5000680011F005F9E06218B1A16A11B102E030
:104F6000FEE7FEE70025690011F0CEFA2586BDE8D0
:104F7000F0810000880101082DE9F84F8146407A50
:104F80000F4600F00700022819D0104680469742CD
:104F900000DD3A46164603202A4C2B4A00EB460019
:104FA00020F00305A06811681035411A636805EB0D
:104FB000010C9C4505D2416821F0004124E00846DF
:104FC000E4E79D4219D892464FF0FF3B48196168CB
:104FD000884210D9002269461C48CDF800B009F07B
:104FE00039FC002269461A4809F034FCA168DAF855
:104FF0000000091AEAE7A068DDE7284611F0B0F8DA
:10500000C0B1416841F0004188EA6702416089EA25
:1050100002010160416801F04041491C31F08041CA
:1050200041608681A0F80E8005D500F110018160F5
:10503000BDE8F88FFEE7A16801F110022944826003
:10504000A160F5E7F8000020F401002031BE00085F
:10505000B5E8000810B5084C012020700748FEF79D
:105060008CFC0028A06803D0BDE8104017F088BA77
:10507000BDE8104017F078BAD801002088B60020AB
:1050800010B5044690F83E00626B810707D4A18FEB
:1050900039B1A1F57F43FF3B15D0491EA187A18FF0
:1050A00089B90AB181070ED521461348FEF7CFFC16
:1050B000FFF7D0FFE16809B1204688472046BDE8E8
:1050C000104011F0D7B8A16B4942E162002A11D01B
:1050D000810702D4216B4942E1624110491C61F30E
:1050E000410084F83E00616AE069E1616062A06AA3
:1050F000A262606310BD000088B6002070B5304D1C
:10510000686817F049F90646687880F00100687011
:1051100047E00020287094F83E006978C0F38002D0
:105120008A4242D061F3820084F83E00E16A8A1923
:10513000030719D4002917DC002A15DBC00709D1A1
:10514000216939B120468847E1690144E161616A1A
:1051500008446062A16809B12046884794F83E007F
:1051600040F0080084F83E00E06A8019E06216D43E
:10517000A16A884200DDE162A169204688470146B4
:10518000206A884204D0216262680AB12068904790
:10519000D4E90A01814202DB2046FFF771FF28783B
:1051A00018B10848FEF7E9FB03E021460548FEF781
:1051B000F6FB0400ADD117F0F5F8686070BD000093
:1051C000D801002088B6002070B5044640680D461E
:1051D00008B1FFF7F9FF2268002A04D029462046CB
:1051E000BDE87040104770BD89B20AF04EBA89B26E
:1051F0000AF087BA10B50446406882080AD04968A8
:1052000021F00301091D08446060204600F042F8C7
:10521000204610BDFEE74068103120F003008842B0
:1052200001D301207047002070472DE9FC47054657
:1052300048680C4620F0030001AA694618F02AF8D5
:10524000DDE9007005EBC71101EB80098046D9F854
:105250003C0060B164B1C4E9020504F10806C46011
:1052600030460421FFF73DFE864202D0FEE7FEE70E
:10527000FEE7C9F83C400120296900FA07F2114312
:10528000296105EB870100FA08F04A6902434A6187
:10529000BDE8FC8710B5044600F087F8046010BD37
:1052A0002DE9FC4706464FF000000D000090074630
:1052B000019042D00C46E9460DF10408802907D33D
:1052C00008461BF041F8411F01208840401E04445D
:1052D00042464946204617F0DDFF009C0A2C2CDA96
:1052E00006EB8400019A40694FF0FF3101FA02F2A7
:1052F00010400CD1641C3069A14008401DD01BF047
:105300001BF80446009006EB8000406978B11BF062
:1053100013F8034606EBC411019001EB8000C76B44
:105320005FB1786820F00300A84201D2FEE7FEE7F3
:1053300039463046009A19F0C3F93846BDE8FC8773
:1053400010B50446FFF7A6FF416841F00201416035
:10535000606840F00100606010BD10B5044600F0C8
:1053600024F8416821F002014160606820F00100EA
:10537000606010BD70B506460D46084600F015F891
:10538000040010D02079C0070BD0686880080BD0CB
:105390002146304600F03CF821462846FFF72AFF18
:1053A0000546284670BDFEE7FEE7426800F10801A9
:1053B00022F00300001F0844910800D1FEE7704767
:1053C00070B506460C004FF000001ED0F2B12079F7
:1053D0001546C0071BD011462046FFF71CFF78B1C9
:1053E0002946204600F025F805462046FFF752FFE3
:1053F0006868294640F0020068603046FFF715FFF4
:105400002046FFF7AAFF04F1080070BDFEE7FEE7A3
:105410007CB5054648680C4620F0030001AA6946A1
:1054200017F038FFDDE900232146284619F048F936
:105430007CBD2DE9F0410D46044600F10801281F0E
:105440000E18606806F1080720F00300401BA0F169
:10545000040838460421FFF744FD874200D0FEE7E8
:10546000606820F0030108EB0500001D814200D0B8
:10547000FEE7307900F0030040EA0800706020F099
:1054800003000C2800D2FEE7207900F00300284337
:1054900060603046FFF754FF3046BDE8F08138B514
:1054A00004460FF099FD05460FF0CBFD002820467D
:1054B00005D0218FE18613F028FD012038BD0EF0C4
:1054C00025F8002820461ED00DF0F5FE218FE08E35
:1054D00081420CD02087E08E00906A461C21204635
:1054E0000EF04EFA0128E9D1204613F00EFD2846B1
:1054F0000FF0B3FD0428E0D1204612F0DDF90021C1
:105500000FF035F8D9E70EF05DF8D6E72DE9F04F4A
:105510000D4687B00446002112F003F960B3294616
:10552000204600F061FA2946204600F06FF800217D
:10553000204612F0D6FF05900021204613F06BF8AC
:1055400004900021204612F0C8FE012800D000205F
:1055500080460021204613F0C1F90746002120466D
:1055600012F02CFF42F2D17906464F450BD1608CE8
:10557000400508D4012707E007B02846BDE8F04FF2
:105580001C2110F0C1BF0027204612F048F9DFF8B7
:1055900078A0834620460021BAF8022013F096F83E
:1055A000D5F810C0AB682968CDF800C0CDF80C80E4
:1055B000CDE90131C2B239465846059B07F0A2FF3A
:1055C00028834E4504D1608C800501D4012600E07B
:1055D0000026204612F009F9074620460021BAF8B5
:1055E000062013F073F8C2B2686900246B68E9689A
:1055F0008DE81B0031463846049B07F083FF688323
:1056000007B0BDE8F08F00001C0100202DE9F34F2A
:1056100081B00C46019807F033FA0646019812F063
:10562000FEF88246304600F0C5FE2061400010F0D2
:10563000C3FD20602069400010F0BEFD002541F64A
:105640009A79A0603AE036F91510DFF820814945D3
:1056500033D10027DFF818B11FE03946019812F066
:1056600060F85946009013F089F9A8B9009807F03E
:1056700019FA012810D1009807F00AFAA8420BD1B4
:10568000009813F047F94146404501DA084602E028
:10569000009813F03FF980467F1C019812F053F8F0
:1056A000B842DAD8B8F1000F03DBA16821F8158001
:1056B00003E0A168002021F815006D1C2069A842B4
:1056C000C1D800252F46284641F69B784B4615E069
:1056D00036F91010414504DB0D44A5F5F8559B3D06
:1056E0000BE0994204D1A16831F81010394403E06D
:1056F000A26822F8101039440FB2401C216981427F
:10570000E6D80021019812F0ECFE2169C1F10102F6
:1057100000FB02A0C01B00B2002800DA002000221B
:105720004FF0FF331146C44611E000BF36F9117047
:1057300067450BDBA7F5F8579B3F3AB210FB02F326
:10574000B3FBF5F3A76827F811300B46491C27690E
:105750008F42EBD8002B07DBA91A4143B1FBF5F1CF
:10576000401AA16821F81300BDE8FE8F01E0FFFF99
:10577000010006002DE9F14F00221146009814F0B7
:105780006FFA0021009812F0D5FD04460021009820
:1057900012F056FF20440FFA80F90021009812F011
:1057A00061FE20440FFA80F8009812F043FD00EBF0
:1057B000090101EB0800DFF898A006B254460098F2
:1057C00011F0C1FF074600252AE0009821498068B2
:1057D000006850F82500834613F0D0F8F8B9584611
:1057E00013F0F4FB40BB0021584612F048FD18B3FB
:1057F000012821D002281FD003281DD0002158469F
:1058000013F081F858B9BBF81A10BBF81600081A43
:10581000401C00B24844A04200DB044624B26D1C88
:10582000BD42D2D3544504D004EB080000B2B042CC
:1058300000DC3046BDE8F88F0098BBF91A10B0F9CB
:105840001600081A411CA142E8DB0C46E6E70000FE
:1058500001E0FFFF010004002DE9F84F002280461F
:10586000114614F0E7F90021404612F063FD0446AA
:105870000021404612F090FE20440FFA80FA0021E9
:10588000404612F043FE20440FFA80F9404612F0E1
:10589000DFFC00EB090101EB0A00DFF844B105B2BF
:1058A0005C46404611F04FFF07460021404612F08B
:1058B000FFFC01284FF0000644D078E0D8F808003B
:1058C0004849006850F82600009013F057F8C0BB14
:1058D000009813F07BFB50B10098B8F91810B0F99C
:1058E0001400091A481CA0422ADB4C1C28E00021A5
:1058F000009812F0C4FC58B1032809D0062807D03C
:10590000082805D00021009812F0F6FF58B118E0E1
:105910000098B8F91810B0F91400081A411CA142F7
:105920000EDB0C460CE000981430009009F0B0FF3C
:105930005044A04204DB009809F0AAFF00EB0A04DF
:1059400024B2761CBE42B9D35C453BD004EB0900BF
:1059500033E000BFD8F808002249006850F826005C
:10596000009013F00BF808BB009813F02FFB60BBFE
:105970000021009812F083FC38B3012825D00428B8
:1059800023D0072821D00021009812F0BCFF68B96D
:1059900000981430009009F07BFF4844A04204DBDB
:1059A000009809F075FF00EB090424B2761CBE4292
:1059B000D0D35C4506D004EB0A0000B2584501D0B4
:1059C000A84200DC2846BDE8F88F0098B0F918100E
:1059D000B8F91400091A481CA042E6DB4C1CE4E7A5
:1059E00001E0FFFF010004002DE9F84F0C4683465B
:1059F00007F024FC064600F0DDFC6061400010F07A
:105A0000DBFB60606069400010F0D6FB002541F6CA
:105A10009A79E0603AE036F91500DFF80C814845E4
:105A200033D10027DFF804A11FE03946584611F0B2
:105A300078FE5146009012F0A1FFA8B9009807F037
:105A400083FC012810D1009807F074FCA8420BD108
:105A5000009811F036FF4146404501DA084602E061
:105A6000009811F02EFF80467F1C584611F06BFE07
:105A7000B842DAD8B8F1000F03DBE16821F81580ED
:105A800003E0E168002021F815006D1C6069A84260
:105A9000C1D800273D46384641F69B784A4615E076
:105AA00036F91010414504DB0F44A7F5F8579B3F2A
:105AB0000BE0914204D1E16831F81010294403E071
:105AC000E36823F8101029440DB2401C616981423B
:105AD000E6D80021584612F09EFD8146584611F046
