:020000040800F2
:100000000090012055030008472D00083F2D0008EF
:10001000432D0008471900088D310008000000003A
:100020000000000000000000000000009502000831
:100030004B19000800000000F1020008492D0008DB
:1000400079030008790300087903000879030008A0
:100050007903000879030008790300087903000890
:100060007903000879030008790300087903000880
:100070007903000879030008790300087903000870
:100080007903000879030008790300087903000860
:100090007903000879030008790300087903000850
:1000A0007903000879030008790300087903000840
:1000B0007903000879030008790300087903000830
:1000C0007903000879030008790300087903000820
:1000D000790300087D3100087903000879030008DE
:1000E0007903000879030008790300087903000800
:1000F00079030008790300087903000879030008F0
:1001000079030008790300087903000879030008DF
:100110007903000879030008712D000879030008AD
:1001200079030008790300087903000879030008BF
:1001300079030008790300087903000879030008AF
:10014000790300087903000879030008790300089F
:10015000790300087903000879030008790300088F
:10016000790300087903000879030008790300087F
:1001700079030008790300087903000800000000F3
:10018000790300087903000800F002F800F072F823
:100190000AA090E8000C82448344AAF10107DA45E2
:1001A00001D100F067F8AFF2090EBAE80F0013F0C2
:1001B000010F18BFFB1A43F001031847C078040071
:1001C000E07804000A444FF0000C10F8013B13F0F3
:1001D000070408BF10F8014B1D1108BF10F8015BA0
:1001E000641E05D010F8016B641E01F8016BF9D193
:1001F00013F0080F1EBF10F8014BAD1C0C1B09D1EA
:100200006D1E58BF01F801CBFAD505E014F8016B5B
:1002100001F8016B6D1EF9D59142D6D370470000ED
:100220000023002400250026103A28BF78C1FBD8FF
:10023000520728BF30C148BF0B607047662938F0AD
:100240006083642900F06E81782900F0A78173290A
:1002500000F0BF86002070471FB538F04DFB00F05E
:10026000CFFE04000020002137F0F8FFE0601FBD42
:1002700010B510BD00F07EFF1146FFF7EDFF2FF027
:1002800051FA00F09CFF03B4FFF7F2FF03BC05F046
:10029000CFF800002C4B19680868B0E8F04F80F3E5
:1002A0000988BFF36F8F4FF0000080F3118870470B
:1002B0000000000008480068006880F308884FF0DC
:1002C000000080F3148862B661B6BFF34F8FBFF3AE
:1002D0006F8F00DF00BF00BF08ED00E0DFF80C000B
:1002E000016841F470010160704700BF88ED00E0D3
:1002F000EFF30980BFF36F8F134B1A681EF0100FD6
:1003000008BF20ED108A20E9F04F106009B44FF0CB
:10031000500080F31188BFF34F8FBFF36F8F36F01B
:10032000F1FF4FF0000080F3118809BC19680868DC
:10033000B0E8F04F1EF0100F08BFB0EC108A80F349
:100340000988BFF36F8F7047A0000020EFF305808E
:10035000704700000C48016841F4700101600B48CF
:1003600080470B480047FEE7FEE7FEE7FEE7FEE7B3
:10037000FEE7FEE7FEE7FEE7FEE700000548064968
:10038000044A064B7047000088ED00E05D2D000830
:1003900089010008008001200090012000800120D8
:1003A000704753EA020C00F069802DE9F04B4FF0E2
:1003B0000006002B1FBFB3FA83F503FA05F424FAF5
:1003C00005F65E4012BF1643B2FA82F502FA05F452
:1003D000C5F120051EBF22FA05FC44EA0C042035B5
:1003E00056EA044C4FEA144418BF641C4FF000084E
:1003F0004FF00009904271EB030C39D3002919BF6B
:10040000B1FA81F701FA07F6B0FA80F700FA07F6B9
:10041000C7F120071EBF20FA07FC46EA0C0620376A
:10042000B6FBF4FCA7EB0507103F07F01F0BCBF161
:1004300020060CFA0BFB2CFA06F644BFB346002646
:10044000202FA4BF5E464FF0000B5BEA060C08BFEE
:100450004FF0010B19EB0B09ABFB027C48EB0608D4
:10046000C01B06FB02CC0BFB03CC71EB0C01C1E7FC
:100470000B46024641464846BDE8F08B13B54FF0A7
:1004800000004FF00001AFF30080BDE81C40704752
:100490000FB4044910B503AA029800F09FFD10BCE8
:1004A0005DF814FB140000200FB41CB5074B06AA1E
:1004B0007B4469460090059800F061FD0020694684
:1004C00000F070FD1CBC5DF814FB0000F10A000098
:1004D00070B50C460546012A05D02878800600D55F
:1004E000EA69002302E0012305E05B1C934202D28B
:1004F000E05C0028F9D1A869E618C01AA861286A4A
:10050000184428622846AFF3008004E0D5E90121B1
:1005100014F8010B9047B442F8D32846AFF300809B
:1005200070BD00002DE9F0410646002410687529D1
:10053000314616A510D0AFF30080002802DA404201
:1005400013A507E031688A0701D512A502E0490723
:1005500004D511A5012401E0AFF3008000210A2297
:1005600006F1240709E0B0FBF2FCB0FBF2F302FB5A
:100570001C00303078541846491C0028F3D123461B
:100580002A463046BDE8F04100F08DBA0000000078
:100590002D0000002B0000002000000070B5044674
:1005A0000D4621461068AFF300802188090502D569
:1005B0000F4A7A4402E00E4A7A440E32002104F1D6
:1005C000240305E000F00F060009965D5E54491C07
:1005D0000028F7D120780023000704D5702D02D021
:1005E00009B1022311322046BDE8704000F05BBA29
:1005F0003A6E04002DE9F05F894604464FF0000A88
:10060000DFF874B1FB44C0F820A02046E1688847B9
:10061000002874D0252806D0D4E901219047206A0B
:10062000401C2062F1E700265F462046E1688847CB
:100630002028054607DB312D05D2781910F8200C4B
:1006400008B10643F1E7B00701D526F00406C4F867
:100650001CA00027C4F818A02A2D09D0284602F0B3
:10066000E9FD38B304EB8708303DC8F8185019E0AD
:1006700059F8041B204604EB87029161E168884722
:10068000012F054618D1E069002820DA26F020065F
:100690001DE0D8F8180000EB800005EB4000303872
:1006A000C8F818002046E1688847054602F0C2FDF8
:1006B0000028EED1012F0AD02E2D08D12046E16866
:1006C00088477F1C0546022F46F02006C4DBA06940
:1006D000002803DA404246F00106A061F00701D08D
:1006E00026F010066C2D0BD0682D09D04C2D39D07A
:1006F0006A2D35D0742D35D07A2D33D016E038E000
:10070000E1682F4620468847B842054609D16C2F3C
:1007100026D04FF48060E1680643204688470546AE
:1007200004E06C2F1AD04FF4807006430DB3A5F18E
:100730004100192802D8203546F400664A46294669
:10074000204626604E46FFF779FD80B101280BD088
:10075000F61D26F0070000F1080956E74020E4E7FF
:100760008020D8E70020D6E706F104094DE72846A7
:1007700052E7206ABDE8F09F106E040040EA0103D2
:10078000024630B59B0710D14FF0013400E008C29B
:1007900008C91D1B9D4315EAC41FF8D013F0FF01C3
:1007A00002F8011B0DD01B0AF8E711F8013B002BE2
:1007B00002F8013B05D011F8013B002B02F8013B88
:1007C000F3D130BD10B5431C02E010F8011B71B12C
:1007D0008107FAD14FF0013202C88C1A8C4314EA17
:1007E000C211F9D0C01A0A0603D0C01E10BDC01A2B
:1007F00010BD0A0401D0801E10BD0902FCD0401EAD
:1008000010BD032A40F2308010F0030C00F0158078
:1008100011F8013BBCF1020F624498BF11F801CB03
:1008200000F8013B38BF11F8013BA2F1040298BF68
:1008300000F801CB38BF00F8013B11F0030300F0D2
:100840002580083AC0F0088051F8043B083A51F876
:1008500004CBA0E80810F5E7121D5CBF51F8043B7B
:1008600040F8043BAFF30080D20724BF11F8013BEE
:1008700011F801CB48BF11F8012B24BF00F8013B50
:1008800000F801CB48BF00F8012B704710B5203AA3
:10089000C0F00B80B1E81850203AA0E81850B1E839
:1008A0001850A0E81850BFF4F5AF5FEA027C24BFEF
:1008B000B1E81850A0E8185044BF18C918C0BDE8E6
:1008C00010405FEA827C24BF51F8043B40F8043BAF
:1008D00008BF7047D20728BF31F8023B48BF11F864
:1008E000012B28BF20F8023B48BF00F8012B7047BE
:1008F00002F0FF0343EA032242EA024200F002B898
:100900004FF000020429C0F0128010F0030C00F038
:100910001B80CCF1040CBCF1020F18BF00F8012BB6
:10092000A8BF20F8022BA1EB0C0100F00DB85FEA84
:10093000C17C24BF00F8012B00F8012B48BF00F850
:10094000012B70474FF0000200B5134694469646BF
:10095000203922BFA0E80C50A0E80C50B1F12001D2
:10096000BFF4F7AF090728BFA0E80C5048BF0CC080
:100970005DF804EB890028BF40F8042B08BF7047DE
:1009800048BF20F8022B11F0804F18BF00F8012B50
:10099000704700004FF0013C50F8042B51F8043B25
:1009A0009A4221D1A2EB0C03934313EACC1317D143
:1009B00050F8042B51F8043B9A4215D1A2EB0C03DA
:1009C000934313EACC130BD150F8042B51F8043B9A
:1009D0009A4209D1A2EB0C03934313EACC13DBD068
:1009E0004FF00000704700BFD01A01BAB1FA81F190
:1009F00001F0180122FA01F0CB40C1F12001DBB275
:100A0000C0B2C01A2CFA01F3D11A914311EAC311F2
:100A1000E6D17047704770477047704730B5B0F106
:100A20000A024FEA900E71F100034EEA817EB0EBAC
:100A30000E0061EB91014FEA101E4EEA017E10EBB1
:100A40000E0041EB11114FEA102E4EEA016E10EB31
:100A50000E0041EB11214FEA104E4EEA014E10EB11
:100A60000E0041EB1141401841F100014FEAD00066
:100A700040EA41704FEAD10110EB80054FEA810452
:100A800044EA907444EB01046D1944EB0404521BD6
:100A9000A3414FF0000348BF0A3200D530BD401CCF
:100AA00041F1000130BD2DE9F0470D4699469246CF
:100AB000044600F124080168880604D5E06921F0A5
:100AC0001001216000E00120A84201DD471B00E089
:100AD0000027A1697A1902EB0900081AA0612078A1
:100AE000C00602D42046AFF30080002608E0D4E917
:100AF00001211AF806009047206A401C761C2062EB
:100B00004E45F4DB2078C0060AD52046AFF30080BE
:100B100006E0D4E9012130209047206A401C206281
:100B2000381EA7F10107F4DC07E0D4E9012118F829
:100B300005009047206A401C2062281EA5F101058F
:100B4000F3DC2046AFF300802078000602D50220B7
:100B5000BDE8F0870120FBE770472DE9FF4F0C4609
:100B60001E464FF0FF378BB0D2E90001DDF8608000
:100B70000A908A46C1F30A5505B93D460021084648
:100B80004FF00000BAF1000F00F4400005DA00EB6E
:100B900080004FF4400101EA50004FEA9059B9F14A
:100BA000010F00DDB9460A9850EA4A000ED044F61B
:100BB0001050A5F2FF3545432F14B8F1000F1ED099
:100BC0007542291E1EDDC9F100021CE0B8F1010FBB
:100BD0004FF0000001D0302103E0F24305E0215442
:100BE000401CB042FBDB30460022002121540B990F
:100BF000C1F80880C1E900200FB0BDE8F08FBD1B2F
:100C00006D1CDEE74A4600DA694206A800F03CFAAD
:100C100006AB93E8070003AB83E8070050460A9948
:100C200000F0D6FA8DE80700A0F500501F380090BC
:100C30000398002D09DD42F21F014A46084403A92A
:100C40000390684600F035FD08E0A0F500504A46E4
:100C50001F3803A90390684600F03FFD8DE80700A8
:100C60000004000C03D04FF0FF30410800E01046B4
:100C7000B8F1000F03D00022009215461EE0751E49
:100C800005D4FFF7CBFE303262556D1EF9D5B34661
:100C90000122084302D000227F1C04E02078302883
:100CA00001D100227F1E002A099786D01DE0112D58
:100CB00007DAFFF7B3FE303262556D1C50EA0102CD
:100CC000F5D1084302D00098C8B10EE00021681E9B
:100CD00005E0235C625C63542254401E491C81423F
:100CE000F7DBAB46A81B401E0990002004F80B0060
:100CF0000B98099AC0F80880C0E9002B7CE7112600
:100D00004FF0000859E72DE9F04F88460446D21D00
:100D100022F0070191B0D1E90001CDE90A0102F00A
:100D200037FA02460B98C00F01D02D2007E020684B
:100D3000810701D52B2002E0202101EAC000032A0F
:100D4000099001D0072A05DB03464146204600F002
:100D50005BF90BE12078800601D5E06900E0062010
:100D6000B8F1650F814606D0B8F1660F18D0B8F11A
:100D7000670F70D131E00020B9F1110F009001DB55
:100D8000112301E009F101030AAA01A90CA8FFF748
:100D9000E4FEDDE90C70002609F10105834647E019
:100DA00001204B4600904FF000470AAA01A90CA869
:100DB000FFF7D3FEDDE90DB00C995D46002610B9B2
:100DC00009F101000D18B9EB050003D4C0F1FF369D
:100DD00009F10105A5EB09002BE0B9F1010F01DADA
:100DE0004FF001090020B9F1110F0090484601DDD4
:100DF000112300E003460AAA01A90CA8FFF7ADFEE3
:100E0000DDE90C704D4600268346207800070AD4A1
:100E1000AB4500DA5D4601A8012D04DD411911F84A
:100E2000011C302907D04F4502DA17F1040F04DA0C
:100E3000012082460FE06D1EEEE7002F02DCED1B65
:100E40003E4403E0781CA84200DD7D1CB81B00F185
:100E5000010A4FF000472078000703D4AA4501DBC0
:100E60004FF0FF3A0021B7F1004F0DF143088DF824
:100E7000431024D002202B23002F01DA7F422D23A0
:100E80000A21021EA0F1010000DC5FB197FBF1FC1A
:100E900097FBF1F201FB1C7C17460CF1300C08F8B3
:100EA00001CDEEE7A8F1010003702188090501D505
:100EB000452100E06521A0F1010800F8011C099816
:100EC0000FA9A1EB0807FF1D00B10120411901EB9B
:100ED000EA70A1693844081A401EA0612078C00653
:100EE00002D42046AFF30080099828B1D4E901214B
:100EF0009047206A401C20622078C00622D52046F8
:100F0000AFF300801EE0002E04DBB34502DD01A834
:100F1000805D00E03020D4E901219047206A401C28
:100F20002062761CAAF101005FEA000A0AD100F0F3
:100F300067F8C0680168405CD4E901219047206AE5
:100F4000401C2062281EA5F10105DCDC07E0D4E985
:100F5000012118F8010B9047206A401C2062381EBE
:100F6000A7F10107F3DC2046AFF30080032011B0A6
:100F700043E6000001694A1C02610878704700B529
:100F80008FB0CDE901310021059105497944CDE9C2
:100F9000031011466846FFF72DFB0FB000BD00009F
:100FA000E5FFFFFF0A6802F8010B0A60704710B501
:100FB000436913B1AFF3008001E0FFF789FA012024
:100FC00010BD127800F124010A7000224A7001223B
:100FD000EDE711684FF0FF32E9E70000074B70B50D
:100FE0000D467B44FFF7CBFF0446284600F0BAF8D5
:100FF00010B14FF0FF3070BD204670BDFB090100FD
:1010000000487047BC7F01202DE9F0411F4604468F
:1010100003260168072A01F4006004DB08B116A565
:1010200005E016A503E008B115A500E015A521F01F
:1010300010002060A069C01EA0610FB1401EA06119
:101040002046AFF300804FB1D4E9012138469047E4
:10105000206A401C2062C01C206206E0206AFAE779
:10106000D4E9012115F8010B9047761EF8D22046ED
:10107000AFF30080BDE8F0814E414E006E616E001E
:10108000494E4600696E66002DE9F04781461646D6
:101090008AB0334878440DC88DE80D003048784454
:1010A000801C03AC0DC884E80D0041F69B30084459
:1010B000372190FBF1F290FBF1F5A5F1800501FBE2
:1010C00012041B3C02D56442012000E00020DFF83E
:1010D00090A080460027FA44AAF1BE0A0DE0E0077E
:1010E00009D03246684607EB47010AEB810100F060
:1010F000F4FA8DE8070064107F1C002CEFD1184F24
:101100007F44AC3F18E0E80714D007EB04100DF162
:10111000180A90E80E008AE80E00C068F04201D17B
:1011200098190890324606A903A800F0D6FA03AB36
:1011300083E807006D10641C002DE4D13246694637
:10114000B8F1000F03A802D000F0B3FA01E000F0FC
:10115000C4FAC9E90001C9F808200AB0BDE8F0875F
:1011600010640400007B00F0800070470048704766
:101170009C7F01207546FFF7F9FFAE4605006946E2
:10118000534620F00700854618B020B5FFF7F6F863
:10119000BDE820404FF000064FF000074FF0000878
:1011A0004FF0000B21F00701AC46ACE8C009ACE8F9
:1011B000C009ACE8C009ACE8C0098D46704710B55D
:1011C0000446AFF300802046BDE81040FFF75BB84F
:1011D0005FEA400C08BF91F0000F4FEA8C234FEA02
:1011E000C12243EA51514FEA1C5018BF00F5F040AC
:1011F0004FEA300018BF41F000415FEA6C5C00F03C
:101200002980BCF1FF3F08BF40F080407047130CBD
:1012100006BF12044FF0100C4FF0000C130E04BF69
:1012200012020CF1080C130F04BF12010CF1040C94
:10123000930F04BF92000CF1020CD30F04BF5200B5
:101240000CF1010C11464FF00002A0F11F00A0EBC1
:101250000C00704711F0004F08BF704731F000419B
:101260003FF4D5AF0B0C06BF09044FF0100C4FF044
:10127000000C0B0E04BF09020CF1080C0B0F04BF8D
:1012800009010CF1040C8B0F04BF89000CF1020C56
:10129000CB0F04BF49000CF1010CCCF12003A0EBF3
:1012A0000C0022FA03F302FA0CF241EA030100F106
:1012B0000100704720F07F4C80EA030023F07F4755
:1012C000ACEB070303F57C5300F0004003F1FF0390
:1012D0002DE980494FEA154B09B44FEA144325EA3A
:1012E0000B4E24EA03480FF2042606EB13274908A5
:1012F0003E785FEA320203FB0667C7F5000707FB8B
:1013000006F64FEA54374FEAD64606F1020607FBC7
:10131000066CCCF1005C4FEA1C472CEA074C07FB3B
:1013200006F40CFB06F504EB15464FEA961634BF9F
:1013300000204FF000404FEAD13706FB07FC4FEA90
:101340001C4C0CFB0BF7D21B03FB0CF761EB0701EA
:101350000CFB0EF7B0EB074072EB17420CFB08F7E3
:1013600034BFA2EB0742B2EB074261EB17414FEAF1
:101370000C444FEA910706FB07FC4FEA1C4C0CFBA0
:101380000BF7B0EBC74072EB573203FB0CF734BFDF
:10139000A2EBC742B2EBC74261EB57310CFB0EF731
:1013A000B0EBC70072EB57720CFB08F734BFA2EB2F
:1013B000C702B2EBC70261EB5771039F4FEA81612D
:1013C00041EA921104EBCC044FEAD1374FEA826232
:1013D00006FB07FC42EA90124FEA80604FEA1C4C81
:1013E0000CFB0BF7D21B03FB0CF761EB07010CFBAB
:1013F0000EF7B0EB074072EB17420CFB08F734BF57
:10140000A2EB0742B2EB074261EB17414FEA8C5562
:101410004FEA910704EB9C2406FB07FC4FEA1C4CA7
:101420000CFB0BF7B0EBC74072EB573203FB0CF72A
:1014300034BFA2EBC742B2EBC74261EB57310CFBA2
:101440000EF7B0EBC70072EB57720CFB08F734BF16
:10145000A2EBC702B2EBC70261EB577115EB4C254B
:101460004FEA816141EA92114FEA82624FEAD13735
:1014700042EA901206FB07FC44F100044FEA806048
:101480004FEA1C4C0CFB0BF7D21B03FB0CF761EB78
:1014900007010CFB0EF7B0EB074072EB17420CFB99
:1014A00008F734BFA2EB0742B2EB074261EB1741EA
:1014B00015EB1C154FEA813141EA92414FEA823225
:1014C00042EA90424FEA80304FEA0C7644F1000441
:1014D00048EA03434EEA0B484FF0000EB2EB080C0B
:1014E00071EB030724BF624639464EEB0E0E4FF0F8
:1014F000000B0018524149414BEB0B0BB2EB080CAF
:1015000071EB03077BF1000B24BF624639464EEBBB
:101510000E0E4FF0000B0018524149414BEB0B0BE4
:10152000B2EB080C71EB03077BF1000B24BF6246A2
:1015300039464EEB0E0E51EA020718BF46F001067F
:1015400016EB0E7655F1000254F1000103D5BDE80B
:101550008901BDE80088BDE88901BDE80048B619E9
:10156000524141EB0101A3F10103704780807F7E6E
:101570007D7C7B7A79787776767574737271717009
:101580006F6E6E6D6C6C6B6A6A69686867666665BB
:101590006464636362616160605F5F5E5E5D5D5C49
:1015A0005C5B5B5A5A5959585857575656555555BA
:1015B0005454535352525251515050504F4F4F4E1A
:1015C0004E4D4D4D4C4C4C4B4B4B4A4A4A49494968
:1015D00048484847474747464646454545444444AA
:1015E000444343434342424242414141002B26D4BB
:1015F000770021D01CB54FEA370703B44FF0100035
:101600004FF010014FF000000FBCBDE810400BF18F
:10161000010BBBF1010F08BF5FEA170722BF12F1F0
:10162000010211F101014FF0004143F1000300F00C
:10163000004043EA00007047F9D35708DAE746EA6A
:10164000064613F1400F4FEA16461FDD13F1200F37
:10165000DFBF16430A46002120335B42C8D0C3F1E6
:10166000200746EA064602FA07F74FEA164646EA18
:101670000706C3F1200722FA03F201FA07F721FA5D
:1016800003F14FF0000342EA0702B1E746EA02061F
:1016900046EA06464FEA164646EA0106BCBF46EA57
:1016A0000646360C4FF000034FF000024FF00001E9
:1016B0009EE72DE9C048934630B491E8380007C84A
:1016C00031EA400C48BF34EA430C03D5FFF7F2FD82
:1016D000FFF78CFFF0BCBDE800882DE9C0489346B9
:1016E00030B491E8380007C810F0804F08BF13F0FD
:1016F000804F03D100F005F8FFF778FFF0BCBDE89C
:10170000008820F07F4780EA030023F07F4C07EB3E
:101710000C03A3F57C5300F00040A3F1FE0392F00C
:10172000000F00F0B38095F0000F00F077802DE9F6
:1017300001494FEA11404FEA144621EA004800FBF4
:1017400006FC24EA064708FB06F607FB08F800FB40
:1017500007F718EB06484CEB164C4FEA124B18EB08
:1017600007484FEA15464CEB174022EA0B4E0BFB9D
:1017700006FC25EA06470EFB06F607FB0EFE0BFBF2
:1017800007F71EEB064E4CEB164C4FF000061EEB17
:10179000074E4CEB174B18EB0B0840F1000018EB11
:1017A0000E0B58EB000840F100008F1A4FF00001BB
:1017B0003CBFC943661B14BFB5EB040C00213CBF02
:1017C000C943F61B4FEA17444EEA8E0E27EA04453A
:1017D0004FEA1C4704FB07622CEA074C05FB07F79E
:1017E0000CFB05F604FB0CFC16EB074642EB17421C
:1017F00016EB0C4642EB1C421BEB060658EB0202B2
:10180000414146EA9E0601D5BDE80189B61952411B
:1018100041EB0101A3F10103BDE801894FEA144541
:101820004FEA114724EA054621EA074C05FB07F475
:1018300006FB07F70CFB06F105FB0CFC11EB07415F
:1018400044EB17444FEA124711EB0C4144EB1C44A4
:1018500022EA074C05FB07F206FB07F70CFB06F62E
:1018600005FB0CFC16EB074642EB174216EB0C4649
:1018700042EB1C456A1854F1000148BF7047B61985
:10188000524141EB0101A3F10103704795F0000FB4
:1018900037D04FEA11424FEA144721EA024624EAC0
:1018A000074C02FB07F106FB07F70CFB06F402FBF3
:1018B0000CFC14EB074441EB17414FEA154714EBBE
:1018C0000C4441EB1C4125EA074C02FB07F506FBE3
:1018D00007F70CFB06F602FB0CFC16EB074645EB84
:1018E000174516EB0C4645EB1C42121951F100014D
:1018F00048BF7047B619524141EB0101A3F1010302
:1019000070474FEA14454FEA114724EA054621EA99
:10191000074C05FB07F106FB07F70CFB06F24FF03F
:10192000000605FB0CFC12EB074241EB174112EBE2
:101930000C4251EB1C4148BF7047921841EB01012A
:10194000A3F10103704700BFFEE7704770B504467E
:101950001D460023B5F5804F13D154F822300C48B2
:101960000340D1E9000640EA06108E6840EA0620EE
:101970008E8940EA06408E693043034344F82230A2
:1019800003E06FF0704044F82200002070BD0000BA
:101990000000F0CF10B503460022086853F820205D
:1019A00012480240D1E901042043CC6820430C696D
:1019B00020434C6920438C692043CC6920430C6A46
:1019C00020434C6A20438C6A2043CC6A2043CC6B72
:1019D00020430C6B204302438868082801D142F061
:1019E0004002086843F82020002010BD8000F0FF6E
:1019F00030B503460024501C53F8204004F0404406
:101A0000D1E9000540EA05108D6840EA05208D897E
:101A100040EA0545088A401E45EA0055087D801EBB
:101A200045EA00608D6928430443501C43F8204078
:101A3000002030BD70B50446A56D00F085F906465E
:101A400094F83500022808D08020606500BF00208F
:101A500084F8340000BF012070BD2068006820F0C9
:101A60001600216808602068406920F08000216825
:101A70004861206C08B9A06C28B12068006820F08B
:101A80000800216808602068006820F001002168D3
:101A900008600FE000F058F9801B05280AD92020C3
:101AA000606500BF002084F8340000BF032084F884
:101AB0003500D1E72068006800F001000028E9D176
:101AC00094F85C103F208840A86000BF002084F894
:101AD000340000BF012084F835000020BCE7014637
:101AE00091F83500022803D0802048650120704716
:101AF000052081F835000868006820F001000A68B8
:101B000010600020F3E70000F8B502460B46002500
:101B1000002400200021DEE0012606FA01F51E68FF
:101B200006EA0504AC4275D11E7906F00306012EC3
:101B300004D01E7906F00306022E13D190684F00E0
:101B40000326BE40B0434F00DE68BE403043906085
:101B5000506801268E40B0431E79C6F300168E40B1
:101B6000304350601E7906F00306032E09D0D0687A
:101B70004F000326BE40B0434F009E68BE40304336
:101B8000D0601E7906F00306022E13D1CF0802F1B1
:101B9000200656F827004E07F70E0F26BE40B0432A
:101BA0004F07FF0E1E69BE403043CF0802F12006EA
:101BB00046F8270010684F000326BE40B0431E7948
:101BC00006F003064F00BE40304310605E6806F02A
:101BD0008056B6F1805F7DD100BF00260096404E52
:101BE000366846F480463E4F3E603E46366806F410
:101BF0008046009600BF00BF3A4E8F0856F8270077
:101C00008E07370F0F26BE40B043374EB24202D187
:101C1000002624E05EE0354EB24201D101261EE0EE
:101C2000334EB24201D1022619E0324EB24201D106
:101C3000032614E0304EB24201D104260FE02F4EAD
:101C4000B24201D105260AE02D4EB24201D106264C
:101C500005E02C4EB24201D1072600E008268F078E
:101C60003F0FBE4030431F4E8F0846F82700264ED8
:101C70003068A0435E6806F48036B6F5803F00D138
:101C80002043214E3060361D3068A0435E6806F464
:101C90000036B6F5003F00D120431B4E361D3060A4
:101CA000361D3068A0435E6806F48016B6F5801FC6
:101CB00000D12043144E08363060361D3068A043F2
:101CC0005E6806F40016B6F5001F00D120430E4EE4
:101CD0000C363060491C1029FFF41EAFF8BD00001F
:101CE000443802400838014000000240000402402D
:101CF00000080240000C02400010024000140240A4
:101D000000180240001C0240003C014002461369DA
:101D10000B400BB1012000E00020704710B5426974
:101D200021EA020302EA010443EA0443836110BD8D
:101D30000AB1816101E00B048361704701480068CA
:101D4000000C7047002004E0014800687047000064
:101D50001C00002003480068034909780844014931
:101D6000086070471C0000202400002010B50A48BD
:101D7000006840F40070084908600846006840F4B4
:101D800080600860032000F07FF80F2000F006F864
:101D900000F02AF8002010BD003C024070B5044657
:101DA0000E4800784FF47A71B1FBF0F00C490968E5
:101DB000B1FBF0F5284600F09BFC08B1012070BD96
:101DC000102C07D200222146501E00F01EF80548B4
:101DD000046001E00120F2E70020F0E72400002089
:101DE000000000202000002070470146084600281F
:101DF00009DB00F01F0301229A4043099B0003F115
:101E0000E023C3F8002100BF70472DE9F05F804652
:101E10000D461646002701F0D3F9074639462A46F3
:101E2000334601F00700C0F1070ABAF1040F02D9E6
:101E30004FF0040A01E0C0F1070AD14600F1040A9C
:101E4000BAF1070F02D24FF0000A01E0A0F1030A35
:101E5000D4464FF0010A0AFA09FAAAF1010A0AEA7D
:101E6000020A0AFA0CFA4FF0010B0BFA0CFBABF169
:101E7000010B0BEA030B4AEA0B042146404601F032
:101E8000A7F9BDE8F09F000000BF00F00702064B75
:101E900019684FF6FF031940044B0B4343EA022134
:101EA000014B196000BF70470CED00E00000FA051F
:101EB00070B504460D460CB9012070BD5848006845
:101EC00000F00700A84209D255490D700846006885
:101ED00000F00700A84201D00120EEE7207800F0D2
:101EE000020002281DD1207800F00400042805D14A
:101EF0004C48006840F4E0504A490860207800F0FF
:101F00000800082805D14748006840F4604045496A
:101F100008604448006820F0F000A1680843414987
:101F20000860207800F00100A8B36068012807D19C
:101F30003C4808380068C0F34040B8B90120BCE70D
:101F40006068022802D06068032807D13548083845
:101F50000068C0F3406048B90120AEE73148083856
:101F60000068C0F3400008B90120A6E72D480068CA
:101F700020F00300616808432A490860FFF7E4FE87
:101F8000064609E0FFF7E0FE801B41F288318842F7
:101F900002D9032091E707E02248006800F00C0016
:101FA0006168B0EB810FEDD11D48006800F00700BB
:101FB000A84209D91A490D700846006800F00700C8
:101FC000A84201D0012078E7207800F0040004281E
:101FD00007D11448006820F4E050E1680843114933
:101FE0000860207800F00800082808D10D48006833
:101FF00020F46040216940EAC1000A49086000F00D
:102000003FF808490968C1F30311074A515CC84009
:102010000649086006480068FFF7C0FE00204CE74C
:10202000003C0240083802400689030800000020F6
:1020300020000020014800687047000000000020D8
:1020400000B5FFF7F7FF04490968C1F38221034A8D
:10205000515CC84000BD00000838024016890308E2
:1020600000B5FFF7E7FF04490968C1F34231034AAD
:10207000515CC84000BD00000838024016890308C2
:102080002DE9F047002400250026A14625480068D8
:1020900000F00C0020B1042805D008283AD105E052
:1020A000DFF8849039E0DFF8849036E01D48001FA7
:1020B000006800F03F041B48001F006800F4800027
:1020C00078B11A481749091F0968C1F38811A0FBA4
:1020D00001700146224600233846FEF762F90546A4
:1020E0000EE011480F49091F0968C1F38811A0FBD0
:1020F00001700146224600233846FEF752F9054694
:102100000848001F0068C0F30140401C4600B5FBB2
:10211000F6F902E0DFF8109000BF00BF4846BDE8C6
:10212000F0870000083802400024F40000127A0012
:10213000F8B504460CB90120F8BD207800F0010084
:10214000002874D0F948006800F00C0004280DD075
:10215000F648006800F00C00082813D1F348001F6F
:10216000006800F48000B0F5800F0BD1EF4808380C
:102170000068C0F34040002859D06068002856D15C
:102180000120D9E700BF6068B0F5803F08D1E7487B
:102190000838006840F48030E449083908601EE0DF
:1021A0006068B0F5A02F0DD1E0480838006840F411
:1021B0008020DE49083908600846006840F4803015
:1021C00008600CE0D9480838006820F48030D7490E
:1021D000083908600846006820F48020086000BFC5
:1021E000606890B1FFF7B0FD054606E0FFF7ACFD73
:1021F000401B642801D903209EE7CC4808380068BA
:10220000C0F340400028F1D011E0FFF79DFD0546E6
:1022100006E0FFF799FD401B642801D903208BE7F6
:10222000C24808380068C0F340400028F1D1207847
:1022300000F0020002285FD1BC48006800F00C00EA
:1022400058B1BA48006800F00C0008281CD1B74803
:10225000001F006800F48000B0B9B4480838006876
:10226000C0F3400020B1E068012801D0012063E7FD
:10227000AE480838006820F0F800216940EAC10043
:10228000AA490839086037E0E06800B30120A8498E
:102290000860FFF759FD054606E0FFF755FD401BB6
:1022A000022801D9032047E7A04808380068C0F396
:1022B00040000028F1D09D480838006820F0F80060
:1022C000216940EAC10099490839086014E00020FA
:1022D00097490860FFF738FD054606E0FFF734FD33
:1022E000401B022801D9032026E7904808380068DF
:1022F000C0F340000028F1D1207800F00800082841
:102300002CD16069A8B101208A490860FFF71CFD43
:10231000054606E0FFF718FD401B022801D90320FF
:102320000AE782486C300068C0F340000028F1D012
:1023300014E000207F490860FFF706FD054606E02F
:10234000FFF702FD401B022801D90320F4E677487D
:102350006C300068C0F340000028F1D1207800F014
:102360000400042870D1002770483830006800F05D
:10237000805090B900BF002000906C483830006851
:1023800040F080506949383108600846006800F024
:102390008050009000BF00BF01276748006800F42C
:1023A0008070B0B96448006840F480706249086089
:1023B000FFF7CAFC054606E0FFF7C6FC401B0228F3
:1023C00001D90320B8E65C48006800F4807000285A
:1023D000F2D000BFA068012808D1544868300068D6
:1023E00040F001005149683108601DE0A0680528EF
:1023F0000DD14E486830006840F004004B49683108
:1024000008600846006840F0010008600CE047489A
:102410006830006820F001004449683108600846CF
:10242000006820F00400086000BFA068A8B1FFF7B2
:102430008BFC054609E0FFF787FC401B41F2883121
:10244000884202D9032077E626E0384868300068E1
:10245000C0F340000028EED013E0FFF775FC0546FE
:1024600008E0FFF771FC401B41F28831884201D936
:10247000032061E62D4868300068C0F34000002862
:10248000EFD1012F07D129483830006820F0805063
:1024900026493831086000BFA069002845D023488C
:1024A000006800F00C0008285DD0A069022845D122
:1024B00000201F490866FFF747FC054606E0FFF7C6
:1024C00043FC401B022801D9032035E61748083891
:1024D0000068C0F340600028F1D1D4E90701084347
:1024E000616A40EA81110122A06AC2EB500041EA10
:1024F00000412C20005D41EA00600C49091F086082
:1025000001200B490866FFF71FFC054606E0FFF7B0
:102510001BFC401B022801D903200DE603480838A4
:102520000068C0F340600028F1D049E0083802405C
:1025300000004742800E47420070004000202149C1
:102540000866FFF701FC054606E0FFF7FDFB401BB0
:10255000022801D90320EFE51B480068C0F3406062
:102560000028F2D12CE0A069012800D1E4E516484A
:10257000001D0668A069012820D006F48001E069EA
:1025800081421BD106F03F01206A814216D147F6F5
:10259000C0703040616AB0EB811F0FD106F440314A
:1025A0000122A06AC2EB5000B1EB004F06D106F049
:1025B00070612C20005DB1EB006F01D00120BBE504
:1025C0000020B9E5000047420038024070B50446DB
:1025D0000E4615460CB9012070BD94F8490028B983
:1025E000002084F84800204600F01CF804F108019F
:1025F0002068FFF7CFF93146A2682068FFF7F8F9A5
:102600002946236BD4E90102FFF7A0F9A1682068ED
:1026100050F8210040F00100A268216841F8220032
:102620000020D9E710B586B0044600BF0020009016
:102630002248006840F00100204908600846006810
:1026400000F00100009000BF00BF00BF002000901C
:102650001A480838006840F008001849083908602E
:102660000846006800F00800009000BF00BF00BFEF
:10267000002000900846006840F0100008600846FE
:10268000006800F01000009000BF00BF4CF2037023
:1026900001900220029001200390022004900C205F
:1026A000059001A90648FFF72FFA4FF680700190B8
:1026B00001A90448FFF728FA06B010BD38380240D7
:1026C000000C024000100240042808D14FF0E02125
:1026D000096941F004014FF0E022116107E04FF079
:1026E000E021096921F004014FF0E02211617047F7
:1026F00070B504462546681EB0F1807F01D30120E5
:102700000FE0681E4FF0E02148610F214FF0FF30CD
:1027100000F05EFD00204FF0E02188610720086195
:10272000002070BD70477047704710B504462068A0
:102730000069C0F34000D8B12068C068C0F3400011
:10274000B0B16FF002002168086101202077206895
:10275000806900F0030018B12046FFF7E5FF05E0AF
:10276000204600F0ADF8204600F0ABF800202077BE
:1027700020680069C0F38000D8B12068C068C0F349
:102780008000B0B16FF0040021680861022020775A
:102790002068806900F4407018B12046FFF7C4FF3C
:1027A00005E0204600F08CF8204600F08AF8002072
:1027B000207720680069C0F3C000D8B12068C068E5
:1027C000C0F3C000B0B16FF00800216808610420B8
:1027D00020772068C06900F0030018B12046FFF799
:1027E000A3FF05E0204600F06BF8204600F069F8F2
:1027F0000020207720680069C0F30010D8B120685D
:10280000C068C0F30010B0B16FF01000216808611B
:10281000082020772068C06900F4407018B1204675
:10282000FFF782FF05E0204600F04AF8204600F05E
:1028300048F8002020772068006900F0010058B1B6
:102840002068C06800F0010030B16FF0010021681D
:102850000861204600F036F820680069C0F3C01017
:1028600058B12068C068C0F3C01030B16FF080006C
:10287000216808612046FFF755FF20680069C0F312
:10288000801058B12068C068C0F3801030B16FF07C
:10289000400021680861204600F015F820680069B2
:1028A000C0F3401058B12068C068C0F3401030B188
:1028B0006FF02000216808612046FFF734FF10BD4B
:1028C0007047704770477047704770472DE9F84F61
:1028D0000446206805682068C668206847694FF08C
:1028E0000009CA4605F00F09B9F1000F0AD105F039
:1028F000200038B106F0200020B1204600F075FA23
:10290000BDE8F88FB9F1000F72D007F0010018B9D7
:1029100006F4907000286BD005F0010030B106F489
:10292000807018B1206C40F00100206405F00400B4
:1029300030B107F0010018B1206C40F002002064B3
:1029400005F0020030B107F0010018B1206C40F032
:102950000400206405F0080048B106F0200010B91A
:1029600007F0010018B1206C40F008002064206CD2
:1029700070B305F0200028B106F0200010B1204609
:1029800000F033FA20684069C0F3801A206C00F030
:10299000080010B9BAF1000F23D0204600F0FAF970
:1029A0002068406900F04000402816D12068406946
:1029B00020F0400021684861A06B50B15648A16BDF
:1029C0000865A06BFFF78BF810B1A06B016D88470D
:1029D0000CE02046FFF779FF08E02046FFF775FF7F
:1029E00004E02046FFF771FF0020206488E7FFE73E
:1029F000206B012879D105F01000002875D006F071
:102A00001000002871D000BF0020009020680068EE
:102A1000009020684068009000BF00BF20684069B7
:102A200000F04000402839D1A06B006840681FFAD0
:102A300080F8B8F1000F30D0A08D40452DDDA4F80E
:102A40002E80A06BC069B0F5807F1FD02068C06861
:102A500020F480702168C8602068406920F001007F
:102A6000216848612068406920F040002168486181
:102A7000202084F83E00002020632068C06820F0F9
:102A800010002168C860A06BFEF7D4FFA08DE28D16
:102A9000801A81B22046FFF717FF31E7A08DE18D44
:102AA000401A1FFA80F8E08DE8B1B8F1000F1AD093
:102AB0002068C06820F490702168C8602068406970
:102AC00020F0010021684861202084F83E000020A9
:102AD00020632068C06820F010002168C86041466B
:102AE0002046FFF7F1FE0BE7FFE705F0800030B16D
:102AF00006F0800018B1204600F00FFB00E705F05B
:102B0000400030B106F0400018B1204600F05DF9F9
:102B1000F6E600BFF4E60000812D000810B504467B
:102B20000CB9012010BDA06900B100E000BF94F80D
:102B30003D0028B9002084F83C00204600F028F829
:102B4000242084F83D002068C06820F400502168EB
:102B5000C860204600F0A8F92068006920F4904081
:102B6000216808612068406920F02A0021684861D6
:102B70002068C06840F400502168C86000202064CC
:102B8000202084F83D0084F83E000020CAE70000C1
:102B900010B586B004462E492068884255D100BF42
:102BA00000BF002000902B48006840F01000294929
:102BB00008600846006800F01000009000BF00BFE9
:102BC00000BF00BF00BF00200090224814380068FA
:102BD00040F001001F49143908600846006800F001
:102BE0000100009000BF00BF00BF00BF00BF002079
:102BF00000900846006840F0010008600846006840
:102C000000F00100009000BF00BF00BF4815019018
:102C100002200290012003900220049007200590DA
:102C200001A90D48FEF770FF4FF480600190072066
:102C3000059001A90848FEF767FF2520FFF7D5F8A2
:102C4000032211462520FFF7E0F806B010BD000072
:102C500000100140443802400000024070B50446B4
:102C60000D46164694F83E00202816D105B10EB93F
:102C7000012070BD00BF94F83C00012801D1022062
:102C8000F7E7012084F83C0000BF002020633246B3
:102C90002946204600F01EFAEBE70220E9E7000093
:102CA00010B504462049206888423BD11F4800885F
:102CB00000F4004088BB1D48008800F4804070B1DB
:102CC0001B4800780A2803D000201849088024E017
:102CD0001648008840F40040144908801DE014485C
:102CE00000780D2806D11148008840F480400F4933
:102CF000088012E00E4800780C490988C1F30D01E4
:102D00000C4A505409480088401C0849088008466D
:102D10000088C72801DD00200880012204490648F8
:102D2000FFF79CFF10BD00000010014018000020BC
:102D30001A00002020030020E8030020704700BF95
:102D4000FEE700BFFEE7704710B5FFF703F834F069
:102D500019FF012801D034F0DFFC10BD03480068E2
:102D600040F47000014908607047000088ED00E001
:102D700010B50248FFF7D9FC10BD00008C040020FC
:102D800070B50546AC6B0020E085E0842046FFF777
:102D90009CFD70BD0168C96821F490710268D16022
:102DA0000168496921F0010102685161016B012943
:102DB00005D10168C96821F010010268D1602021A5
:102DC00080F83E1000210163704710B5044620686A
:102DD000C06820F040002168C860202084F83D00D1
:102DE0002046FFF7ABFF002010BD70B5044694F8F5
:102DF0003E00222856D1A068B0F5805F0CD1206932
:102E000050B90025A66A20684068C0F308003080E9
:102E1000A06A801CA06215E0A56A0026A068B0F533
:102E2000805F03D0A06828B9206918B9206840687D
:102E3000287004E02068406800F07F002870A06AD5
:102E4000401CA062E08D401E80B2E08540BB20683F
:102E5000C06820F020002168C8602068C06820F4A5
:102E600080702168C8602068406920F001002168F6
:102E70004861202084F83E00206B01280AD1206898
:102E8000C06820F010002168C860A18D2046FFF7BF
:102E90001BFD02E02046FFF703FF0020206370BD0A
:102EA0000020FCE70220FAE72DE9F84F04462068ED
:102EB000006920F44050E1680843216808612169F5
:102EC000A068084361690843E169084300902068ED
:102ED000C06849F20C618843009908432168C860C2
:102EE0002068406920F44070A16908432168486166
:102EF00076492068884203D075492068884203D10A
:102F0000FFF7AEF8814602E0FFF79AF88146E069E4
:102F1000B0F5004F6CD102206168A0FB0150034660
:102F20001920A9FB007001462A463846FDF739FAF8
:102F30006421B0FBF1F04FEA001A02206168A0FBA7
:102F400001510B461920A9FB00712A463846FDF7AE
:102F500028FA834602206168A0FB0150034619202D
:102F6000A9FB00712A463846FDF71BFA6421B0FB25
:102F7000F1F000EBC00101EB0010ABEB800032215F
:102F800001EBC0006421B0FBF1F000F0F8000AEBA7
:102F9000400A02206168A0FB015003461920A9FBEA
:102FA000007001462A463846FDF7FBF983460220A9
:102FB0006168A0FB015003461920A9FB00712A4655
:102FC0003846FDF7EEF96421B0FBF1F000EBC001EB
:102FD00001EB0010ABEB8000322101EBC00064215B
:102FE000B0FBF1F000F007005044216888606AE00F
:102FF00004206168A0FB015003461920A9FB007062
:1030000001462A463846FDF7CCF98246042061681D
:10301000A0FB015003461920A9FB007001462A4677
:103020003846FDF7BEF96421B0FBF1F000EBC001BA
:1030300001EB0010AAEB8000322101EB00106421AB
:10304000B0FBF1F000F0F00A04206168A0FB017011
:1030500003461920A9FB00513A462846FDF7A1F97D
:103060006421B0FBF1F00AEB001A04206168A0FBB8
:1030700001510B461920A9FB00712A463846FDF77D
:1030800090F9834604206168A0FB01500346192093
:10309000A9FB007001462A463846FDF782F96421F3
:1030A000B0FBF1F000EBC00101EB0010ABEB8000D6
:1030B000322101EB00106421B0FBF1F000F00F00B1
:1030C000504421688860BDE8F88F0000001001407E
:1030D0000014014010B5034699629A85DA850020F4
:1030E0001864222083F83E0000BF002083F83C00D3
:1030F00000BF1868C06840F480701C68E060186801
:10310000406940F001001C6860611868C06840F0C8
:1031100020001C68E060002010BD014691F83D00D1
:10312000212828D18868B0F5805F0BD1086948B99B
:103130000A6A1088C0F308000B685860086A801C8F
:10314000086205E00B6A581C086218780B68586022
:10315000C88C401E80B2C88458B90868C06820F086
:1031600080000B68D8600868C06840F040000B68B9
:10317000D860002070470220FCE7000010B502482C
:10318000FFF7A4FB10BD0000E803002000BFFEE72E
:1031900003B401984100009850EAC12018BF0420F0
:1031A0004A0D18BF40F0010040F2FF72B2EB515FD0
:1031B00008BF40F00200012808BF052002B0704798
:1031C00002480068C0F30220704700000CED00E0E8
:1031D00010B5002804DB0A07130E054A135406E055
:1031E0000A07140E034A00F00F031B1FD45410BD2E
:1031F00000E400E018ED00E070B50446002508E0AA
:103200002168481C20600878303805EB850100EB08
:1032100041052168087800F004F80028F0D128461C
:1032200070BD0146302903DB392901DC01207047DC
:103230000020FCE730380A2801D201207047002026
:103240007047000010B54021074801F0E3FA002262
:10325000042106482BF004FC0549086002F002FE38
:1032600000200449087010BDD0C50020315F00085F
:10327000A4020020A002002030B50346B1F90040AE
:10328000B2F90050AC4202DDB1F9004001E0B2F900
:1032900000401C80B1F90240B2F90250AC4202DD9C
:1032A000B1F9024001E0B2F902405C80B1F904409A
:1032B000B2F90450AC4202DAB1F9044001E0B2F9CB
:1032C00004409C80B1F90640B2F90650AC4202DAE3
:1032D000B1F9064001E0B2F90640DC800120B3F903
:1032E0000040B3F90450AC4205DCB3F90240B3F935
:1032F0000650AC4200DD002030BDF8B504460D4656
:1033000016460027B4F90000B5F90010884212DB18
:10331000B4F90200B5F9021088420CDBB4F90400DC
:10332000B5F90410884206DCB4F90600B5F90610B8
:10333000884200DC01270FB90020F8BD0EB901203A
:10334000FBE72088ADF800006088ADF80200324647
:103350006946284600F0A7F808B90020EDE7A088E4
:10336000ADF800006088ADF8020032466946284694
:1033700000F099F808B90020DFE72088ADF80000D8
:10338000E088ADF8020032466946284600F08BF826
:1033900008B90020D1E7A088ADF80000E088ADF8BA
:1033A000020032466946284600F07DF808B9002040
:1033B000C3E70120C1E70246B2F90000B1F90430C9
:1033C000984213DCB2F90400B1F9003098420DDBE9
:1033D000B2F90200B1F90630984207DCB2F90600F2
:1033E000B1F90230984201DB012070470020FCE770
:1033F000F8B504460D461646B4F90400B5F90010B8
:10340000884211DBB4F90600B5F9021088420BDBE3
:10341000B4F90000B5F90410884205DCB4F90200E3
:10342000B5F90610884201DD0120F8BD0EB9002073
:10343000FBE72088ADF800006088ADF80200324656
:103440006946284600F02FF808B10020EDE7A08873
:10345000ADF800006088ADF80200324669462846A3
:1034600000F021F808B10020DFE72088ADF8000067
:10347000E088ADF8020032466946284600F013F8AD
:1034800008B10020D1E7A088ADF80000E088ADF8D1
:10349000020032466946284600F005F808B10020CF
:1034A000C3E70120C1E72DE9FC5F05460E4614463F
:1034B0004FF0000AB6F90000B5F90010884213DB9E
:1034C000B6F90000B5F9041088420DDCB6F9020027
:1034D000B5F90210884207DBB6F90200B5F906100B
:1034E000884201DC4FF0010ABAF1000F02D100203E
:1034F000BDE8FC9F002C01DC0120F9E7284617F00D
:1035000022F9834600EBDB704710284617F093F84A
:10351000834600EBDB704FEA6008474501DA384626
:1035200000E0404681464C4500DD4C462888ADF819
:1035300000002888204400B2ADF804006888ADF887
:1035400002006888204400B2ADF80600002231462F
:103550006846FFF7A8FF80B1BDF80400204400B220
:10356000ADF80400BDF80600204400B2ADF8060036
:103570003146684627F03EFEBAE7E888001B00B2F5
:10358000ADF80200E888ADF8060000223146684632
:10359000FFF789FF80B1BDF80400204400B2ADF808
:1035A0000400BDF80200001B00B2ADF80200314675
:1035B000684627F01FFE9BE7A888001B00B2ADF805
:1035C0000000A888ADF80400002231466846FFF7E5
:1035D0006AFF80B1BDF80000001B00B2ADF800002A
:1035E000BDF80200001B00B2ADF80200314668468B
:1035F00027F000FE7CE76888ADF802006888204468
:1036000000B2ADF80600002231466846FFF74BFFD6
:1036100080B1BDF80000001B00B2ADF80000BDF89D
:103620000600204400B2ADF806003146684627F097
:10363000E1FD5DE701205BE710B5B1F90030B2F9BB
:103640000040A34202DAB1F9003001E0B2F90030E3
:103650000380B1F90230B2F90240A34202DAB1F9B3
:10366000023001E0B2F902304380B1F90430B2F91E
:103670000440A34202DDB1F9043001E0B2F90430A4
:103680008380B1F90630B2F90640A34202DDB1F9F8
:10369000063001E0B2F90630C38010BD2DE9FF41CC
:1036A00004462BF07EF905460020039034B14749CB
:1036B000E068086020462BF0EBFA03E019F0A0FE6A
:1036C0004249086041490968086927F0F1FC3F4810
:1036D0000068406920B13D490968486927F0E8FC65
:1036E0003A490968C86927F0E3FC38490968086A5B
:1036F00027F0DEFC35480068006940B900203349F6
:103700000968A1F8500100BF00BFBDE8FF8128F0A3
:1037100071F827F0B7FF2D480068B0F85001002875
:103720004BD02A4800680068007CC0F34000E8B134
:103730002648006819F0E2FE401E06B223480068E1
:1037400019F076FE401E07B23B460022114601A842
:10375000009617F03DF801A81C4909680968896BB3
:1037600048601A48006805F021FE00BF4FF48071E0
:1037700016480068303021F0FCFE20211348006814
:1037800000F5987021F0F5FE002010490968A1F8B5
:10379000500128462BF0F8F803900C4800680068A8
:1037A000406A50B109490968086808490968096808
:1037B0004B6A07490A680399984721F011FC00F009
:1037C0003FF800F007F800BF9FE700005401002019
:1037D0005001002010B5002416E0C4EBC4000C49D1
:1037E00051F8200030B1C4EBC401094A52F821005D
:1037F00021F0A8FCC4EBC401054A02EB81001C21A6
:1038000021F0B7FE601CC4B2042CE6DB10BD000042
:10381000ACC600200146094A10680BE042688A42A3
:1038200002D002688A4204D1027E22F00102521CB8
:10383000027640690028F1D170470000280100207D
:103840007047000010B50421014800F0E3FF10BDEF
:10385000C4C5002010B51C21014800F0DBFF10BDDD
:10386000DCC500202DE9FF4F8BB004469A46199D18
:10387000BAF1000F11D11898B0F5807F0DD100205A
:10388000208060800C98401E00B2A0800D98401EE1
:1038900000B2E0800FB0BDE8F08FB5F90000404203
:1038A000189948430121C1EB202000B22080B5F9CE
:1038B00002004042189948430121C1EB202000B288
:1038C0006080B5F900100C98401A189948430221FD
:1038D00001EB202000B2A080B5F902100D98401A2B
:1038E00018994843022101EB202000B2E080BAF190
:1038F000000F14D120882988084400B220806088F5
:103900006988084400B26080A0882988084400B211
:10391000A080E0886988084400B2E080BAE70A2005
:103920009AFBF0F00A900A98401C09900A9800EB64
:103930008000AAEB400B0A9800B22BF02FFB0890F6
:10394000099800B22BF02AFB07900A985A3000B26F
:103950002BF024FB069009985A3000B22BF01EFB86
:103960000590CBF10A0108984143079800FB0B1022
:103970000A2190FBF1F6CBF10A0106984143059824
:1039800000FB0B100A2190FBF1F776117F11B4F9BF
:103990000080B4F9029007FB08F006FB19002988A3
:1039A00001EBA02000B2ADF8100006FB08F007FB09
:1039B0000900698801EBA02000B2ADF81200B4F94B
:1039C0000480B4F9029007FB08F006FB190029886F
:1039D00001EBA02000B2ADF80C0006FB08F007FBDD
:1039E0000900698801EBA02000B2ADF80E00B4F91F
:1039F0000080B4F9069007FB08F006FB190029883F
:103A000001EBA02000B2ADF8080006FB08F007FBB0
:103A10000900698801EBA02000B2ADF80A00B4F9F2
:103A20000480B4F9069007FB08F006FB190029880A
:103A300001EBA02000B2ADF8040006FB08F007FB84
:103A40000900698801EBA02000B2ADF80600BDF9BD
:103A50000800BDF91010884202DABDF9080001E043
:103A6000BDF91000BDF90410BDF90C20914202DA35
:103A7000BDF9041001E0BDF90C1088420BDABDF964
:103A80000800BDF91010884202DABDF908000DE007
:103A9000BDF910000AE0BDF90400BDF90C10884220
:103AA00002DABDF9040001E0BDF90C002080BDF987
:103AB0000800BDF91010884202DDBDF9080001E0E0
:103AC000BDF91000BDF90410BDF90C20914202DDD2
:103AD000BDF9041001E0BDF90C1088420BDDBDF901
:103AE0000800BDF91010884202DDBDF908000DE0A4
:103AF000BDF910000AE0BDF90400BDF90C108842C0
:103B000002DDBDF9040001E0BDF90C00A080BDF9A3
:103B10000A00BDF91210884202DABDF90A0001E07C
:103B2000BDF91200BDF90610BDF90E20914202DA6E
:103B3000BDF9061001E0BDF90E1088420BDABDF99F
:103B40000A00BDF91210884202DABDF90A000DE040
:103B5000BDF912000AE0BDF90600BDF90E10884259
:103B600002DABDF9060001E0BDF90E006080BDF982
:103B70000A00BDF91210884202DDBDF90A0001E019
:103B8000BDF91200BDF90610BDF90E20914202DD0B
:103B9000BDF9061001E0BDF90E1088420BDDBDF93C
:103BA0000A00BDF91210884202DDBDF90A000DE0DD
:103BB000BDF912000AE0BDF90600BDF90E108842F9
:103BC00002DDBDF9060001E0BDF90E00E08000BF96
:103BD00060E62DE9F74F86B0044620680590B4F9F9
:103BE00008100798A0EB0108B4F90A100898A0EB98
:103BF0000109E089B0F5807F13D1206B00FB08F04C
:103C0000E16A01FB1901606A00EBA10BE06A00FBAD
:103C100008F0216B01FB0901A06A00EBA1000490F0
:103C20002FE0A08980B9A06B00FB08F04FEA601874
:103C3000A06B00FB09F04FEA6019606A00EB080B0B
:103C4000A06A484404901CE0A06B00FB08F04FEA17
:103C50006018A06B00FB09F04FEA6019206B00FBB5
:103C600008F0E16A01FB1901606A00EBA12BE06A30
:103C700000FB08F0216B01FB0901A06A00EBA12009
:103C800004904FEA2B2604980712B4F90400B042BE
:103C900003DC002009B0BDE8F08F002E01DA00201F
:103CA000F8E7B4F90600B84201DC0020F2E7002F83
:103CB00001DA0020EEE73420005DC0F3800050B34D
:103CC0003420005DC0F3400078B90225B4F9040047
:103CD0007843684306FB050A059800EB0A012A466B
:103CE00004F1140021F0F3FB2CE00325B4F90400E7
:103CF0007843684306FB050A6A1E059800EB0A0133
:103D000004F1140021F0E3FB0AEB0500401E0599C5
:103D1000095CA17516E04FF0000A0025208A0346D1
:103D20003AB231B2019004F118001EF09DF80290F1
:103D3000BDF80800A0823AB231B204F118001DF0BB
:103D4000F3FFA0753420005D00F00100B0B14FF426
:103D50007F40002100F47C4241EA5211C0F3C402CA
:103D600011430191BDF8042011460291A08ABDF8CB
:103D70000810884201D100208CE700BFE07C08B920
:103D8000012087E70FFA8BF1A187049801B2E18740
:103D900031B24020015339B242200153C4F844A04B
:103DA00084F84850204600F003F80390039871E728
:103DB0002DE9F04F8DB00446D4F8009094F83C0003
:103DC0000C9094F83E000B900C9870280BDA4FF092
:103DD000FF35B4F940002844002800DA00250C988B
:103DE0008030C7B213E00C9890280EDD0125B4F99D
:103DF00040002844B4F90410884200DB00250C98E8
:103E0000C0F1FF008030C7B201E00025FF270B980A
:103E100070280CDA4FF0FF36B4F942003044002825
:103E200000DA00260B98803000F0FF0815E00B98B0
:103E300090280FDD0126B4F942003044B4F9061091
:103E4000884200DB00260B98C0F1FF00803000F0B4
:103E5000FF0802E000264FF0FF08A08A0A90A07D2C
:103E6000069000200590049003903420005DC0F37C
:103E7000800000285BD094F84800626C00FB0520AD
:103E800000EB0901022209A821F021FBA28894F885
:103E9000480012FB00F2606C02FB060000EB090117
:103EA000022208A821F013FBA28894F8480012FB14
:103EB00000F2606C02FB060294F8480000FB05204B
:103EC00000EB0901022207A821F001FB3420005D6C
:103ED000C0F3400000287ED094F84800616C00FBDD
:103EE00005110844401E19F800000590A18894F8B7
:103EF000480011FB00F1606C01FB060194F84800DA
:103F00000844401E19F800000490A18894F8480065
:103F100011FB00F1606C01FB060194F8480000FB06
:103F200005110844401E19F80000039053E0208A50
:103F30000090B4F942204020005B284401B204F113
:103F40001800009B1DF090FF0990208A00904220ED
:103F5000005B304402B2B4F9401004F11800009B39
:103F60001DF082FF0890208A00904220005B3044C0
:103F700002B24020005B284401B204F11800009B0B
:103F80001DF072FF07903420005DC0F3400010B3B5
:103F9000B4F942204020005B284401B204F118002B
:103FA0001DF0C2FE05904220005B304402B2B4F91D
:103FB000401004F118001DF0B7FE04904220005B91
:103FC000304402B24020005B284401B204F11800E2
:103FD0001DF0AAFE0390BA46BB463420005DC0F334
:103FE0004000E0B306987843C7F1FF0C059B03FB44
:103FF0000C00C0F3072104987843C7F1FF0C039B22
:1040000003FB0C00C0F3072201FB08F0C8F1FF031B
:1040100002FB0300030AA375022905DC022A03DC64
:1040200000200DB0BDE8F08F022901DC4FF0000840
:10403000022A01DC4FF0FF080698022801DC4FF04D
:10404000000A0598022801DC4FF0FF0A04980228B4
:1040500001DC4FF0000B0398022803DC00E002E0D3
:104060004FF0FF0B03E0BA46BB46FF21A175BAF142
:10407000000F02D1099802900BE0BAF1FF0F02D1B4
:104080000A98029005E05246DDE9091018F048FC54
:104090000290BBF1000F02D1079801900BE0BBF139
:1040A000FF0F02D10898019005E05A46DDE907109C
:1040B00018F036FC0190B8F1000F03D1BDF80400F0
:1040C000A0820FE0B8F1FF0F03D1BDF80800A08275
:1040D00008E04246DDE9011018F022FC0090BDF82E
:1040E0000000A08201209CE72DE9F05F0446B4F9AE
:1040F000080001026162B4F90A000102A162B4F988
:104100000C000A2190FBF1F56F1CB4F90C0005EBD3
:104110008501A0EB4106684200B22AF03FFF8046CD
:10412000784200B22AF03AFF8146C5F15A0000B247
:104130002AF034FF8246C7F15A0000B22AF02EFF5F
:104140008346C6F10A0000FB08F009FB06000A21BD
:1041500090FBF1F1E162C6F10A0000FB0AF00BFBF3
:1041600006000A2190FBF1F12163E06A4111E1624E
:10417000206B41112163A07C1DF085FF3421095D76
:1041800060F3000134200155A07C1DF05FFF342155
:10419000095D60F3410134200155A07C042805D05D
:1041A000A07C052802D0A07C062807D13420005D21
:1041B00020F00400001D3421085505E03420005D86
:1041C00020F004013420015521682162A06920F00B
:1041D000E000A061A17CA06961F30400A061A18856
:1041E000A06961F39420A061E188A06961F35F5048
:1041F000A061E08900EBD071491001F5001191FB3D
:10420000F0F2A263FF21A175208AA082BDE8F09F91
:104210002DE9F743054616460024134C2AF0C1FB4E
:104220008046334629462046019A1EF0DBFB0746AE
:104230005FB900BF00BF2C21204621F09AF94FF052
:104240000040A0620020BDE8FE830020A062E0697B
:1042500018B940462AF098FBE061E06908B90120EE
:10426000E0612046EFE7000000C6002010B51421F1
:10427000114800F0CFFA1EF067FB044600BF1CB9DE
:1042800000BF00BF00BFFEE700BF14B900BF00BF02
:1042900010BD0A4920461EF03FFC094920461EF089
:1042A0003DFC084920461EF03BFC074920461EF015
:1042B00031FC00BFECE70000E8C5002065210208E2
:1042C00039260208552802082D21020870B5044637
:1042D0000D461021284621F04CF92068007801286D
:1042E00004D1208A2880608A68800CE020680078E9
:1042F000022802D1E068686005E0206800780428A0
:1043000001D10A2068602068406820B120682946F1
:104310004268904701E000BF00BF70BD2DE9FE4339
:104320000446A66AEEB9A18A208A084401B2A18295
:10433000E18A608A084401B2E18220460CF053FD14
:1043400006460EB9BDE8FE83204610F03FFC002271
:10435000092130461CF028FD6078C0F3400000B110
:10436000F0E7208A10B9608A002870D000200290FF
:10437000019094F83C0000F00F00032812D1304661
:1043800023F0B0F90746304623F034F98046032085
:104390000090B4F910103B46424630460CF01AF833
:1043A000029012E0304623F01FFA0746304623F011
:1043B00093F880460C200090B4F9121043463A4618
:1043C00030460CF007F8019000BF304623F0E4F8C7
:1043D000054605F0010028B9BDF90800002801DDF7
:1043E0000020029005F0020028B9BDF9080000285D
:1043F00001DA0020029005F0040028B9BDF904009C
:10440000002801DD0020019005F0080028B9BDF961
:104410000400002801DA0020019001AA02A9204628
:104420002DF0F8FC0023BDF90420BDF9081030463A
:1044300026F0B8F8A08ABDF80810084401B2A1829D
:10444000E08ABDF80410084401B2E18200BF00BF59
:1044500078E72DE9F84F0446D4F828B0BBF1000FF7
:1044600001D1BDE8F88F94F83C0000F00F0000B9CE
:10447000F7E71EF039FE06463068477E4021584671
:1044800024F0BAFD10B9002161832183584623F03E
:1044900097F98046584623F09DF9054694F83C006C
:1044A00000F00F000C2843D1002121831DBBB4F97B
:1044B0001A00C7F164014843642190FBF1F001B296
:1044C0006183584623F008F88146584623F08CF95A
:1044D00082460C200090B4F91A104B4652465846BA
:1044E0000BF078FF6083B4F91A2000231946584670
:1044F00026F058F869E020462DF0E3FC00900021FA
:1045000061836A4620462DF085FCBDF9003041F6F6
:10451000FF72514258460CF00FFE8146BDF8000074
:10452000484402B201230021584626F03BF84CE0F3
:1045300094F83C0000F00F00032846D1002161836D
:10454000B8F1000F23D1B4F91800C7F16401484352
:10455000642190FBF1F001B22183584623F04AF820
:104560008146584623F0BEF8824603200090B4F9F5
:10457000181053464A4658460BF02CFF2083B4F9D6
:10458000181000231A46584626F00CF81DE0204665
:104590002DF07CFC009000212183002269462046FA
:1045A0002DF038FCBDF9003041F6FF7251425846FB
:1045B0000CF028FD8146BDF80000484401B20123FB
:1045C0000022584625F0EEFF00BF208B002860D166
:1045D000608B00285DD11DBB584623F005F981464C
:1045E000584622F079FF8246B9F1000F02DCBAF199
:1045F000000F14DDB9F1000F06DA01234A4600214D
:10460000584625F0CFFF0AE0BAF1000F07DA012380
:10461000CAF1000002B20021584625F0C3FF00BFD6
:10462000B8F1000F23D1584622F0E4FF81465846E6
:1046300023F058F88246B9F1000F02DCBAF1000FFE
:1046400014DDB9F1000F06DA01230022494658466D
:1046500025F0A8FF0AE0BAF1000F07DA01230022D3
:10466000CAF1000001B2584625F09CFF00BF324657
:104670000A2158461CF098FB6078C0F3400000B156
:10468000EFE694F83C0020F00F0184F83C10002184
:10469000A16200BFE5E62DE9FF4104460F4614B9CB
:1046A00018F0AEFE04460CB9BDE8FF811FB900202A
:1046B000A4F85001F8E70020ADF80800ADF80A00B2
:1046C000204618F0B5FE401E00B2ADF80C002046A2
:1046D00018F014FF401E00B2ADF80E0002AA3946D1
:1046E0006846FEF7C9FD064606B9DDE72068007C8E
:1046F000C0F3400060B1029820630398606301201A
:10470000A4F85001606810B160682AF0CDFACBE7D8
:104710002068806918B12068694682699047002541
:104720000BE004F1300000EBC50100226846FEF703
:10473000E4FD00B1B8E7681C85B2B4F85001A842A6
:10474000EFDCB4F85001202809DAB4F8502104F164
:10475000300101EBC200694615F0DDFE0BE00020E0
:10476000A4F85001B4F8502104F1300101EBC2006B
:1047700002A915F0D0FEB4F85001401CA4F8500175
:10478000606810B160682AF08FFA00BF8CE770B5DE
:104790000546284600F013F8044600260CE02146A2
:1047A000284600F024F806462146284600F086F800
:1047B000204620F0C7FC3446002CF0D170BD0146E5
:1047C00009B9002070474868FCE770B50646002428
:1047D0003046FFF7F4FF054605E0641C29463046E5
:1047E00000F005F80546002DF7D1204670BD0246C1
:1047F0000B461068001D03441868704702460B46BC
:104800001068034418687047014609B900207047D2
:104810008868FCE7002242608260CA1C22F0030123
:104820000160704770B50446216801F1080020F06E
:10483000BBFB0546A5B10022294620462BF06AFCA9
:104840002946204662682BF057FC606820B12A4652
:10485000204661682BF05EFC6560A06800B9A56029
:10486000284670BD70B50446216801F1080020F0AB
:104870009BFB0546A5B10022294620462BF03CFCB7
:1048800029462046A2682BF045FCA06820B12A46A4
:104890002046A1682BF030FCA560606800B9656017
:1048A000284670BD014609B901207047486818B90B
:1048B000886808B90120F8E70020F6E72DE9F04103
:1048C00004460D460CB9BDE8F0812046FFF777FF9E
:1048D000A8420FD129462046FFF789FF6060606833
:1048E00010B90020A0602FE00022204661682BF064
:1048F00011FC29E02046FFF787FFA8420FD1294687
:104900002046FFF77BFFA060A06810B90020606020
:104910001AE000222046A1682BF0EEFB14E02946A5
:104920002046FFF76BFF064629462046FFF75FFF4C
:1049300007463A46314620462BF0DEFB32463946E2
:1049400020462BF0E7FB00BF00BFBCE710B50446D4
:104950002068806818B120682146826890472068E6
:10496000006828B12068006820602046FFF7EEFF4D
:1049700010BD0146886818B18868B0F91600704704
:104980000020FCE72DE9F04F93B005468B46914699
:104990009A461C9E688C20F00400001D6884A5F8CF
:1049A000209032895946284624F0A2F81290A5F8A2
:1049B00020A032895946284624F09AF81190688C34
:1049C00020F004006884DDE9111088420CD1DDE993
:1049D0001110884208D1BDF84800BDF84410884243
:1049E00002D113B0BDE8F08FA5F820903289594666
:1049F000284624F07DF81290A5F820A059462846B4
:104A00000EF0CDFA10903189109A1068129A28F0A1
:104A100084FC3089602833D147F6FF7112988842B0
:104A200002D0119888422BD1284624F088FA0F90A2
:104A300000EBD0704710284624F081FA0F9000EB6D
:104A4000D0704FEA600847F6FF711298884208D18B
:104A5000781C08F10101884200DA01E008F1010048
:104A6000129047F6FF711198884208D1781C08F11E
:104A70000101884200DA01E008F10100119000BF55
:104A80002448FFF7CFFE044600BF1CB900BF00BF9B
:104A900000BFFEE700BF04B9A3E71298E0601198D9
:104AA0002061ACB325603089A080C4F808B06846A6
:104AB00014F0F8FE2146684614F0A7FF1649684630
:104AC00014F073FF1548029000BF1549684614F0B2
:104AD0007AFFFF220021684614F087FF318868467C
:104AE00014F079FF7188684614F05AFFF068069058
:104AF00000BF6846002190F83E2061F3000280F874
:104B00003E2000BF30690590684614F095FF00BF55
:104B100000BF66E7F4C5002011660308BD680308FE
:104B2000ED67030810B514210148FFF773FE10BDAF
:104B3000F4C500202DE9FE4F04460F4690464FF085
:104B4000000900256BE1E06800EBC5004068C0F398
:104B5000406000B162E1E16801EBC501496821F004
:104B60007F4026F0A2FA064626EA070008B901208F
:104B700000E00020029026EA080008B9012000E0C9
:104B800000200190DDE90101814272D0E06850F817
:104B900035A04FF0000B6A4641F61001504628F050
:104BA00055F810B14FF0010BA9E06A4641F611012A
:104BB000504628F04BF810B14FF0010B9FE06A46C9
:104BC00041F61201504628F041F810B14FF0010BA8
:104BD00095E06A4641F61301504628F037F810B1C7
:104BE0004FF0010B8BE06A4641F61501504628F064
:104BF0002DF810B14FF0010B81E06A4641F6140127
:104C0000504628F023F810B14FF0010B77E06A46C8
:104C100041F26901504628F019F810B14FF0010B2C
:104C20006DE06A4643F20C01504628F00FF810B1CF
:104C30004FF0010B63E06A4643F20D01504628F045
:104C400005F810B14FF0010B59E06A4641F201013D
:104C5000504627F0FBFF10B14FF0010B4FE06A46C2
:104C600041F20401504627F0F1FF18B14FF0010B5B
:104C700045E0D2E06A4641F20201504627F0E6FFE5
:104C800010B14FF0010B3AE06A4641F20301504681
:104C900027F0DCFF10B14FF0010B30E06A4641F223
:104CA0000501504627F0D2FF10B14FF0010B26E06E
:104CB0006A4641F20601504627F0C8FF10B14FF096
:104CC000010B1CE06A4641F23201504627F0BEFF5C
:104CD00010B14FF0010B12E06A4643F60F01504647
:104CE00027F0B4FF10B14FF0010B08E06A4643F61D
:104CF0000E01504627F0AAFF08B14FF0010BBBF19F
:104D0000000F02D00320BDE8FE8F6A4640F60A017C
:104D1000504627F09BFF10B14FF002097CE06A4635
:104D200040F60B01504627F091FF10B14FF00209F9
:104D300072E06A4643F60F01504627F087FF10B134
:104D40004FF0020968E06A4643F60E01504627F02C
:104D50007DFF10B14FF002095EE06A4640F63C016B
:104D6000504627F073FF10B14FF0020954E06A4635
:104D700040F63D01504627F069FF10B14FF002099F
:104D80004AE06A4640F63A01504627F05FFF10B10C
:104D90004FF0020940E06A464FF40461504627F0A4
:104DA00055FF10B14FF0020936E06A4640F6450162
:104DB000504627F04BFF10B14FF002092CE06A4635
:104DC00040F64101504627F041FF10B14FF0020973
:104DD00022E06A4640F64201504627F037FF10B104
:104DE0004FF0020918E06A4640F64301504627F0AA
:104DF0002DFF10B14FF002090EE06A4640F649015E
:104E0000504627F023FF10B14FF0020904E0B9F13A
:104E1000000F01D14FF0010900BF00BF6D1C608C75
:104E2000C0F3C500A8423FF68EAE48466BE70000CF
:104E30000148006870470000540100207047014697
:104E4000C1F30412072A00DD0722D0B27047000028
:104E500010B518210348FFF7DDFC012029F03CFEC6
:104E600010BD0000A0C500202DE9F04105460F4609
:104E700016460DB9BDE8F0812846FBF7A3FC804635
:104E8000394628460A4A126890470746E8193146CB
:104E9000074A1268904706463C4603E0A019285C82
:104EA0002855641CA8EB0600A042F7D200BFE1E73A
:104EB000F00200202DE9F04106460C4617461D463B
:104EC00029463046084A126890472060206830B171
:104ED000296888190021044A1268904700E00020E0
:104EE0003860BDE8F0810000E80200202DE9F04FB5
:104EF00087B004460F4692469846DDE910560DB13C
:104F0000002028801CB9002007B0BDE8F08F207871
:104F100008B90020F8E70FB90020F5E74FF00009C5
:104F200006F0020010B906F0040098B1002000E07D
:104F3000401C215C0A2905D0215C0D2902D0215C8E
:104F40000029F5D1215C01B1401C15B14FF0FF31B2
:104F50002980D9E706F0020008B141F6FF78002069
:104F60000690059038E000200490059808B90120CB
:104F700000E0002006A904AACDE90062CDE90210F4
:104F8000059960184346524639462AF03FF8834651
:104F90000498A8EB00000FFA80F8049848440FFA30
:104FA00080F9BBF1000F00D11CE005985844059032
:104FB00020780A2802D020780D2800D112E0059828
:104FC000205C0A2803D00598205C0D2803D10598A1
:104FD000401C059006E000BF0598205C10B1B8F1B8
:104FE000000FC0DC00BF059870B905A92046094A2A
:104FF00012689047834635B10022594638461CF066
:105000004EF90FFA80F900BF0DB1A5F80090059890
:105010007AE70000E80200202DE9F04706468846BE
:10502000174606B10FB9BDE8F0873046FBF7CAFB5B
:1050300081463846FBF7C6FB044604B9F3E704EBA8
:10504000090A414630460B4A126890478046554649
:1050500003E0281B305C70556D1E08EB0400A8426D
:10506000F7D906EB08002246394620F03CFA00BF8B
:10507000D9E70000F0020020024600200FA31B78B1
:105080008B4211D113781BB90123137001200BE05F
:105090001378012B02D10023137005E01378022B43
:1050A00002D10023137001201378012B04D1202991
:1050B00001D102231370012070470000230000007B
:1050C00073B582B006460398019032460021084627
:1050D000019B2AF0B7FA0546002001900024681CC5
:1050E0001FF062FF044600BF1CB900BF00BF00BF35
:1050F000FEE700BF14B9002004B070BD0020605569
:105100003246691C2046039B2AF09CFA2046F3E7AE
:105110002DE9F04781460E4614461F46DDF820A0D3
:1051200035461BE0600800FB075529464846D04736
:10513000B0F1000809DD04F0010080F00100C0EBCF
:105140005404E8190546064608E0B8F1000F02DAF3
:105150006408354602E02846BDE8F087002CE1D11E
:105160000020F9E72DE9FF4F85B08346DDE9158A78
:10517000DDE91349DDE91775129E05F00200F8B963
:105180004FB105F0010030B1B9F1000F02D105F0C7
:105190000C0000B17F1E03E030222046641C325414
:1051A000544501D2202CF7D303E030222046641C62
:1051B000325405F0010018B1BC4201D2202CF4D3C6
:1051C00005F01000B0B305F4806050B94CB15445FF
:1051D00001D0BC4205D1641E1CB1B8F1100F00D142
:1051E000641EB8F1100F09D105F0200030B9202C51
:1051F00004D278222046641C325415E0B8F1100F16
:1052000009D105F0200030B1202C04D258222046CC
:10521000641C325408E0B8F1020F05D1202C03D2EF
:1052200062222046641C3254202C03D230222046B5
:10523000641C3254202C16D2B9F1000F04D02D2258
:105240002046641C32540EE005F0040020B12B22ED
:105250002046641C325406E005F0080018B12022F4
:105260002046641C3254CDE90275CDE900645846ED
:1052700006A90EC900F0A2F809B0BDE8F08F2DE92B
:10528000FF4F8FB08046DDE91FABDDE91D96219D04
:105290001C9C00270CB925F0100505F4806000B1B6
:1052A000E4B100BFB4FBF6F106FB1141C8B20A2815
:1052B00002DA00F1300107E005F0200109B14121D7
:1052C00000E0612101440A39CBB239467F1C07AAAC
:1052D0005354B4FBF6F40CB1202FE3D307A8CDE967
:1052E00004AB8DE8810203960695404610A90EC9CD
:1052F000FFF738FF13B0BDE8F08F2DE9FF4F8FB0F7
:10530000DDE9217BDDF89080209EDDE91C454FF032
:105310000009002184EA01006940084301D128F016
:10532000100808F4806028B1002184EA0100694077
:1053300008432DD000BF32463B4620462946FBF7A6
:1053400030F802F0FF0ABAF10A0F02DA0AF130006F
:1053500007E008F0200008B1412000E0612050443F
:105360000A38C2B2484609F1010907A90A5432466F
:105370003B4620462946FBF714F804460D4600211B
:1053800084EA01006940084302D0B9F1200FD2D36A
:105390002398CDE9036BCDE9050807A91E98CDE94F
:1053A000001902900FA80FC8FFF7DCFE13B0BDE88C
:1053B000F08F9A4200D28854704770472DE9FF5F02
:1053C00005461446DDE90EA6DDE91087A34607F081
:1053D000020078B907F0010060B9B14607E0224643
:1053E000641C2020039B0199A84709F10109C145CC
:1053F000F5D300BF08E02246641C711E0E461AF861
:105400000100039B0199A847002EF4D107F0020088
:1054100050B105E02246641C2020039B0199A84757
:10542000A4EB0B004045F5D3204604B0BDE8F09F47
:1054300000BF70472DE9FF4F8BB0074600250C9841
:1054400000B9FA4FEAE20E98007825280AD02A46D9
:105450006D1C0E990878DDE90C13B8470E98401CB6
:105460000E90DBE20E98401C0E90002400BF0E98B8
:1054700000782B2819D004DC20281ED023282CD11A
:1054800023E02D2809D0302827D144F001040E98BC
:10549000401C0E9001200A9022E044F002040E9875
:1054A000401C0E9001200A901AE044F004040E986B
:1054B000401C0E9001200A9012E044F008040E985F
:1054C000401C0E9001200A900AE044F010040E984F
:1054D000401C0E9001200A9002E000200A9000BFBC
:1054E00000BF0A980028C2D180460E990878FDF7BF
:1054F00098FE20B10EA8FDF77FFE804612E00E98C0
:1055000000782A280ED1189901C91891002804DAC8
:1055100044F00204C0F1000800E080460E99491CE6
:105520000E9100BF4FF000090E9800782E281FD171
:1055300044F480640E98401C0E900E990878FDF794
:1055400070FE20B10EA8FDF757FE814610E00E98C0
:1055500000782A280CD1189901C91891002801DD7A
:10556000014600E0002189460E99491C0E9100BFBA
:105570000E9800786C280AD004DC682816D06A28B7
:1055800035D128E0742820D07A2830D129E044F49D
:1055900080740E98401C0E900E9800786C2804D1F0
:1055A00044F400740E98401C0E9021E044F08004F6
:1055B0000E98401C0E900E980078682804D144F094
:1055C00040040E98401C0E9012E044F480740E9833
:1055D000401C0E900CE044F400740E98401C0E9099
:1055E00006E044F480740E98401C0E9000E000BF6A
:1055F00000BF0E98007869281DD00EDC622821D0EB
:1056000006DC25287ED050281AD058287BD115E0FA
:10561000632879D06428F9D10CE0732875D004DCB4
:105620006F280ED07028F1D109E0752804D07828B1
:10563000ECD102E000BF00BF00BF00BF00BF00BF51
:1056400000BF00BF0E980078782803D00E9800782D
:10565000582801D1102623E00E980078702803D036
:105660000E98007850280CD1102644F0100444F411
:1056700080740E984078562812D10E98401C0E90D7
:105680000EE00E9800786F2801D1082608E00E98E9
:105690000078622801D1022602E00A2624F01004D4
:1056A0000E980078582803D00E980078502801D121
:1056B00044F020040E980078692805D00E980078F0
:1056C000642801D024F00C0404F4806008B124F0B4
:1056D00001040E980078692803D00E980078642899
:1056E0007CD104F40070B8B31898C01D20F00700F6
:1056F0001890D0E900AB189A083218920020CDE932
:10570000069803E073E17CE1F2E01CE1CDE904607E
:105710000894BAEB00017BEB000001DA012000E005
:105720000020002102900846B1EB0A0170EB0B004B
:1057300002DA5046594605E000200146B0EB0A0067
:1057400061EB0B01CDE900012A463846DDE90C1377
:10575000FFF7D3FD0546C7E0FFE704F48070D0B142
:10576000189850F804AB18904FEADA70CDE9039816
:1057700002960594BAF1000F01DD514601E0CAF12D
:105780000001CDE900102A463846DDE90C13FFF789
:1057900076FD0546A8E004F0400028B1189810F8FE
:1057A000041B1890C8B20DE004F0800028B11898CE
:1057B00030F8041B189008B204E018980068189993
:1057C000091D189182464FEADA70CDE903980296D6
:1057D0000594BAF1000F02DD514602E00BE0CAF178
:1057E0000001CDE900102A463846DDE90C13FFF729
:1057F00046FD054678E00E980078562818D118988E
:1058000050F804AB1890DAF8040000680990099881
:105810000090DAF800300D98421B0C984119384678
:10582000FFF708FE0544002009905DE0BB53000827
:1058300004F40070D0B11898C01D20F00700CDE925
:105840000698089418900020CDE9046002901899F9
:1058500003C9189A08321892CDE900012A46384641
:10586000DDE90C13FFF749FD05463DE004F48070C7
:1058700098B10022CDE90398029605941898006823
:105880001899091DCDE9000218912A463846DDE92C
:105890000C13FFF7F4FC054626E004F0400028B1A5
:1058A000189810F8041B1890C8B20DE004F080009E
:1058B00028B1189830F8041B189088B204E01898A2
:1058C00000681899091D189182460020CDE900A0B2
:1058D000CDE90398029605942A463846DDE90C1373
:1058E000FFF7CDFC054600BF0E98401C0E9093E0DC
:1058F000012604F0020050B905E02A466D1C202064
:10590000DDE90C13B8473046761C4045F5D31899AD
:1059100011F8043BD8B22A466D1C1891DDE90C132E
:10592000B84704F0020050B105E02A466D1C202063
:10593000DDE90C13B8473046761C4045F5D30E9888
:10594000401C0E9068E0189850F804AB1890504630
:10595000B9F1000F01D0494601E04FF0FF310A468E
:10596000014600E0491C0B781BB1131EA2F1010295
:10597000F8D10E1A04F4806028B14E4501D23046A9
:1059800000E04846064604F0020050B905E02A4609
:105990006D1C2020DDE90C13B8473046761C4045CD
:1059A000F5D306E01AF8010B2A466D1CDDE90C134D
:1059B000B8479AF8000040B104F480600028F1D0A4
:1059C000B9F10000A9F10109ECD104F0020050B1D5
:1059D00005E02A466D1C2020DDE90C13B84730464F
:1059E000761C4045F5D30E98401C0E9014E02A46D4
:1059F0006D1C2520DDE90C13B8470E98401C0E9055
:105A00000AE02A466D1C0E990878DDE90C13B847A8
:105A10000E98401C0E9000BF00BF00BF0E9800788B
:105A200000287FF410AD0D98854201D2284601E090
:105A30000D98401E02460020DDE90C13B8472846A9
:105A40000FB0BDE8F08F2DE9F04104460E46002767
:105A500074B13146204600F02DF80546B5F5803F7B
:105A600005D20C2D01D9284600E00C20074600BFC6
:105A70003846BDE8F081024600BF481E084018B114
:105A800000BF00BF00BFFEE700BF481E1040101A55
:105A9000704710B502464B1E13444C1E23EA040007
:105AA00000BF4B1E0B401BB100BF00BF00BFFEE795
:105AB00000BF10BD024600BF481E084018B100BF1D
:105AC00000BF00BFFEE700BF481E10444B1E9843B6
:105AD000704700002DE9F04180460E464446012003
