:020000040800F2
:10000000C04D00206102000879180008AB0C000800
:100010005D1800080D080008C91D00080000000058
:10002000000000000000000000000000A101000826
:100030000F08000800000000FD0100085D1B00081B
:100040007B0200087B0200087B0200087B0200089C
:100050007B0200087B0200087B0200087B0200088C
:100060007B0200087B0200087B0200087B0200087C
:100070007B0200087B0200087B0200087B0200086C
:100080007B0200087B0200087B0200087B0200085C
:100090007B0200087B0200087B0200087B0200084C
:1000A0007B0200087B0200087B0200087B0200083C
:1000B0007B0200087B0200085D1C00087B02000830
:1000C0007B0200087B0200087B0200087B0200081C
:1000D0007B0200087B0200087B0200087B0200080C
:1000E0007B0200087B0200087B0200087B020008FC
:1000F0007B0200087B0200087B0200087B020008EC
:100100007B0200087B0200087B0200087B020008DB
:100110007B0200087B020008691C0008AD1C000877
:100120007B0200087B0200087B0200087B020008BB
:100130007B0200087B0200087B0200087B020008AB
:100140007B0200087B0200087B0200087B0200089B
:100150007B0200087B0200087B0200087B0200088B
:100160007B0200087B0200087B0200087B0200087B
:100170007B0200087B0200087B02000800000000F0
:100180007B0200087B020008DFF810D000F02CFB97
:1001900000480047C1270008AFF30080C04D002091
:1001A0002C4B19680868B0E8F04F80F30988BFF35A
:1001B0006F8F4FF0000080F311887047000000003F
:1001C00008480068006880F308884FF0000080F35A
:1001D000148862B661B6BFF34F8FBFF36F8F00DF35
:1001E00000BF00BF08ED00E0DFF80C00016841F43B
:1001F00070010160704700BF88ED00E0EFF30980F7
:10020000BFF36F8F134B1A681EF0100F08BF20ED5D
:10021000108A20E9F04F106009B44FF0500080F3CD
:100220001188BFF34F8FBFF36F8F03F09FF94FF02B
:10023000000080F3118809BC19680868B0E8F04F25
:100240001EF0100F08BFB0EC108A80F30988BFF3CE
:100250006F8F704710000020EFF30580704700009B
:100260000648804706480047FEE7FEE7FEE7FEE750
:10027000FEE7FEE7FEE7FEE7FEE7FEE74D1C0008AF
:10028000890100082DE9F05F0546002092469B4653
:1002900088460646814640241BE02846414647469C
:1002A000224600F00AFA53465A46C01A914110D32A
:1002B00011461846224600F0F1F92D1A67EB0108A5
:1002C0004F4622460120002100F0E8F917EB000913
:1002D0004E41201EA4F10104DFDC484631462A4687
:1002E0004346BDE8F09F40EA01039B0703D009E0C5
:1002F00008C9121F08C0042AFAD203E011F8013B12
:1003000000F8013B521EF9D27047D2B201E000F86A
:10031000012B491EFBD270470022F6E710B51346A9
:100320000A4604461946FFF7F0FF204610BD2DE9A6
:10033000FE4F804681EA0300C00F0C46009021F07A
:10034000004123F00045B8EB0200A94105D2404628
:10035000214690461C460B46024623F000401043BF
:1003600047D0270DC7F30A00C3F30A510290401A81
:10037000019040286BDAC3F3130040F4801B00980F
:10038000924620B10023D2EB030A63EB0B0B0198DA
:100390005946C0F14002504600F080F906460D462D
:1003A00050465946019A00F098F910EB0800614157
:1003B000002487EA115284EAE7731A4340D0009A76
:1003C00062B3019A012A4FEA075215DC001B61EB68
:1003D00002014FF0004202EA0752CDE90042001C40
:1003E00041F5801132462B4600F098F903B0BDE884
:1003F000F08F40462146F9E7001B61EB0201001C2B
:1004000041F5801300185B412018A2F5001747EB57
:10041000030140EAD570B6196D4111E06D084FEA4D
:10042000360645EAC0754FEA0752001B61EB020130
:10043000001C41F5801149084FEA30000019514174
:1004400032462B4603B0BDE8F04F00F058B9009893
:10045000012240000023D0EB020263EBE07300981E
:1004600021464FEAE074B8EB000061EB0401E9E7D4
:1004700083F000435BE781F0004158E72DE9FE4F30
:1004800081EA030404F0004421F0004100944FF09D
:10049000000B23F0004350EA01045ED052EA03044B
:1004A0005BD0C3F30A54C1F30A552C44A4F2F334CD
:1004B0000194A0FB0254C1F3130141F48011C3F372
:1004C000130343F4801301FB024400FB034E840A30
:1004D000970A44EA815447EA8357A4FB07680295C8
:1004E0008D0A05FB07854FEA932C04FB0C54270566
:1004F000029D4FEA065847EA1637B5EB08056EEB42
:10050000070C870E920E47EA811742EA8312A7FB77
:100510000201B6EB0B0164EB00042B0D43EA0C3334
:100520005E1844EB1C50DA465146E7FB0201C5F366
:1005300013044FEA0B3343EA14534FEA0432019C8D
:1005400043EA0603A4F10C040294009CCDE900B434
:1005500000F0E4F803B0BDE8F08F00200146F9E7B1
:100560002DE9F04D81EA030404F0004B21F0004531
:1005700014464FF0000A23F0004150EA050220D053
:1005800054EA01021DD0C5F30A570246C5F313030E
:10059000C1F31300C1F30A5640F4801543F48013ED
:1005A000A7EB0608101BD64608F2FD3873EB0500D2
:1005B00002D308F1010801E092185B41B8F1000F85
:1005C00003DA00200146BDE8F08D00204FF48011D1
:1005D000064684460EE0171B73EB050705D3121B76
:1005E00063EB050306434CEA010C49084FEA30006F
:1005F00092185B4150EA0107EDD152EA030012D094
:1006000082EA040083EA0501084305D0101BAB41D0
:1006100006D20122002306E000224FF0004302E050
:100620006FF0010253101AEB06004CEB085110EB6F
:100630000A0041EB0B01BDE8F04D00F060B800008E
:1006400030B5041E71F1000404DB4FF00044404259
:1006500064EB0101141E73F1000405DB1C464FF02E
:100660000043524263EB0403994208BF904230BDFD
:1006700030B50B46014600202022012409E021FA72
:1006800002F59D4205D303FA02F5491B04FA02F56F
:100690002844151EA2F10102F1DC30BD202A04DB42
:1006A000203A00FA02F1002070479140C2F1200385
:1006B00020FA03F3194390407047202A04DB203AC4
:1006C00021FA02F00021704721FA02F3D040C2F172
:1006D00020029140084319467047202A06DBCB17B9
:1006E000203A41FA02F043EAE07306E041FA02F3ED
:1006F000D040C2F12002914008431946704710B51E
:10070000141E73F1000408DA401C41F10001921834
:100710005B411A4301D120F0010010BD2DE9F04DDD
:1007200092469B4611B1B1FA81F202E0B0FA80F232
:1007300020329046FFF7B2FF04460F4640EA0A0017
:1007400041EA0B0153465A46084313D0114653EA77
:10075000010019D0C8F140025046FFF7AEFF054630
:100760000E46504659464246FFF798FF084305D0CB
:10077000012004E020463946BDE8F08D0020054305
:1007800046EAE0762C4337430A986305E40AA0EB77
:1007900008000022FD0A44EA47540A3002D500202E
:1007A0000146E9E7010510196941DDE9084500192D
:1007B0006941BDE8F04DA2E7C1F30A52C1F313014C
:1007C00040F2FF3341F480119A4202DA00200146E0
:1007D000704740F233439A42A2F2334202DC524263
:1007E000FFF76BBFFFF75ABF064C074D06E0E06806
:1007F00040F0010394E8070098471034AC42F6D368
:10080000FFF7C6FC3C7900085C790008FEE77047FA
:10081000024881680278114481607047000000201E
:100820000B4810B5016841F400710160016841F4A2
:1008300080610160016841F480710160032000F073
:100840009FF80F2000F006F800F050F8002010BDCF
:10085000003C024030B505461F4887B000240168BF
:1008600041F004010160006806A900F00400009056
:1008700001A800F097F80498A8B100F0B3F8400080
:100880001649174AB0FBF1F11648491E026040F2C2
:10089000E732C0E90324C0E90114846100F0B4F830
:1008A000040003D015E000F09DF8E9E70D4800F0E2
:1008B00015F904000DD11E2000F034F8102D07D2D8
:1008C000002229461E2000F03BF80748056000E0A2
:1008D000012407B0204630BD4038024040420F009E
:1008E00000080040A0000020040000200C4882B056
:1008F000016841F480410160006800F4804000908C
:100900000748001F016841F0805101600068002223
:1009100000F0805000900F21901E02B000F010B83F
:1009200044380240002809DB00F01F0201219140F9
:100930004009800000F1E020C0F80011704700007D
:10094000F0B40E4B1B680C46C3F30223C3F107053A
:10095000042D00D90425191D072901D2002300E028
:10096000DB1E012606FA05F1491E214099409E40F2
:10097000761E16403143F0BC01F066BA0CED00E083
:10098000064900F0070208684FF6FF03184040EAE6
:100990000220034A10430860704700000CED00E09D
:1009A0000000FA050F2202600C4A136803F00303EB
:1009B0004360136803F0F0038360136803F4E053AB
:1009C000C36012684FF4E05303EAD20202610448A4
:1009D000006800F007000860704700000838024017
:1009E000003C02400448054900680968044AC1F314
:1009F0008221515CC84070470C000020083802403A
:100A0000164000087047704710B5040003D094F8F2
:100A10003D0010B107E0012010BD002084F83C002B
:100A2000204600F01EF8022084F83D00211D2068B9
:100A300001F05EF9012084F8460084F83E0084F855
:100A40003F0084F8400084F8410084F8420084F8B4
:100A5000430084F8440084F8450084F83D000020F9
:100A600010BD704790F83D10012901D0012070475A
:100A7000022180F83D1000681149884214D0B0F17D
:100A8000804F11D00F4988420ED00F4988420BD0B9
:100A90000E49884208D00E49884205D00D49884247
:100AA00002D00D49884204D1816801F0070106296E
:100AB00003D0016841F0010101600020704700008F
:100AC000000001400004004000080040000C00400D
:100AD00000040140004001400018004090F83D1023
:100AE000012901D001207047022180F83D100168E2
:100AF000CA6842F00102CA6000681149884214D0F5
:100B0000B0F1804F11D00F4988420ED00E49884273
:100B10000BD00E49884208D00D49884205D00D49B6
:100B2000884202D00C49884204D1816801F0070153
:100B3000062903D0016841F00101016000207047DF
:100B4000000001400004004000080040000C00408C
:100B500000040140004001400018004070472DE9AA
:100B6000F04104460068C66805694FF00007A90710
:100B700013D5B10711D5F91E016101202077206836
:100B800080698007204602D0FFF7E8FF04E000F00C
:100B90007EF8204600F07CF82777680716D57007A6
:100BA00014D521686FF004000861022020772068C6
:100BB000806910F4407F204602D0FFF7CFFF04E0A9
:100BC00000F065F8204600F063F82777280715D570
:100BD000300713D521686FF00800086104202077E2
:100BE0002068C0698007204602D0FFF7B7FF04E005
:100BF00000F04DF8204600F04BF82777E80616D5B0
:100C0000F00614D521686FF01000086108202077E5
:100C10002068C06910F4407F204602D0FFF79EFF95
:100C200004E000F034F8204600F032F82777E807B7
:100C300008D0F00706D021686FF001000861204657
:100C400000F028F8280608D5300606D521686FF090
:100C5000800008612046FFF7D5FE680608D57006BB
:100C600006D521686FF040000861204600F01CF8AE
:100C7000A8060AD5B00608D521686FF020000861E3
:100C80002046BDE8F041FFF7BEBEBDE8F0817047E9
:100C90007047000000680349884201D1FFF7B8BDE2
:100CA00070470000000800407047FEE730B587B08D
:100CB00018216846FFF730FB012000F093FA012469
:100CC0000025CDE9004569460848049400F096FAED
:100CD000082000F087FAAA20CDE9000569460494AF
:100CE000034800F08BFA07B030BD0000000002405E
:100CF000000C02402DE9F04104461D4616460F4601
:100D00002A2000F017FA204600F005FA304600F0DD
:100D100002FA2B2000F00EFA384600F0FCF92846C3
:100D200000F0F9F9BDE8F0412C2000F003BA10B54D
:100D300014460B460246FFF7DDFF2046BDE8104093
:100D400000F0E9B92DE9F04780461F4603F1130092
:100D500083B21646501E82B20C4601F1140081B2D5
:100D60004046DDF82090FFF7C5FF0AE0454604E065
:100D7000484600F0D0F96D1CADB2B542F8D3641C02
:100D8000A4B2BC42F2D3BDE8F08700002DE9F041E7
:100D900088B018216846FFF7BFFA1F48016841F084
:100DA0001001016000681D4C00F0100006904FF427
:100DB0008020A0614FF0040801AA01250326002726
:100DC000CDF8008082E8E0006946204600F016FA7F
:100DD000C4F81880E804A0614FF0080801AACDF813
:100DE000008082E8E0006946204600F007FAC4F877
:100DF00018802805A0614FF0100801AACDF80080E6
:100E000082E8E0006946204600F0F8F9C4F818804E
:100E100008B0BDE8F0810000303802400010024008
:100E200010B500F00BFE00F029FDFFF7AFFF6420C6
:100E300001F096FC654C1021204600F010FD0421C5
:100E4000204600F00CFD642001F08AFC04212046BD
:100E500000F00CFD642001F083FC112000F06AF921
:100E6000782001F07DFC362000F064F9C02000F00D
:100E70005BFE3A2000F05EF9052000F055FEB2203E
:100E800000F058F90C2000F04FFE0C2000F04CFE52
:100E9000002000F049FE332000F046FE332000F031
:100EA00043FEB72000F046F9352000F03DFEBB20A0
:100EB00000F040F9192000F037FEC02000F03AF9A8
:100EC0002C2000F031FEC22000F034F9012000F0A7
:100ED0002BFEC32000F02EF9122000F025FEC420C6
:100EE00000F028F9202000F01FFEC62000F022F9B3
:100EF0000F2000F019FED02000F01CF9A42000F013
:100F000013FEA12000F010FEE02000F013F9D02025
:100F100000F00AFE042000F007FE0D2000F004FEA1
:100F2000112000F001FE132000F0FEFD2B2000F048
:100F3000FBFD3F2000F0F8FD542000F0F5FD4C20B3
:100F400000F0F2FD182000F0EFFD0D2000F0ECFDA8
:100F50000B2000F0E9FD1F2000F0E6FD232000F04B
:100F6000E3FDE12000F0E6F8D02000F0DDFD0420F4
:100F700000F0DAFD0C2000F0D7FD112000F0D4FDC8
:100F8000132000F0D1FD2C2000F0CEFD3F2000F01A
:100F9000CBFD442000F0C8FD512000F0C5FD2F20FE
:100FA00000F0C2FD1F2000F0BFFD1F2000F0BCFDBF
:100FB000202000F0B9FD232000F0B6FD212000F034
:100FC000B9F8BDE81040292000F0B4B80010024084
:100FD0002DE9FF4F81B00446DDF83C9000904FEAC8
:100FE00059074FF00008780700D0012000EBD70028
:100FF00000FB09FB203AD0B20390029802994844C2
:10100000401E83B2E019401E82B22046FFF772FEF6
:10101000002553E0B9F10C0F2AD0B9F1100F2ED0F2
:10102000B9F1180F2ED0B9F1200F49D127490398F3
:1010300001EB8010002610F805A0109800284FF052
:10104000010000FA06F000EA0A0022D020B1204692
:10105000049A0299FFF76BFE641C0098A4B2201A50
:10106000B84225D10298009C401C80B2029023E037
:101070000398174900EB400001EB8000DAE71549BF
:10108000039803E00398144900EB400001EB0010C3
:10109000D0E708B1049800E00E9800F03CF808F1A1
:1010A0000100C0B2B0FBF7F1804607FB118050B1E0
:1010B000761CF6B2082EC0D36D1CADB25D45A9D327
:1010C00005B0BDE8F08F4FF00008F5E7525C00086E
:1010D0001E40000892440008824A00082DE9FE4F95
:1010E0009946DDE90D6714468A460546DDF83080ED
:1010F0000CE0CDF800804B4651462846CDE901670B
:10110000FFF766FF05EB560085B2641C2278002AC3
:10111000EFD1BDE8FE8F10B504464FF4006000F03B
:10112000DDFC204600F0ECFCBDE81040002000F0A3
:10113000D5BC000010B5074C03460821204600F03E
:101140008EFB184600F0F0FC2046BDE81040082158
:1011500000F08CBB001002404FF4FA7400F028F845
:10116000204602F04FF9F9E700B587B0182168462C
:10117000FFF7D2F80C48016841F0040101600068F3
:101180004FF4005100F00400069008480A04826100
:10119000009101210022CDE90112CDE90321694628
:1011A00000F02CF807B000BD3038024000080240C3
:1011B00005494FF400524869824300F4005042EA66
:1011C000004088617047000000080240044908B5EB
:1011D0000A6802430A6009680140009108BD0000E6
:1011E00030380240044908B50A6802430A600968B9
:1011F0000140009108BD000030380240F0B50A6897
:101200000F2692FAA2F2B2FA82F303248AE00127AF
:101210009F4015EA07027DD04D68012D01D0022DB7
:101220001BD18D68876892FAA2FCBCFA8CFC4FEA4D
:101230004C0C04FA0CFC27EA0C0792FAA2FCBCFA4C
:101240008CFC4FEA4C0C05FA0CF52F438760CD68F7
:101250004768554397432F4347600F69D0F80CC048
:1012600092FAA2F5B5FA85F54FEA450E04FA0EF5A5
:101270002CEA050C92FAA2F5B5FA85F56D00AF409F
:101280004CEA070CC0F80CC04D68022D33D192FA1D
:10129000A2F5B5FA85F5082D15D2D1F814C0056A66
:1012A00092FAA2F7B7FA87F7BF0006FA07F7BD432D
:1012B00092FAA2F7B7FA87F7BF000CFA07FC45EAE3
:1012C0000C05056217E0D1F814E0476A150A95FA93
:1012D000A5FCBCFA8CFC4FEA8C0C06FA0CFC95FAC7
:1012E000A5F5B5FA85F5AD0027EA0C070EFA05FE5F
:1012F00047EA0E0747624D68076892FAA2FCBCFAFB
:101300008CFC4FEA4C0C04FA0CFE27EA0E0792FA0A
:10131000A2F200E005E0B2FA82F2520095402F43BB
:1013200007605B1C0A681546DA407FF470AF002046
:10133000F0BD10B5044600F043FB206000F016FB42
:10134000606000F021FBA060606800F02BFBE060B3
:1013500010BD10B503680122C3F380132BBBD1E984
:1013600000231A43D1E9023423431A430B691A4379
:101370004B691A438B691A43CB691A430B6A1A43A8
:1013800003684FF6BF74A3431A43026042684B6977
:1013900022F0040242EA134242600A6AB2F5005F98
:1013A00002D1898C89B201610022C16921F40061F6
:1013B000C161104610BD000001490860704700007F
:1013C0000C000020F0B50268254B264D264E274F15
:1013D000274C4FF0804C984209D0604507D0A84276
:1013E00005D0B04203D0B84201D0A04205D1D1F817
:1013F00004E022F0700242EA0E0298421BD06045DF
:1014000019D0A84217D0B04215D0B84213D0A0428C
:1014100011D0184DA8420ED0174DA8420BD0174D31
:10142000A84208D0164DA84205D0164DA84202D0B9
:10143000154DA84203D1CD6822F440722A430260C0
:101440008A68C2620A888262984201D0A04201D1B1
:1014500009690163416941F0010141610020F0BD6A
:10146000000001400004004000080040000C004063
:101470000004014000400140004401400048014098
:1014800000180040001C004000200040F0B501267C
:1014900000236E4C6E4D012908D010293BD0B1F5C8
:1014A000807F73D0B1F5805F6ED1A6E0016A21F034
:1014B00001010162016A46688769D2F800C027F01D
:1014C000730747EA0C07D2F810C021F0020141EA85
:1014D0000C01D2F804C021F0010141EA0C01A04244
:1014E00001D0A84212D1546921F0080141EA8401D7
:1014F000946821F0040141EA8401956926F480741E
:101500002C43D56924F4007444EA4506466087619B
:10151000D26842636FE0016A21F010010162066A3D
:1015200041688769D2F800C027F4E64747EA0C27EC
:10153000D2F810C026F0200646EA0C16D2F804C0F5
:1015400026F0100646EA0C16A04201D0A84213D19C
:10155000556926F0800444EA8514956824F0400417
:1015600044EA8516946921F4806141EA8401D469D2
:1015700021F4006141EAC40141608761D16881635F
:1015800061E003E000E01E463046F0BD016A21F450
:1015900080710162016A4668C769D2F800C027F00D
:1015A000730747EA0C07D2F810C021F4007141EA32
:1015B0000C21D2F804C021F4807141EA0C21A04230
:1015C00001D0A84213D1546921F4006141EA842179
:1015D000946821F4806141EA8421956926F480545D
:1015E00044EA0514D56924F4005444EA45164660DB
:1015F000C761D268C2630162C5E7016A21F4805104
:101600000162066A4168C769D2F800C027F4E6475C
:1016100047EA0C27D2F810C026F4005646EA0C36EA
:10162000D2F804C026F4805646EA0C36A04201D017
:10163000A84204D1946921F4804141EA84114160B7
:10164000C761D168016406629DE7000000000140A7
:10165000000401407FB50446C0680D460126C0F372
:101660004030C0BBE9686868AA690843296911432A
:101670000843E16849F20C6291430843E060A868BE
:10168000216921F44051014321616869616921F4B4
:101690004071014361616846FFF74BFE0F48844289
:1016A00008D00F4884420DD00E4884420AD00E481C
:1016B000844201D1039906E00C48844202D00C48D0
:1016C000844208D1029931B12B6823B1002620460B
:1016D000AA6900F00FF804B0304670BD0010014058
:1016E000004400400048004000140140004C00400D
:1016F000005000402DE9F04106461920A1FB0001F1
:101700001F46002364243225B2F5004F27D0BB0FBB
:10171000BA00FEF7B7FD0146B0FBF4F06FF0180217
:10172000504301EB800005EB0010B0FBF4F000F03B
:10173000F002B1FBF4F002EB0012B1FBF4F06FF039
:101740001803584301EB800005EB0010B0FBF4F0E8
:1017500000F00F00104480B2B060BDE8F081FA19CB
:101760005B41FEF78FFD0146B0FBF4F00201B1FBD7
:10177000F4F06FF01803584301EB800005EBC00054
:10178000B0FBF4F000F0F80002EB4002B1FBF4F023
:10179000584301EB800005EBC000B0FBF4F000F013
:1017A0000700D7E700F012BB10B58020FFF70EFD51
:1017B000BDE810400120FFF709BD000010B58EB054
:1017C0001C216846FEF7A8FD182107A8FEF7A4FD16
:1017D0001F48016841F010010160006800F010002E
:1017E0000D901B481438016841F001010160006848
:1017F000002400F001000D904FF4C060079002201B
:1018000008900320CDE909040720CDE90B4007A982
:101810001048FFF7F3FC4FF4E130CDE900040C2051
:101820000294CDE90340059406940B4C694620468A
:10183000FFF710FF206920F490402061606920F0DC
:101840002A006061E06840F40050E0600EB010BD16
:10185000443802400000024000100140FEE70A0444
:101860008261426931EA0202FBD0704781614269BC
:1018700031EA0202FBD17047FEE70000F0B595B0F7
:10188000142110A8FEF748FD202101A8FEF744FD11
:10189000182109A8FEF740FD3048016841F0020117
:1018A00001600068002500F002000090ADF8405093
:1018B0004FF6FF70CDE91150294C10A92046139521
:1018C000FFF780FD206820F0800020602548A115EA
:1018D00002792348183016183068224F0822FF1D5D
:1018E0003B799A40104330606020CDE901050395B3
:1018F000049501AA20460595FFF7C8FD30683A799E
:101900000421914088433060606820F0700060607E
:10191000A06820F08000A06010481038016841F0F5
:101920000201016000680C9500F0020000900120A7
:1019300009900220CDE90A05CDE90D5009A90A4810
:10194000FFF75CFC206840F001002060206A40F452
:1019500080702062E56315B0F0BD000040380240A1
:1019600000040040F83F00080004024004490968F0
:10197000044A01F0F0010909515CC84070470000B9
:10198000083802400640000804490968044A01F486
:10199000E05102EB91210978C840704708380240B5
:1019A0001640000804490968044A01F4604102EB4A
:1019B00051310978C8407047083802401640000885
:1019C0000748006810F00C01064807D0042904D02D
:1019D000082903D1082000F009B803487047000027
:1019E000083802400024F40040787D0110B5104A08
:1019F00004460020116811F480030E4903D0B3F5AA
:101A0000800F00D10C49082C11D1106800F03F0064
:101A1000B1FBF0F01168C1F388114843116801224D
:101A200001F4403102EB11414900B0FBF1F010BD6F
:101A3000043802400024F40040787D0130B591B0B4
:101A400028216846FEF768FC18210AA8FEF764FC06
:101A50001F48016841F480510160006800F4805023
:101A600010901B481438016841F0010101600068C2
:101A7000022500F001001090A020CDE90A05032006
:101A80000024CDE90C040520CDE90E400AA9114837
:101A9000FFF7B4FB4FF48270CDE9004001200294BF
:101AA000CDE903504002CDE905040A20CDE9084004
:101AB0000794094C69462046FFF74BFC606820F00C
:101AC00010006060206840F04000206011B030BD20
:101AD00044380240000002400030014007490A68D3
:101AE00022F040020A600A6822F4006202430A609F
:101AF000086840F040000860704700000030014076
:101B000008498A68C2F34002002AFAD0C86088688F
:101B1000C0F340000028FAD08868C0F3C010002845
:101B2000FAD170470030014008498A68C2F3400288
:101B3000002AFAD008738868C0F340000028FAD061
:101B40008868C0F3C0100028FAD170470030014007
:101B50004FF47A74204601F055FCFBE710B54FF0C6
:101B6000E020006902F092F8012803D0BDE810409F
:101B700001F0A8BD10BD000070B52E48016821F02D
:101B8000070141F005010160016801F00701052925
:101B9000FAD12949086840F4804008602748026863
:101BA00042F4803202600268C2F34042002AFAD056
:101BB000224A234B121D1468224D2C4023431360EC
:101BC000136823F440331360026842F080720260AD
:101BD0000268C2F34062002AFAD04868C0F380303D
:101BE0000028FAD015480830016821F0F0010160A2
:101BF000016821F4E05141F4A0510160016821F431
:101C0000604141F400410160016821F0030141F0AD
:101C100002010160016801F00C010829FAD10A48AB
:101C2000FFF7CAFB0F20FEF715FE002801D072B6A1
:101C3000FEE770BD003C02400070004000380240EA
:101C4000195440000080BFFF007A030A024801686F
:101C500041F470010160704788ED00E00148FEF733
:101C60007EBF0000A000002010B5064C206910F0D7
:101C7000010F05D004A000F0D7F86FF0010020613B
:101C800010BD00000010004054494D36E6ADA3E5FC
:101C90009CA8E8BF90E8A18C2CE4BC98E58588E777
:101CA000BAA7E4B8BA3A360D0A00000010B5064CDF
:101CB000206910F0010F05D004A000F0B5F86FF016
:101CC0000100206110BD00000014004054494D3750
:101CD000E6ADA3E59CA8E8BF90E8A18C2CE4BC98F5
:101CE000E58588E7BAA7E4B8BA3A340D0A000000DF
:101CF000F0B50268294C2A4D2A4E2B4F2B4B4FF042
:101D0000804CA04209D0604507D0A84205D0B0421F
:101D100003D0B84201D0984204D122F0700E4A6834
:101D200042EA0E02A0421BD0604519D0A84217D04B
:101D3000B04215D0B84213D0984211D01C4DA842E1
:101D40000ED01C4DA8420BD01B4DA84208D01B4DF5
:101D5000A84205D01A4DA84202D01A4DA84203D17C
:101D600022F44075CA682A434D6922F080022A4352
:101D700002608A68C2620A688262A04201D0984208
:101D800001D109690163012141610169C90703D0DA
:101D9000016921F001010161F0BD00000000014076
:101DA0000004004000080040000C00400004014016
:101DB000004001400044014000480140001800403C
:101DC000001C004000200040FEE700001CB50B494D
:101DD0000220CDE900010023802209A10C4801F076
:101DE000FDFE06490120091DCDE9000100238022E6
:101DF00008A10C4801F0F2FE1CBD00009400002078
:101E0000535049544553545F5461736B00000000B4
:101E1000511B00084C4544546F67676C655F546103
:101E2000736B0000591100080FB4054B10B503A9DE
:101E3000044A029800F0EAF810BC5DF814FB0000B8
:101E4000A92700089C0000200907090E002804DBD0
:101E500000F1E02080F80014704700F00F0000F15E
:101E6000E02080F8141D704702E008C8121F08C166
:101E7000002AFAD170477047002001E001C1121F0B
:101E8000002AFBD1704700002DE9FF5F82B00021DE
:101E9000DDE90430020DDDF840B0034318D044F60C
:101EA0001050A2F2FF3242431514119801281FD09E
:101EB000A5EB0B00401C5FEA000A4FF000064E4FF6
:101EC000DFF83891B046504615D5CAF1000413E04A
:101ED000119801244AA3012801D16FEA0B0102984D
:101EE000119AC0E90031C0E9024206B0BDE8F09F96
:101EF000CBF10000DFE704460021404A491842EBDD
:101F00000450CDE9001012E0E00707D032463B460E
:101F100040464946FEF7B2FA8046894632463B467D
:101F200010461946FEF7AAFA06460F466410002C22
:101F3000EAD1DDE90401DDE90023BAF1000F06DA98
:101F4000FEF79CFA42464B46FEF798FA05E0FEF78C
:101F500007FB42464B46FEF703FB04460E460022B3
:101F6000284BFEF76DFB03D84FF0FF30014607E02A
:101F70000022254B20463146FEF7D9F9FEF71CFC1E
:101F8000102409E0002C0ADB0A220023FEF77AF96C
:101F9000039B30321A55641E50EA0102F2D1641CD0
:101FA000039AC4F111031444119A012A03D00122A7
:101FB00008430DD10AE0084304D000204FF0110B74
:101FC000119072E7A3EB0B056D1E0DE05B4504DD80
:101FD0004FF0000205F1010504E003DA4FF00002C2
:101FE000A5F10105002AECD002981199C0E902314F
:101FF000C0E9004579E70000000014400000F03F10
:10200000300000000000F0430000E03F2DE9FF4FEA
:1020100095B09A46884606460025EEE1252877D1F8
:1020200000242746F94A0121039400E0044316F8EE
:10203000013F203B01FA03F01042F7D130782A2803
:1020400011D06FF02F033078A0F13002092A16D892
:10205000039A44F0020402EB820203EB42021044B2
:10206000761C0390EFE758F8042B0392002A03DA5A
:10207000504244F40054039044F00204761C30783B
:102080002E2816D116F8010F44F004042A280DD08A
:102090006FF02F023078A0F13003092B09D807EB3D
:1020A000870302EB4303C718761CF3E758F8047B59
:1020B000761C30786C280FD006DC4C2817D06828A6
:1020C0000DD06A2814D104E0742810D07A280FD1DA
:1020D0000DE044F400140AE044F4801401E044F4F8
:1020E00040147278824202D104F58014761C761C6A
:1020F000307866280BD013DC582877D009DC00280C
:1021000075D04528F6D04628F4D047281AD193E157
:1021100018E0632835D0642879D0652812D18BE186
:10212000702873D008DC6728F1D069286FD06E283A
:102130000DD06F2806D1ACE073282CD0752874D050
:10214000782853D05246179990476D1C54E1C4F338
:102150000250022809D003280DD0D8F80010042816
:102160000DD00D6008F1040846E1D8F80010EA1718
:10217000C1E90052F6E7D8F800100D80F2E70D70C3
:10218000F0E718F8041B8DF8001000208DF801000E
:10219000EB46012003E058F804BB4FF0FF30610725
:1021A0004FF0000102D40DE009F101018946B94266
:1021B0000FDA8145F8DB1BF809100029F4D108E09B
:1021C00009F1010189468142FADB1BF80910002957
:1021D000F6D103985346A0EB090721463846179AD3
:1021E00000F080FA284400EB090507E044E008E12C
:1021F0000DE01BF8010B524617999047B9F1010900
:10220000F7D2534621463846179AF2E039E00A21C0
:10221000C4F302524FF0000B0091022A06D058F886
:10222000040BC117032A09D00AE023E008F10700D4
:1022300020F00702F2E80201904605E000B2C11763
:10224000042A01D140B2C117002906DA0A4600214A
:10225000404261EB02012D2202E0220504D52B222F
:102260008DF80420012203E0E20701D02022F7E7E5
:10227000914657E00A2100E010214FF0000B009139
:102280000BE010214FF0000B44F0040408270091EC
:1022900003E008204FF0000B0090C4F30252022A22
:1022A00005D058F8040B0021032A08D008E008F1F3
:1022B000070020F00702F2E80201904603E080B236
:1022C000042A00D1C0B24FF0000922072AD5327883
:1022D000702A07D0DDF800C08CF0100C5CEA0B0C03
:1022E00005D00EE040228DF80420012208E050EADB
:1022F000010306D030238DF804308DF8052002222A
:102300009146009B83F0080353EA0B030AD150EA7D
:10231000010201D1620705D530228DF804204FF06B
:1023200001097F1E3278582A04D039A20C920CAAD7
:1023300002920BE03BA2F9E75B46009AFDF7A2FF91
:102340000C9B9B5C029A521E0292137050EA01028F
:10235000F2D1029804A9081A00F1200B600702D5F7
:1023600024F4803400E001275F4502DDA7EB0B0079
:1023700000E0002000EB0B01009003984944401A54
:102380000390E00306D453462146179A039800F0C1
:10239000A9F90544002706E001A85246C05D179937
:1023A00090476D1C7F1C4F45F6DBE0030CD5534670
:1023B0002146179A039800F095F9054404E030206F
:1023C0005246179990476D1C0099481E00900029AD
:1023D000F5DC08E00298029952460078491C029107
:1023E000179990476D1CBBF10001ABF1010BF1DCBB
:1023F0005BE100F065F90544761C307800287FF435
:102400000DAE19B02846BDE8F08F00000928010084
:10241000303132333435363738396162636465665A
:10242000000000003031323334353637383941421C
:102430004344454600000000600700D4062708F129
:10244000070020F00700F0E80223804603F0004C6C
:102450005FEA0C0001D097A009E0200501D596A005
:1024600005E0E00701D095A001E0AFF24C00139029
:10247000307823F0004365280CD006DC452809D0CD
:1024800046281DD047287FD13BE0662818D0672812
:102490007AD136E00021112F01DB112000E0781CF9
:1024A000CDE9000104A90CA8FFF7EEFCDDE90D0160
:1024B0000C9A4FF0000B07F10109109200914EE0C9
:1024C0004FF000400097CDE9011004A90CA8FFF7D8
:1024D000DBFCDDE90D020C9B0F994FF0000B9146E0
:1024E0001093009211B9791C00EB0109B7EB0900B8
:1024F00003D4C0F1FF3B07F10109A9EB07000190EC
:1025000042E0012F00DA01270021112F01DD112007
:1025100000E03846CDE9000104A90CA8FFF7B4FC9F
:10252000DDE90D010C9A00914FF0000BB9461092B5
:1025300021070FD4009A4A4503DA914601E0A9F138
:102540000109B9F1010F05DD109AA9F10101515CF2
:102550003029F4D0B84202DA10F1040F03DA012175
:10256000CDE9011010E0002803DC8344A9EB000151
:1025700002E0411C494500DD8946A0EB0B00401CF0
:1025800001904FF000400290200705D40198484583
:1025900002DB4FF0FF30019000208DF84B000298D5
:1025A0000DF14B07B0F1004F25D002200C902B20ED
:1025B0000D90029800280CDA404202902D200D90D8
:1025C00007E00A210298FEF753F83031029007F82D
:1025D000011D0C99481E0C900029F2DC029800287D
:1025E000EFD1791E0D980870307800F0200040F08F
:1025F000450007F8020D11A8C01BC01D02901398DA
:10260000007800B1012000EB0901019801EBE071B5
:10261000029801440398401A401E0390E00306D438
:1026200053462146179A039800F05CF80544139826
:10263000007818B15246179990476D1CE00323D5D6
:1026400053462146179A039800F04CF805441BE0C6
:10265000BBF1000F07DB0098584504DD109817996F
:1026600010F80B0001E0179930205246904701986E
:102670000BF1010B401E05F10105019004D12E2044
:102680005246179990476D1CB9F10001A9F1010953
:10269000DEDC05E017F8010B5246179990476D1CD8
:1026A0000299481E02900029F4DC53462146179AED
:1026B00003989EE62D0000002B0000002000000083
:1026C0002DE9F041044600251E461746880404D42F
:1026D00005E039462020B0476D1C641EF9D5284618
:1026E000BDE8F0812DE9F041044600251E469046E4
:1026F000C80301D5302700E02027880404D505E071
:1027000041463846B0476D1C641EF9D52846BDE8E1
:10271000F081000010B544080E4894B00021026812
:1027200042F004020260006800F0040012900A48BF
:102730000090601ECDE901014FF6FF70CDE9030165
:102740006846FEF761F96846FEF78CF903480460B5
:1027500014B010BD40380240000800409000002036
:1027600070B5054600244FF47A7603E0304600F059
:1027700005F8641CAC42F9D370BD0000094910B5DE
:102780000A684FF6FF7392B29B1A06E00C689442F7
:1027900003D20C681C44844203D20C68A41A8442FD
:1027A000F4D310BD24080040044AC1B2516011683E
:1027B000C1F3C0110029FAD0704700000010014099
:1027C0000EB5FEF72DF8FEF771FAFEF7CDFCFFF718
:1027D000D3F9FEF7E9FFFEF7F1FFA820FFF79AFF14
:1027E0006420FFF7BDFFFEF71BFB4FF47A75284608
:1027F000FFF7B6FF4FF6FF744FF48C760021334697
:10280000F02208460094FEF79DFA0A20FFF7A8FF81
:1028100000201821CDE90001029023460DA2782165
:102820004820FEF75BFC2846FFF79AFF002133465D
:10283000F02208460094FEF785FA00F011F8FEF742
:10284000B1FF00F047FE00BFFEF7B2FC2846FFF7DD
:1028500087FFF9E757656C636F6D65210000000025
:10286000EFF3058010B16FF0050070470448016870
:1028700011B14FF0FF307047012101600020704717
:10288000600000202DE9F041134C0F460546E66834
:102890002068001D00F082FC681C07D137B1216858
:1028A000BDE8F0410D48091D00F0C8BC2068354462
:1028B000B5424560216805D2A06BBDE8F041091D15
:1028C00000F0A4BC606B091D00F0A0FCA06A85426A
:1028D00000D2A562BDE8F08110000020D8050020DC
:1028E0002DE9F041054600F0B5FC2D4CA068401CD8
:1028F000A06020682B4F10B1606930B32BE02560D9
:10290000A068012827D1002606EB860007EB80008F
:1029100000F06EFC761C382EF6D3234800F068FCDD
:102920002148143000F064FC1F48283000F060FC9F
:102930001D483C3000F05CFC1B48503000F058FC57
:10294000194860631430A06305E02068E96AC06A32
:10295000884200D82560606A401C60626864E86A4A
:102960002169884200D9206100EB800007EB8000DC
:10297000291D00F063FC00F08DFC606900280CD07C
:102980002068E96AC06A884207D208494FF080503F
:102990000860BFF34F8FBFF36F8FBDE8F081000079
:1029A00010000020280100208805002004ED00E030
:1029B00038B500F04FFC104C2068C8B90F4800F043
:1029C00017FC0E48143000F013FC0C48E060143083
:1029D00020610A4B0020F43B009003F154021021C7
:1029E0000A2000F085FE206010B105A100F0D4FCA3
:1029F000BDE8384000F04EBC4C000020E00600204E
:102A0000546D72510000000030B4026C0B46002A75
:102A10000BD0C1681144C1608468A14201D3016830
:102A2000C16030BC1846FDF75EBC30BC70472DE974
:102A3000F041856B174604460026026C82B1C7B18F
:102A4000E068FDF750FCE168206C091AE16022683B
:102A5000914202D2A168081AE060022F16D017E056
:102A60002068A8B9A06801F089F906460020A06096
:102A70000EE06068FDF737FC216C60680844606018
:102A8000A168884204D32068606001E005B16D1E32
:102A90006D1CA5633046BDE8F08110B5044690F882
:102AA000590058B101280CD002280FD0502080F3D3
:102AB0001188BFF34F8FBFF36F8FFEE7206B00F0DD
:102AC000FDFB2046BDE8104000F0F8BB10BD000043
:102AD00010484FF47051420706D0C01D0D4920F038
:102AE0000700411AC1F570510B4A00230144C2E9A5
:102AF00000030839183A21F0070111604B600B60A0
:102B00000B1AC0E9001393604FF00040536050610E
:102B100070470000C00D00207C000020144E154CB2
:102B2000A6F29C474FF08058DFF84C9012E000BFAF
:102B300000F090FBF068C568281D00F02FFBA0682E
:102B4000401EA0606068401E606000F0A3FB284645
:102B5000FFF7A3FF60680028EAD138680128F9D997
:102B6000C9F80080BFF34F8FBFF36F8FF2E700000B
:102B7000C40500201000002004ED00E070B51D46E3
:102B8000049C61B1C4F80020C4E90F010121204672
:102B900000F0E2FD84F850500020A06470BD246075
:102BA000F2E700002DE9F05F8846DDE90B94154659
:102BB000834691009A460A9EA522206BFDF7A5FB4D
:102BC0006FF00301206B01EB8501084420F007073B
:102BD000780707D0502080F31188BFF34F8FBFF3E1
:102BE0006F8FFEE70025B8F1000F0FD05FF00000F7
:102BF000221818F8001082F8341018F8001011B1DB
:102C0000401C1028F4D384F8435001E084F8345079
:102C1000382E00D33726E662C4E91365201D00F084
:102C2000F2FA04F1180000F0EEFA2461C6F138005F
:102C30006462A061656584F858505246594638462A
:102C400000F096FA2060B9F1000F01D0C9F80040F9
:102C5000BDE8F09F30B5114900E011460A68824294
:102C6000FBD34B685C18844203D140681844486029
:102C7000084643681C18944209D1084C183C246843
:102C8000A24209D052681A4442600A68126802607F
:102C9000814200D0086030BD0460F9E77C0000206C
:102CA00070B5002441600B4D0061914206D8D11AE5
:102CB0008269914206D2011D286907E09A4203D237
:102CC000994201D3012403E0011DE86800F09EFA57
:102CD000204670BD4C00002010B5044600F0BAFA42
:102CE000A06B28B15FF0000400F0D4FA204610BDBC
:102CF0000124F9E7F1B500260098846C5CB1A16B62
:102D0000E06B81420FD3502080F31188BFF34F8FC7
:102D1000BFF36F8FFEE7502080F31188BFF34F8F12
:102D2000BFF36F8FFEE7A16B81420CD294F945503F
:102D3000002269462046FFF77AFE0646681C04D04A
:102D40006D1C84F845503046F8BD606A0028FAD002
:102D500004F1240001F052F80028F4D00126F2E733
:102D600030B589B03C4D6EE00498002806DADDE904
:102D70000601059A90470498002864DB069C606968
:102D800010B1201D00F00AFA03A800F0D7F802469F
:102D900004980A2857D2DFE800F00505052D334ACC
:102DA00005052D3394F8280040F0010084F8280030
:102DB0000599A069059B01442046FFF771FF68B3A0
:102DC000216A2046884794F8280040073BD5002018
:102DD00000900598A169002342181946204601F089
:102DE000D7F8D8B9502080F31188BFF34F8FBFF3C5
:102DF0006F8FFEE714F8280F20F00100207022E00A
:102E000094F8280040F0010084F828000598A0619B
:102E100028B1811813462046FFF742FF13E05020E7
:102E200080F31188BFF34F8FBFF36F8FFEE794F8E5
:102E30002800810703D4204600F040FA03E020F088
:102E4000010084F82800002204A9286800F0F0FDA1
:102E5000002889D109B030BD4C0000202DE9FC418B
:102E60000F46054600F07AFB01A800F067F804461B
:102E7000019818B100F0FAFFBDE8FC81254EAFB112
:102E800030690068D0B30027291B3A46306800F04B
:102E900097FA00F0EBFF0028EED11F494FF0805069
:102EA0000860BFF34F8FBFF36F8FE5E7A542EBD804
:102EB00000F0DCFFF0682746C068C468201D00F001
:102EC0006DF994F82800410719D5A0692B464119DE
:102ED0003A462046FFF7E4FEA8B10020034601462B
:102EE00000902A46204601F053F860B9502080F344
:102EF0001188BFF34F8FBFF36F8FFEE707E020F01D
:102F0000010084F82800216A20468847B4E7012799
:102F1000BAE700004C00002004ED00E00648416BD9
:102F2000096829B1416BC968C968496881627047FD
:102F30004FF0FF31FAE700001000002070B50546A1
:102F400000F0B2FE064E0446B068844203D200F0A0
:102F500009F8012000E0002028602046B46070BD20
:102F60004C000020F8B5194D20E0C068C468066820
:102F7000201D00F013F9216A2046884794F82800A4
:102F8000400713D5A0693044B04206D9246160607F
:102F9000211DE86800F03AF908E0002003460146E8
:102FA00000903246204600F0F3FF38B1E86801682F
:102FB0000029DAD12969C5E90310F8BD502080F352
:102FC0001188BFF34F8FBFF36F8FFEE74C000020D7
:102FD00008484068401C4FF0500080F3118804D02E
:102FE000BFF34F8FBFF36F8FFEE7BFF34F8FBFF37A
:102FF0006F8FFEE784000020074CE068016841B154
:10300000C0680021D0F80000FFF728FFFFF7A8FEF6
:10301000F3E701210020F7E74C0000202DE9F04103
:10302000044600F017F994F9455004F124060FE026
:10303000A06C18B12046FFF75DFE04E0606A48B15D
:10304000304600F0DBFE08B100F00AFA6D1E6DB2EA
:10305000002DEDDC4FF0FF3684F8456000F01AF9E2
:1030600000F0F8F894F9445004F1100709E02069E1
:1030700048B1384600F0C2FE08B100F0F1F96D1E0B
:103080006DB2002DF3DC84F84460BDE8F04100F03F
:1030900001B900002DE9F0410546002700F05EFA75
:1030A000324E306808B9FFF713FD706905424ED102
:1030B000C5B3083568070ED005F00700C0F1080059
:1030C0000544680707D0502080F31188BFF34F8F65
:1030D000BFF36F8FFEE72DB37068854237D8234862
:1030E000183001460C6801E020460C466168A94290
:1030F00002D221680029F7D131688C4227D00768B5
:103100002168016060680837411B10290FD96019D8
:10311000420708D0502080F31188BFF34F8FBFF3D0
:103120006F8FFEE713E041606560FFF793FD616814
:103130007068401A7060B268904200D2B0607069E6
:1031400001430020C4E90001F068401CF06000F079
:103150008DFE780707D0502080F31188BFF34F8F82
:10316000BFF36F8FFEE73846BDE8F08164000020B2
:1031700010B5031F4FF080741C601B1F21F001016C
:103180001960191F044B0B6014390A60091F6FF096
:10319000020244380A6010BDD12F0008D0E9013284
:1031A00001699A60D0E901235A604A68824201D1DC
:1031B00082684A60002202610868401E0860086850
:1031C00070470000034B036003F15C00086080203F
:1031D0001060704708070020044B036003F15C0097
:1031E00008604FF480701060704700006409002090
:1031F00000F108014FF0FF32C0E90112C160016126
:1032000000210160704700210161704730B50B68F3
:103210005A1C02D000F1080202E0026904E02246D2
:10322000546825689D42FAD953684B6099608A605A
:10323000516008610168491C016030BD42684A6004
:1032400093688B6093685960916008610168491CBC
:1032500001607047502080F31188BFF34F8FBFF398
:103260006F8F0A494868401C486001280CD1084803
:10327000006810F0FF0F07D0502080F31188BFF3D3
:103280004F8FBFF36F8FFEE7704700008400002070
:1032900004ED00E00849486828B1401E486001D1AB
:1032A00080F311887047502080F31188BFF34F8F4F
:1032B000BFF36F8FFEE700008400002070B5002888
:1032C0002AD0164DA0F1080460686969084207D148
:1032D000502080F31188BFF34F8FBFF36F8FFEE74D
:1032E00022683AB1502080F31188BFF34F8FBFF3AB
:1032F0006F8FFEE78843606000F030F960686968AE
:10330000084468602046FFF7A5FC2869401C286136
:10331000BDE8704000F0AABD70BD00006400002050
:103320004FF0E02000210161816105494FF47A727C
:103330000968B1FBF2F1491E416107210161704743
:103340000C00002010B5FCF787FF114910280ED3A0
:1033500000F1E02090F8F0030A78904207D2502064
:1033600080F31188BFF34F8FBFF36F8FFEE70948DB
:103370000068896800F4E060884207D9502080F333
:103380001188BFF34F8FBFF36F8FFEE710BD0000B2
:10339000840000200CED00E010B5084B002200BFB7
:1033A00053F832401CB1521C082AF9D310BD43F81F
:1033B000321003EBC201486010BD0000E80000209D
:1033C00070B515460E460446FFF744FF94F94410C5
:1033D0000020491C01D184F8440094F94510491C8F
:1033E00001D184F84500FFF755FFA06B28B92A46A4
:1033F000314604F1240000F051F82046BDE8704049
:10340000FFF70CBE10B5020014D00F48006B38B1A6
:10341000502080F31188BFF34F8FBFF36F8FFEE70B
:1034200000F09CF800211046FFF72CFA00F01EFD7A
:10343000002807D105494FF080500860BFF34F8F37
:10344000BFF36F8F10BD00001000002004ED00E0FE
:1034500002490A6A0260C968416070471000002092
:1034600001490120C86170471000002010B50C46CA
:1034700050B1094909681831FFF7C8FE2046BDE878
:1034800010400121FFF7FEB9502080F31188BFF3EF
:103490004F8FBFF36F8FFEE71000002070B514460A
:1034A0000D4668B10A4909681831FFF7C7FE0CB12B
:1034B0004FF0FF3521462846BDE87040FFF7E2B9DE
:1034C000502080F31188BFF34F8FBFF36F8FFEE75B
:1034D0001000002030B587B00024039405AA04A989
:1034E00003A80494FFF76EFEDDE903010094CDE923
:1034F0000110002315A11748059A00F09CFB164DFA
:103500000028E8621FD000F013FD012809D0401CFC
:1035100019D1502080F31188BFF34F8FBFF36F8F05
:10352000FEE7502080F31188BFF34F8FBFF36F8FFA
:103530004FF0FF30A86201206861EC6007B0BDE881
:10354000304000F045B807B030BD000049444C455C
:10355000000000001D2B0008100000200248016B35
:10356000491C01637047000010000020164810B588
:10357000016B11B10121C16110BD0021C16101695F
:10358000124A01E0B9B1491E01EB810352F8233020
:10359000002BF7D001EB810302EB830202F1080458
:1035A00053685B685360A34201D15B685360DA687B
:1035B0000260016110BD502080F31188BFF34F8F6E
:1035C000BFF36F8FFEE700001000002028010020ED
:1035D0001CB537480168374A914207D1502080F323
:1035E0001188BFF34F8FBFF36F8FFEE7006831493B
:1035F000491E884207D1502080F31188BFF34F8FB6
:10360000BFF36F8FFEE72C4908780190FF20087008
:1036100008788DF800009DF800009DF8002000F06B
:10362000F000904207D0502080F31188BFF34F8FF5
:10363000BFF36F8FFEE79DF80000204C00F05000B4
:1036400020700720A06005E09DF8002052008DF852
:103650000020401E9DF800201206F5D4A06003282B
:1036600007D0502080F31188BFF34F8FBFF36F8FC7
:10367000FEE74FF44070A060019808700C482030BD
:10368000016841F470010160016841F0704101601E
:10369000FFF746FE00206060FCF7A6FD08480168C1
:1036A00041F040410160FCF78BFD00201CBD000093
:1036B00000ED00E071C20F4100E400E08400002052
:1036C00034EF00E010B5502080F31188BFF34F8F26
:1036D000BFF36F8F00F0EEFA18B104494FF080503D
:1036E0000860002080F3118810BD000004ED00E0A8
:1036F00038B5049D18B153B1CAB181B120E0502052
:1037000080F31188BFF34F8FBFF36F8FFEE7502018
:1037100080F31188BFF34F8FBFF36F8FFEE7502008
:1037200080F31188BFF34F8FBFF36F8FFEE739B17E
:10373000502080F31188BFF34F8FBFF36F8FFEE7E8
:1037400054241C46012384F846302B460094FFF78E
:1037500015FA204638BD000070B50D46040025D08E
:10376000FFF778FDD4E90F20216802FB0011A1606A
:103770000021A163216861600A46D4E90F01401E5F
:1037800000FB0121E16021464FF0FF3001F8440FBA
:10379000487004F110008DB1FFF72AFD04F12400F8
:1037A000FFF726FDFFF776FD012070BD502080F366
:1037B0001188BFF34F8FBFF36F8FFEE72169002998
:1037C000F0D000F01BFB0028ECD004494FF08050F3
:1037D0000860BFF34F8FBFF36F8FE3E704ED00E0A6
:1037E0002DE9FF4782B01D468A464FF000080400CD
:1037F00003D0BAF1000F08D011E0502080F31188F7
:10380000BFF34F8FBFF36F8FFEE7206C38B15020AE
:1038100080F31188BFF34F8FBFF36F8FFEE7022D48
:103820000AD1E06B012807D0502080F31188BFF344
:103830004F8FBFF36F8FFEE700F028FA454F4FF030
:1038400000094FF0805648B9049838B1502080F3F1
:103850001188BFF34F8FBFF36F8FFEE7FFF7FAFCBE
:10386000A06BE16B884207D3022D05D0049838B3D2
:10387000B8F1000F27D02BE0D4F838802A46514603
:103880002046FFF7D4F8A16C41B1022D02D1B8F166
:10389000000F0FD12046FFF72DFA05E0616A19B13C
:1038A00004F1240000F0AAFA20B13E60BFF34F8F6C
:1038B000BFF36F8FFFF7EEFC012006B0BDE8F08785
:1038C000FFF7E8FC22E06846FFF7C2FD4FF0010871
:1038D000FFF7E0FCFFF742FEFFF7BCFC94F9440061
:1038E000401C01D184F8449094F94500401C01D15A
:1038F00084F84590FFF7CEFC04A9684600F034F93F
:1039000030B12046FFF78AFB00F0B0FA0020D4E780
:10391000FFF7A0FCA06BE16B884213D1FFF7BAFC64
:1039200004F110000499FFF7A1FD2046FFF776FB94
:1039300000F09CFA002891D13E60BFF34F8FBFF397
:103940006F8F8BE7FFF7A6FC2046FFF767FB00F0C1
:103950008DFA83E704ED00E02DE9F0471F46164697
:103960008A46040003D0BAF1000F08D011E05020BD
:1039700080F31188BFF34F8FBFF36F8FFEE7206C8A
:1039800038B1502080F31188BFF34F8FBFF36F8F92
:10399000FEE7022F0AD1E06B012807D0502080F308
:1039A0001188BFF34F8FBFF36F8FFEE7FFF7CAFC9D
:1039B0005021EFF3118081F31188BFF34F8FBFF3D4
:1039C0006F8F8046A06BE16B884207D3022F05D032
:1039D0005FF0000088F31188BDE8F08794F9455046
:1039E000D4F838903A4651462046FFF720F8681C34
:1039F00004D06D1C84F845500120EBE7A06C012534
:103A000040B1022F02D1B9F1000FF5D12046FFF7E6
:103A100071F906E0606A0028EED004F1240000F09D
:103A2000EDF90028E8D0002EE6D03560E4E700008C
:103A30002DE9F747002683B08A46040003D0BAF187
:103A4000000F08D011E0502080F31188BFF34F8F92
:103A5000BFF36F8FFEE7206C38B1502080F31188E0
:103A6000BFF34F8FBFF36F8FFEE700F00FF9DFF862
:103A7000F4804FF000094FF0805748B9059838B1ED
:103A8000502080F31188BFF34F8FBFF36F8FFEE795
:103A9000FFF7E0FBA56BC5B151462046FEF7B4FF2A
:103AA0006D1EA563206950B104F1100000F0A6F965
:103AB00028B1C8F80070BFF34F8FBFF36F8FFFF7C7
:103AC000E9FB012006B0BDE8F087059808B11EB1FA
:103AD00006E0FFF7DFFB27E06846FFF7B9FC0126A9
:103AE000FFF7D8FBFFF73AFDFFF7B4FB94F944006A
:103AF000401C01D184F8449094F94500401C01D148
:103B000084F84590FFF7C6FB05A9684600F02CF83D
:103B1000002820460AD0FFF781FA00F0A7F92046D6
:103B2000FFF7DAF80028B3D00020CBE7FFF7D4F88E
:103B300090B104F124000599FFF798FC2046FFF7A7
:103B40006DFA00F093F90028A2D1C8F80070BFF315
:103B50004F8FBFF36F8F9BE72046FFF75FFA00F0B0
:103B600085F995E704ED00E02DE9F0410C460500EC
:103B700011D0C4B1FFF76EFB174BDA686E6820688E
:103B8000911B471C17D02F681B6A9F4219D0964281
:103B900017D8012410E0502080F31188BFF34F8F15
:103BA000BFF36F8FFEE7502080F31188BFF34F8F74
:103BB000BFF36F8FFEE70024FFF76CFB2046BDE8E4
:103BC000F081884205D9401A20602846FFF740FC62
:103BD000F1E700202060DCE7100000202DE9FF5F06
:103BE0008346DDE90E87994616468A469000FFF720
:103BF00051FA05001CD05C20FFF74CFA040014D0E9
:103C00000020256384F85900CDE90240CDE9008702
:103C10004B46324651465846FEF7C4FF2046FEF753
:103C20005FFE012004B0BDE8F09F2846FFF746FB89
:103C30004FF0FF30F6E7F0B585B0DDE90B640A9D83
:103C4000A6B1DCB15C2700972663022684F8596090
:103C5000002604AFCDE90246CDE90057FEF7A2FFEA
:103C60002046FEF73DFE049805B0F0BD502080F3DD
:103C70001188BFF34F8FBFF36F8FFEE7502080F3A3
:103C80001188BFF34F8FBFF36F8FFEE7054841697F
:103C900019B1006B18B10020704701207047022055
:103CA00070470000100000200148C0687047000005
:103CB000100000202DE9F0412E4C0027206B28B188
:103CC000A069401CA0613846BDE8F081E668761C1A
:103CD000E66013D1606B006838B1502080F3118822
:103CE000BFF34F8FBFF36F8FFEE7606BA16B616314
:103CF000A063206A401C2062FFF710F9A06ADFF879
:103D00007880864209D3606B0068A0B1606BC068A0
:103D1000C5686868864211D2A0622068C06A00EB5C
:103D2000800158F82100012800D90127E069002806
:103D3000C9D00127C7E74FF0FF30EDE7281DFFF797
:103D40002DFAA86A18B105F11800FFF727FAE86AFA
:103D50002169884200D9206100EB800108EB8100D5
:103D6000291DFFF76BFAE86A2168C96A8842CAD33D
:103D70000127C8E7100000202801002070B50400CA
:103D80004FF0000133D01B4D2868844207D05020EB
:103D900080F31188BFF34F8FBFF36F8FFEE7206D65
:103DA00038B1401E2065E36CE26A9A421FD040B1F0
:103DB0001DE0502080F31188BFF34F8FBFF36F8F4A
:103DC000FEE7201DFFF7EAF9E06CE062C0F1380081
:103DD000A061E06A2969884200D92861064900EBA0
:103DE000800001EB8000211DFFF728FA0121084621
:103DF00070BD0000100000202801002070B5C068D0
:103E0000C46854B104F118000646FFF7C7F9144D11
:103E1000286B50B13146134815E0502080F31188CB
:103E2000BFF34F8FBFF36F8FFEE7201DFFF7B6F98B
:103E3000E06A2969884200D928610B4900EB8000BB
:103E400001EB8000211DFFF7F9F9E06A2968C96AD2
:103E5000884202D90120E86170BD002070BD0000D9
:103E600010000020B0050020280100202DE9F047B7
:103E70002C4D00242746286B38B1FFF7EBF9286B4F
:103E8000401E2863286B40B146E0502080F3118823
:103E9000BFF34F8FBFF36F8FFEE7A968224E01205B
:103EA000D1B3A6F5916980463068E0B1F068C46886
:103EB00004F11800FFF772F9201DFFF76FF9E06AAF
:103EC0002969884200D9286100EB800109EB810053
:103ED000211DFFF7B3F9E06A2968C96A8842E3D374
:103EE000C5F81C80E0E70CB1FFF718F8AC694CB1DD
:103EF0004FEA0806FFF7DEFE00B1EE61641EF9D15D
:103F00000020A861E86938B108490127380708602E
:103F1000BFF34F8FBFF36F8FFFF7BCF93846BDE893
:103F2000F087000010000020B005002004ED00E044
:103F300010B586B0FEF73CFD114C2068B8B10020EA
:103F40000390049005AA04A903A8FFF745F9DDE949
:103F5000032137208DE8070000230AA10B48059AAA
:103F6000FFF769FE606010B106B0012010BD50205F
:103F700080F31188BFF34F8FBFF36F8FFEE7000010
:103F80004C000020546D722053766300F92F000816
:103F90002DE9FF411E46134602000A9D4FF0000026
:103FA00016D0144C2768002F0FD0CDE900130292D1
:103FB000062917DAFFF76AFE02284FF000030FD038
:103FC000002269462068FFF70BFC04B0BDE8F081D1
:103FD000502080F31188BFF34F8FBFF36F8FFEE740
:103FE0002A46EEE70023324669463846FFF7B4FC1E
:103FF000EBE700004C000020000000000404040077
:10400000000800000008000000000000000001029D
:104010000304060708090000000001020304000071
:104020000000000000000000000000000404040480
:1040300004000004000014140A0000000000000046
:10404000000000000A0A1F0A0A1F0A0A00000004F2
:104050000E1505060C14150E0400000012150D15A2
:104060002E2C2A1200000000040A0A361515291603
:104070000000020201000000000000000000100823
:1040800008040404040408081000020404080808D2
:1040900008080404020000000004150E0E150400B8
:1040A000000000000008083E0808000000000000B2
:1040B0000000000000000202010000000000003FBC
:1040C00000000000000000000000000000000002EE
:1040D0000000002010100808040402020100000083
:1040E0000E1111111111110E00000000040604043C
:1040F0000404040E000000000E1111080402011F48
:10410000000000000E11100C1010110E0000000035
:10411000080C0C0A091F081C000000001F01010FF9
:104120001110110E000000000C12010D1311110EE0
:10413000000000001E100808040404040000000031
:104140000E11110E1111110E000000000E111119A7
:104150001610090600000000000004000000000422
:104160000000000000000004000000040400000043
:1041700010080402020408100000000000003F00C4
:104180003F000000000000000204081010080402B4
:10419000000000000E1111080404000400000000DB
:1041A0001C22292D2D1D221C0000000004040C0AD5
:1041B0000A1E1233000000000F12120E1212120F0C
:1041C000000000001E1101010101110E000000009D
:1041D0000F1212121212120F000000001F120A0E0C
:1041E0000A02121F000000001F120A0E0A02020734
:1041F000000000001C1201013911120C0000000027
:104200003312121E12121233000000001F040404A5
:104210000404041F000000003E08080808080808FD
:104220000907000037120A060A12123700000000C0
:10423000070202020202223F000000003B1B1B1B80
:1042400015151535000000003B1216161A1A121724
:10425000000000000E1111111111110E00000000DC
:104260000F12120E02020207000000000E111111BF
:104270001117190E180000000F12120E0A12123731
:10428000000000001E1101060810110F00000000C0
:104290001F1504040404040E00000000331212125F
:1042A0001212120C000000003312120A0A0C04044D
:1042B00000000000151515150E0A0A0A000000007E
:1042C0001B0A0A04040A0A1B000000001B0A0A0A4F
:1042D0000404040E000000001F0908040402121F59
:1042E00000001C0404040404040404041C00000270
:1042F000020404040808081010000E080808080842
:10430000080808080E00040A000000000000000071
:10431000000000000000000000000000003F020458
:104320000000000000000000000000000000000C81
:10433000121C123C000000030202020E1212120EA6
:10434000000000000000001C1202120C0000001807
:104350001010101C1212123C000000000000000C93
:10436000121E021C000000182404041E0404041E73
:10437000000000000000003C120C021C221C000384
:104380000202020E1212123700000004040000069E
:104390000404040E000000080800000C08080808C7
:1043A000080700030202021A0A060A1300000007A7
:1043B000040404040404041F000000000000000FB3
:1043C00015151515000000000000000F121212371D
:1043D000000000000000000C1212120C000000008F
:1043E0000000000F1212120E020700000000001C55
:1043F0001212121C103800000000001B06020207F7
:10440000000000000000001E020C101E0000000052
:104410000004041E0404041C000000000000001B33
:104420001212123C000000000000001B0A0A0404E3
:104430000000000000000015150E0A0A0000000030
:104440000000001B0A040A1B0000000000000033EB
:1044500012120C08040300000000001E0804041ED1
:10446000000018080808080C0808080818000808C0
:1044700008080808080808080808060404040408CE
:1044800004040404060016090000000000000000F7
:10449000000000000000000000000000000000001C
:1044A00000000000000808080808080800001818A4
:1044B000000000486C241200000000000000000012
:1044C00000000000002424247F1212127F12121216
:1044D00000000000081C2A2A0A0C1828282A2A1C76
:1044E000080800000022251515152A585454542296
:1044F00000000000000C1212120A76252911916E9C
:104500000000000606040300000000000000000098
:1045100000000040201010080808080808101020AB
:1045200040000002040808101010101010080804C1
:1045300002000000000008086B1C1C6B080800004B
:10454000000000000000080808087F0808080800AC
:10455000000000000000000000000000000006064F
:1045600004030000000000000000FE000000000046
:10457000000000000000000000000000000006062F
:1045800000000000804040202010100808040402B1
:1045900002000000001824424242424242422418D3
:1045A0000000000000080E08080808080808083E77
:1045B00000000000003C4242422020100804427EDD
:1045C00000000000003C4242201820404042221CD3
:1045D0000000000000203028242422227E202078A1
:1045E00000000000007E0202021A26404042221C07
:1045F0000000000000382402021A26424242241819
:1046000000000000007E2222101008080808080898
:1046100000000000003C4242422418244242423C36
:104620000000000000182442424264584040241C0C
:10463000000000000000000018180000000018181A
:10464000000000000000000000080000000000085A
:104650000804000000402010080402040810204054
:1046600000000000000000007F0000007F0000004C
:10467000000000000002040810204020100804027E
:1046800000000000003C4242464020101000181874
:1046900000000000001C225A555555552D42221C81
:1046A00000000000000808181414243C224242E7CD
:1046B00000000000001F2222221E22424242221F2E
:1046C00000000000007C4242010101010142221C65
:1046D00000000000001F2242424242424242221F8A
:1046E00000000000003F4212121E12120242423F1E
:1046F00000000000003F4212121E121202020207C6
:1047000000000000003C2222010101712122221C34
:104710000000000000E7424242427E42424242E73D
:1047200000000000003E0808080808080808083EC5
:1047300000000000007C101010101010101010105D
:10474000110F0000007722120A0E0A12122222779D
:104750000000000000070202020202020202427F81
:10476000000000000077363636362A2A2A2A2A6BBD
:104770000000000000E346464A4A52525262624735
:1047800000000000001C2241414141414141221CE6
:1047900000000000003F424242423E020202020785
:1047A00000000000001C2241414141414D53321C98
:1047B00060000000003F4242423E1212222242C7E5
:1047C00000000000007C4242020418204042423EA9
:1047D00000000000007F4908080808080808081CB5
:1047E0000000000000E74242424242424242423C54
:1047F0000000000000E74242222424141418080894
:1048000000000000006B49494949555536222222D3
:104810000000000000E7422424181818242442E76E
:104820000000000000772222141408080808081C61
:1048300000000000007E2120101008040442423FC6
:104840000000007808080808080808080808080890
:10485000780000000202040408080810102020203C
:104860004040001E101010101010101010101010EA
:104870001E0000384400000000000000000000009E
:104880000000000000000000000000000000000028
:1048900000FF00060800000000000000000000000B
:1048A0000000000000000000003C4278444242FC4E
:1048B0000000000000030202021A26424242261AA9
:1048C00000000000000000000038440202024438EA
:1048D000000000000060404040784442424264D8FA
:1048E0000000000000000000003C427E0202423C4A
:1048F0000000000000F08808087E08080808083E4C
:104900000000000000000000007C22221C023C424B
:10491000423C000000030202023A4642424242E7A1
:1049200000000000000C0C00000E08080808083EFB
:10493000000000000030300000382020202020201F
:10494000221E0000000302020272120A16122277CF
:1049500000000000000E0808080808080808083EC3
:104960000000000000000000007F9292929292B737
:104970000000000000000000003B4642424242E7C7
:104980000000000000000000003C42424242423C65
:104990000000000000000000001B26424242221ED0
:1049A00002070000000000000078444242424478C0
:1049B00040E000000000000000774C040404041FE5
:1049C0000000000000000000007C42023C40423E2B
:1049D0000000000000000008083E08080808083031
:1049E000000000000000000000634242424262DC1E
:1049F000000000000000000000E742242414080822
:104A0000000000000000000000EB4949555522223B
:104A10000000000000000000007624181818246E22
:104A2000000000000000000000E7422424141808E1
:104A30000807000000000000007E22100808447EE5
:104A4000000000C020202020201020202020202036
:104A5000C0001010101010101010101010101010B6
:104A600010100006080808080810080808080808B8
:104A700006000C32C2000000000000000000000030
:104A80000000000000000000000000000000000026
:104A90000000000000000000000000000000000016
:104AA0000000000000000000000000000000000006
:104AB00000000000000000000000600060006000D6
:104AC00060006000600060004000200020002000C6
:104AD00000000000000060006000600000000000B6
:104AE00000000000000060066006300398018800A6
:104AF0004400000000000000000000000000000072
:104B000000000000000000000000000000000000A5
:104B1000000000000000000000001002100210025F
:104B20001002FE07FE07080208010801080108013B
:104B3000FE07FE0704010401040104010000000057
:104B4000000000000000000040004000F001580399
:104B50004C03CC034C0058007000E000C001C001C1
:104B600040034C035C034C034801F000400040004C
:104B7000000000000000000000000E010A0191008A
:104B800091009100510051003A00AE03A002500480
:104B900050044804480448048402840300000000D0
:104BA0000000000000000000000038006C006C00F5
:104BB0006C006C006C002C0098071C011A0133017A
:104BC00033016301E300C308C6093C07000000008D
:104BD0000000000000000C001C0010001000080085
:104BE00004000000000000000000000000000000C1
:104BF00000000000000000000000000000000000B5
:104C0000000000000000000400020001800080009D
:104C10004000400020002000200020002000200054
:104C200020004000400080008000000100020004DD
:104C30000000000000000200040008001000100046
:104C400020002000400040004000400040004000A4
:104C500040002000200010001000080004000200A6
:104C60000000000000000000000000000000400004
:104C7000C0004000460C4E0FD001F0015E0F460C04
:104C80004000400040000000000000000000000064
:104C90000000000000000000000000000000000014
:104CA00040004000400040004000FE0F4000400037
:104CB0004000400040000000000000000000000034
:104CC00000000000000000000000000000000000E4
:104CD00000000000000000000000000000000000D4
:104CE0000000000000000C001C0010001000080074
:104CF00004000000000000000000000000000000B0
:104D000000000000000000000000FE07000000009E
:104D10000000000000000000000000000000000093
:104D20000000000000000000000000000000000083
:104D30000000000000000000000000000000000073
:104D40000000000000001C001C001C00000000000F
:104D50000000000000000004000600020003000143
:104D60000001800080004000400060002000200022
:104D700010001000080008000C00040006000200EB
:104D8000000000000000000000000000F00098019A
:104D90000C030C03060606060606060606060606AD
:104DA000060606060C030C039801F0000000000044
:104DB00000000000000000000000000040007C0037
:104DC00060006000600060006000600060006000E3
:104DD00060006000600060006000FC0300000000F4
:104DE000000000000000000000000000F800840146
:104DF000020306030603000300018001C0006000F7
:104E000020001000080204020602FE030000000059
:104E10000000000000000000000000007800C60054
:104E20008601860180018001C000700080010001C0
:104E300000030003060306038601F80000000000DB
:104E40000000000000000000000000008001800160
:104E5000C001A001A00190018801880184018201A4
:104E6000FE0F8001800180018001E007000000004A
:104E7000000000000000000000000000FC0304002F
:104E80000400040004000400F4008C010403000387
:104E900000030603060382018401F80000000000FD
:104EA000000000000000000000000000E001180306
:104EB0000C030C0004000600E60116030E060606AD
:104EC0000606060604060C021803F00000000000A7
:104ED000000000000000000000000000F8070C06C1
:104EE0000402040100010001800080004000400035
:104EF0004000600060006000600060000000000092
:104F0000000000000000000000000000F8010C0399
:104F10000606060606060C021C03F000C8010C0378
:104F200006060606060606060C03F0010000000051
:104F3000000000000000000000000000F0000C0174
:104F40000C03060206060606060606078C06780609
:104F50000006000300030C018C0178000000000033
:104F60000000000000000000000000000000000041
:104F7000000000000000E000E000E0000000000091
:104F8000000000000000E000E000E0000000000081
:104F90000000000000000000000000000000000011
:104FA0000000000000006000600000000000000041
:104FB00000000000000000006000600040002000D1
:104FC00020000000000000000000000400020001BA
:104FD00080004000200010000800040008001000BD
:104FE00020004000800000010002000400000000DA
:104FF00000000000000000000000000000000000B1
:10500000000000000000FE07000000000000FE0796
:105010000000000000000000000000000000000090
:105020000000000000000000000004000800100064
:105030002000400080000001000200040002000186
:105040008000400020001000080004000000000064
:10505000000000000000000000000000E00318064F
:10506000040C040C0C0C0C0C0007800140004000E8
:10507000400000000000E000E000E0000000000050
:1050800000000000000000000000E00018030C0217
:10509000CC0564056605A605B604B604B604B604D8
:1050A000B602E4010C040C021803F000000000003A
:1050B0000000000000000000000000006000600030
:1050C0005000D00090009000880088010801F8018D
:1050D000040304030402020202060F0F0000000092
:1050E000000000000000000000000000FE008C0333
:1050F0000C030C030C030C038C01FC000C030C02CE
:105100000C060C060C060C060C03FE010000000049
:10511000000000000000000000000000E003180391
:105120000C060C0404040600060006000600060037
:10513000060006040C040C021803F0000000000036
:105140000000000000000000000000007F008C0153
:105150000C030C030C060C060C060C060C060C06C5
:105160000C060C060C030C038C017F0000000000F1
:10517000000000000000000000000000FF03060324
:1051800006040604060086008600FE0086008600EF
:1051900086000600060406040602FF030000000065
:1051A000000000000000000000000000FF030603F4
:1051B00006040604060086008600FE0086008600BF
:1051C000860006000600060006001F000000000022
:1051D000000000000000000000000000F0001801C6
:1051E0000C020C0204020600060006000600C60FB0
:1051F000060306030C030C031803F0000000000074
:105200000000000000000000000000000F0F060674
:1052100006060606060606060606FE070606060635
:10522000060606060606060606060F0F0000000024
:10523000000000000000000000000000FC0360000F
:10524000600060006000600060006000600060005E
:1052500060006000600060006000FC03000000006F
:10526000000000000000000000000000F807C0007F
:10527000C000C000C000C000C000C000C000C0002E
:10528000C000C000C000C000C000C000C600660072
:105290003C0000000000000000000000CF03860179
:1052A000C60046002600160036002E006E0046009E
:1052B000C60086008601060106038F070000000075
:1052C0000000000000000000000000001F000600B9
:1052D000060006000600060006000600060006009E
:1052E00006000600060406040602FF030000000094
:1052F0000000000000000000000000000707860317
:1053000086038E038E034E034E034A035A035A0349
:105310003A0332033203320312038707000000000E
:105320000000000000000000000000008E0F0C02D2
:105330001C021C0234023402640264024402C402ED
:10534000840284038403040304031F02000000009A
:10535000000000000000000000000000F0009801C4
:105360000C030C02060606060606060606060606D8
:10537000060606060C020C039801F000000000006F
:10538000000000000000000000000000FF00060315
:10539000060606060606060606068603FE00060044
:1053A000060006000600060006001F0000000000C0
:1053B000000000000000000000000000F000980164
:1053C0000C030C0206060606060606060606060678
:1053D000060676064C02CC039801F0008007000315
:1053E000000000000000000000000000FF010603B4
:1053F00006060606060606060603FE004600C6006A
:10540000860086010603060306060F0E0000000054
:10541000000000000000000000000000F8020C0383
:105420000602060206000E003C00F800E0038003BE
:1054300000070206020606060C03F0010000000049
:10544000000000000000000000000000FE076204F1
:10545000610861086000600060006000600060003A
:1054600060006000600060006000F8010000000063
:105470000000000000000000000000001E070C02F9
:105480000C020C020C020C020C020C020C020C02AC
:105490000C020C020C020C021801F00000000000CB
:1054A0000000000000000000000000000F070602DE
:1054B000040104010C010C01880088009800980088
:1054C000500050007000300020002000000000005C
:1054D000000000000000000000000000F70E620461
:1054E00042044604460464026402E402E4029C02AC
:1054F0009C01980198018801880088000000000044
:105500000000000000000000000000009E070C01E9
:10551000080118019000B0006000200060006000E9
:10552000D00090008801080104038E0700000000ED
:105530000000000000000000000000000F0F060443
:1055400004020C0208011801B800B00070006000ED
:1055500060006000600060006000F8010000000072
:10556000000000000000000000000000FC070C022A
:10557000060302018001800040004000200020005E
:105580001000180008040C040402FE0300000000D0
:10559000000000000000E0032000200020002000A8
:1055A00020002000200020002000200020002000FB
:1055B0002000200020002000200020002000E00328
:1055C00000000000000000000000040004000800CB
:1055D00008001000100010002000200040004000D3
:1055E000C0008000800000010001000200020002F3
:1055F0000004000000007C0040004000400040002B
:10560000400040004000400040004000400040009A
:1056100040004000400040004000400040007C004E
:105620000000000060009000080100000000000081
:10563000000000000000000000000000000000006A
:10564000000000000000000000000000000000005A
:10565000000000000000000000000000000000004A
:10566000000000000000000000000000000000003A
:10567000000000000000000000000000000000002A
:10568000FF0F000000001800600000000000000094
:10569000000000000000000000000000000000000A
:1056A00000000000000000000000000000000000FA
:1056B00000000000000000000000000000000000EA
:1056C000000000000000F0010C030C030003E003E5
:1056D0001C030E03060306038E0B7C0E0000000065
:1056E0000000000000000000000008000E000C0098
:1056F0000C000C000C00CC013C031C060C060C0634
:105700000C060C060C060C021C03E4010000000051
:105710000000000000000000000000000000000089
:10572000000000000000F0008C018C0186010600E2
:105730000600060006020C020C01F000000000004A
:10574000000000000000000000000002C003000391
:1057500000030003000378038C030C030603060315
:1057600006030603060304038C077801000000000B
:105770000000000000000000000000000000000029
:10578000000000000000E001180308020C060C06EF
:10579000FC070C000C0018041802E00100000000D7
:1057A000000000000000000000000000C0036006D0
:1057B000300630003000FE01300030003000300094
:1057C00030003000300030003000FC0100000000EC
:1057D00000000000000000000000000000000000C9
:1057E000000000000000F007D8068C018C018C013D
:1057F0009801F8000C00FC00CC03060306038E039E
:10580000F800000000000000000008000E000C007E
:105810000C000C000C00EC011C030C030C030C032B
:105820000C030C030C030C030C039E070000000088
:1058300000000000000000000000000060006000A8
:105840000000000040007C0060006000600060001C
:1058500060006000600060006000FC030000000069
:10586000000000000000000000000000C001C001B6
:10587000000000000001F001800180018001800132
:105880008001800180018001800180018001CC00C5
:105890007C00000000000000000008000E000C006A
:1058A0000C000C000C008C038C008C004C006C0075
:1058B0005C008C008C010C010C039E0700000000B2
:1058C0000000000000000000000040007C006000BC
:1058D00060006000600060006000600060006000C8
:1058E00060006000600060006000FC0300000000D9
:1058F00000000000000000000000000000000000A8
:105900000000000000003707EE0666066606660621
:1059100066066606660666066606FF0F000000005D
:105920000000000000000000000000000000000077
:10593000000000000000EE011C030C030C030C032C
:105940000C030C030C030C030C039E070000000067
:105950000000000000000000000000000000000047
:10596000000000000000F00098010C030606060687
:105970000606060606060C030C03F00000000000F5
:105980000000000000000000000000000000000017
:10599000000000000000EE011C030C060C060C06C3
:1059A0000C060C060C060C031C03EC010C000C008E
:1059B0003E000000000000000000000000000000A9
:1059C00000000000000078028C030C0306030603AD
:1059D00006030603060304038C0378030003000395
:1059E000C0070000000000000000000000000000F0
:1059F0000000000000009F03580638061800180039
:105A000018001800180018001800FF00000000001F
:105A10000000000000000000000000000000000086
:105A2000000000000000F0031C030C020C02380010
:105A3000F000C003040304038C03FC010000000019
:105A40000000000000000000000000000000200036
:105A5000200030003000FE01300030003000300007
:105A600030003000300030023002E0010000000061
:105A70000000000000000000000000000000000026
:105A80000000000008028E030C030C030C030C033F
:105A90000C030C030C030C039C07780100000000AE
:105AA00000000000000000000000000000000000F6
:105AB0000000000000001E070C0208010801180188
:105AC0009000B000B0006000600020000000000006
:105AD00000000000000000000000000000000000C6
