:020000040800F2
:10000000780900205D0200082D1C00087B0D000807
:10001000111C0008E5070008F92100080000000095
:100020000000000000000000000000009D0100082A
:10003000AD08000800000000F90100088D1F00084D
:1000400077020008770200087702000877020008AC
:10005000770200087702000877020008770200089C
:10006000770200087702000877020008770200088C
:10007000770200087702000877020008770200087C
:10008000770200087702000877020008770200086C
:10009000770200087702000877020008770200085C
:1000A000770200087702000877020008770200084C
:1000B00077020008770200088D2000087702000808
:1000C000770200087702000877020008770200082C
:1000D000770200087702000877020008770200081C
:1000E000770200087702000877020008770200080C
:1000F00077020008770200087702000877020008FC
:1001000077020008770200087702000877020008EB
:10011000770200087702000899200008DD20000817
:1001200077020008770200087702000877020008CB
:1001300077020008770200087702000877020008BB
:1001400077020008770200087702000877020008AB
:10015000770200087702000877020008770200089B
:10016000770200087702000877020008770200088B
:1001700077020008770200087702000800000000FC
:100180007702000877020008DFF80CD000F018FBB7
:10019000004800479D2B0008780900202C4B196867
:1001A0000868B0E8F04F80F30988BFF36F8F4FF015
:1001B000000080F3118870470000000008480068C4
:1001C000006880F308884FF0000080F3148862B65E
:1001D00061B6BFF34F8FBFF36F8F00DF00BF00BF6B
:1001E00008ED00E0DFF80C00016841F470010160E7
:1001F000704700BF88ED00E0EFF30980BFF36F8F19
:10020000134B1A681EF0100F08BF20ED108A20E96A
:10021000F04F106009B44FF0500080F31188BFF325
:100220004F8FBFF36F8F02F055FD4FF0000080F34A
:10023000118809BC19680868B0E8F04F1EF0100F6B
:1002400008BFB0EC108A80F30988BFF36F8F704746
:1002500010000020EFF3058070470000064880473B
:1002600006480047FEE7FEE7FEE7FEE7FEE7FEE79B
:10027000FEE7FEE7FEE7FEE77D20000889010008B3
:100280002DE9F05F0546002092469B4688460646CB
:10029000814640241BE0284641464746224600F05E
:1002A000F8F953465A46C01A914110D311461846E0
:1002B000224600F0DFF92D1A67EB01084F4622466F
:1002C0000120002100F0D6F917EB00094E41201E55
:1002D000A4F10104DFDC484631462A464346BDE826
:1002E000F09FD2B201E000F8012B491EFBD270470B
:1002F0000022F6E710B513460A4604461946FFF7F2
:10030000F0FF204610BD2DE9FE4F804681EA030034
:10031000C00F0C46009021F0004123F00045B8EBDF
:100320000200A94105D24046214690461C460B4694
:10033000024623F00040104347D0270DC7F30A00C0
:10034000C3F30A510290401A019040286BDAC3F3BC
:10035000130040F4801B0098924620B10023D2EB9A
:10036000030A63EB0B0B01985946C0F1400250465B
:1003700000F080F906460D4650465946019A00F0B5
:1003800098F910EB08006141002487EA115284EAD1
:10039000E7731A4340D0009A62B3019A012A4FEAE8
:1003A000075215DC001B61EB02014FF0004202EA2C
:1003B0000752CDE90042001C41F5801132462B4620
:1003C00000F098F903B0BDE8F08F40462146F9E708
:1003D000001B61EB0201001C41F5801300185B411A
:1003E0002018A2F5001747EB030140EAD570B619B3
:1003F0006D4111E06D084FEA360645EAC0754FEAD7
:100400000752001B61EB0201001C41F580114908F5
:100410004FEA30000019514132462B4603B0BDE887
:10042000F04F00F058B90098012240000023D0EBB3
:10043000020263EBE073009821464FEAE074B8EBE8
:10044000000061EB0401E9E783F000435BE781F022
:10045000004158E72DE9FE4F81EA030404F000440F
:1004600021F0004100944FF0000B23F0004350EACC
:1004700001045ED052EA03045BD0C3F30A54C1F313
:100480000A552C44A4F2F3340194A0FB0254C1F3A6
:10049000130141F48011C3F3130343F4801301FBF0
:1004A000024400FB034E840A970A44EA815447EA57
:1004B0008357A4FB076802958D0A05FB07854FEA61
:1004C000932C04FB0C542705029D4FEA065847EA7B
:1004D0001637B5EB08056EEB070C870E920E47EA50
:1004E000811742EA8312A7FB0201B6EB0B0164EB12
:1004F00000042B0D43EA0C335E1844EB1C50DA4623
:100500005146E7FB0201C5F313044FEA0B3343EAFC
:1005100014534FEA0432019C43EA0603A4F10C048D
:100520000294009CCDE900B400F0E4F803B0BDE80B
:10053000F08F00200146F9E72DE9F04D81EA030430
:1005400004F0004B21F0004514464FF0000A23F060
:10055000004150EA050220D054EA01021DD0C5F343
:100560000A570246C5F31303C1F31300C1F30A5639
:1005700040F4801543F48013A7EB0608101BD64601
:1005800008F2FD3873EB050002D308F1010801E021
:1005900092185B41B8F1000F03DA00200146BDE874
:1005A000F08D00204FF48011064684460EE0171BA4
:1005B00073EB050705D3121B63EB050306434CEAF7
:1005C000010C49084FEA300092185B4150EA0107DC
:1005D000EDD152EA030012D082EA040083EA050159
:1005E000084305D0101BAB4106D20122002306E0D0
:1005F00000224FF0004302E06FF0010253101AEBAB
:1006000006004CEB085110EB0A0041EB0B01BDE872
:10061000F04D00F060B8000030B5041E71F1000428
:1006200004DB4FF00044404264EB0101141E73F1FF
:10063000000405DB1C464FF00043524263EB040309
:10064000994208BF904230BD30B50B4601460020AC
:100650002022012409E021FA02F59D4205D303FA84
:1006600002F5491B04FA02F52844151EA2F1010205
:10067000F1DC30BD202A04DB203A00FA02F1002030
:1006800070479140C2F1200320FA03F319439040D0
:100690007047202A04DB203A21FA02F0002170473B
:1006A00021FA02F3D040C2F12002914008431946DA
:1006B0007047202A06DBCB17203A41FA02F043EAC2
:1006C000E07306E041FA02F3D040C2F1200291400B
:1006D00008431946704710B5141E73F1000408DA78
:1006E000401C41F1000192185B411A4301D120F0F6
:1006F000010010BD2DE9F04D92469B4611B1B1FAB3
:1007000081F202E0B0FA80F220329046FFF7B2FFA9
:1007100004460F4640EA0A0041EA0B0153465A4696
:10072000084313D0114653EA010019D0C8F1400222
:100730005046FFF7AEFF05460E4650465946424624
:10074000FFF798FF084305D0012004E02046394612
:10075000BDE8F08D0020054346EAE0762C433743A0
:100760000A986305E40AA0EB08000022FD0A44EAA7
:1007700047540A3002D500200146E9E70105101967
:100780006941DDE9084500196941BDE8F04DA2E77E
:10079000C1F30A52C1F3130140F2FF3341F4801157
:1007A0009A4202DA00200146704740F233439A42EF
:1007B000A2F2334202DC5242FFF76BBFFFF75ABF8F
:1007C000064C074D06E0E06840F0010394E807009E
:1007D00098471034AC42F6D3FFF7DAFC8C67000878
:1007E000AC670008FEE7000030B587B01821684606
:1007F000FFF77EFD0E48016841F0020101600068CC
:10080000002100F002004FF48074069003910094E0
:1008100001200221CDE90101064D049069462846D8
:1008200000F0C8FEAC61044800F0A8FA07B030BD83
:100830003038024000040240540000201CB501A8DA
:1008400000900423032215210E4800F09FFB9DF821
:1008500004109DF8050001F00F0140EA01229DF807
:1008600007009DF80630074903F00F030F3040EAF8
:1008700003200839A0F21710C2F1EF024042C1E98B
:1008800000201CBD5400002070B5074C4FF480754B
:100890002804A0610A2000F00BF8A561BDE87040B3
:1008A000642000F005B8000000040240704700001A
:1008B00070B5044600F00EF80546601C02D00448EE
:1008C0000078044400F006F8401BA042FAD370BD43
:1008D00000000020014880687047000000000020F0
:1008E000024881680278114481607047000000204E
:1008F0000B4810B5016841F400710160016841F4D2
:1009000080610160016841F480710160032000F0A2
:100910009FF80F2000F006F800F050F8002010BDFE
:10092000003C024030B505461F4887B000240168EE
:1009300041F004010160006806A900F00400009085
:1009400001A800F097F80498A8B100F0B3F84000AF
:100950001649174AB0FBF1F11648491E026040F2F1
:10096000E732C0E90324C0E90114846100F0B4F85F
:10097000040003D015E000F09DF8E9E70D4800F011
:1009800015F904000DD11E2000F034F8102D07D207
:10099000002229461E2000F03BF80748056000E0D1
:1009A000012407B0204630BD4038024040420F00CD
:1009B0000008004068000020040000200C4882B0BD
:1009C000016841F480410160006800F480400090BB
:1009D0000748001F016841F0805101600068002253
:1009E00000F0805000900F21901E02B000F010B86F
:1009F00044380240002809DB00F01F020121914029
:100A00004009800000F1E020C0F8001170470000AC
:100A1000F0B40E4B1B680C46C3F30223C3F1070569
:100A2000042D00D90425191D072901D2002300E057
:100A3000DB1E012606FA05F1491E214099409E4021
:100A4000761E16403143F0BC01F0E8BB0CED00E02F
:100A5000064900F0070208684FF6FF03184040EA15
:100A60000220034A10430860704700000CED00E0CC
:100A70000000FA050F2202600C4A136803F003031A
:100A80004360136803F0F0038360136803F4E053DA
:100A9000C36012684FF4E05303EAD20202610448D3
:100AA000006800F007000860704700000838024046
:100AB000003C02400448054900680968044AC1F343
:100AC0008221515CC84070470C0000200838024069
:100AD000662E00087047704710B5040003D094F8E4
:100AE0003D0010B107E0012010BD002084F83C005B
:100AF000204600F01EF8022084F83D00211D2068E9
:100B000001F00EFB012084F8460084F83E0084F8D2
:100B10003F0084F8400084F8410084F8420084F8E3
:100B2000430084F8440084F8450084F83D00002028
:100B300010BD704790F83D10012901D00120704789
:100B4000022180F83D1000681149884214D0B0F1AC
:100B5000804F11D00F4988420ED00F4988420BD0E8
:100B60000E49884208D00E49884205D00D49884276
:100B700002D00D49884204D1816801F0070106299D
:100B800003D0016841F001010160002070470000BE
:100B9000000001400004004000080040000C00403C
:100BA00000040140004001400018004090F83D1052
:100BB000012901D001207047022180F83D10016811
:100BC000CA6842F00102CA6000681149884214D024
:100BD000B0F1804F11D00F4988420ED00E498842A3
:100BE0000BD00E49884208D00D49884205D00D49E6
:100BF000884202D00C49884204D1816801F0070183
:100C0000062903D0016841F001010160002070470E
:100C1000000001400004004000080040000C0040BB
:100C200000040140004001400018004070472DE9D9
:100C3000F04104460068C66805694FF00007A9073F
:100C400013D5B10711D5F91E016101202077206865
:100C500080698007204602D0FFF7E8FF04E000F03B
:100C60007EF8204600F07CF82777680716D57007D5
:100C700014D521686FF004000861022020772068F5
:100C8000806910F4407F204602D0FFF7CFFF04E0D8
:100C900000F065F8204600F063F82777280715D59F
:100CA000300713D521686FF0080008610420207711
:100CB0002068C0698007204602D0FFF7B7FF04E034
:100CC00000F04DF8204600F04BF82777E80616D5DF
:100CD000F00614D521686FF0100008610820207715
:100CE0002068C06910F4407F204602D0FFF79EFFC5
:100CF00004E000F034F8204600F032F82777E807E7
:100D000008D0F00706D021686FF001000861204686
:100D100000F028F8280608D5300606D521686FF0BF
:100D2000800008612046FFF7D5FE680608D57006EA
:100D300006D521686FF040000861204600F01CF8DD
:100D4000A8060AD5B00608D521686FF02000086112
:100D50002046BDE8F041FFF7BEBEBDE8F081704718
:100D60007047000000680349884201D1FFF7B8BD11
:100D700070470000000800407047FEE710B586B0DD
:100D8000044618216846FFF7B3FA20890121CDE90E
:100D900000010020CDE9030102200290694620688D
:100DA00000F008FC608900906946606800F002FC71
:100DB00006B010BD70B506460824002501F029F8DC
:100DC00013E06806050E0021304601F011F80220FC
:100DD00001F0C2FE0121304601F00AF8012001F0C5
:100DE000BBFE304601F00CF80543641EE4B2E8D2C5
:100DF0000021304600F0FCFF304601F027F828467D
:100E000070BD10B50446002101F018F8012001F072
:100E1000A3FE0121204600F0EBFF012001F09CFE23
:100E20000021204600F0E4FFBDE81040012001F061
:100E300093BE000070B50C460646082519E000BFB9
:100E400000F0D6FF022001F087FE04F0800130465A
:100E500000F0F4FF012001F07FFE6006040E012087
:100E600001F07AFE0121304600F0C2FF012001F0BE
:100E700073FE6D1EEDB24FF000013046E0D200F07F
:100E8000B7FFBDE87040022001F066BE10B5044611
:100E9000012100F0D3FF012001F05EFE0121204678
:100EA00000F0A6FF012001F057FE0021204600F0CF
:100EB0009FFFBDE81040022001F04EBE10B5044671
:100EC000012100F0BBFF022001F046FE0121204677
:100ED00000F08EFF012001F03FFE0021204600F0CF
:100EE000ADFF012001F038FE0021204600F080FF18
:100EF000BDE81040012001F02FBE10B504460021CE
:100F000000F076FF022001F027FE0021204600F0CD
:100F100095FF012001F020FE0121204600F068FF2E
:100F2000012001F019FE0121204600F087FFBDE8F5
:100F30001040012001F010BE70B50546052400F0F8
:100F400068FF0121284600F053FF05E0641EA4B2AB
:100F5000012001F001FE84B1284600F051FF002875
:100F6000F4D1284600F072FF0021284600F040FF2F
:100F7000022001F0F1FD002070BD284600F066FF60
:100F80002846FFF7BAFF012070BD00002DE9F041AF
:100F90001D4617460C468046069EFFF78FFF6006EB
:100FA000010E4046FFF746FF4046FFF7C5FF28B158
:100FB0004046FFF7A2FF0120BDE8F08139464046D8
:100FC000FFF738FF4046FFF7B7FF4046FFF776FFD1
:100FD000012000EB4400C1B24046FFF72BFF404622
:100FE000FFF7AAFF00246F1E0AE000BFFFF7E2FE32
:100FF0003055BC4202DA4046FFF703FF641CE4B2FE
:10100000AC424046F2D3FFF741FF4046FFF775FF81
:101010000020D1E730B587B018216846FFF768F99E
:10102000012000F0BBFA01240025CDE90045694606
:101030000848049400F0BEFA082000F0AFFAAA2095
:10104000CDE9000569460494034800F0B3FA07B0FF
:1010500030BD000000000240000C02402DE9F041CC
:1010600004461D4616460F462A2000F055FA204633
:1010700000F044FA304600F041FA2B2000F04CFA20
:10108000384600F03BFA284600F038FABDE8F04157
:101090002C2000F041BA10B514460B460246FFF76B
:1010A000DDFF2046BDE8104000F028BA2DE9F047EA
:1010B00080461F4603F1130083B21646501E82B2CB
:1010C0000C4601F1140081B24046DDF82090FFF794
:1010D000C5FF0AE0454604E0484600F00FFA6D1CE3
:1010E000ADB2B542F8D3641CA4B2BC42F2D3BDE8A1
:1010F000F08700002DE9F04188B018216846FFF71D
:10110000F7F81F48016841F01001016000681D4CAC
:1011100000F0100006904FF48020A0614FF004080A
:1011200001AA012503260027CDF8008082E8E0000F
:101130006946204600F03EFAC4F81880E804A06131
:101140004FF0080801AACDF8008082E8E000694667
:10115000204600F02FFAC4F818802805A0614FF04F
:10116000100801AACDF8008082E8E0006946204618
:1011700000F020FAC4F8188008B0BDE8F081000043
:10118000303802400010024010B500F075FE00F04B
:101190004FFDFFF7AFFF642001F0D0FC654C10213C
:1011A000204600F036FD0421204600F032FD642088
:1011B00001F0C4FC0421204600F032FD642001F05F
:1011C000BDFC112000F0A8F9782001F0B7FC362012
:1011D00000F0A2F9C02000F0C5FE3A2000F09CF912
:1011E000052000F0BFFEB22000F096F90C2000F0C0
:1011F000B9FE0C2000F0B6FE002000F0B3FE332054
:1012000000F0B0FE332000F0ADFEB72000F084F90E
:10121000352000F0A7FEBB2000F07EF9192000F079
:10122000A1FEC02000F078F92C2000F09BFEC22027
:1012300000F072F9012000F095FEC32000F06CF977
:10124000122000F08FFEC42000F066F9202000F08C
:1012500089FEC62000F060F90F2000F083FED02048
:1012600000F05AF9A42000F07DFEA12000F07AFEE3
:10127000E02000F051F9D02000F074FE042000F0CE
:1012800071FE0D2000F06EFE112000F06BFE1320A9
:1012900000F068FE2B2000F065FE3F2000F062FEAB
:1012A000542000F05FFE4C2000F05CFE182000F09F
:1012B00059FE0D2000F056FE0B2000F053FE1F20BB
:1012C00000F050FE232000F04DFEE12000F024F954
:1012D000D02000F047FE042000F044FE0C2000F077
:1012E00041FE112000F03EFE132000F03BFE2C20BA
:1012F00000F038FE3F2000F035FE442000F032FEC2
:10130000512000F02FFE2F2000F02CFE1F2000F0B7
:1013100029FE1F2000F026FE202000F023FE2320BF
:1013200000F020FE212000F0F7F8BDE81040292051
:1013300000F0F2B8001002402DE9FF4F81B00446E2
:10134000DDF83C9000904FEA59074FF0000878070D
:1013500000D0012000EBD70000FB09FB203AD0B2FF
:101360000390029802994844401E83B2E019401E3F
:1013700082B22046FFF772FE002553E0B9F10C0F50
:101380002AD0B9F1100F2ED0B9F1180F2ED0B9F123
:10139000200F49D12749039801EB8010002610F84F
:1013A00005A0109800284FF0010000FA06F000EAAE
:1013B0000A0022D020B12046049A0299FFF76BFE62
:1013C000641C0098A4B2201AB84225D10298009C4F
:1013D000401C80B2029023E00398174900EB4000C4
:1013E00001EB8000DAE71549039803E003981449FC
:1013F00000EB400001EB0010D0E708B1049800E0DA
:101400000E9800F07BF808F10100C0B2B0FBF7F1D4
:10141000804607FB118050B1761CF6B2082EC0D36F
:101420006D1CADB25D45A9D305B0BDE8F08F4FF09E
:101430000008F5E7A24A00086E2E0008E232000814
:10144000D23800082DE9FF4F83B00026DDE911B83E
:101450001D4682464FEA58073446B1462CE0281B09
:10146000401EC1B20A2001F0FDFB0599B1FBF0F06E
:101470000A21B0FBF1F201FB120026B9691E8C4271
:1014800001DA58B101263030C2B204FB07A0CDF812
:1014900000B0CDE9018980B2109B08E0CDF800B022
:1014A00004FB07A0CDE90189109B80B2202204999A
:1014B000FFF742FF641CE4B2AC42D0D307B0BDE8F2
:1014C000F08F2DE9FE4F9946DDE90D6714468A46F7
:1014D0000546DDF830800CE0CDF800804B465146E3
:1014E0002846CDE90167FFF727FF05EB560085B2D7
:1014F000641C2278002AEFD1BDE8FE8F10B50446A7
:101500004FF4006000F008FD204600F017FDBDE834
:101510001040002000F000BD10B5074C0346082124
:10152000204600F076FB184600F01CFD2046BDE882
:101530001040082100F074BB0010024000B587B0D5
:1015400018216846FEF7D4FE0C48016841F00401FA
:10155000016000684FF4005100F004000690084854
:101560000A048261009101210022CDE90112CDE936
:101570000321694600F01EF807B000BD3038024074
:1015800000080240044908B50A6802430A60096875
:101590000140009108BD000030380240044908B500
:1015A0000A6802430A6009680140009108BD000012
:1015B00030380240F0B50A680F2692FAA2F2B2FA69
:1015C00082F303248AE001279F4015EA07027DD0B9
:1015D0004D68012D01D0022D1BD18D68876892FACC
:1015E000A2FCBCFA8CFC4FEA4C0C04FA0CFC27EA77
:1015F0000C0792FAA2FCBCFA8CFC4FEA4C0C05FAE0
:101600000CF52F438760CD684768554397432F43B8
:1016100047600F69D0F80CC092FAA2F5B5FA85F5CB
:101620004FEA450E04FA0EF52CEA050C92FAA2F5E3
:10163000B5FA85F56D00AF404CEA070CC0F80CC058
:101640004D68022D33D192FAA2F5B5FA85F5082D31
:1016500015D2D1F814C0056A92FAA2F7B7FA87F743
:10166000BF0006FA07F7BD4392FAA2F7B7FA87F769
:10167000BF000CFA07FC45EA0C05056217E0D1F83B
:1016800014E0476A150A95FAA5FCBCFA8CFC4FEAEF
:101690008C0C06FA0CFC95FAA5F5B5FA85F5AD00AB
:1016A00027EA0C070EFA05FE47EA0E0747624D6867
:1016B000076892FAA2FCBCFA8CFC4FEA4C0C04FAC4
:1016C0000CFE27EA0E0792FAA2F200E005E0B2FA59
:1016D00082F2520095402F4307605B1C0A68154652
:1016E000DA407FF470AF0020F0BD10B5044600F082
:1016F00041FB206000F014FB606000F01FFBA06065
:10170000606800F029FBE06010BD10B5036801229D
:10171000C3F380132BBBD1E900231A43D1E9023470
:1017200023431A430B691A434B691A438B691A43C3
:10173000CB691A430B6A1A4303684FF6BF74A3437D
:101740001A43026042684B6922F0040242EA1342E3
:1017500042600A6AB2F5005F02D1898C89B20161E8
:101760000022C16921F40061C161104610BD000072
:1017700001490860704700000C000020F0B50268C5
:10178000254B264D264E274F274C4FF0804C984234
:1017900009D0604507D0A84205D0B04203D0B84276
:1017A00001D0A04205D1D1F804E022F0700242EA53
:1017B0000E0298421BD0604519D0A84217D0B04203
:1017C00015D0B84213D0A04211D0184DA8420ED067
:1017D000174DA8420BD0174DA84208D0164DA8426D
:1017E00005D0164DA84202D0154DA84203D1CD68B0
:1017F00022F440722A4302608A68C2620A888262C6
:10180000984201D0A04201D109690163416941F0C8
:10181000010141610020F0BD0000014000040040D2
:1018200000080040000C004000040140004001405E
:10183000004401400048014000180040001C0040E6
:1018400000200040F0B5012600236E4C6E4D0129AA
:1018500008D010293BD0B1F5807F73D0B1F5805FFF
:101860006ED1A6E0016A21F001010162016A4668B9
:101870008769D2F800C027F0730747EA0C07D2F84F
:1018800010C021F0020141EA0C01D2F804C021F09D
:10189000010141EA0C01A04201D0A84212D15469D1
:1018A00021F0080141EA8401946821F0040141EA31
:1018B0008401956926F480742C43D56924F400745E
:1018C00044EA450646608761D26842636FE0016A78
:1018D00021F010010162066A41688769D2F800C0F0
:1018E00027F4E64747EA0C27D2F810C026F0200676
:1018F00046EA0C16D2F804C026F0100646EA0C168A
:10190000A04201D0A84213D1556926F0800444EAD0
:101910008514956824F0400444EA8516946921F4FE
:10192000806141EA8401D46921F4006141EAC40183
:1019300041608761D168816361E003E000E01E4699
:101940003046F0BD016A21F480710162016A466887
:10195000C769D2F800C027F0730747EA0C07D2F82E
:1019600010C021F4007141EA0C21D2F804C021F426
:10197000807141EA0C21A04201D0A84213D15469E0
:1019800021F4006141EA8421946821F4806141EAF4
:101990008421956926F4805444EA0514D56924F419
:1019A000005444EA45164660C761D268C2630162CA
:1019B000C5E7016A21F480510162066A4168C7697E
:1019C000D2F800C027F4E64747EA0C27D2F810C047
:1019D00026F4005646EA0C36D2F804C026F48056A7
:1019E00046EA0C36A04201D0A84204D1946921F401
:1019F000804141EA84114160C761D1680164066297
:101A00009DE7000000000140000401407FB504464E
:101A1000C0680D460126C0F34030C0BBE968686865
:101A2000AA690843296911430843E16849F20C6235
:101A300091430843E060A868216921F440510143C3
:101A400021616869616921F44071014361616846FF
:101A5000FFF74BFE0F48844208D00F4884420DD058
:101A60000E4884420AD00E48844201D1039906E010
:101A70000C48844202D00C48844208D1029931B10A
:101A80002B6823B100262046AA6900F00FF804B0A5
:101A9000304670BD00100140004400400048004046
:101AA00000140140004C0040005000402DE9F0417E
:101AB00006461920A1FB00011F460023642432259D
:101AC000B2F5004F27D0BB0FBA00FEF7D9FB014695
:101AD000B0FBF4F06FF01802504301EB800005EB0F
:101AE0000010B0FBF4F000F0F002B1FBF4F002EBF8
:101AF0000012B1FBF4F06FF01803584301EB8000C3
:101B000005EB0010B0FBF4F000F00F00104480B2C1
:101B1000B060BDE8F081FA195B41FEF7B1FB014608
:101B2000B0FBF4F00201B1FBF4F06FF0180358437E
:101B300001EB800005EBC000B0FBF4F000F0F80012
:101B400002EB4002B1FBF4F0584301EB800005EBDF
:101B5000C000B0FBF4F000F00700D7E710B580201C
:101B6000FFF710FDBDE810400120FFF70BBD00009E
:101B700010B58EB01C216846FEF7BAFB182107A8E5
:101B8000FEF7B6FB1F48016841F0100101600068D4
:101B900000F010000D901B481438016841F001015D
:101BA00001600068002400F001000D904FF4C06057
:101BB0000790022008900320CDE909040720CDE911
:101BC0000B4007A91048FFF7F5FC4FF4E130CDE9D1
:101BD00000040C200294CDE90340059406940B4CBC
:101BE00069462046FFF712FF206920F490402061EB
:101BF000606920F02A006061E06840F40050E06015
:101C00000EB010BD443802400000024000100140F8
:101C1000FEE70A048261426931EA0202FBD07047A2
:101C20008161426931EA0202FBD17047FEE70000A0
:101C3000F0B595B0142110A8FEF75AFB202101A899
:101C4000FEF756FB182109A8FEF752FB3048016841
:101C500041F0020101600068002500F002000090E0
:101C6000ADF840504FF6FF70CDE91150294C10A946
:101C700020461395FFF782FD206820F08000206049
:101C80002548A11502792348183016183068224FCC
:101C90000822FF1D3B799A40104330606020CDE957
:101CA00001050395049501AA20460595FFF7CAFD95
:101CB00030683A790421914088433060606820F0B0
:101CC00070006060A06820F08000A06010481038AC
:101CD000016841F00201016000680C9500F002000B
:101CE0000090012009900220CDE90A05CDE90D50B0
:101CF00009A90A48FFF75EFC206840F00100206057
:101D0000206A40F480702062E56315B0F0BD0000E9
:101D10004038024000040040482E00080004024001
:101D200004490968044A01F0F0010909515CC840FE
:101D30007047000008380240562E00080449096820
:101D4000044A01F4E05102EB91210978C840704740
:101D500008380240662E000804490968044A01F464
:101D6000604102EB51310978C840704708380240A1
:101D7000662E00080748006810F00C01064807D0DE
:101D8000042904D0082903D1082000F009B8034829
:101D900070470000083802400024F40040787D01BC
:101DA00010B5104A04460020116811F480030E4952
:101DB00003D0B3F5800F00D10C49082C11D1106865
:101DC00000F03F00B1FBF0F01168C1F38811484307
:101DD0001168012201F4403102EB11414900B0FBCE
:101DE000F1F010BD043802400024F40040787D0179
:101DF0004289406809B1826170471104816170476E
:101E0000016800890969884301D0002070470120DA
:101E1000704710B586B0044618216846FEF768FA88
:101E2000208900900020019001200490022002905F
:101E300069462068FFF7BEFB06B010BD0289006846
:101E400009B18261704711048161704710B586B095
:101E5000044618216846FEF74BFA208900900120BD
:101E600001900390002004900220029069462068AF
:101E7000FFF7A0FB06B010BD30B591B02821684631
:101E8000FEF736FA18210AA8FEF732FA1F48016851
:101E900041F480510160006800F4805010901B48AC
:101EA0001438016841F0010101600068022500F06A
:101EB00001001090A020CDE90A0503200024CDE9FF
:101EC0000C040520CDE90E400AA91148FFF772FB6A
:101ED0004FF48270CDE9004001200294CDE9035017
:101EE0004002CDE905040A20CDE908400794094CD9
:101EF00069462046FFF709FC606820F0100060602A
:101F0000206840F04000206011B030BD44380240ED
:101F1000000002400030014007490A6822F04002F8
:101F20000A600A6822F4006202430A60086840F00E
:101F300040000860704700000030014008498A688E
:101F4000C2F34002002AFAD0C8608868C0F340009B
:101F50000028FAD08868C0F3C0100028FAD1704772
:101F60000030014008498A68C2F34002002AFAD0D2
:101F700008738868C0F340000028FAD08868C0F36E
:101F8000C0100028FAD170470030014010B54FF062
:101F9000E020006900F0E6FE012803D0BDE8104013
:101FA00000F0CABE10BD000070B52E48016821F0D7
:101FB000070141F005010160016801F007010529F1
:101FC000FAD12949086840F480400860274802682F
:101FD00042F4803202600268C2F34042002AFAD022
:101FE000224A234B121D1468224D2C4023431360B8
:101FF000136823F440331360026842F08072026079
:102000000268C2F34062002AFAD04868C0F3803008
:102010000028FAD015480830016821F0F00101606D
:10202000016821F4E05141F4A0510160016821F4FC
:10203000604141F400410160016821F0030141F079
:1020400002010160016801F00C010829FAD10A4877
:10205000FFF78EFB0F20FEF765FC002801D072B65B
:10206000FEE770BD003C02400070004000380240B6
:10207000195440000080BFFF007A030A024801683B
:1020800041F470010160704788ED00E00148FEF7FF
:10209000CEBD00006800002010B5064C206910F08D
:1020A000010F05D004A000F0A9F86FF00100206135
:1020B00010BD00000010004054494D36E6ADA3E5C8
:1020C0009CA8E8BF90E8A18C2CE4BC98E58588E743
:1020D000BAA7E4B8BA3A360D0A00000010B5064CAB
:1020E000206910F0010F05D004A000F087F86FF010
:1020F0000100206110BD00000014004054494D371C
:10210000E6ADA3E59CA8E8BF90E8A18C2CE4BC98C0
:10211000E58588E7BAA7E4B8BA3A340D0A000000AA
:10212000F0B50268294C2A4D2A4E2B4F2B4B4FF00D
:10213000804CA04209D0604507D0A84205D0B042EB
:1021400003D0B84201D0984204D122F0700E4A6800
:1021500042EA0E02A0421BD0604519D0A84217D017
:10216000B04215D0B84213D0984211D01C4DA842AD
:102170000ED01C4DA8420BD01B4DA84208D01B4DC1
:10218000A84205D01A4DA84202D01A4DA84203D148
:1021900022F44075CA682A434D6922F080022A431E
:1021A00002608A68C2620A688262A04201D09842D4
:1021B00001D109690163012141610169C90703D0A6
:1021C000016921F001010161F0BD00000000014042
:1021D0000004004000080040000C004000040140E2
:1021E0000040014000440140004801400018004008
:1021F000001C004000200040FEE700000FB4054B2B
:1022000010B503A9044A029800F0DAF810BC5DF892
:1022100014FB0000852B0008640000200907090E4C
:10222000002804DB00F1E02080F80014704700F083
:102230000F0000F1E02080F8141D704702E008C88C
:10224000121F08C1002AFAD170477047002001E030
:1022500001C1121F002AFBD1704700002DE9FF5F6A
:10226000DDE90220010DDDF838B0024318D044F654
:102270001050A1F2FF3141430D140F98012820D0D6
:10228000A5EB0B00401C5FEA000A4FF00004474E2C
:10229000DFF81C91A046504616D5CAF1000728E089
:1022A0000F98012443A2012808D0002100980F9B19
:1022B000C0E90021C0E90243BDE8FF9F6FEA0B01BE
:1022C000F4E7CBF10000DEE7074612E0F80707D09D
:1022D0002246334640464946FEF7BCF880468946CA
:1022E0002246334610461946FEF7B4F804460E4619
:1022F0007F10002FEAD1DDE90201BAF1000F42465A
:102300004B4602DAFEF7A6F801E0FEF715F904469F
:102310000E460022284BFEF77FF903D84FF0FF301E
:10232000014607E00022254B20463146FDF7EBFF32
:10233000FEF72EFA102409E0002C0ADB0A22002303
:10234000FDF79EFF019B30321A55641E50EA0102D0
:10235000F2D1641C019AC4F1110314440F9A012AAA
:1023600003D0012208430DD10AE0084304D0002025
:102370004FF0110B0F9080E7A3EB0B056D1E0DE0E6
:102380005B4504DD4FF0000205F1010504E003DACE
:102390004FF00002A5F10105002AECD000980F993A
:1023A000C0E90231C0E9004586E700000000244092
:1023B0000000F03F300000000000F0430000E03F6C
:1023C0002DE9FF4F95B09B468946064600250FE252
:1023D000252877D100242746F84A0121059400E0FA
:1023E000044316F8013F203B01FA03F01042F7D1F5
:1023F00030782A2811D06FF02F033078A0F1300206
:10240000092A16D8059A44F0020402EB820203EB73
:1024100042021044761C0590EFE759F8042B059210
:10242000002A03DA504244F40054059044F00204B8
:10243000761C30782E2816D116F8010F44F00404CB
:102440002A280DD06FF02F023078A0F13003092B2D
:1024500009D807EB870302EB4303C718761CF3E7A1
:1024600059F8047B761C30786C280FD006DC4C2899
:1024700017D068280DD06A2814D104E0742810D031
:102480007A280FD10DE044F400140AE044F48014DB
:1024900001E044F440147278824202D104F58014C1
:1024A000761C761C307866280BD013DC582877D041
:1024B00009DC002875D04528F6D04628F4D04728F6
:1024C0001AD19DE118E0632835D0642879D06528B9
:1024D00012D195E1702873D008DC6728F1D0692803
:1024E0006FD06E280DD06F2806D1B5E073282CD0A0
:1024F000752875D0782874D05A46179990476D1C66
:1025000075E1C4F30250022809D003280DD0D9F890
:10251000001004280DD00D6009F1040967E1D9F815
:102520000010EA17C1E90052F6E7D9F800100D8053
:10253000F2E70D70F0E719F8041B8DF80010002089
:102540008DF80100EA46012003E059F804AB4FF092
:10255000FF3061074FF0000102D40DE008F10101E6
:102560008846B9420FDA8045F8DB1AF808100029CE
:10257000F4D108E008F1010188468142FADB1AF83B
:1025800008100029F6D105985B46A0EB0807214604
:102590003846179A00F094FA284400EB080507E043
:1025A0004DE029E10DE01AF8010B5A4617999047C2
:1025B000B8F10108F7D25B4621463846179A13E175
:1025C00042E00A220092C4F302524FF0000A022AAB
:1025D00008D059F804CB032A4FEAEC710AD00DE079
:1025E00029E02AE009F1070121F00702F2E802C11F
:1025F000914609E00FFA8CFC4FEAEC71042A03D1F2
:102600004FFA8CFC4FEAEC71002907DA0A460021E8
:10261000DCF1000C61EB02012D2202E0220504D561
:102620002B228DF80420012203E0E20701D02022B2
:10263000F7E7904659E00A2102E010220DE0102150
:102640004FF0000A00910BE010224FF0000A44F016
:1026500004040827009203E008224FF0000A0092C9
:10266000C4F30252022A05D059F804CB0021032AF0
:1026700008D009E009F1070121F00702F2E802C1E0
:10268000914605E01FFA8CFC042A01D10CF0FF0CE6
:102690004FF00008220728D5702806D0009B83F051
:1026A000100353EA0A0305D00EE040228DF80420FF
:1026B000012208E05CEA010206D030228DF80420F5
:1026C0008DF8050002229046009B83F0080353EA30
:1026D0000A030AD15CEA010201D1620705D5302262
:1026E0008DF804204FF001087F1E582804D034A034
:1026F00003900EA802900DE036A0F9E7534660461D
:10270000009AFDF7BDFD84460398825C0298401E46
:10271000029002705CEA0100F0D1029806A9081A42
:1027200000F1200A600702D524F4803400E001277C
:10273000574502DDA7EB0A0000E0002000EB0A018C
:10274000009005984144401A0590E00306D45B468A
:102750002146179A059800F0B3F90544002706E0D2
:1027600001A85A46C05D179990476D1C7F1C4745CC
:10277000F6DBE0030CD55B462146179A059800F07E
:102780009FF9054404E030205A46179990476D1C84
:102790000099481E00900029F5DC08E00298029993
:1027A0005A460078491C0291179990476D1CBAF15E
:1027B0000001AAF1010AF1DC65E10000092801002D
:1027C00030313233343536373839616263646566A7
:1027D0000000000030313233343536373839414269
:1027E000434445460000000000F058F90544761CBB
:1027F000307800287FF4ECAD19B02846BDE8F08FA2
:10280000620700D4062709F1070222F0070CFCE852
:102810000223E14603F000485FEA080C02D00FF201
:10282000702C0DE05FEA045C02D50FF2682C07E023
:102830005FEAC47C02D00FF2602C01E0AFF2700CB2
:102840004FF0FF3823F00043CDF850C065280CD07E
:1028500006DC452809D046281DD047283DD13DE05B
:10286000662818D067287ED138E00021112F01DBBF
:10287000112000E0781CCDE9000106A90EA8FFF7A1
:10288000EDFCDDE90F010E9A03910021009207F1A2
:10289000010A04914DE04FF000400097CDE901108E
:1028A00006A90EA8FFF7DAFCDDE90F0203920E9BE2
:1028B00011990022DDF80CA00093049211B9791C43
:1028C00000EB010AB7EB0A0004D4C0F1FF3007F1B6
:1028D000010A0490AAEB0700019044E0012F00DAFE
:1028E00001270021112F01DD112000E03846CDE93C
:1028F000000106A90EA8FFF7B1FCDDE90F010E9A51
:102900000391002104910092BA4621070CD4039947
:10291000514500DA8A46BAF1010F05DD009AAAF1A5
:102920000101515C302908D0B84202DA10F1040FDD
:1029300006DA0121CDE9011015E0AAF10101E9E76C
:10294000002805DC049901440491AAEB000102E08F
:10295000411C514500DD8A460499401A401C0190F3
:102960004FF000400290200704D40198504501DB4D
:10297000CDF8048000208DF84F0002980DF14F072C
:10298000B0F1004F25D02B200E9002984FF0020896
:1029900000280CDA404202902D200E9007E00A2118
:1029A0000298FDF751FE3031029007F8011DB8F191
:1029B0000001A8F10108F2DC02980028EFD1791E8D
:1029C0000E980870307800F0200040F0450007F8BD
:1029D000020D12A8C01B00F107081498007800B17E
:1029E000012000EB0A01019801EBE07105984144D8
:1029F000401A401E0590E00306D45B462146179A14
:102A0000059800F05DF805441498007818B15A460E
:102A1000179990476D1CE00324D55B462146179A11
:102A2000059800F04DF805441CE00498002807DBE9
:102A3000DDE90301884203DD0098405C179901E05D
:102A4000179930205A469047049805F10105401C1B
:102A500004900198401E019004D12E205A461799E7
:102A600090476D1CBAF10001AAF1010ADDDC05E016
:102A700017F8010B5A46179990476D1CB8F10001E1
:102A8000A8F10108F4DC5B462146179A0598ABE6ED
:102A90002D0000002B000000200000002DE9F04177
:102AA000044600251E461746880404D405E039462E
:102AB0002020B0476D1C641EF9D52846BDE8F08182
:102AC0002DE9F041044600251E469046C80301D575
:102AD000302700E02027880404D505E04146384629
:102AE000B0476D1C641EF9D52846BDE8F081000092
:102AF00010B544080E4894B00021026842F0040268
:102B00000260006800F0040012900A480090601E05
:102B1000CDE901014FF6FF70CDE903016846FDF7ED
:102B2000DBFF6846FEF706F80348046014B010BDEA
:102B300040380240000800406000002070B50546A3
:102B400000244FF47A7603E0304600F005F8641C68
:102B5000AC42F9D370BD0000094910B50A684FF6C0
:102B6000FF7392B29B1A06E00C68944203D20C6881
:102B70001C44844203D20C68A41A8442F4D310BDCE
:102B800024080040044AC1B251601168C1F3C01169
:102B90000029FAD070470000001001400EB5FDF783
:102BA000A7FEFEF737FAFEF7C9FCFFF7FDF9FEF7BF
:102BB000D5FFFEF7DDFFA820FFF79AFFFDF714FE13
:102BC000FDF762FE6420FFF7B9FFFEF7DDFA4FF470
:102BD0007A784046FFF7B2FF4FF6FF744FF48C77D8
:102BE00000213B46F02208460094FEF75FFA0A20D7
:102BF000FFF7A4FF00251826CDE90056234615A2AD
:102C0000782148200295FEF75CFC4046FFF796FFCE
:102C100000213B46F02208460094FEF747FA404662
:102C2000FFF78CFF0E4F00BFFDF708FE8DE8700028
:102C300038880A2382B278214820FEF703FC8DE809
:102C40007000B8880A2382B2A0214820FEF7FAFB60
:102C5000EAE7000057656C636F6D65212121000074
:102C60004C0000200246012000E05043491EC9B23A
:102C7000FBD270470648416B096829B1416BC968AE
:102C8000C9684968816270474FF0FF31FAE7000078
:102C900010000020D0E9013201699A60D0E90123D7
:102CA0005A604A68824201D182684A600022026109
:102CB0000868401E08600868704742684A60936868
:102CC0008B6093685960916008610168491C0160DC
:102CD00070470000164810B5016B11B10121C161A8
:102CE00010BD0021C1610169124A01E0B9B1491E5C
:102CF00001EB810352F82330002BF7D001EB810365
:102D000002EB830202F1080453685B685360A3423C
:102D100001D15B685360DA680260016110BD502028
:102D200080F31188BFF34F8FBFF36F8FFEE7000072
:102D300010000020B000002010B5502080F3118852
:102D4000BFF34F8FBFF36F8F00F01AF818B104492B
:102D50004FF080500860002080F3118810BD000003
:102D600004ED00E00548416919B1006B18B100207D
:102D700070470120704702207047000010000020BB
:102D80002DE9F0412E4C0027206B28B1A069401C92
:102D9000A0613846BDE8F081E668761CE66013D194
:102DA000606B006838B1502080F31188BFF34F8FFB
:102DB000BFF36F8FFEE7606BA16B6163A063206A56
:102DC000401C2062FFF756FFA06ADFF87880864239
:102DD00009D3606B0068A0B1606BC068C5686868A3
:102DE000864211D2A0622068C06A00EB800158F8C8
:102DF0002100012800D90127E0690028C9D0012756
:102E0000C7E74FF0FF30EDE7281DFFF743FFA86A43
:102E100018B105F11800FFF73DFFE86A2169884203
:102E200000D9206100EB800108EB8100291DFFF72C
:102E300044FFE86A2168C96A8842CAD30127C8E703
:102E400010000020B0000020000000000404040076
:102E5000000800000008000000000000000001025F
:102E60000304060708090000000001020304000033
:102E70000000000000000000000000000404040442
:102E800004000004000014140A0000000000000008
:102E9000000000000A0A1F0A0A1F0A0A00000004B4
:102EA0000E1505060C14150E0400000012150D1564
:102EB0002E2C2A1200000000040A0A3615152916C5
:102EC00000000202010000000000000000001008E5
:102ED0000804040404040808100002040408080894
:102EE00008080404020000000004150E0E1504007A
:102EF000000000000008083E080800000000000074
:102F00000000000000000202010000000000003F7D
:102F100000000000000000000000000000000002AF
:102F20000000002010100808040402020100000044
:102F30000E1111111111110E0000000004060404FD
:102F40000404040E000000000E1111080402011F09
:102F5000000000000E11100C1010110E00000000F7
:102F6000080C0C0A091F081C000000001F01010FBB
:102F70001110110E000000000C12010D1311110EA2
:102F8000000000001E1008080404040400000000F3
:102F90000E11110E1111110E000000000E11111969
:102FA00016100906000000000000040000000004E4
:102FB0000000000000000004000000040400000005
:102FC00010080402020408100000000000003F0086
:102FD0003F00000000000000020408101008040276
:102FE000000000000E11110804040004000000009D
:102FF0001C22292D2D1D221C0000000004040C0A97
:103000000A1E1233000000000F12120E1212120FCD
:10301000000000001E1101010101110E000000005E
:103020000F1212121212120F000000001F120A0ECD
:103030000A02121F000000001F120A0E0A020207F5
:10304000000000001C1201013911120C00000000E8
:103050003312121E12121233000000001F04040467
:103060000404041F000000003E08080808080808BF
:103070000907000037120A060A1212370000000082
:10308000070202020202223F000000003B1B1B1B42
:1030900015151535000000003B1216161A1A1217E6
:1030A000000000000E1111111111110E000000009E
:1030B0000F12120E02020207000000000E11111181
:1030C0001117190E180000000F12120E0A121237F3
:1030D000000000001E1101060810110F0000000082
:1030E0001F1504040404040E000000003312121221
:1030F0001212120C000000003312120A0A0C04040F
:1031000000000000151515150E0A0A0A000000003F
:103110001B0A0A04040A0A1B000000001B0A0A0A10
:103120000404040E000000001F0908040402121F1A
:1031300000001C0404040404040404041C00000231
:10314000020404040808081010000E080808080803
:10315000080808080E00040A000000000000000033
:10316000000000000000000000000000003F02041A
:103170000000000000000000000000000000000C43
:10318000121C123C000000030202020E1212120E68
:10319000000000000000001C1202120C00000018C9
:1031A0001010101C1212123C000000000000000C55
:1031B000121E021C000000182404041E0404041E35
:1031C000000000000000003C120C021C221C000346
:1031D0000202020E12121237000000040400000660
:1031E0000404040E000000080800000C0808080889
:1031F000080700030202021A0A060A130000000769
:10320000040404040404041F000000000000000F74
:1032100015151515000000000000000F12121237DE
:10322000000000000000000C1212120C0000000050
:103230000000000F1212120E020700000000001C16
:103240001212121C103800000000001B06020207B8
:10325000000000000000001E020C101E0000000014
:103260000004041E0404041C000000000000001BF5
:103270001212123C000000000000001B0A0A0404A5
:103280000000000000000015150E0A0A00000000F2
:103290000000001B0A040A1B0000000000000033AD
:1032A00012120C08040300000000001E0804041E93
:1032B000000018080808080C080808081800080882
:1032C0000808080808080808080806040404040890
:1032D00004040404060016090000000000000000B9
:1032E00000000000000000000000000000000000DE
:1032F0000000000000080808080808080000181866
:10330000000000486C2412000000000000000000D3
:1033100000000000002424247F1212127F121212D7
:1033200000000000081C2A2A0A0C1828282A2A1C37
:10333000080800000022251515152A585454542257
:1033400000000000000C1212120A76252911916E5D
:10335000000000060604030000000000000000005A
:10336000000000402010100808080808081010206D
:103370004000000204080810101010101008080483
:1033800002000000000008086B1C1C6B080800000D
:10339000000000000000080808087F08080808006E
:1033A0000000000000000000000000000000060611
:1033B00004030000000000000000FE000000000008
:1033C00000000000000000000000000000000606F1
:1033D0000000000080404020201010080804040273
:1033E0000200000000182442424242424242241895
:1033F0000000000000080E08080808080808083E39
:1034000000000000003C4242422020100804427E9E
:1034100000000000003C4242201820404042221C94
:103420000000000000203028242422227E20207862
:1034300000000000007E0202021A26404042221CC8
:103440000000000000382402021A264242422418DA
:1034500000000000007E222210100808080808085A
:1034600000000000003C4242422418244242423CF8
:103470000000000000182442424264584040241CCE
:1034800000000000000000001818000000001818DC
:10349000000000000000000000080000000000081C
:1034A0000804000000402010080402040810204016
:1034B00000000000000000007F0000007F0000000E
:1034C0000000000000020408102040201008040240
:1034D00000000000003C4242464020101000181836
:1034E00000000000001C225A555555552D42221C43
:1034F00000000000000808181414243C224242E78F
:1035000000000000001F2222221E22424242221FEF
:1035100000000000007C4242010101010142221C26
:1035200000000000001F2242424242424242221F4B
:1035300000000000003F4212121E12120242423FDF
:1035400000000000003F4212121E12120202020787
:1035500000000000003C2222010101712122221CF6
:103560000000000000E7424242427E42424242E7FF
:1035700000000000003E0808080808080808083E87
:1035800000000000007C101010101010101010101F
:10359000110F0000007722120A0E0A12122222775F
:1035A0000000000000070202020202020202427F43
:1035B000000000000077363636362A2A2A2A2A6B7F
:1035C0000000000000E346464A4A525252626247F7
:1035D00000000000001C2241414141414141221CA8
:1035E00000000000003F424242423E020202020747
:1035F00000000000001C2241414141414D53321C5A
:1036000060000000003F4242423E1212222242C7A6
:1036100000000000007C4242020418204042423E6A
:1036200000000000007F4908080808080808081C76
:103630000000000000E74242424242424242423C15
:103640000000000000E74242222424141418080855
:1036500000000000006B4949494955553622222295
:103660000000000000E7422424181818242442E730
:103670000000000000772222141408080808081C23
:1036800000000000007E2120101008040442423F88
:103690000000007808080808080808080808080852
:1036A00078000000020204040808081010202020FE
:1036B0004040001E101010101010101010101010AC
:1036C0001E00003844000000000000000000000060
:1036D00000000000000000000000000000000000EA
:1036E00000FF0006080000000000000000000000CD
:1036F0000000000000000000003C4278444242FC10
:103700000000000000030202021A26424242261A6A
:1037100000000000000000000038440202024438AB
:10372000000000000060404040784442424264D8BB
:103730000000000000000000003C427E0202423C0B
:103740000000000000F08808087E08080808083E0D
:103750000000000000000000007C22221C023C420D
:10376000423C000000030202023A4642424242E763
:1037700000000000000C0C00000E08080808083EBD
:1037800000000000003030000038202020202020E1
:10379000221E0000000302020272120A1612227791
:1037A00000000000000E0808080808080808083E85
:1037B0000000000000000000007F9292929292B7F9
:1037C0000000000000000000003B4642424242E789
:1037D0000000000000000000003C42424242423C27
:1037E0000000000000000000001B26424242221E92
:1037F0000207000000000000007844424242447882
:1038000040E000000000000000774C040404041FA6
:103810000000000000000000007C42023C40423EEC
:103820000000000000000008083E080808080830F2
:10383000000000000000000000634242424262DCDF
:10384000000000000000000000E7422424140808E3
:10385000000000000000000000EB494955552222FD
:103860000000000000000000007624181818246EE4
:10387000000000000000000000E7422424141808A3
:103880000807000000000000007E22100808447EA7
:10389000000000C0202020202010202020202020F8
:1038A000C000101010101010101010101010101078
:1038B000101000060808080808100808080808087A
:1038C00006000C32C20000000000000000000000F2
:1038D00000000000000000000000000000000000E8
:1038E00000000000000000000000000000000000D8
:1038F00000000000000000000000000000000000C8
:103900000000000000000000000060006000600097
:103910006000600060006000400020002000200087
:103920000000000000006000600060000000000077
:103930000000000000006006600630039801880067
:103940004400000000000000000000000000000033
:103950000000000000000000000000000000000067
:103960000000000000000000000010021002100221
:103970001002FE07FE0708020801080108010801FD
:10398000FE07FE0704010401040104010000000019
:10399000000000000000000040004000F00158035B
:1039A0004C03CC034C0058007000E000C001C00183
:1039B00040034C035C034C034801F000400040000E
:1039C000000000000000000000000E010A0191004C
:1039D00091009100510051003A00AE03A002500442
:1039E0005004480448044804840284030000000092
:1039F0000000000000000000000038006C006C00B7
:103A00006C006C006C002C0098071C011A0133013B
:103A100033016301E300C308C6093C07000000004E
:103A20000000000000000C001C0010001000080046
:103A30000400000000000000000000000000000082
:103A40000000000000000000000000000000000076
:103A5000000000000000000400020001800080005F
:103A60004000400020002000200020002000200016
:103A7000200040004000800080000001000200049F
:103A80000000000000000200040008001000100008
:103A90002000200040004000400040004000400066
:103AA0004000200020001000100008000400020068
:103AB00000000000000000000000000000004000C6
:103AC000C0004000460C4E0FD001F0015E0F460CC6
:103AD0004000400040000000000000000000000026
:103AE00000000000000000000000000000000000D6
:103AF00040004000400040004000FE0F40004000F9
:103B000040004000400000000000000000000000F5
:103B100000000000000000000000000000000000A5
:103B20000000000000000000000000000000000095
:103B30000000000000000C001C0010001000080035
:103B40000400000000000000000000000000000071
:103B500000000000000000000000FE070000000060
:103B60000000000000000000000000000000000055
:103B70000000000000000000000000000000000045
:103B80000000000000000000000000000000000035
:103B90000000000000001C001C001C0000000000D1
:103BA0000000000000000004000600020003000105
:103BB00000018000800040004000600020002000E4
:103BC00010001000080008000C00040006000200AD
:103BD000000000000000000000000000F00098015C
:103BE0000C030C030606060606060606060606066F
:103BF000060606060C030C039801F0000000000006
:103C000000000000000000000000000040007C00F8
:103C100060006000600060006000600060006000A4
:103C200060006000600060006000FC0300000000B5
:103C3000000000000000000000000000F800840107
:103C4000020306030603000300018001C0006000B8
:103C500020001000080204020602FE03000000001B
:103C60000000000000000000000000007800C60016
:103C70008601860180018001C00070008001000182
:103C800000030003060306038601F800000000009D
:103C90000000000000000000000000008001800122
:103CA000C001A001A0019001880188018401820166
:103CB000FE0F8001800180018001E007000000000C
:103CC000000000000000000000000000FC030400F1
:103CD0000400040004000400F4008C010403000349
:103CE00000030603060382018401F80000000000BF
:103CF000000000000000000000000000E0011803C8
:103D00000C030C0004000600E60116030E0606066E
:103D10000606060604060C021803F0000000000068
:103D2000000000000000000000000000F8070C0682
:103D300004020401000100018000800040004000F6
:103D40004000600060006000600060000000000053
:103D5000000000000000000000000000F8010C035B
:103D60000606060606060C021C03F000C8010C033A
:103D700006060606060606060C03F0010000000013
:103D8000000000000000000000000000F0000C0136
:103D90000C03060206060606060606078C067806CB
:103DA0000006000300030C018C01780000000000F5
:103DB0000000000000000000000000000000000003
:103DC000000000000000E000E000E0000000000053
:103DD000000000000000E000E000E0000000000043
:103DE00000000000000000000000000000000000D3
:103DF0000000000000006000600000000000000003
:103E00000000000000000000600060004000200092
:103E1000200000000000000000000004000200017B
:103E2000800040002000100008000400080010007E
:103E3000200040008000000100020004000000009B
:103E40000000000000000000000000000000000072
:103E5000000000000000FE07000000000000FE0758
:103E60000000000000000000000000000000000052
:103E70000000000000000000000004000800100026
:103E80002000400080000001000200040002000148
:103E90008000400020001000080004000000000026
:103EA000000000000000000000000000E003180611
:103EB000040C040C0C0C0C0C0007800140004000AA
:103EC000400000000000E000E000E0000000000012
:103ED00000000000000000000000E00018030C02D9
:103EE000CC0564056605A605B604B604B604B6049A
:103EF000B602E4010C040C021803F00000000000FC
:103F000000000000000000000000000060006000F1
:103F10005000D00090009000880088010801F8014E
:103F2000040304030402020202060F0F0000000053
:103F3000000000000000000000000000FE008C03F4
:103F40000C030C030C030C038C01FC000C030C028F
:103F50000C060C060C060C060C03FE01000000000B
:103F6000000000000000000000000000E003180353
:103F70000C060C04040406000600060006000600F9
:103F8000060006040C040C021803F00000000000F8
:103F90000000000000000000000000007F008C0115
:103FA0000C030C030C060C060C060C060C060C0687
:103FB0000C060C060C030C038C017F0000000000B3
:103FC000000000000000000000000000FF030603E6
:103FD00006040604060086008600FE0086008600B1
:103FE00086000600060406040602FF030000000027
:103FF000000000000000000000000000FF030603B6
:1040000006040604060086008600FE008600860080
:10401000860006000600060006001F0000000000E3
:10402000000000000000000000000000F000180187
:104030000C020C0204020600060006000600C60F71
:10404000060306030C030C031803F0000000000035
:104050000000000000000000000000000F0F060636
:1040600006060606060606060606FE0706060606F7
:10407000060606060606060606060F0F00000000E6
:10408000000000000000000000000000FC036000D1
:104090006000600060006000600060006000600020
:1040A00060006000600060006000FC030000000031
:1040B000000000000000000000000000F807C00041
:1040C000C000C000C000C000C000C000C000C000F0
:1040D000C000C000C000C000C000C000C600660034
:1040E0003C0000000000000000000000CF0386013B
:1040F000C60046002600160036002E006E00460060
:10410000C60086008601060106038F070000000036
:104110000000000000000000000000001F0006007A
:10412000060006000600060006000600060006005F
:1041300006000600060406040602FF030000000055
:1041400000000000000000000000000007078603D8
:1041500086038E038E034E034E034A035A035A030B
:104160003A033203320332031203870700000000D0
:104170000000000000000000000000008E0F0C0294
:104180001C021C0234023402640264024402C402AF
:10419000840284038403040304031F02000000005C
:1041A000000000000000000000000000F000980186
:1041B0000C030C020606060606060606060606069A
:1041C000060606060C020C039801F0000000000031
:1041D000000000000000000000000000FF000603D7
:1041E000060606060606060606068603FE00060006
:1041F000060006000600060006001F000000000082
:10420000000000000000000000000000F000980125
:104210000C030C0206060606060606060606060639
:10422000060676064C02CC039801F00080070003D6
:10423000000000000000000000000000FF01060375
:1042400006060606060606060603FE004600C6002B
:10425000860086010603060306060F0E0000000016
:10426000000000000000000000000000F8020C0345
:104270000602060206000E003C00F800E003800380
:1042800000070206020606060C03F001000000000B
:10429000000000000000000000000000FE076204B3
:1042A00061086108600060006000600060006000FC
:1042B00060006000600060006000F8010000000025
:1042C0000000000000000000000000001E070C02BB
:1042D0000C020C020C020C020C020C020C020C026E
:1042E0000C020C020C020C021801F000000000008D
:1042F0000000000000000000000000000F070602A0
:10430000040104010C010C01880088009800980049
:10431000500050007000300020002000000000001D
:10432000000000000000000000000000F70E620422
:1043300042044604460464026402E402E4029C026D
:104340009C01980198018801880088000000000005
:104350000000000000000000000000009E070C01AB
:10436000080118019000B0006000200060006000AB
:10437000D00090008801080104038E0700000000AF
:104380000000000000000000000000000F0F060405
:1043900004020C0208011801B800B00070006000AF
:1043A00060006000600060006000F8010000000034
:1043B000000000000000000000000000FC070C02EC
:1043C0000603020180018000400040002000200020
:1043D0001000180008040C040402FE030000000092
:1043E000000000000000E00320002000200020006A
:1043F00020002000200020002000200020002000BD
:104400002000200020002000200020002000E003E9
:10441000000000000000000000000400040008008C
:104420000800100010001000200020004000400094
:10443000C0008000800000010001000200020002B4
:104440000004000000007C004000400040004000EC
:10445000400040004000400040004000400040005C
:1044600040004000400040004000400040007C0010
:104470000000000060009000080100000000000043
:10448000000000000000000000000000000000002C
:10449000000000000000000000000000000000001C
:1044A000000000000000000000000000000000000C
:1044B00000000000000000000000000000000000FC
:1044C00000000000000000000000000000000000EC
:1044D000FF0F000000001800600000000000000056
:1044E00000000000000000000000000000000000CC
:1044F00000000000000000000000000000000000BC
:1045000000000000000000000000000000000000AB
:10451000000000000000F0010C030C030003E003A6
:104520001C030E03060306038E0B7C0E0000000026
:104530000000000000000000000008000E000C0059
:104540000C000C000C00CC013C031C060C060C06F5
:104550000C060C060C060C021C03E4010000000013
:10456000000000000000000000000000000000004B
:10457000000000000000F0008C018C0186010600A4
:104580000600060006020C020C01F000000000000C
:10459000000000000000000000000002C003000353
:1045A00000030003000378038C030C0306030603D7
:1045B00006030603060304038C07780100000000CD
:1045C00000000000000000000000000000000000EB
:1045D000000000000000E001180308020C060C06B1
:1045E000FC070C000C0018041802E0010000000099
:1045F000000000000000000000000000C003600692
:10460000300630003000FE01300030003000300055
:1046100030003000300030003000FC0100000000AD
:10462000000000000000000000000000000000008A
:10463000000000000000F007D8068C018C018C01FE
:104640009801F8000C00FC00CC03060306038E035F
:10465000F800000000000000000008000E000C0040
:104660000C000C000C00EC011C030C030C030C03ED
:104670000C030C030C030C030C039E07000000004A
:10468000000000000000000000000000600060006A
:104690000000000040007C006000600060006000DE
:1046A00060006000600060006000FC03000000002B
:1046B000000000000000000000000000C001C00178
:1046C000000000000001F0018001800180018001F4
:1046D0008001800180018001800180018001CC0087
:1046E0007C00000000000000000008000E000C002C
:1046F0000C000C000C008C038C008C004C006C0037
:104700005C008C008C010C010C039E070000000073
:104710000000000000000000000040007C0060007D
:104720006000600060006000600060006000600089
:1047300060006000600060006000FC03000000009A
:104740000000000000000000000000000000000069
:104750000000000000003707EE06660666066606E3
:1047600066066606660666066606FF0F000000001F
:104770000000000000000000000000000000000039
:10478000000000000000EE011C030C030C030C03EE
:104790000C030C030C030C030C039E070000000029
:1047A0000000000000000000000000000000000009
:1047B000000000000000F00098010C030606060649
:1047C0000606060606060C030C03F00000000000B7
:1047D00000000000000000000000000000000000D9
:1047E000000000000000EE011C030C060C060C0685
:1047F0000C060C060C060C031C03EC010C000C0050
:104800003E0000000000000000000000000000006A
:1048100000000000000078028C030C03060306036E
:1048200006030603060304038C0378030003000356
:10483000C0070000000000000000000000000000B1
:104840000000000000009F035806380618001800FA
:1048500018001800180018001800FF0000000000E1
:104860000000000000000000000000000000000048
:10487000000000000000F0031C030C020C023800D2
:10488000F000C003040304038C03FC0100000000DB
:1048900000000000000000000000000000002000F8
:1048A000200030003000FE013000300030003000C9
:1048B00030003000300030023002E0010000000023
:1048C00000000000000000000000000000000000E8
:1048D0000000000008028E030C030C030C030C0301
:1048E0000C030C030C030C039C0778010000000070
:1048F00000000000000000000000000000000000B8
:104900000000000000001E070C0208010801180149
:104910009000B000B00060006000200000000000C7
:104920000000000000000000000000000000000087
:10493000000000000000F70E6204460464026402F6
:10494000EC029C0198019801980108000000000009
:104950000000000000000000000000000000000057
:10496000000000000000BC0718011001B00060004A
:104970006000E0009000080108039E0700000000AE
:104980000000000000000000000000000000000027
:104990000000000000009E070801080108019000C7
:1049A0009000B00060006000600020002000240043
:1049B0001C000000000000000000000000000000DB
:1049C000000000000000FC018401C40044006000FD
:1049D00020003000180208020C03FC010000000057
:1049E00000000000000000038000800080008000C4
:1049F0008000800080008000400020004000800097
:104A00008000800080008000800080008000000323
:104A100000004000400040004000400040004000D6
:104A20004000400040004000400040004000400086
:104A30004000400040004000400040004000400076
:104A40004000000000000C001000100010001000DA
:104A50001000100010001000200040002000100086
:104A600010001000100010001000100010000C00CA
:104A7000000000001C002204C204800300000000AB
:104A80000000000000000000000000000000000026
:104A90000000000000000000000000000000000016
:104AA0000000000000000000000000000000000006
:104AB00000000000000000000000000000000000F6
:104AC00000000000000000000000000000000000E6
:104AD00000000000000000000000000000000000D6
:104AE000000000000000000000000000C001C00144
:104AF000C001C001C001C001C00180008000800071
:104B000080008000800080000000000000000000A5
:104B10008001C003C003800100000000000000000D
:104B20000000000000000000E01CE01CF01E700E01
:104B3000380718030801840000000000000000008E
:104B40000000000000000000000000000000000065
:104B50000000000000000000000000000000000055
:104B60000000000000000000000000000000201015
:104B70002010201020102010FE7FFE7F100810084B
:104B800010081008100810081008FE7FFE7F0804A7
:104B900008040804080408040000000000000000E5
:104BA0000000000000000000000000010001C0073C
:104BB0006019103118311839183938017001E001C5
:104BC000C0038007000F001D003900311C311C316B
:104BD0000C310C11180DE00700010001000100006C
:104BE00000000000000000000000000000001C1099
:104BF00036186308630C6304630463026302630191
:104C0000361D9C37802280634063406320632063AD
:104C1000306310221836081C00000000000000005D
:104C20000000000000000000000000000000F00094
:104C300098018C018C018C018C018C00CC007800D7
:104C4000183E1C083608320863046304C304C30317
:104C5000834306438E26781C0000000000000000FD
:104C600000000000000000001C003C003C00300080
:104C7000300010000C0006000000000000000000E2
:104C80000000000000000000000000000000000024
:104C90000000000000000000000000000000000014
:104CA000000000000000000000400020001000088C
:104CB000000C0004000600030003000380018001D3
:104CC00080018001800180018001800100030003D8
:104CD000000300060006000C000800100020004041
:104CE00000000000000000000200040008001000A6
:104CF000300020006000C000C000C00080018001C2
:104D0000800180018001800180018001C000C0001D
:104D1000C0006000600030001000080004000200C5
:104D20000000000000000000000000000000000083
:104D3000000000018003800300011C713C79783D74
:104D4000C0070001C007783D3C791C710001800359
:104D5000800380010000000000000000000000004F
:104D60000000000000000000000000000000000043
:104D7000000000000001000100010001000100012D
:104D80000001FC7F000100010001000100010001A1
:104D90000001000000000000000000000000000012
:104DA0000000000000000000000000000000000003
:104DB00000000000000000000000000000000000F3
:104DC00000000000000000000000000000000000E3
:104DD00000001C003C003C003000300010000C00C3
:104DE00006000000000000000000000000000000BD
:104DF00000000000000000000000000000000000B3
:104E00000000FE7F00000000000000000000000025
:104E10000000000000000000000000000000000092
:104E20000000000000000000000000000000000082
:104E30000000000000000000000000000000000072
:104E40000000000000000000000000000000000062
:104E500018003C003C0018000000000000000000AA
:104E60000000000000000000004000600020003052
:104E7000001000180008000C0004000600020003E7
:104E8000000180018000C000400060002000300070
:104E90001000180008000C000400060002000000CA
:104EA0000000000000000000000000000000C0073B
:104EB000600C30181830183018200C600C600C6032
:104EC0000C600C600C600C600C600C6018201830DA
:104ED00018303018600CC00700000000000000000F
:104EE00000000000000000000000000000000001C1
:104EF0008001F80180018001800180018001800132
:104F00008001800180018001800180018001800199
:104F100080018001C003F81F0000000000000000B5
:104F20000000000000000000000000000000E0079A
:104F3000101C0818043004300C300C3000300018FD
:104F40000008000400020001800040002020102022
:104F500008200430FC1FFC1F0000000000000000BF
:104F60000000000000000000000000000000E0035E
:104F7000180E0C0C0C180C180C180018000C00065D
:104F8000C003000E00180010003000300C300C3050
:104F90000C100C18180CE0030000000000000000CA
:104FA0000000000000000000000000000000000CF5
:104FB000000E000E000F800E800E400E600E200EC0
:104FC000100E100E080E040E040EFE7F000E000ED2
:104FD000000E000E000E000EC07F0000000000005A
:104FE0000000000000000000000000000000F03F92
:104FF000F03F10001000100008000800C807280C3F
:105000001818081000300030003000300C300C3020
:1050100004180418080CF003000000000000000051
:105020000000000000000000000000000000800FF1
:10503000C010203010301800180008000C008C0F31
:105040006C183C301C600C600C600C600C601860CC
:10505000182030306018C007000000000000000079
:105060000000000000000000000000000000F83F09
:10507000F83F1C100C08040804040004000200029D
:10508000000100010001800080008000C000C0001D
:10509000C000C000C000C000000000000000000010
:1050A0000000000000000000000000000000E00719
:1050B000300C18180C300C300C301C3038187008BC
:1050C000E007B007180E0C1C063806300630063014
:1050D00006300C18180CE00300000000000000006F
:1050E0000000000000000000000000000000E003DD
:1050F00018040C080C18061006300630063006306E
:1051000006380C3C1836F031003000180018001832
:105110000C0C0C060C03F001000000000000000065
:10512000000000000000000000000000000000007F
:105130000000000000000000000000008001C0032B
:10514000C00380010000000000000000000000001B
:105150008001C003C00380010000000000000000C7
:10516000000000000000000000000000000000003F
:10517000000000000000000000000000C000C000AF
:10518000000000000000000000000000000000001F
:1051900000000000C000C00080008000400040000F
:1051A00000000000000000000000000000200010CF
:1051B00000080004000600038001C0006000300009
:1051C00018000C00180030006000C00080010003CF
:1051D000000600040008001000200000000000008D
:1051E00000000000000000000000000000000000BF
:1051F000000000000000000000000000FE7F000032
:105200000000000000000000FE7F00000000000021
:10521000000000000000000000000000000000008E
:105220000000000000000000000000000400080072
:10523000100020006000C000800100030006000C88
:10524000001800300018000C000600038001C000A8
:1052500060002000100008000400000000000000B2
:10526000000000000000000000000000C00730182F
:10527000083008600C601C601C601C600030001C62
:105280000006000180008000800080000000000017
:105290008001C003C0038001000000000000000086
:1052A0000000000000000000000000000000C00737
:1052B0006018103018200C2F8C4D864CC64CC64CF4
:1052C000664C66446644662666266615CC1C0C4011
:1052D000082018303018C00700000000000000004F
:1052E0000000000000000000000000000001C001FC
:1052F000C001C001400160032003200320033006E9
:10530000100610061006F80F080C080C080C0C0C00
:105310000418041806181F7C00000000000000009C
:105320000000000000000000000000000000FE0778
:10533000181C183818301830183018301818180C75
:10534000F8071818183018201860186018601860CE
:10535000186018301818FE0F000000000000000050
:105360000000000000000000000000000000C02756
:105370006038103018200C400C4004000600060075
:105380000600060006000600060006000C400C4061
:105390000C2018303018C00700000000000000008A
:1053A0000000000000000000000000000000FE03FC
:1053B000180E181818301830183018601860186057
:1053C000186018601860186018601860183018307D
:1053D00018101818180EFE0300000000000000004E
:1053E0000000000000000000000000000000FE3F80
:1053F0001830182018601840180018081808180CE1
:10540000F80F180C18081808180018001800184091
:10541000184018201830FE3F000000000000000077
:105420000000000000000000000000000000FE7FFF
:105430001870184018C01880180018101810181884
:10544000F81F181818101810180018001800180065
:105450001800180018007E00000000000000000086
:105460000000000000000000000000000000C01369
:10547000701C101018100C200C20040006000600F0
:1054800006000600060006FC063006300C300C3024
:10549000183018303008C00700000000000000007D
:1054A00000000000000000000000000000003F7E3F
:1054B0000C180C180C180C180C180C180C180C18CC
:1054C0000C18FC1F0C180C180C180C180C180C18C5
:1054D0000C180C180C183F7E0000000000000000A3
:1054E0000000000000000000000000000000F81FA5
:1054F00080018001800180018001800180018001A4
:105500008001800180018001800180018001800193
:10551000800180018001F81F0000000000000000F1
:105520000000000000000000000000000000E07F1C
:10553000000600060006000600060006000600063B
:10554000000600060006000600060006000600062B
:10555000000600060006000600060E060E038E0179
:10556000FC000000000000000000000000007E7C45
:10557000181818081804180618021801980198013C
:10558000D801B803380318071806180E180C181C91
:105590001818183018307EFC0000000000000000D1
:1055A00000000000000000000000000000007E007D
:1055B000180018001800180018001800180018002B
:1055C00018001800180018001800180018001840DB
:1055D000184018201830FE3F0000000000000000B6
:1055E00000000000000000000000000000001FF8A4
:1055F0001C381C381C381C3C3434343434343436B5
:1056000074326432643264326431C431C431C431BE
:10561000C430C43084309FFC000000000000000053
:1056200000000000000000000000000000001F7CDF
:105630001C103C103410341074106410E410C410AA
:10564000C41184118413041304170416041E041CCB
:10565000041C041C04181F180000000000000000B7
:105660000000000000000000000000000000C00377
:10567000300C181808100C300C30066006600660FC
:105680000660066006600660066006600C200C304E
:1056900008101818300CC0030000000000000000C3
:1056A0000000000000000000000000000000FE0FED
:1056B00018181830186018601860186018601830D2
:1056C0001818F80F18001800180018001800180013
:1056D0001800180018007E00000000000000000004
:1056E0000000000000000000000000000000C003F7
:1056F000300C18180C100C300C2006600660066088
:10570000066006600660066006600660E4612C3391
:105710001C321816300EC007004C007C0038000008
:105720000000000000000000000000000000FE0774
:10573000181C183818301830183018301818180C71
:10574000F80798031803180718061806180E180CFF
:10575000180C181C18187E780000000000000000CB
:105760000000000000000000000000000000E02732
:10577000303818300C200C200C000C001800780079
:10578000E003800F001E00380070006004600460B9
:10579000086018303818C80F000000000000000032
:1057A0000000000000000000000000000000FC3FBE
:1057B0008C218461824182418001800180018001CD
:1057C00080018001800180018001800180018001D1
:1057D000800180018001E00700000000000000005F
:1057E00000000000000000000000000000003F7CFE
:1057F0000C100C100C100C100C100C100C100C10C9
:105800000C100C100C100C100C100C100C100C10B8
:105810000C1008083804E00300000000000000003D
:1058200000000000000000000000000000003EF842
:105830001820182018203010301030103010600858
:1058400060086008E00CC004C004C004800380034A
:105850008003800300010001000000000000000040
:105860000000000000000000000000000000DFF366
:105870008661862186218C210C218C238C138C132C
:105880008C134C1358125816580E380E380E380E0A
:10589000300C100410041004000000000000000090
:1058A00000000000000000000000000000007E3E3C
:1058B000180838083004300470026002E001C001AA
:1058C000C001800180034003400720062006100C21
:1058D000100C081808183E7C0000000000000000B2
:1058E00000000000000000000000000000007E7CBE
:1058F0001C10181018083008300C70046004600286
:10590000C002C002C00180018001800180018001CD
:10591000800180018001E00700000000000000001D
:105920000000000000000000000000000000F83F40
:1059300018180818040C040E000600070003800362
:105940008001C001C000E00060007000300038201D
:1059500018201C100C18FE1F0000000000000000A2
:105960000000000000000000C03F40004000400078
:105970004000400040004000400040004000400027
:105980004000400040004000400040004000400017
:10599000400040004000400040004000C03F000088
:1059A00000000000000000000000000008001800D7
:1059B0001800100030002000600060004000C000AF
:1059C0008000800180010001000300020006000643
:1059D0000004000C0008001800180010003000201F
:1059E0000000000000000000FC03000200020002B2
:1059F0000002000200020002000200020002000297
:105A00000002000200020002000200020002000286
:105A1000000200020002000200020002FC0300007B
:105A200000000000000000008007C00620081010E1
:105A30000000000000000000000000000000000066
:105A40000000000000000000000000000000000056
:105A50000000000000000000000000000000000046
:105A60000000000000000000000000000000000036
:105A70000000000000000000000000000000000026
:105A80000000000000000000000000000000000016
:105A90000000000000000000000000000000000006
:105AA000FFFF0000000000007800C00000010000BF
:105AB00000000000000000000000000000000000E6
:105AC00000000000000000000000000000000000D6
:105AD00000000000000000000000000000000000C6
